:0300000002CB2010
:0800F800FFFF4457494E543547
:10CB2000759401759502758E0075930075C87075C2
:10CB3000C96075F800787FE4F6D8FD75812602CBD0
:01CB40007C78
:0A431000C1324193FD034193FE000A
:10F029009093FEE0701C9093FDE0601614F0E07080
:10F0390011D21912E68DE49091E5F0A3F09093FEB8
:02F0490004F0D1
:01F04B0022A2
:10D37E00A230303201B35019A230923230300A123C
:10D38E00F0037F3C12E4958008D218D210D22ED230
:10D39E002A2030051229A4802812F271909364E09D
:10D3AE00FEA3E0FFC39470EE94175009EF2401FF23
:10D3BE00E43EFE80047E177F70909364EEF0A3EF40
:10D3CE00F0C3909365E09470909364E094174002DC
:10D3DE00C230302F07C22FE4FF12F3A030310CE41D
:0CD3EE00FBFA7D037F0B12DA3FC23122F4
:10DEF50012DAA812F4D912F3FC12F40C12F2FC1285
:10DF0500F54C12F3C612F53A12C45F12E86343C921
:10DF15000243C90112890EC390875EE0940A908777
:10DF25005DE094004007E4F0A3F0120100C3908780
:10DF350064E094E8908763E0940340D512F2E5E449
:0EDF4500908763F0A3F012F02912E79D80C3CD
:10E2BC005B444755535D20454E20544F2025780D27
:10E2CC000A001F1C1F1E1F1E1F1F1E1F1E1F5A0071
:10E2DC0000003F000100A50000003F0001004006C7
:10E2EC006666000000000000000000000000000056
:10E2FC000000000000000000000000000000000012
:02E30C0000000F
:10431A0062C8846A0000000000000000000000007B
:10432A000000000000000000000000000000000083
:10433A000000000000000000000000000001000270
:10434A000003000400050006000700080009000A2F
:10435A00000B000C000C000D000E000F00100010E6
:10436A0000110012001200130014001400150016A8
:10437A0000160017001800180019001A001A001B6E
:10438A00001B001C001D001D001E001E001F002037
:10439A000020002100210022002200230023002403
:1043AA0000250025002600270027002800280029CC
:1043BA000029002A002B002C002C002D002D002E95
:1043CA00002E002F002F0030003000310031003263
:1043DA00003300330034003400350035003600362F
:1043EA0000370038003800390039003A003A003BFB
:1043FA00003C003C003D003D003E003E003F0040C6
:10440A00004000410041004200430043004400458F
:10441A000045004600460047004800480049004A57
:10442A00004B004B004C004D004D004E004F005019
:10443A0000500051005200530054005400550056D9
:10444A00005700580059005A005A005B005B005C94
:10445A00005D005E005F006000610062006400654C
:10446A0000660067006800690000000000000000A4
:10447A000000000000000000000000000000000032
:10448A000000000000000000000000000000000022
:10449A000000000000000000000000000000000012
:1044AA000000000000000000000000000000000002
:1044BA0000000000000000000000000000000000F2
:1044CA0000000000000000000000000000000000E2
:1044DA0000000000000000000000000000000000D2
:1044EA0000000000000000000000000000000000C2
:1044FA0000000000000000000000000000000000B2
:10450A0000000000000000000000000000000000A1
:10451A000000000000000000000000000000000091
:10452A000000000000000000000000000000000081
:10453A000000000000000000000000000000000071
:10454A000000000000000000000000000000000061
:10455A000000000000000000000000000000000051
:10456A000000000000000000000000000000000041
:10457A000000000000000000000000000000000031
:10458A000000000000000000000000000000000021
:10459A000000000000000000000000000000000011
:1045AA000000000000000000000000000000000001
:1045BA0000000000000000000000000000000000F1
:1045CA0000000000000000000000000000000000E1
:1045DA0000000000000000000000000048873200D0
:1045EA0000000000000000020D0000428761000088
:1045FA0042875B00004487515A01003C42875D00B4
:10460A000042876300004287650000428769000014
:10461A00428767000042874F0000428755000054D6
:10462A00873A0000000000000000000000000000BF
:10463A000000000000004487570000000042875F26
:06464A00000041874E0054
:10E5BE009093DAEEF0A3EFF0A3ECF0A3EDF030FEC3
:10E5CE00329093DC74FFF5F0123EF945F0701F7B2C
:10E5DE00FF7AE279BC9093DAE0FFA3E0908C74CFDF
:10E5EE00F0A3EFF0125A1FE4F5F8D2AFC32243C9DD
:05E5FE000180CBD322D7
:06C39A007E3F7D007C00E7
:06C3A000908C4E12417A60
:10C3A600E4FFEFC39410748094805013EF25E024CB
:10C3B60058F582E4348CF583E4F0A3F00F80E3E4CF
:10C3C600FFEFC3941074809480500F74782FF58219
:10C3D600E4348CF583E4F00F80E77B017A8C79787E
:10C3E600908C57E02401FF908C56E03400C313FE76
:10C3F600EF13FF908DCAEEF0A3EFF0908C52E0FCA5
:10C40600A3E0FDA3E0FEA3E0FF128738E4FFEFFD03
:10C41600D3908C57E09D908C56E09400401B747826
:10C426002FF582E4348CF583E0FE74582FF582E410
:10C43600348CF583EEF00F80D5908C4EE0FCA3E0B3
:10C44600FDA3E0FEA3E0FF7B017A8C7958908DEC8A
:09C45600E4F0A37410F00292A7B7
:06C931007E3F7D007C004A
:06C93700908C2A12417AE7
:10C93D00E4FFEFC3941074809480500F74542FF55E
:10C94D0082E4348CF583E4F00F80E7908C2AE0FCD0
:10C95D00A3E0FDA3E0FEA3E0FF7B017A8C79349088
:10C96D008DCAE4F0A37410F0128738E4FFEFFDD305
:10C97D00908C33E09D908C32E09400401B74342FEA
:10C98D00F582E4348CF583E0FE74542FF582E434A3
:10C99D008CF583EEF00F80D57B017A8C7954908CD9
:10C9AD0033E02401FF908C32E03400C313FEEF130B
:10C9BD00FF908DECEEF0A3EFF0908C2EE0FCA3E059
:0AC9CD00FDA3E0FEA3E0FF0292A725
:10DAA800C2AFC2D3C2D475F901E4F5A8F5B8F59AA6
:10DAB800F5A9F5B953C9FDF580F590F5A0F5B07550
:10DAC800B710F5BCF5BDF5BE75D88075985075BA18
:10DAD8000375AAE4759680759780F5D975E7E075A2
:10DAE800A78075AB80F5AE75AFE0758911F58CF53B
:10DAF8008AC28CF58DF58BC28E75C870F5CDF5CCC4
:07DB080075CBBC75CACD22EC
:0AF4D90043B70243BC1F43BD0222EB
:08ABBA007DFF7C007F017E3F5E
:0EABC200908C4EEEF0A3EFF0A3ECF0A3EDF0BC
:10ABD000E4908C56F0A3F078587C8C7D017BFF7A52
:10ABE000E279EEFE7F20123D73908C50E0C4F85461
:10ABF000F0C8A3E0C4540F48908C54F0E4908C52F9
:10AC0000F0908C54E0FF908C52E0FEC39F5067EEB2
:10AC100075F010A4FF908C4FE02FFF908C4EE03524
:10AC2000F0FEE4FCFD7B017A8C7958908DCAF0A38C
:10AC30007410F0128738E4908C53F0908C53E0FF3E
:10AC4000C39410748094805025EF25E02458F58239
:10AC5000E4348CF583E0FEA3E0FF908C57E02FF006
:10AC6000908C56E03EF0908C53E004F080CD908CB8
:10AC700052E004F0808B908C51E0540F908C55F092
:10AC8000908C54E075F010A4FF908C4FE02FFF9053
:10AC90008C4EE035F0FEE4FCFDC0077B017A8C7938
:10ACA00058908C55E0FF908DCAE4F0A3EFF0D007E8
:10ACB000128738E4908C53F0908C55E0FF908C53C1
:10ACC000E0FEC39F5025EE25E02458F582E4348C45
:10ACD000F583E0FEA3E0FF908C57E02FF0908C56B8
:10ACE000E03EF0908C53E004F080CD908C57E0046F
:10ACF000F07006908C56E004F0908C56E0FEA3E0D5
:01AD0000FF53
:01AD0100222F
:10E86300E4908C22F0A3F012E9217F027E0012F4DF
:10E87300507B017A8C7922908DCAE4F0A304F07F57
:10E88300007E3F7D007C0012873812ABBA908C2249
:0FE89300E06E7003A3E06F6003029F42128B06DA
:01E8A2002253
:10E921007BFF7AE279DA908DECE4F0A37404F07F56
:10E93100087E007D007C001292A712F44C7B017AC4
:10E94100877932908DCAE4F0A37404F07F087E00C9
:0EE951007D007C00128738908732E070DD2256
:10E95F007BFF7AE279E2908DECE4F0A37404F07F10
:10E96F00087E007D007C001292A712F44C7B017A86
:10E97F00877932908DCAE4F0A37404F07F087E008B
:0EE98F007D007C00128738908732E070DD2218
:10E3AF00E49093FFF0A3F090874EE064017020D3C8
:10E3BF00908756E09410908755E09427401112A44F
:10E3CF00E912E95FE490874EF0908755F0A3F09043
:10E3DF008755E0FEA3E0FFE4FCFD7B607AEAF9F8E5
:0DE3EF00C31240F35007E4908755F0A3F0EF
:01E3FC0022FE
:10E8A300E4908C67F0A3F07B017A8C7967908DCA32
:10E8B300F0A304F07F087E357D007C00128738903A
:10E8C3008C67E07004A3E06401700890874E04F045
:0EE8D300E48005E490874EF0908755F0A3F0A6
:01E8E1002214
:10F0D300908C33EFF0E4A3F07B017A8C7933908D3D
:10F0E300ECF0A304F07F827E007D007C000292A7F7
:10A4E900908C4C743FF0A3E4F0908C4AF0A3F07B7D
:10A4F900017A8C794A908DCAF0A304F07F087E35E1
:10A509007D007C0012873812928A7B017A8C794A05
:10A51900908DCAE4F0A304F0FF7E207D007C001238
:10A52900873812928A7B017A8C794A908DCAE4F035
:10A53900A304F07F027E207D007C001287381292EE
:10A549008A7B017A8C794A908DCAE4F0A304F07F62
:10A55900037E207D007C0012873812928A7B017A63
:10A569008C794A908DCAE4F0A304F07F057E207DA2
:10A57900007C0012873812928A7B017A8C794A9082
:10A589008DCAE4F0A304F07F067E207D007C0012D2
:10A59900873812928A7B017A8C794A908DCAE4F0C5
:10A5A900A304F07F1E7E207D007C00128738129262
:10A5B9008A9091CEE0FFA3E0908C4ACFF0A3EFF010
:10A5C900A312928D908C5212418600004820908CE3
:10A5D90056E4F0A37409F0FF12C39A908C52124109
:10A5E9008600004830908C56E4F0A3740AF07F1975
:10A5F90012C39A908C4C743FF0A37428F0A22CE4F7
:10A60900FF33908C4ACFF0A3EFF0A312928D908C78
:10A619004CE475F001123EE3AFF0FEE4FCFD12C715
:10A62900DF12ABBA908C4AEEF0A3EFF07B017A8C83
:10A63900794A908DECE4F0A304F07F007E3F7D0021
:05A649007C000292A755
:108B0600E4908C24F0A3F0A3F0A3F0A3743FF0A3A9
:108B1600E412871B7B017A8C7924908DECE4F0A318
:108B260004F07F087E357D007C001292A71287151F
:108B36007B017A8C7924908DECE4F0A304F0FF7E1F
:108B4600207D007C001292A7908C24E0FEA3E0FF1B
:108B560012BA0F1287157B017A8C7924908DECE47A
:108B6600F0A304F07F027E207D007C001292A7E431
:108B7600908C26F0A3F0A375F001123EE37A8C796F
:108B8600261287297B017A8C7926908DECE4F0A356
:108B960004F07F037E207D007C001292A7128715C9
:108BA6007B017A8C7924908DECE4F0A304F07F05A8
:108BB6007E207D007C001292A71287157B017A8C9D
:108BC6007924908DECE4F0A304F07F067E207D00EE
:108BD6007C001292A7128715908C24E0FEA3E0FF7A
:108BE600D39464EE94005009C3EF9401EE940050C0
:108BF60009908C24E4F0A37464F07B017A8C7924C8
:108C0600908DECE4F0A304F07F1E7E207D007C00B6
:108C16001292A7908C24A3E0FF12F0D3128715902E
:108C26008C24E0FEA3E0FF64174E6006EF64C24E9C
:108C360070249091CEEEF0A3EFF012EE177B017A3E
:108C46009179CE908DECE4F0A304F07F187E207D20
:108C5600007C001292A7908C2E12418600004820BC
:108C6600908C32E4F0A37409F0FF12C931908C287D
:108C7600743FF0A37418F0908C2E124186000048C1
:108C860030908C32E4F0A3740AF07F1912C9319047
:108C96008C28743FF0A37428F0908C28E412871F68
:108CA600908C24E07002A3E0600A908C24E4F0A388
:108CB60004F08007E4908C24F0A3F0908C2412E05A
:108CC600657B017A8C7924908DECE4F0A304F07F27
:108CD600387E207D007C001292A7908C28E475F0E7
:108CE60001123EE3AFF0FEE4FCFD1275BA02E35F4B
:109F4200908C24E4F0A304F0FB7A8C7924908DECBD
:109F5200E4F0A304F07F087E357D007C001292A716
:109F6200908C24E4F0A304F0FB7A8C7924908DEC9D
:109F7200E4F0A304F0FF7E207D007C001292A79003
:109F82008C24E4F0A37402F07B017A8C7924908D06
:109F9200ECE4F0A304F07F027E207D007C001292AC
:109FA200A7E4908C24F0A3F07B017A8C7924908D25
:109FB200ECF0A304F07F037E207D007C001292A7C8
:109FC200908C24E4F0A3741AF07B017A8C792490AB
:109FD2008DECE4F0A304F07F057E207D007C00126E
:109FE20092A7908C24E4F0A37456F07B017A8C79CA
:109FF20024908DECE4F0A304F07F067E207D007CAB
:10A00200001292A712EE177B017A9179CE908DEC15
:10A01200E4F0A304F07F187E207D007C001292A75A
:10A02200908C24E4F0A37464F0908C24A3E0FF12DB
:10A03200F0D37B017A8C7924908DECE4F0A304F0C8
:10A042007F1E7E207D007C001292A7E4908C24F07B
:10A05200A3F0908C2412E0657B017A8C7924908D98
:10A06200ECE4F0A304F07F387E207D007C001292A5
:10A07200A7E4FFEFC3946474809480502DE4FEEE55
:10A08200C3940574809480501E75F005EFA42425B6
:10A09200F582E5F0348AF583E5822EF582E4358394
:0CA0A200F583E4F00E80D80F80C9D210C6
:01A0AE00228F
:10F3FC00438901758CBC758ACDD2A9D2AFD28C222F
:10F40C00438901758DBC758BCDD2ABD2AFD28E2218
:10F2FC0075C870E4F5CDF5CC75CBBC75CACD43A8FB
:06F30C0020D2C8D2AF229E
:10871500E4908C24F0A3F0908C2875F001123EE3D0
:108725007A8C7924AFF0FEE4FCFD7B01908DCAF0D4
:03873500A304F0AA
:10873800908DC312417A908DC7EBF0A3EAF0A3E9BC
:01874800F040
:10874900E4908DCCF0A3F0A3F0A3F0A3F0A3F0A3E1
:10875900F0A3F0908DCAE07002A3E0700302890DC6
:10876900908DC3E0F8A3E0F9A3E0FAA3E0FBC3E42A
:108779009BFFE49AFE740199FDE498FC908DD41254
:10878900417A908DCAE0FEA3E0FFE4FCFD908DD410
:10879900E0F8A3E0F9A3E0FAA3E0FBC31241095012
:1087A90011908DD4A3A3E0FFA3E0908DCACFF0A3CD
:1087B900EFF0908DC3E0FCA3E0FDA3E0FEA3E0FF92
:1087C900780112411A908DCCEEF0A3EFF0908DC391
:1087D900A3A3A3E05401FEE4908DCEF0A3CEF0E470
:1087E900F5F1908DCCE0FCA3E0FDECF5F28DF3758D
:1087F900F40175F8AF30FCFD908DCEE07002A3E076
:10880900603DD2FE20FEFD908DC7E0FBA3E475F02C
:1088190001123EF9A9F0FAE5FC123E12908DC7E06B
:10882900FBA3E475F001123EF9A9F0FAE5FD123E49
:1088390012908DCBE024FFF0908DCAE034FFF090C8
:108849008DCAE0FCA3E0FDECC313FFED13908DD0BE
:10885900CFF0A3EFF0ED5401FFA3E4F0A3EFF09004
:108869008DD074FFF5F0123EF945F0605BD2FE2021
:10887900FEFD908DC7E0FBA3E475F001123EF9A956
:10888900F0FAE5FA123E12908DC7E0FBA3E475F009
:1088990001123EF9A9F0FAE5FB123E12908DC7E0EC
:1088A900FBA3E475F001123EF9A9F0FAE5FC123ECA
:1088B90012908DC7E0FBA3E475F001123EF9A9F00F
:1088C900FAE5FD123E128097908DD2E07002A3E086
:1088D900602FD2FE20FEFD908DC7E0FBA3E475F06A
:1088E90001123EF9A9F0FAE5FA123E12908DC7E09D
:1088F900FBA3E475F001123EF9A9F0FAE5FB123E7B
:0489090012E4F5F887
:01890D002247
:10928A00908C4CE475F001123EE3AFF0FEE4FCFD75
:0D929A007B017A8C794A908DECF0A304F0F2
:1092A700908DE512417A908DE9EBF0A3EAF0A3E9FE
:0192B700F0C6
:1092B800E4FBFA908DEEF0A3F0A3F0A3F0A3F0A3E3
:1092C800F0908DECE07002A3E07003029447908D5B
:1092D800E5A3A3E0FEA3E0FFC3E49FFFE49EFED363
:1092E800908DEDE09F908DECE09E4005EEF0A3EFB1
:1092F800F0908DE5E0FCA3E0FDA3E0FEA3E0FF789D
:109308000112411AAA06AB07908DE5A3A3A3E05466
:1093180001FEE4908DEEF0A3CEF0E4F5F1EAF5F26B
:10932800AF038FF375F40175F88330FCFD908DEE73
:10933800E07002A3E0603D908DE9E0FBA3E475F0E6
:1093480001123EF9A9F0FA123D99F5FC908DE9E079
:10935800FBA3E475F001123EF9A9F0FA123D99F564
:10936800FDD2FE20FEFD908DEDE024FFF0908DEC07
:10937800E034FFF0908DECE0FCA3E0FDECC313FFBC
:10938800ED13908DF0CFF0A3EFF0ED5401FFA3E4BF
:10939800F0A3EFF075F88F908DF074FFF5F0123EA2
:1093A800F945F0605B908DE9E0FBA3E475F00112EC
:1093B8003EF9A9F0FA123D99F5FA908DE9E0FBA380
:1093C800E475F001123EF9A9F0FA123D99F5FB9007
:1093D8008DE9E0FBA3E475F001123EF9A9F0FA1259
:1093E8003D99F5FC908DE9E0FBA3E475F001123E90
:1093F800F9A9F0FA123D99F5FDD2FE30FE9980FBED
:10940800908DF2E07002A3E0603275F88C908DE9DF
:10941800E0FBA3E475F001123EF9A9F0FA123D99B8
:10942800F5FA908DE9E0FBA3E475F001123EF9A985
:0F943800F0FA123D99F5FBD2FE20FEFDE4F5F8A7
:019447002202
:03000B0002B5F546
:10B5F500C0E0C0F0C083C082C0D075D000C000C01C
:10B6050001C002C003C004C005C006C007C2AF75B3
:10B615008CBC758ACD908756E004F07006908755EE
:10B62500E004F0908762E004F07006908761E00422
:10B63500F090876AE004F07006908769E004F09066
:10B64500875EE004F0700690875DE004F090876403
:10B65500E004F07006908763E004F0908766E004EC
:10B66500F07006908765E004F0908768E004F0705C
:10B6750006908767E004F03029259091D2E0FEA37B
:10B68500E0FFE4FCFD7BFF7AFFF9F8D31240F340BD
:10B695000E9091D3E004F070069091D2E004F09002
:10B6A500874FE0FEA3E0FFE4FCFD7BFF7AFFF9F89E
:10B6B500D31240F3400E908750E004F07006908757
:10B6C5004FE004F0C39091E6E094209091E5E0947A
:10B6D5004E500CA3E004F070069091E5E004F0D222
:10B6E500AFD007D006D005D004D003D002D001D00A
:0CB6F50000D0D0D082D083D0F0D0E03262
:03001B0002E116E9
:10E11600C0E0C0F0C083C082C0D075D000C000C0CF
:10E1260004C005C006C007C2AF758DBC758BCD9007
:10E13600928AE0FCA3E0FDA3E0FEA3E02401FFE455
:10E146003EFEE43DFDE43CFC90928A12417AD2AF59
:10E15600D007D006D005D004D000D0D0D082D0834E
:05E16600D0F0D0E03212
:04F44C007F057E00BA
:0BF450008E0D8F0EE50E450D70FA22A8
:03002B0002F36776
:10F36700C0E0C2AFC2C6E50E150E7002150DD2AFD2
:03F37700D0E032B1
:10F0F300E4FDFCC3ED9FEC9E5015E4FBFA0BBB0053
:0FF10300010AEB640F4A70F50DBD00010C80E4AA
:01F1120022DA
:10F11300E4FDFCC3ED9FEC9E5015E4FBFA0BBB0032
:0FF12300010ABA1CF8BBE8F50DBD00010C80E431
:01F1320022BA
:10E49500908751745AF0A37401F0E4A3F0A3EFF050
:10E4A5007B017A877951908DECE4F0A37402F07FBB
:10E4B500847E007D007C001292A712F44C7B017AC9
:10E4C500877951908DCAE4F0A304F07F847D007CA8
:0BE4D50000128738908751E070E022B1
:06EE17009091CEA3E0FF84
:10EE1D00908C33745AF0E4A3F0A3F0A3EFF07B01D0
:10EE2D007A8C7933908DECE4F0A37402F07FDE7E62
:08EE3D00007D007C000292A799
:10E06500E0FEA3E0FFEE4F24FF922CA22CB3921901
:10E075007B017A8C7933908DCAE4F0A37402F07F2A
:10E08500807E007D007C00128738908C36E0301948
:10E09500054404F0800354FBF0908C33745AF07BF4
:10E0A500017A8C7933908DECE4F0A37402F07F80D3
:09E0B5007E007D007C000292A7B0
:10E16B005B574946495D2072657365742072657112
:10E17B000D0A005B574946495D2073746174653D18
:10E18B002562750D0A005B574946495D2072657320
:10E19B006574206F6B0D0A005B574946495D207211
:10E1AB00657365742074696D656F75740D0A000075
:05E1BB0000000000005F
:104650004291BF00004491AC000000004291D7009D
:10466000004291E300004291D200004891B6011E41
:104670000506070A0B0CC12D4291CE00174291D5B9
:104680000000C12BC12AC12C4291E500004191D408
:10469000004491E7000000004291B100004291DD2A
:1046A00000004191B0004291D00002419195FF423B
:1046B0009196FFFF429198FFFF42919AFFFF42912E
:1046C0009CFFFF41919EFF41919FFF4191A00041BE
:0346D00091A100B5
:10DD0B00908C5DEFF0C3940174809480400AD3EF44
:10DD1B009403748094804006E4FFFEFDFC22ED909A
:10DD2B008C5D601BE024FFFFE434FFFE3395E0FDC8
:10DD3B00FCE47B02FAF9F8123FC8EF24188019E0D3
:10DD4B0024FFFFE434FFFE3395E0FDFCE47B02FA95
:10DD5B00F9F8123FC8EF2408FFEE3448FEE43DFD0E
:04DD6B00E43CFC2276
:10B4E7007B017A8C7933908DCAE4F0A304F07F0254
:10B4F7007E207D007C00128738908C33A3E0FFE428
:10B50700FD12ED5E908C37EEF0A3EFF0908C33A335
:10B51700E0FF7D0112ED5E908C39EEF0A3EFF09025
:10B527008C39E07002A3E07018908C37E0FEA3E03E
:10B53700FF4E600D7D4612C2DD908C39EEF0A3EF11
:10B54700F0908C37E07002A3E07018908C39E0FE21
:10B55700A3E0FF4E600D7D4312C2DD908C37EEF005
:10B56700A3EFF07B017A8C7937908DECE4F0A3049C
:10B57700F07F257E207D007C001292A77B017A8CCC
:10B587007939908DECE4F0A304F07F267E207D00CE
:10B597007C001292A77B017A8C7935908DCAE4F0F2
:10B5A700A304F07F037E207D007C00128738908CF7
:10B5B70035E07002A3E070177F0812E4957B017AEB
:10B5C7008C7937908DECE4F0A304F07F0580157F2C
:10B5D7002B12E4957B017A8C7939908DECE4F0A3FA
:0DB5E70004F07F067E207D007C001292A7FC
:01B5F4002234
:109C5D009091BFE07002A3E07003029DD27B017A68
:109C6D00937909908DCAE4F0A304F07F1B7E207DCB
:109C7D00007C00128738909309E07002A3E0700712
:109C8D009091BFF0A3F0227B017A93790B908DCA4E
:109C9D00E4F0A304F07F707E367D007C00128738DF
:109CAD0090930BE07002A3E070187B017A93790B0F
:109CBD00908DCAF0A304F07F127E107D007C0012FF
:109CCD008738D390930CE0940090930BE094004070
:109CDD0064E4FFFEFDFC9091ACE0F8A3E0F9A3E095
:109CED00FAA3E0FBD3124109404B1296069091ACBA
:109CFD00E0F8A3E0F9A3E0FAA3E0FBC3EF9BFFEECE
:109D0D009AFEED99FDEC98FCC004C005C006C00795
:109D1D0090930BE0FEA3E0FF7C007D3C124236A841
:109D2D0004A905AA06AB07D007D006D005D004D3E9
:109D3D0012410940577B017A93790D908DCAE4F059
:109D4D00A37402F07F067E107D007C001287387BA5
:109D5D00017A937911908DCAE4F0A37402F07F1407
:109D6D007E107D007C00128738909311E0FCA3E0FB
:109D7D00FDA3E0FEA3E0FF90930DE0F8A3E0F9A3AF
:0C9D8D00E0FAA3E0FB1238C1603B403953
:109D9900E4909315F0A3F09091BFF0A3F09091ACEB
:109DA900124186000000007B017A937915908DECB1
:109DB900E4F0A304F07F1B7E207D007C001292A7B3
:099DC900E4FD7F0712E759D210F6
:019DD200226E
:06ED5800908C29A3E0FDF0
:10ED5E00E4908C55F0A3F012DD0BEC4D4E4F60118C
:10ED6E007B017A8C7955908DCAE4F0A304F012875A
:09ED7E0038908C55E0FEA3E0FF83
:01ED87002269
:0DED8800A3E0908C29FFE0FAA3E0FBE4FD7E
:08ED9500908C5BEAF0A3EBF0A7
:10ED9D0012DD0BEC4D4E4F60117B017A8C795B903F
:0AEDAD008DECE4F0A304F01292A72D
:01EDB7002239
:05E60300908C33EFF0E4
:10E60800A3E0FCA3E0FDA3E0FEA3E0FF12397890AD
:10E618008C3AEEF0A3EFF07D4612C2DD908C38EE16
:10E62800F0A3EFF0908C33E0908C3A12ED8D908C43
:10E6380033E0FF908C38E0FAA3E0FB7D0102ED9512
:06DF53007E487D007C0009
:10DF59007B017A8C7959908DCAE4F0A37402F0128E
:10DF69008738908C59E0FCA3E0FDA3E0FEA3E0FF15
:10DF79001239787D4612C2DDAC06AD07EC12393F85
:10DF8900908C5D12417A908C55E0FCA3E0FDA3E0F2
:10DF9900FEA3E0FF7B017A8C795D908DECE4F0A320
:06DFA9007402F00292A7D1
:0DDB0F00908C52ECF0A3EDF0908C51EFF0F3
:10DB1C00C3940674809480504FA3E0FEA3E0FF7D75
:10DB2C004612C2DD908C54EEF0A3EFF0908C51E0D5
:10DB3C002420FFE43410FEE4FCFD7B017A8C795246
:10DB4C00908DECF0A304F01292A7908C51E024700D
:10DB5C00FFE43410FEE4FCFD7B017A8C7954908D4B
:08DB6C00ECF0A304F01292A7F3
:01DB7400228E
:0DD5DB00908C52ECF0A3EDF0908C51EFF02D
:10D5E800C3940674809480505DA3E0FEA3E0FF7DA1
:10D5F8004612C2DD908C54EEF0A3EFF0908C51E00F
:10D6080025E0FFE433FEEF2430FFEE3410FEE4FCA7
:10D61800FD7B017A8C7952908DECF0A304F0129284
:10D62800A7908C51E025E0FFE433FEEF2440FFEEA5
:10D638003410FEE4FCFD7B017A8C7954908DECF07B
:06D64800A304F01292A7FA
:01D64E0022B9
:06DE96007E487D007C00C7
:06DE9C00908C5112417A46
:10DEA200908C59E0FEA3E0FF7D4612C2DD908C5BB0
:10DEB200EEF0A3EFF0908C51E0FCA3E0FDA3E0FEB6
:10DEC200A3E0FF7B017A8C7959908DECE4F0A304F6
:10DED200F01292A7908C55E0FCA3E0FDA3E0FEA314
:10DEE200E0FF7B017A8C795B908DECE4F0A304F087
:03DEF2000292A7F2
:06D17B007E487D007C00EF
:06D1810090931712417AA1
:10D187007B017A93791F908DCAE4F0A304F07F03A3
:10D197007E207D007C0012873890931FE07002A3E9
:10D1A700E0602C90931BE0FCA3E0FDA3E0FEA3E06E
:10D1B700FF7B017A937923908DCAE4F0A304F012E0
:10D1C7008738909323E0FEA3E0FF7D4302C2DD9002
:10D1D7009317E0FCA3E0FDA3E0FEA3E0FF7B017A49
:10D1E700937921908DCAE4F0A304F01287389093C5
:06D1F70021E0FEA3E0FFB1
:01D1FD00220F
:0BBBFB00908C33EFF0A3ECF0A3EDF012
:10BC06007B017A8C7936908DCAE4F0A304F07F0329
:10BC16007E207D007C00128738908C33E0FF908C6C
:10BC260036A3E0FD12DD0B908C3A12417A908C3AE5
:10BC3600E0FCA3E0FDA3E0FEA3E0FFEC4D4E4F7059
:10BC46000302BCE87B017A8C7938908DCAE4F0A3B4
:10BC560004F0128738908C38E0FEA3E0FF908C3514
:10BC6600E02FFF908C34E03E908C38F0A3EFF0A3E9
:10BC7600E0FCA3E0FDA3E0FEA3E0FF7B017A8C7964
:10BC860038908DECE4F0A304F01292A7908C3AA3BE
:10BC9600A3E0FEA3E0FF908C36E07002A3E0600410
:10BCA6007D4680027D431268F9908C3AE0FCA3E061
:10BCB600FDA3E0FEA3E0FF7B017A8C7938908DCA64
:10BCC600E4F0A304F0128738908C36E07002A3E00B
:10BCD600908C38600512C2D68005E0FEA3E0FF1204
:02BCE600CC6030
:01BCE8002239
:10BA0F00EFD394047480948040027F04EF14601C81
:10BA1F0014602B14603A24037047908C64E4F0A3F5
:10BA2F007432F0A3E4F0A37442F08045908C64E488
:10BA3F00F0A37446F0A3E4F0A37456F08033908C17
:10BA4F0064E4F0A37414F0A3E4F0A37424F0802151
:10BA5F00908C64E4F0A304F0A3E4F0A37411F080DD
:10BA6F0010908C64E4F0A37428F0A3E4F0A3743175
:10BA7F00F07B017A8C7966908DECE4F0A304F07F73
:10BA8F00067E807D007C001292A77B017A8C796400
:10BA9F00908DECE4F0A304F07F077E807D007C00A6
:10BAAF001292A77B017A8C7966908DECE4F0A30457
:10BABF00F07F087E807D007C001292A7908C68E456
:10BACF00F0A304F0FB7A8C7968908DECE4F0A3047A
:10BADF00F07F607E407D007C001292A7E4908C681E
:10BAEF00F0A3F07B017A8C7968908DECF0A304F0D1
:0BBAFF007F607E407D007C000292A76B
:10DC410078337C8C7D017BFF7AE179BA7E007F0499
:10DC5100123D737B017A9179E7908DCAE4F0A37448
:10DC610002F07F007E0F7D007C001287389091E7E3
:10DC7100E0645A702DA3E0FEA3E0FDEDFF9091B1A9
:10DC8100EEF0A3EFF07B017A8C7933908DECE4F028
:10DC9100A37402F07F007E0F7D007C001292A77FAB
:04DCA10001227F00DD
:01DCA500225C
:10F04C007B017A8C794A908DCAE4F0A304F07F148A
:10F05C007E007D007C00128738908C4AE0FEA3E095
:01F06C00FFA4
:01F06D002280
:100100007B017A8C7922908DCAE4F0A304F07F10F1
:100110007E207D007C0012873812DC41EF3395E0B1
:10012000FE9091DDF0A3EFF04E7003021A69E490A7
:1001300091E5F0A3F09091B1E0FEA3E08EF01242C1
:100140000902C8100102FF10020338100316A110A3
:1001500014081F1016110410181190101916A11070
:100160001A16FD102016FD102116FD102216FD1086
:100170002316FD102416FD1025171D1070171D10D5
:1001800071171D1072171D1073171D1074171D1095
:100190007511091100113611011163110218911224
:1001A0000002C5200003B1200103B4200204DF20B7
:1001B00003057720110A3A201209D520130E452095
:1001C000150E4B2016102D20171038201810672000
:1001D0001B141E201D107D201E034A202010042009
:1001E0002116FD202516FD2026144B203016432015
:1001F00035165120361786203718562038094530D5
:100200005008243060188C3070188C3072188C3084
:1002100073188C3074188C307509393083093F306D
:1002200084160C30900364322410BB350816A136B6
:100230006016A1367016A1368014E5400616AF4050
:100240001016AF401116AF401216AF401316AF4054
:100250001416AF401504EA402116CB470016CB47D1
:100260000116CB470216CB470316CB470416CB47E4
:100270000516E1471016E1471116E1471216E1474E
:100280001316E1471416E1471518514820179C48EA
:1002900021179C482417EA4825179C4826184548EA
:1002A0002717A2483017F748320D2548500D5148FE
:1002B000510D8248520DB348530DE248540E114877
:1002C00055000018BD020354908C22E07002A3E098
:1002D00060030218BD7B017A8C7924908DCAF0A34B
:1002E00004F07F037E207D007C00128738908C24F0
:1002F000E07002A3E070030216077F230218BA9091
:100300008C22E07002A3E060030218BD7B017A8CAE
:100310007924908DCAF0A304F07F037E207D007CB9
:1003200000128738908C24E07002A3E070057F05EE
:100330000218BA7F2A0218BA908C22E07002A3E059
:1003400060030218BD7F040218BA9091D4E0FF1236
:10035000EFDD5008D21912E68D0218BD9091D4E05D
:10036000FF0218BA7B017A8C7924908DCAE4F0A33D
:1003700004F07F247E327D007C00128738908C242C
:10038000E0FEA3E0FF64014E6009EF64024E6003EB
:100390000218BD12ECC1E4908C24F0A3F07B017A2A
:1003A0008C7924908DECF0A304F07F247E32021629
:0403B0009702057239
:1003B400D2107B017A8C7924908DCAE4F0A304F0E6
:1003C4007F027E207D007C00128738908C24E0FE22
:1003D400A3E0FFD39403EE940040030218BDEF4E54
:1003E400908C2D700EF0A3F07B017A8C792D908D7A
:1003F400EC800EE4F0A304F0FB7A8C792D908DEC64
:10040400E4F0A304F07F217E407D007C001292A7DB
:100414007B017A8C7929908DCAE4F0A304F07F03E0
:100424007E207D007C00128738908C24E07004A329
:10043400E06401702E7F0112ED58908C2BEEF0A336
:10044400EFF04E700EFD7F0112ED5E908C2BEEF0FE
:10045400A3EFF0908C2BE0FEA3E0FF4E7003021894
:10046400878072908C24E07004A3E06402702B7F78
:100474000212ED58908C2BEEF0A3EFF04E700EFDAF
:100484007F0212ED5E908C2BEEF0A3EFF0908C2B9C
:10049400E0FEA3E0FF4E604B803B908C24E07004B0
:1004A400A3E06403703D908C29A3E0FD7F0312ED6B
:1004B4005E908C2BEEF0A3EFF04E700EFD7F0312D6
:1004C400ED5E908C2BEEF0A3EFF0908C2BE0FEA36E
:0804D400E0FF4E600E12CC6047
:0E04DC0002188712EBEBD21912E68D02188778
:1004EA007B017A8C7924908DCAE4F0A304F07F21F1
:1004FA007E407D007C00128738D3908C25E09401E1
:10050A00908C24E0940040030218BD7B017A8C7918
:10051A0029908DCAE4F0A304F07F027E207D007C3E
:10052A0000128738908C24E07002A3E07011908C3E
:10053A0029F0A3F07B017A8C7929908DEC801A90AE
:10054A008C29E07002A3E0701F908C29F0A304F0BC
:10055A00FB7A8C7929908DECE4F0A304F07F027E7B
:0A056A00207D007C001292A7D21041
:100574000218877F0712E4957B017A8C7924908D89
:10058400CAE4F0A304F07F117E207D007C00128772
:1005940038908C24E07004A3E0640170657B017AD8
:1005A4008C7924908DCAF0A304F07F007E477D00EF
:1005B4007C001287387B017A8C7924908DECE4F0EE
:1005C400A304F07F007E307D007C001292A7E490AB
:1005D4008C24F0A3F07B017A8C7924908DCAF0A34B
:1005E40004F07F107E477D007C001287387B017AFF
:1005F4008C7924908DECE4F0A304F07F057E300226
:100604001697908C24E07004A3E06402705E7B0172
:100614007A8C7924908DCAF0A304F0FF7E477D0084
:100624007C001287387B017A8C7924908DECE4F07D
:10063400A304F07F007E307D007C001292A77B0132
:100644007A8C7924908DCAE4F0A304F07F117E475C
:100654007D007C001287387B017A8C7924908DECA4
:10066400E4F0A304F07F057E30021697908C24E01A
:100674007004A3E06403705F7B017A8C7924908D0D
:10068400CAF0A304F07F027E477D007C0012873805
:100694007B017A8C7924908DECE4F0A304F07F0044
:1006A4007E307D007C001292A77B017A8C792490A5
:1006B4008DCAE4F0A304F07F127E477D007C001213
:1006C40087387B017A8C7924908DECE4F0A304F0D4
:1006D4007F057E30021697908C24E07004A3E064BA
:1006E40004705F7B017A8C7924908DCAF0A304F0A6
:1006F4007F037E477D007C001287387B017A8C79EA
:1007040024908DECE4F0A304F07F007E307D007C27
:10071400001292A77B017A8C7924908DCAE4F0A30D
:1007240004F07F137E477D007C001287387B017ABA
:100734008C7924908DECE4F0A304F07F057E3002E4
:100744001697908C24E07004A3E06405705F7B012D
:100754007A8C7924908DCAF0A304F07F047E477DBF
:10076400007C001287387B017A8C7924908DECE42C
:10077400F0A304F07F007E307D007C001292A77B02
:10078400017A8C7924908DCAE4F0A304F07F147E5E
:10079400477D007C001287387B017A8C7924908D08
:1007A400ECE4F0A304F07F057E30021697908C24CD
:1007B400E07004A3E0640660030218BD7B017A8C38
:1007C4007924908DCAF0A304F07F057E477D007CD8
:1007D400001287387B017A8C7924908DECE4F0A3A5
:1007E40004F07F007E307D007C001292A77B017AAA
:1007F4008C7924908DCAE4F0A304F07F157E477DA4
:10080400007C001287387B017A8C7924908DECE48B
:10081400F0A304F07F057E300216977F0D0218BA0C
:10082400E4908C29F07B017A8C7924908DCAF0A312
:1008340004F07F167E107D007C001287387B017ADD
:100844008C792A908DCAE4F0A304F07F037E207D86
:10085400007C00128738908C24E07004A3E06401CB
:100864007069908C29F0908C29E0FFC39406748001
:1008740094805041EF2440FFE43431FEE4FCFD7BDE
:10088400017A8C7924908DCAF0A304F012873890F1
:100894008C29E02400FFE43445FEE4FCFD7B017A6E
:1008A4008C7924908DECF0A304F01292A7908C29FB
:1008B400E004F080B1908C2AE07004A3E06401703D
:1008C400057F290218BA7F0C0218BAE4908C29F02B
:1008D400908C29E0FFC39406748094805041EF24E7
:1008E40040FFE43431FEE4FCFD7B017A8C792490F2
:1008F4008DCAF0A304F0128738908C29E02410FFED
:10090400E43445FEE4FCFD7B017A8C7924908DEC83
:10091400F0A304F01292A7908C29E004F080B19027
:100924008C2AE07004A3E0640170057F270218BAE2
:020934007F1131
:100936000218BA128CF60218BD1281200218BD7B6D
:10094600017A8C7924908DCAE4F0A304F07F167E98
:10095600107D007C00128738908C24E07004A3E0A0
:100966006401702E7B017A8C7924908DCAF0A304E1
:10097600F07F037E207D007C00128738908C24E077
:100986007004A3E0640170057F290218BA7F0C0287
:1009960018BA908C24E07004A3E064026003021885
:1009A600BD7B017A8C7924908DCAF0A304F07F0375
:1009B6007E207D007C00128738908C24E07004A392
:1009C600E0640170057F290218BA7F110218BA7F08
:1009D6000612E4957B017A8C7924908DCAE4F0A303
:1009E60004F07F007E477D007C001287387B017A09
:1009F6008C7924908DECE4F0A304F07F207E307D8A
:100A0600007C001292A77B017A8C7924908DCAE42F
:100A1600F0A304F07F107E477D007C001287387BB0
:100A2600017A8C7924908DECE4F0A304F07F257E86
:040A360030021697DD
:100A3A007B017A8C7924908DCAE4F0A304F07F11AB
:100A4A007E207D007C00128738908C24E0FEA3E093
:100A5A00908C29F064014E70637F0212E4957B0149
:100A6A007A8C7924908DCAE4F0A304F07F007E305A
:100A7A007D007C001287387B017A8C7924908DEC7A
:100A8A00E4F0A304F07F007E477D007C001292A769
:100A9A007B017A8C7924908DCAE4F0A304F07F0557
:100AAA007E307D007C001287387B017A8C79249015
:100ABA008DECE4F0A304F07F10020CEC908C24E09F
:100ACA007004A3E0640270627F0212E4957B017AEB
:100ADA008C7924908DCAE4F0A304F07F007E307DE7
:100AEA00007C001287387B017A8C7924908DECE4A3
:100AFA00F0A304F0FF7E477D007C001292A77B01E1
:100B0A007A8C7924908DCAE4F0A304F07F057E30B4
:100B1A007D007C001287387B017A8C7924908DECD9
:100B2A00E4F0A304F07F11020CEC908C24E0700432
:100B3A00A3E0640370637F0212E4957B017A8C79E7
:100B4A0024908DCAE4F0A304F07F007E307D007CFF
:100B5A00001287387B017A8C7924908DECE4F0A31B
:100B6A0004F07F027E477D007C001292A77B017A07
:100B7A008C7924908DCAE4F0A304F07F057E307D41
:100B8A00007C001287387B017A8C7924908DECE402
:100B9A00F0A304F07F12020CEC908C24E07004A302
:100BAA00E0640470637F0312E4957B017A8C7924F4
:100BBA00908DCAE4F0A304F07F007E307D007C00B3
:100BCA001287387B017A8C7924908DECE4F0A304A7
:100BDA00F07F037E477D007C001292A77B017A8C0E
:100BEA007924908DCAE4F0A304F07F057E307D005D
:100BFA007C001287387B017A8C7924908DECE4F0A2
:100C0A00A304F07F13020CEC908C24E07004A3E0A0
:100C1A00640570627F0312E4957B017A8C792490D3
:100C2A008DCAE4F0A304F07F007E307D007C0012C0
:100C3A0087387B017A8C7924908DECE4F0A304F058
:100C4A007F047E477D007C001292A77B017A8C7913
:100C5A0024908DCAE4F0A304F07F057E307D007CE9
:100C6A00001287387B017A8C7924908DECE4F0A30A
:100C7A0004F07F14806C908C24E07004A3E0640676
:100C8A0070697F0312E4957B017A8C7924908DCA6E
:100C9A00E4F0A304F07F007E307D007C00128738E8
:100CAA007B017A8C7924908DECE4F0A304F07F0523
:100CBA007E477D007C001292A77B017A8C79249072
:100CCA008DCAE4F0A304F07F057E307D007C00121B
:100CDA0087387B017A8C7924908DECE4F0A304F0B8
:100CEA007F157E477D007C001292A7127A6C908C49
:100CFA0029E0FF7E00C39401748094805003021897
:100D0A00BDD3EF94067480948040030218BDE0C3FB
:080D1A009401FFE4FD12E30E59
:100D22000218BD7B017A8C7924908DCAE4F0A30469
:100D3200F07F027E207D007C00128738908C24E0B8
:100D42007004A3E0640160030218BD7D01802B7B67
:100D5200017A8C7924908DCAE4F0A304F07F027E9C
:100D6200207D007C00128738908C24E07004A3E080
:100D7200640160030218BD74FFFDFC7F01020E3F97
:100D82007B017A8C7924908DCAE4F0A304F07F026F
:100D92007E207D007C00128738908C24E07004A3B2
:100DA200E0640260030218BD74FFFDFC7F02020EC4
:100DB2003F7B017A8C7924908DCAE4F0A304F07F02
:100DC200027E207D007C00128738908C24E0700423
:100DD200A3E0640260030218BD7D01FC7F02805D16
:100DE2007B017A8C7924908DCAE4F0A304F07F020F
:100DF2007E207D007C00128738908C24E07004A352
:100E0200E0640360030218BD7D01FC7F03802E7B3A
:100E1200017A8C7924908DCAE4F0A304F07F027EDB
:100E2200207D007C00128738908C24E07004A3E0BF
:100E3200640360030218BD74FFFDFC7F0312BBFB59
:090E42000218BD12B4E70218BD4C
:100E4B007B017A8C792D908DCAE4F0A304F07F039B
:100E5B007E207D007C00128738908C2DE07002A3E1
:100E6B00E07B016003020F3C7A8C7929908DCAF0EC
:100E7B00A304F07F257E207D007C001287387B0148
:100E8B007A8C7929908DECE4F0A304F07F057E2019
:100E9B007D007C001292A7908C29E0FEA3E0FF7DE1
:100EAB004612C2DD908C2BEEF0A3EFF07B017A8C17
:100EBB00792B908DECE4F0A304F07F067E207D006F
:100ECB007C001292A77B017A8C792F908DCAE4F06B
:100EDB00A304F07F027E207D007C00128738908C6B
:100EEB0029E0FEA3E0FFE4FCFD908C5212417A7FD7
:100EFB000412C88A908C2F12ED88908C2FA3E0FFE0
:100F0B00908C2BE0FAA3E0FB7D0112ED95908C2FDA
:100F1B00A3E0FFC007908C29E0FCA3E0FDE41239AD
:100F2B003F908C3412417AD00712E6037F01020FF7
:010F3B00FCB9
:100F3C007A8C792D908DCAE4F0A304F07F267E2064
:100F4C007D007C001287387B017A8C792D908DEC9A
:100F5C00E4F0A304F07F067E207D007C001292A7B3
:100F6C00908C2D12C2D6908C29EEF0A3EFF07B0161
:100F7C007A8C7929908DECE4F0A304F07F057E2027
:100F8C007D007C001292A77B017A8C7931908DCAFE
:100F9C00E4F0A304F07F027E207D007C00128738F1
:100FAC00908C29E0FEA3E0FFE4FCFD908C521241F2
:100FBC007A7F0412C88A908C3112ED88908C31A300
:100FCC00E0FF908C2DE0FAA3E0FB7D0112ED9590F3
:100FDC008C31A3E0FFC007908C29E0FCA3E0FDE47A
:100FEC0012393F908C3412417AD00712E6037F1EDF
:030FFC0012E49567
:020FFF00D2100E
:101001000218877B017A8C7924908DCAE4F0A304BD
:10101100F07F217E207D007C00128738908C24E0B7
:10102100FEA3E0FF12F133D2100218877F0F12E402
:101031009512B2C50218BD7B017A8C7924908DCAB4
:10104100E4F0A304F07F187E207D007C0012873835
:10105100908C24E0FEA3E0FF9091CEEEF0A3EFF0A0
:1010610012EE1D0218871296069091AC12417A1267
:10107100E6487D017F0712E7590218BD7B017A8C92
:101081007924908DCAE4F0A304F07F1E7E207D00B8
:101091007C001287387B017A8C7924908DECE4F006
:1010A100A304F07F1E7E207D007C001292A7908C0D
:0A10B10024A3E0FF12F0D302188719
:1010BB00E4908C29F0A3F07B017A8C7929908DCA6E
:1010CB00F0A304F07F087E357D007C0012873890FA
:1010DB008C29A3E0FD7F6512EA197B017A8C7929B3
:1010EB00908DECE4F0A304F07F087E357D007C004E
:0610FB001292A712CFE1E2
:101101000218877F0E0218BA7B017A8C7924908DA0
:10111100CAE4F0A304F07F037E207D007C001287E7
:1011210038908C24E07002A3E070057F0B0218BA9E
:101131007F280218BA7B017A8C7924908DCAE4F059
:10114100A304F07F037E207D007C00128738908C01
:1011510024E07002A3E070057F0B0218BA7F280219
:1011610018BA7B017A8C7924908DCAE4F0A304F03B
:101171007F037E207D007C00128738908C24E070F4
:1011810002A3E070057F100218BA7F260218BA7B0D
:10119100017A8C7924908DCAE4F0A304F07F187E43
:1011A100107D007C00128738908C24E07004A3E04D
:1011B100640160030212477B017A8C7924908DCA05
:1011C100F0A304F07F197E107D007C001287389017
:1011D1008C24E07004A3E0640170667B017A8C7951
:1011E10024908DCAF0A304F07F507E307D007C00F6
:1011F1001287387B017A8C7924908DECE4F0A3047A
:10120100F07F807E107D007C001292A77B017A8C9A
:101211007924908DCAE4F0A304F07F517E307D00E3
:101221007C001287387B017A8C7924908DECE4F074
:10123100A304F07F817E107D007C001292A71281B1
:10124100207F0C0218BA908C24E07004A3E06402A1
:1012510060030212E57B017A8C7924908DCAF0A398
:1012610004F07F197E107D007C00128738908C2459
:10127100E07004A3E0640170667B017A8C792490AC
:101281008DCAF0A304F07F507E307D007C00128770
:10129100387B017A8C7924908DECE4F0A304F07F03
:1012A100827E107D007C001292A77B017A8C7924CA
:1012B100908DCAE4F0A304F07F517E307D007C0064
:1012C1001287387B017A8C7924908DECE4F0A304A9
:1012D100F07F837E107D007C001292A712BEAF7F4B
:1012E1000B0218BA908C24E07004A3E0640360033D
:1012F1000213807B017A8C7924908DCAF0A304F0CB
:101301007F197E107D007C00128738908C24E0705C
:1013110004A3E0640170637B017A8C7924908DCA07
:10132100F0A304F07F507E307D007C001287387B73
:10133100017A8C7924908DECE4F0A304F07F847E13
:10134100107D007C001292A77B017A8C7924908D0C
:10135100CAE4F0A304F07F517E307D007C00128747
:10136100387B017A8C7924908DECE4F0A304F07F32
:10137100857E107D007C001292A77F120218BA9020
:101381008C24E07004A3E0640460030218BD7B01B7
:101391007A8C7924908DCAF0A304F07F197E107D98
:1013A100007C00128738908C24E07004A3E0640173
:1013B10070667B017A8C7924908DCAF0A304F07F4A
:1013C100507E307D007C001287387B017A8C792435
:1013D100908DECE4F0A304F07F867E107D007C000C
:1013E1001292A77B017A8C7924908DCAE4F0A30430
:1013F100F07F517E307D007C001287387B017A8C32
:101401007924908DECE4F0A304F07F877E107D00B9
:101411007C001292A712BDCD7F100218BA7B017A0F
:101421008C7924908DCAE4F0A304F07F037E207DA3
:10143100007C00128738908C24E07002A3E06005E4
:101441007F200218BA7F320218BA7B017A8C792484
:10145100908DCAE4F0A304F07F307E207D007C00F3
:10146100128738908C24E07002A3E06072C39091DF
:10147100D3E094D09091D2E0940740577B017A8CCD
:101481007924908DCAE4F0A304F07F107E207D00C2
:101491007C00128738908C24E07002A3E07E00600B
:1014A100047F0080027F01908C24EEF0A3EFF07B9B
:1014B100017A8C7924908DECE4F0A304F07F107E06
:1014C100207D007C001292A7908C24A3E0FD7F0375
:1014D10012E759C229E49091D2F0A3F00218BDD2CB
:0414E100290218BD07
:1014E5007B017A8C7929908DCAE4F0A304F07F20E2
:1014F5007E307D007C00128738E4908C28F0908C3B
:1015050028E0FFC39406748094805048E42FFFE4DC
:101515003447FEE4FCFD7B017A8C7929908DECF053
:10152500A304F01292A7908C24E4F0A304F0908C0D
:1015350028E02410FFE43440FEE4FCFD7B017A8CB6
:101545007924908DECF0A304F01292A7908C28E0FA
:1015550004F080AA7B017A8C792B908DCAE4F0A3E4
:1015650004F07F257E307D007C00128738E4908C66
:1015750028F0908C28E0FFC3940674809480502353
:10158500EF2410FFE43447FEE4FCFD7B017A8C79FF
:101595002B908DECF0A304F01292A7908C28E00418
:1015A500F080CF7B017A8C7924908DCAE4F0A30476
:1015B500F07F907E107D007C00128738E4908C28A7
:1015C500F0908C28E0FFC39406748094805023EF3C
:1015D5002420FFE43410FEE4FCFD7B017A8C7924A1
:1015E500908DECF0A304F01292A7908C28E004F003
:1015F50080CF127A6C7D01E4FF12E30E12F1EF1237
:0416050000007F0260
:101609000218BA7B017A8C7924908DCAE4F0A3047C
:10161900F07F907E307D007C001287387B017A8CC8
:101629007924908DECE4F0A304F07F027E207D0004
:101639007C001292A7D21002188712F5347F2D125E
:10164900E49512B90D0218BD7B017A8C7924908D2D
:10165900CAE4F0A304F07F367E207D007C00128767
:1016690038908C24E07004A3E0640160030218BD83
:1016790012E71512B90DE4908C24F0A3F07B017ADE
:101689008C7924908DECF0A304F07F367E207D00C8
:101699007C001292A70218BD9091B1E0FEA3E0FF71
:1016A90012F3530218879091B1E0FEA3E0FFC394AF
:1016B90010EE9440405CEF24F0FFE4FD12E30E02CB
:1016C900177D9091B1E0FEA3E0FFC3EE944740057A
:1016D900E4FD12E30E02177D9091B1E0FEA3E0FF55
:1016E900C39410EE94474009EF24F0FFE4FD12E3A0
:1016F9000E02177D7D431268F19091B1E0FEA3E0DF
:10170900FFC39420EE94104009EF24E0FFE4FD129A
:04171900E30E8060FB
:10171D007D461268F19091B1E0FCA3E0FD2490901C
:10172D008C29F0AF05AE04E4FCFD7B017A8C792A9F
:10173D00908DCAF0A304F0128738908C2A12C2D66D
:10174D00908C2CEEF0A3EFF0908C29E02420FFE498
:10175D003410FEE4FCFD7B017A8C792C908DECF03D
:10176D00A304F01292A7908C29E0FFE4FD12E30E82
:06177D00120000127A6C5C
:101783000218BD7BFF7AE1796B125A1F12F2B77F01
:0F1793001612E495D22B0218BD1281200218877E
:1017A2009091B1E0FEA3E0FFE4FCFD7B017A8C792D
:1017B20029908DCAF0A304F0128738908C2912C2A6
:1017C200D6908C2BEEF0A3EFF07B017A8C792B90E4
:1017D2008DECE4F0A304F07F247E487D007C0012AF
:0517E20092A712812016
:1017E700021887E4FD7F01128320128CF602188706
:1017F7009091B1E0FEA3E0FFE4FCFD7B017A8C79D8
:1018070029908DCAF0A304F0128738908C2912C250
:10181700D6908C2BEEF0A3EFF07B017A8C792B908E
:101827008DECE4F0A304F07F387E487D007C001245
:0C18370092A7E4FD7F01128320128CF6C2
:1018430080427D01E4FF12832012BDCD803612BE9B
:10185300AF80317B017A8C7924908DCAE4F0A304A4
:10186300F07F387E207D007C00128738908C24E046
:101873007002A3E06004D22C8002C22CA22CB3928B
:101883001912E075120000803112AE3A802C7B01F0
:101893007A8C7924908DCAE4F0A304F07F307E2003
:1018A3007D007C00128738908C24E07002A3E060F6
:1018B300047F3D80027F3412E4959091B1E0FEA352
:1018C300E0FFC3EE94485003021A69D3EF945FEE2E
:0718D30094484003021A696A
:1018DA00EF7003EE64487003021A69EF6402700342
:1018EA00EE64487003021A69EF64047003EE6448F8
:1018FA007003021A69EF64067003EE64487003020B
:10190A001A69EF64107003EE64487003021A69EFF3
:10191A0064127003EE64487003021A69EF6414706B
:10192A0003EE64487003021A69EF64167003EE64EA
:10193A00487003021A69EF64087003EE6448601085
:10194A00EF640A7003EE64486006BE4807BF0C04E1
:10195A007D43802B9091B1E0FEA3E0FF64187003F1
:10196A00EE64486010EF641A7003EE64486006BEC5
:10197A004813BF1C109091B1E0FEA3E0FF7D461210
:10198A0068F9021A669091B1E0FEA3E0FFE4FCFD5B
:10199A007B017A8C7926908DCAF0A304F0128738DD
:1019AA009091B1A3E0908C29F0E0FF25E02478F52E
:1019BA0082E43482F583E0FCA3E0FDEF25E02438DD
:1019CA00F582E43483F583E0FEA3E0FFD39DEC6463
:1019DA0080F8EE6480984056908C26E0FCA3E0FDE7
:1019EA00D39FEE6480F8EC6480984019908C29E0CB
:1019FA0025E02438F582E43483F583E0FFA3E09000
:101A0A008C26CF8025908C29E025E02478F582E485
:101A1A003482F583E0FEA3E0FFC3ED9FEE6480F815
:101A2A00EC6480985008908C26EEF0A3EFF0909129
:101A3A00B1E0FEA3E0FFE4FCFD7B017A8C792690FD
:101A4A008DECF0A304F01292A7908C29E09091B447
:0F1A5A00F0D213908767E4F0A374C8F012000075
:011A6900225A
:10EFDD00C21AE4FEEEC3940874809480501574B682
:10EFED002EF582E43491F583E0B50704D21A80033F
:05EFFD000E80E1A21AE4
:01F0020022EB
:10B70100E4908C60F0A3F0A3F0A374FFF0E4908CBC
:10B7110062F0908C62E0FFC394067480948050378D
:10B72100EF2410FFE43440FEE4FCFD7B017A8C79C8
:10B7310060908DCAF0A304F0128738908C60E0709D
:10B7410004A3E064017008908C62E0A3F08008908B
:10B751008C62E004F080BBE4908C60F0A3F0908CEC
:10B7610063E0FFC39406748094805060EF75F0200D
:10B77100A42401FFE5F03411FEE4FCFD7B017A8C89
:10B781007960908DCAF0A304F0128738D3908C6150
:10B79100E09404908C60E094004031908C63E0244C
:10B7A10000FFE43447FEE4FCFD7B017A8C79609074
:10B7B1008DCAF0A304F0128738D3908C61E0940411
:10B7C100908C60E094004004E4F0A3F07B017A8C5B
:10B7D1007960908DECE4F0A304F0FF7E207D007C85
:10B7E100001292A7909195E0FF908C60E0FCA3E09D
:10B7F100FD6F7001EC600EAF0512BA0F908C60A363
:05B80100E0909195F0BC
:01B80600221F
:10E68D00E4908C48F0A3F020190A12F04C12EFDD43
:10E69D005031802C7B017A8C7948908DCAE4F0A39F
:10E6AD0004F07F037E207D007C00128738908C481B
:10E6BD00E07002A3E070047F0180027F1E12E495DA
:03E6CD0012B70180
:01E6D0002227
:0868F1009091B1E0FEA3E0FF6D
:0D68F900908C40EDF0908C3EEEF0A3EFF09F
:10690600E4FCFD7B017A8C7941908DCAF0A304F0FA
:10691600128738908C3EE0FEA3E0FFC39420EE94ED
:1069260010400BD3EF9425EE941050028022C3EF53
:106936009470EE9410400BD3EF9475EE94105002C1
:106946008027908C3EE0FEA3E0FFBE2016BF2513F5
:10695600908C43E4F0A37410F0A3E4F0A37420F049
:10696600026A4BBE201BBF26187D467F107E001292
:10697600C2DD908C43EEF0A3EFF07D467F20026AE5
:106986003E908C3EE0FEA3E0FFBE4816BF08139083
:106996008C43E4F0A3741EF0A3E4F0A3743CF0026D
:1069A6006A4BBE4816BF0A13908C43E4F0A3741ECC
:1069B600F0A3E4F0A37432F0026A4BBE4815BF0C94
:1069C60012908C43E4F0A3740FF0A3E4F0A37428B0
:1069D600F08072BE481ABF18177D467F1E7E0012D1
:1069E600C2DD908C43EEF0A3EFF07D467F3C8048FD
:1069F600908C3EE0B4481CA3E0B41A177D467F1E77
:106A06007E0012C2DD908C43EEF0A3EFF07D467F50
:106A1600328025908C3EE064487004A3E0641C60DC
:106A260003026BA37D467F0FFE12C2DD908C43EE00
:106A3600F0A3EFF07D467F287E0012C2DD908C45E4
:106A4600EEF0A3EFF0908C43E0FEA3E0FF908C41C4
:106A5600E0FCA3E0FDC39FEC9E5002800F908C45A6
:106A6600E0FEA3E0FFD3ED9FEC9E4008908C41EE44
:106A7600F0A3EFF0908C3EE0FEA3E0FFE4FCFD7B8C
:106A8600017A8C7941908DECF0A304F01292A790D4
:106A96008C3EE0FEA3E0FFC39420EE9410400ED39C
:106AA600EF9425EE94105005EF24E0802B908C3E59
:106AB600E0FEA3E0FFC39470EE94104027D3EF945A
:106AC60075EE9410501E12C2D3908C41EEF0A3EFD7
:106AD600F0908C3EA3E02490FF908C41E0FCA3E074
:106AE600FD02DB0F908C3EE0B4200FA3E0B4250A34
:106AF600908C41E0FEA3E0FF800F908C3EE0B42036
:106B06000BA3E0B4260612C2D302CC60908C3EE002
:106B1600FEA3E0FF64087003EE64486014EF640AA5
:106B26007003EE6448600AEF640C7003EE6448700C
:106B360028908C41E0FEA3E0FF7D4612C2DDAB0744
:106B4600AA06908C3FE024F8FF908C3EE034B7C351
:106B560013EF1304FF7D018041908C3EE0FEA3E01D
:106B6600FF64187003EE64486014EF641A7003EE55
:106B76006448600AEF641C7003EE6448701F12C21A
:106B8600D3AB07AA06908C3FE024E8FF908C3EE04A
:0D6B960034B7C313EF1304FFE4FD12ED95B7
:016BA30022CF
:10F13300908C33EEF0A3EFF07B017A8C7933908DD2
:10F14300ECE4F0A304F0FF7E207D007C000292A794
:10B2C5007B017A8C7935908DCAE4F0A304F07F1068
:10B2D5007E307D007C001287387B017A8C79359031
:10B2E5008DECE4F0A304F07F707E307D007C0012CD
:10B2F50092A77B017A8C7937908DCAE4F0A304F08C
:10B305007F117E307D007C00128738908C35E0FE01
:10B31500A3E0FFA3E0FCA3E0FD12F478908C39EEE6
:10B32500F0A3EFF07B017A8C7939908DECE4F0A3F2
:10B3350004F07F727E307D007C001292A77B017A3B
:10B345008C7933908DCAE4F0A304F07F127E307DB2
:10B35500007C001287387B017A8C7933908DECE480
:10B36500F0A304F07F737E307D007C001292A77BF2
:10B37500017A8C7933908DCAE4F0A304F07F137EB3
:10B38500307D007C001287387B017A8C7933908D73
:10B39500ECE4F0A304F07F747E307D007C00129213
:10B3A500A77B017A8C7933908DCAE4F0A304F07FF2
:10B3B500147E307D007C001287387B017A8C7933CE
:10B3C500908DECE4F0A304F07F757E307D007C0069
:03B3D5000292A73A
:10AE3A007B017A8C7939908DCAE4F0A304F07F7093
:10AE4A007E307D007C001287387B017A8C793B90BA
:10AE5A008DCAE4F0A304F07F727E307D007C00127C
:10AE6A0087387B017A8C793D908DCAE4F0A304F08F
:10AE7A007F737E307D007C001287387B017A8C7963
:10AE8A003F908DCAE4F0A304F07F747E307D007C8D
:10AE9A00001287387B017A8C7941908DCAE4F0A33D
:10AEAA0004F07F757E307D007C00128738908C39E3
:10AEBA00E0FEA3E0FFC394D0EE9407400CEF2430E9
:10AECA00FFEE34F8908C43800B908C39E0FFA3E0BE
:10AEDA00908C43CFF0A3EFF0908C44E0FE908C3C32
:10AEEA00E0FDEDFF908C33EEF0A3EFF0908C3EE0A6
:10AEFA00FE908C40E0FDEDFF908C35EEF0A3EFF074
:10AF0A00908C42E0908C37F0A3E4F07B017A8C7944
:10AF1A0033908DECF0A37403F07F9D7E007D007C5E
:10AF2A00001292A7908C3BE0FCA3E0FDA3E0FAA3F9
:10AF3A00E0FBA3E0FFA3E0908C62CFF0A3EFF090D8
:10AF4A008C41E0FFA3E0908C64CFF0A3EFF0908CEB
:09AF5A0039E0FEA3E0FF02CEBFC6
:08CC6000908C55EEF0A3EFF0FB
:10CC6800908C55E0FEA3E0FF7D4612C2DD908C5704
:10CC7800EEF0A3EFF07B017A8C7955908DECE4F01F
:10CC8800A304F07F057E207D007C001292A77B0123
:10CC98007A8C7957908DECE4F0A304F07F067E201F
:10CCA8007D007C001292A77B017A8C7959908DCAFD
:10CCB800E4F0A304F07F027E207D007C0012873818
:10CCC800908C59E0FEA3E0FFC39401EE940040224B
:10CCD800D3EF9403EE94005019908C5512ED8E907A
:10CCE8008C59A3E0FF908C57E0FAA3E0FB7D01127A
:02CCF800ED95B8
:01CCFA002217
:10D8F9007B017A8C7951908DCAE4F0A304F07F0200
:10D909007E207D007C001287387B017A8C795390C8
:10D919008DCAE4F0A304F07F037E207D007C001211
:10D929008738908C51E0FEA3E0FFC39401EE940088
:10D93900402AD3EF9403EE94005021A3A3E0FD12F3
:10D94900ED5E908C53E07002A3E06009EF4E600534
:0CD959007D4312C2DDEF4E600312CC6073
:01D96500229F
:106BA4007B017A8C794A908DCAE4F0A304F07F03C8
:106BB4007E207D007C001287387B017A8C794C9092
:106BC4008DCAE4F0A304F07F057E207D007C0012D2
:106BD40087387B017A8C794E908DCAE4F0A304F057
:106BE4007F067E207D007C00128738908C4AE070FE
:106BF40002A3E0601A908C4CE0FEA3E0FF4E60021A
:106C0400802D908C4EE0FEA3E0FF4E602F800B9011
:106C14008C4EE0FEA3E0FF4E600A7D4312C2DD907D
:106C24008C4C8013908C4CE0FEA3E0FF4E600D7DF5
:106C34004612C2DD908C4EEEF0A3EFF0908C4CE047
:106C4400FEA3E0FF4E60028020908C4EE0FEA3E0A5
:106C5400FF4E60187D4312C2DD908C4CEEF0A3EF22
:106C6400F0908C4CE0FEA3E0FF12CC607B017A8CA8
:106C7400794C908DECE4F0A304F07F257E207D0018
:106C84007C001292A77B017A8C794E908DECE4F013
:106C9400A304F07F267E207D007C001292A712D8E8
:106CA400F9908C55124186000048107F0012DF5382
:106CB400908C55124186000048127F0212DF5390D7
:106CC4008C55124186000048147F0412DF53908CC7
:106CD40055124186000048167F0612DF53908C50EF
:106CE4007401F0908C50E0FFD3940374809480502E
:106CF40040E4FD12ED5E908C4CEEF0A3EFF0908C2E
:106D04004CE0FEA3E0FF4E601D7D4612C2DD908C78
:106D14004EEEF0A3EFF0A3E0FF908C4EE0FAA3E078
:106D2400FB7D0112ED9543C901908C50E004F08085
:106D3400B2908C55124186000010087F067E101216
:106D4400DF55908C551241860000101A7F147E1076
:106D540012DF55E4908C50F0908C50E0FFC3940601
:106D640074809480506EEF2420FFE43410FEE4FC21
:106D7400FD7B017A8C794C908DCAF0A304F01287C4
:106D840038908C50E0FF908C4CE0FCA3E0FD12DBCB
:106D94000F908C50E025E0FFE433FEEF2430FFEE4B
:106DA4003410FEE4FCFD7B017A8C794C908DCAF0A2
:106DB400A304F0128738908C4CE0FCA3E0FD4C60F7
:106DC40008908C50E0FF12D5DB43C901908C50E051
:106DD40004F080847B017A8C794C908DCAE4F0A312
:106DE40004F07F247E487D007C00128738908C4C10
:106DF400E0FAA3E0FB4A6017908C5512418600002C
:106E04004830908C59EAF0A3EBF07F2412DE967B95
:106E1400017A8C794C908DCAE4F0A304F07F387E1B
:106E2400487D007C00128738908C4CE0FAA3E0FB8C
:106E34004A6017908C5512418600004832908C5954
:0D6E4400EAF0A3EBF07F3812DE9602A0AF5B
:0AC2D300908C41E0FEA3E0FF7D43E4
:05C2DD00908C67EDF0FC
:10C2E2006443703AC3EF94EAEE6480947F50067E12
:10C2F200FF7FEA800FD3EF940AEE648094814004BA
:10C302007E017F0AEF24E0FFEE34FFFE7C007D32E7
:10C31200123E467D09123EAD908C68EE803E908CB6
:10C3220067E06446703AC3EF94E2EE6480947F5013
:10C33200067EFF7FE2800FD3EF9482EE64809480CA
:10C3420040047E007F827C007D5A123E467D0512AB
:10C352003EADEF2440FFEE3401908C68F0A3EFF085
:10C36200908C68E0FEA3E0FFD39400EE648094809A
:10C372004008EF2405FFE43E800D908C69E024FB29
:10C38200FF908C68E034FFFE7C007D0A123EAD9087
:07C392008C68EEF0A3EFF050
:01C399002281
:10EBEB00E4908C48F0A3F07B017A8C7948908DCA25
:10EBFB00F0A304F07F037E207D007C001287389009
:10EC0B008C48E07002A3E07003FD80027D017F065B
:06EC1B0012EA19026BA4CD
:107EF50078017C947D017BFF7AE179BE7E007F026B
:107F0500123D737B017A947901908DCAE4F0A30444
:107F1500F07F217E487D007C00128738909402E036
:107F25009091A3F07B017A947901908DCAE4F0A336
:107F350004F07F807E107D007C00128738909402CB
:107F4500E09091A4F07B017A947901908DCAE4F0D8
:107F5500A304F07F817E107D007C00128738909409
:107F650002E09091A5F07B017A947901908DCAE4A5
:107F7500F0A304F07F207E487D007C0012873890B6
:107F85009402E09091A6F07B017A947901908DCAD4
:107F9500E4F0A304F07F827E107D007C0012873818
:107FA500909402E09091A7F07B017A947901908DED
:107FB500CAE4F0A304F07F837E107D007C00128765
:107FC50038909402E09091A8F07B017A9479019021
:107FD5008DCAE4F0A304F07F267E487D007C001264
:107FE5008738909402E09091A9F090931B124186F6
:107FF500000048307F2412D17B9091AAEFF07B01DD
:108005007A947901908DCAE4F0A304F07F257E4827
:108015007D007C00128738909402E09091C4F07B3B
:10802500017A947901908DCAE4F0A304F07F847EEF
:10803500107D007C00128738909402E09091C5F085
:108045007B017A947901908DCAE4F0A304F07F85D1
:108055007E107D007C00128738909402E09091C6D6
:10806500F07B017A947901908DCAE4F0A304F07F46
:10807500277E487D007C00128738909402E090911D
:10808500C7F07B017A947901908DCAE4F0A304F0DE
:108095007F867E107D007C00128738909402E090E8
:1080A50091C8F07B017A947901908DCAE4F0A3041C
:1080B500F07F877E107D007C00128738909402E067
:1080C5009091C9F07B017A947901908DCAE4F0A36F
:1080D50004F07F367E487D007C001287389094023C
:1080E500E09091CAF07B017A947901908DCAE4F011
:1080F500A304F07F377E487D007C0012873890947A
:1081050002E09091CBF090931B124186000048321B
:0A8115007F3812D17B9091CCEFF07F
:01811F00223D
:05C5DB009093A6E0FFB3
:10C5E000E49093BEF0A3F0EF70047F068005C3EFE4
:10C5F0009401FF9093BCEFF0E49093C0F09093C04F
:10C60000E0FFC39407748094805049EF2410FFE446
:10C610003445FEE4FCFD7B017A9379BD908DCAF030
:10C62000A304F01287389093BDE060209093C0E09F
:10C63000FF7E007401A807088005C333CE33CED82F
:10C64000F9FF9093BEE04EF0A3E04FF09093C0E06E
:10C6500004F080A99093BEE0FCA3E0FD4C70037F42
:10C6600001229093BCE0FF7E007401A807088005BA
:10C67000C333CE33CED8F9FFEC5EFEED5F4E6004DF
:06C680007F0180027F0033
:01C686002291
:10AF63007B017A93795B908DCAE4F0A304F07F3779
:10AF73007E487D007C001287387B017A93795D904F
:10AF83008DCAE4F0A304F07F387E487D007C001274
:10AF930087387B017A93795F908DCAE4F0A304F03C
:10AFA3007F817E307D007C00128738E4909358F0D7
:10AFB300909358E0FFC3940674809480400302B0DA
:01AFC3008607
:10AFC400E4909361F0A3F0EF2460FFE43448FEE4DE
:10AFD400FCFD7B017A937961908DCAF0A304F01291
:10AFE4008738909361E07002A3E0700302B07D9013
:10AFF4009359E4F0A304F0909358E02410FFE43450
:10B0040040FEE4FCFD7B017A937959908DECF0A32A
:10B0140004F01292A7909358E02400FFE43447FE12
:10B02400E4FCFD7B017A93795B908DECF0A304F052
:10B034001292A7909358E02420FFE43410FEE4FC1D
:10B04400FD7B017A93795D908DECF0A304F012926C
:10B05400A7909358E02410FFE43447FEE4FCFD7B02
:10B06400017A93795F908DECF0A304F01292A7908B
:09B074009358E0FFE4FD12E30E25
:0CB07D00909358E004F002AFB3027A6C2C
:10D4EE00E49093C2F0A3F09093C1F09093C1E0FF4B
:09D4FE00C3940674809480505C14
:10D50700E49093C4F0A3F0EF2460FFE43448FEE412
:10D51700FCFD7B017A9379C4908DCAF0A304F012C5
:10D5270087389093C4E07002A3E060289093C1E02D
:10D537002410FFE43440FEE4FCFD7B017A9379C2BA
:10D54700908DECF0A304F01292A79093C1E0FFE452
:04D55700FD12E30ED0
:0BD55B009093C1E004F08096027A6C0F
:106E51007B017A9379A2908DCAE4F0A304F07F12AA
:106E61007E007D007C00128738127EF512F52E908F
:106E710093A6EFF09093A2E0FEA3E0FDEDFF9093C7
:106E8100A7EEF0A3EFF09091A3E07003026F7D12E3
:106E9100C5DBEF7003026F7D9093A2E0FF9091A498
:106EA100E06F6003026F619093A3E0FF9091A5E012
:106EB1006F6003026F619093A7E0FEA3E0FF9091E2
:106EC10096E06E7003A3E06F7003026F7D9093A450
:106ED100E4F0A304F0FB7A9379A4908DECE4F0A3A1
:106EE10004F07F217E407D007C001292A77B017A15
:106EF1009179A9908DECE4F0A304F07F027E207DCE
:106F0100007C001292A79091A9E06401700BA3E0AC
:106F1100FB7A00E4FD7F0180249091A9E064027076
:106F21000BA3E0FB7A00E4FD7F0280119091A9E0C0
:106F31006403700CA3E0FB7A00E4FD7F0312ED957E
:106F41009091AAE0FF7E0012CC60D2101200009056
:106F510093A7E0FFA3E0909196CFF0A3EFF0801C00
:106F61009093A7E0FEA3E0FF909196E0B5060DA3F4
:106F7100E0B5070874FF909196F0A3F09091A6E018
:106F8100700302700C12C5DBEF700302700C90935A
:106F9100A2E0FF9091A7E06F70559093A3E0FF905E
:106FA10091A8E06F70499093A7E0FEA3E0FF909154
:106FB10098E06E7003A3E06F6051E49093A4F0A396
:106FC100F07B017A9379A4908DECF0A304F07F21FA
:106FD1007E407D007C001292A7D210120000909397
:106FE100A7E0FFA3E0909198CFF0A3EFF0801C9071
:106FF10093A7E0FEA3E0FF909198E0B5060DA3E012
:10700100B5070874FF909198F0A3F09091C4E060E7
:107011006512C5DBEF605F9093A2E0FF9091C5E040
:10702100B507379093A3E0FF9091C6E0B5072B9089
:1070310093A7E0FEA3E0FF90919AE06E7003A3E0B6
:107041006F603312AF631200009093A7E0FFA3E0DB
:1070510090919ACFF0A3EFF0801C9093A7E0FEA34C
:10706100E0FF90919AE0B5060DA3E0B5070874FF23
:1070710090919AF0A3F09091C7E0606512C5DBEFA3
:10708100605F9093A2E0FF9091C8E0B507379093BD
:10709100A3E0FF9091C9E0B5072B9093A7E0FEA371
:1070A100E0FF90919CE06E7003A3E06F603312D417
:1070B100EE1200009093A7E0FFA3E090919CCFF027
:1070C100A3EFF0801C9093A7E0FEA3E0FF90919CBA
:1070D100E0B5060DA3E0B5070874FF90919CF0A3FD
:0470E100F0029C5DC0
:10A90B0012F2E59093E1EFF0D394067480948050AB
:10A91B002390919FE0FF9093E1E0FE6F60167BFF29
:10A92B007AE1797E908C74EEF0125A1F9093E1E0ED
:10A93B0090919FF09093E1E0D394067480948040C3
:10A94B0002E4F09093E1E024FD700A9093DEE4F0D2
:10A95B00A304F08007E49093DEF0A3F07B017A93DD
:10A96B0079DE908DECE4F0A304F07F437E307D0024
:10A97B007C001292A7E49093DEF0A3F07B017A9314
:10A98B0079DE908DCAF0A304F07F217E487D007C98
:10A99B00001287389093DEE07002A3E070187B0101
:10A9AB007A9379DE908DCAF0A304F07F207E487DE8
:10A9BB00007C001287389093DEE07002A3E07018E1
:10A9CB007B017A9379DE908DCAF0A304F07F257E0C
:10A9DB00487D007C001287389093DEE07002A3E084
:10A9EB0070187B017A9379DE908DCAF0A304F07F07
:10A9FB00277E487D007C001287387B017A9379DEB5
:10AA0B00908DECE4F0A304F07F047E207D007C00AD
:10AA1B001292A77B017A9379E0908DCAE4F0A3049C
:10AA2B00F0FF7E207D007C0012873890919EE0FE27
:10AA3B009093E0E0FF6E600B12BA0F9093E0E09002
:10AA4B00919EF07B017A9179BF908DECE4F0A30499
:0CAA5B00F07F417E307D007C000292A75D
:10E79D00202B02803812F540EF60127BFF7AE17971
:10E7AD0091125A1F7F1712E495C22B80209091A0D1
:10E7BD00E004F0E0C3941E7480948040157BFF7AD2
:10E7CD00E179A3125A1F7F1512E495C22BE49091A3
:02E7DD00A0F0AA
:01E7DF002217
:10EF1700302A249091A1E0C3940F74809480500408
:10EF2700E004F022C22AE49091A1F0D21912E68DF2
:07EF3700E49091E5F0A3F066
:01EF3E0022B0
:10AA670030300302ABB9302A0302ABB9C39091E689
:10AA7700E094209091E5E0944E500302ABB9202C6E
:10AA87000302ABB912F04CEF64424E600D12F04C6A
:10AA97009091D4EFF07F4212E4957B017A9379503D
:10AAA700908DCAE4F0A304F07F047E207D007C0033
:10AAB7001287387B017A93794E908DCAE4F0A3040C
:10AAC700F0FF7E207D007C001287387B017A937926
:10AAD70052908DCAE4F0A304F07F077E467D007C88
:10AAE70000128738909352E07002A3E060089093B9
:10AAF7004D7404F08039909350E07002A3E0700623
:10AB070090934DF0802990934EE0FEA3E0FFEE7006
:10AB170018EF24FE600B04701090934D7401F080C1
:10AB27000E90934D7402F0800690934D7403F0904D
:10AB3700934DE0FF9091A2E06F6077E490934CF023
:10AB470090934CE0FFC3940574809480505CA3E01D
:10AB57006F601F90935474FFF0A3E4F0A3F0A3F089
:10AB670090934CE075F002A42460FFE5F03430FECA
:10AB7700801D90934CE075F002A42460FFE5F0344B
:10AB870030FE909354F0A3EFF0A3E4F0A304F0E4B5
:10AB9700FCFD7B017A937956908DECF0A304F012BB
:10ABA70092A790934CE004F0809690934DE090919B
:02ABB700A2F00A
:01ABB9002279
:1046D300418EF800428EFF0000428F060000438F98
:1046E30001000000428EFD0000438F0800000042DD
:1046F3008F040000418EF700418EFB00418EF501CF
:0E470300428EF90001418F0D00428F0B000025
:10F3120075D88075985053877F75BA0275AAB0D296
:06F322009CD2ACD2AF2228
:07F51900D29CD2ACD2AF225C
:10D64F00908CD4EBF0A3EAF0A3E9F0908CD4E0FB3C
:10D65F00A3E0FAA3E04A4B600AEDC39401748094EF
:10D66F008050037FFF22908CD4E0F9A3E0FAA3E06F
:10D67F00908F01C9F0A3EAF0A3E9F0AF05908EFDFA
:10D68F00E4F0A3EFF0908F01E0FBA3E0FAA3E0F941
:10D69F00123D99F599908F02E475F001123EE390D7
:10D6AF008EFEE024FFF0908EFDE034FFF0908EF6BA
:04D6BF007401F022E0
:0300230002CD9675
:10CD9600C0E0C0F0C083C082C0D075D000C000C063
:0DCDA60001C002C003C004C005C006C007E4
:10CDB300E4C2AF309807AF9912C733C29830994B8A
:10CDC300C299D3908EFEE09400908EFDE0940040D3
:10CDD30030908F01E0FBA3E0FAA3E0F9123D99F54F
:10CDE30099908F02E475F001123EE3908EFEE024E9
:10CDF300FFF0908EFDE034FFF0908EF67401F0802A
:0DCE030005908EF6E4F0908EF8E4F0D2AFCA
:10CE1000D007D006D005D004D003D002D001D00076
:0BCE2000D0D0D082D083D0F0D0E03220
:10F33E0075A78075AB8075AE0A75AF80D2BCD2BD95
:05F34E00C281D2AF22D4
:10D736009093EEEBF0A3EAF0A3E9F09093EEE0FB12
:10D74600A3E0FAA3E04A4B6057C3ED9408EC9400BB
:10D75600404E9093EEA3A3E0F9908F08EBF0A3EA76
:10D76600F0A3E9F0AF05908F04ECF0A3EFF0D281BF
:10D77600908F08E0FBA3E0FAA3E0F9123D99F5AC1F
:10D78600908F09E475F001123EE3908F05E024FFC7
:10D79600F0908F04E034FFF0908EF77401F0C2BD74
:01D7A6002260
:0300630002D7A71A
:10D7A700C0E0C0F0C083C082C0D075D000C000C048
:10D7B70001C002C003C2AF53A7FED3908F05E09408
:10D7C70000908F04E09400402A908F08E0FBA3E0CC
:10D7D700FAA3E0F9123D99F5AC908F09E475F001D1
:10D7E700123EE3908F05E024FFF0908F04E034FFB2
:10D7F700F08009D2BD908EF7E4F0C281D2AFD0039A
:10D80700D002D001D000D0D0D082D083D0F0D0E0E9
:01D8170032DE
:03006B0002C20BC3
:10C20B00C0E0C083C082C0D075D000C001C004C0E4
:05C21B0005C006C0078C
:10C22000C2AFE5AB54016401600302C2BEA9AD9088
:10C230008F06E0FCA3E0FDC39406EC9400405A7422
:10C24000F52DF582748D3CF583E9F0908F07E004BD
:10C25000F07006908F06E004F0908DF6E0641070A8
:10C2600005FE7F08800A908DF7E02405FFE433FE89
:10C27000C3908F07E09F908F06E09E4013908EFB47
:10C280007401F0908EF9E4F0A3F0908F06F0A3F023
:10C29000908767E4F0A3F08022AF01908F06E0FC66
:10C2A000A3E024F5F582748D3CF583E9F0908F07C7
:10C2B000E004F07006908F06E004F053ABFED2AFBE
:10C2C000D007D006D005D004D001D0D0D082D08302
:03C2D000D0E03289
:10F3C60075968075978075D90A75E78043B701C22F
:02F3D600802293
:10F15300D2808F9EE59630E0FB5396FEE4FDFC0DD6
:0FF16300BD00010CED64644C70F5C28043C9011E
:01F17200227A
:08F509000000000000000000FA
:10471100612C80A8000000000000000000000000E3
:104721000000000000000000000000000000000088
:104731000000000000000000000000000000000078
:104741000000000000000000000000000000000068
:104751000000000000000000000000000000000058
:104761000000000000000000000000000000000048
:104771000000000000000000000000000000000038
:104781000000000000000000000000000000000028
:104791000000000000000000000000000000000018
:1047A1000000000000000000000000000000000008
:1047B10000000000000000000000000000000000F8
:1047C10000000000000000000000000000000000E8
:1047D10000000000000000000000000000000000D8
:1047E10000000000000000000000000000000000C8
:1047F10000000000000000000000000000000000B8
:1048010000000000000000000000000000000000A7
:104811000000000000000000000000000000000097
:104821000000000000000000000000000000000087
:104831000000000000000000000000000000000077
:10484100C198C100C10E4182130041821100418310
:10485100F9004182100042801400004181D40041DE
:1048610083F80041846900C114C18259825F00004C
:104871000000000000000000000000000000000037
:1048810001010101010101602D83FA000000010114
:10489100010101010101000100000101010101000B
:1048A1000000000000000000000100000000000006
:1048B100000000000000000041821200428012004E
:1048C1000141801600418209014281D5000B4281DC
:1048D100D700164C80060041002300230005003C50
:0A48E1000028C10541807700C104E2
:10C5220090936EEBF0A3EAF0A3E9F0A3ECF0A3ED95
:01C53200F018
:10C5330074FF909375F0A3F0E4909373F0A3F090DD
:10C543009371E0FEA3E0FFC3909374E09F90937315
:10C55300E09E507B90936EE0FBA3E0FAA3E0F9909A
:10C563009373E0FEA3E0F5828E83123DB2FF9093B6
:10C5730075E0F0A3E06FF0E4FDEDC39408748094DC
:10C58300805038909376E05401FB909375E0C31389
:10C59300FEA3E013FF909375EEF0A3EFF0EE547F4C
:10C5A300909375F0A3EFF0AF03EF600C909375E0F9
:10C5B30064A0F0A3E06401F00D80BE909374E004E6
:10C5C300F0600302C542909373E004F002C5429009
:07C5D3009375E0FEA3E0FFF9
:01C5DA00223E
:03F54C0002F33E89
:0DE4E000F583E0FCA3E0FD7B017A92798ECC
:10E4ED00909403ECF0A3EDF0909403E0FFE475F04D
:10E4FD0001123F0FFC74A825F0F58274803CF58362
:10E50D00EFF0909403A3E0FFE475F001123F0FFCD0
:0EE51D0074A825F0F58274803CF583EFF0229F
:06D1FE007B017A92798E9C
:0BD204009093C6EBF0A3EAF0A3E9F062
:10D20F00E4A3F0A3F0EDFF7E00C39401748094803B
:10D21F00403FD3EF9403748094805035EF24FFFF89
:10D22F00EE34FFFE3395E0FDFCE47B02FAF9F812D1
:10D23F003FC8EF2408FFEE3448FEE43DFDE43CFC1C
:10D24F007B017A9379C9908DCAE4F0A304F0128719
:10D25F00389093C9E0FEA3E0FF7C007D0A123E46A2
:10D26F00AC06AD079093C6E0FBA3E0FAA3E0F9028A
:02D27F00E4EDDC
:10E99D00EF4E7003FEFF22EC7029ED14601314602E
:10E9AD001614601914601C240470187A007B028000
:10E9BD00167A007B0680107A007B01800A7A007B34
:0DE9CD000380047A007B07AE02EB4480FF5C
:01E9DA00221A
:10EE9C00EE7021EF14600E146010146012240370D5
:10EEAC0013E4FEFF227E007F02227E007F04227E7E
:09EEBC00007F06227E007F08227F
:06851B007B017A84792D3A
:0E852100908C62EFF0A3EBF0A3EAF0A3E9F078
:10852F00908C62E02410FFE43440FEE4FCFD7B01FC
:10853F007A8C7966908DCAF0A304F0128738908CEC
:10854F0062E02400FFE43447FEE4FCFD7B017A8CFB
:10855F007968908DCAF0A304F0128738908C62E08E
:10856F002420FFE43410FEE4FCFD7B017A8C796A51
:10857F00908DCAF0A304F0128738908C62E024101B
:10858F00FFE43447FEE4FCFD7B017A8C796C908D1F
:10859F00CAF0A304F0128738908C66E0FEA3E0FFC8
:1085AF00A3E0FCA3E0FD12E99D908C63E0FBA3E048
:1085BF00FAA3E0F9EE8FF0123F7C908C6CE0FEA3F3
:1085CF00E0FF12EE9C908C63E0FBA3E0FAA3E0F9CE
:1085DF00900002EE8FF0123F9B908C6AE0FFA3E0B9
:1085EF00900004CF8FF0123F9B908C62E0FF7E00D3
:1085FF007C007D10124236EF2440FFEE3448FEE43B
:10860F003DFDE43CFC908C6E12417A908C63E0FB54
:10861F00A3E0FAA3E0F9900006E4F5F0123F9B9077
:10862F008C6EE0FCA3E0FDA3E0FEA3E0FFE92408CD
:10863F00F9E43AFA908DCAE4F0A304F01287389067
:10864F008C6EE0FCA3E0FDA3E0FEA3E02401FFE4B9
:10865F003EFEE43DFDE43CFC908C63E0FBA3E0FABE
:10866F00A3E0240AF9E43AFA908DCAE4F0A304F0E7
:10867F00128738908C6EE0FCA3E0FDA3E0FEA3E030
:10868F002402FFE43EFEE43DFDE43CFC908C63E0FD
:10869F00FBA3E0FAA3E0240CF9E43AFA908DCAE4C4
:1086AF00F0A304F0128738908C6EE0FCA3E0FDA3DA
:1086BF00E0FEA3E02403FFE43EFEE43DFDE43CFCCA
:1086CF00908C63E0FBA3E0FAA3E0240EF9E43AFAFE
:1086DF00908DCAE4F0A304F01287387F08EFC3949B
:1086EF001E74809480501E908C63E0FBA3E0FAA36D
:1086FF00E0F975F002EFA4F58285F083E4F5F0124E
:05870F003F9B0F80D824
:018714002242
:0ED28100908C62EFF0A3EBF0A3EAF0A3E9F0CB
:10D28F00908C62E02427F582E43484F583E0700308
:10D29F007F0122E4908C66F0908C66E0C394087452
:10D2AF00809480504A908C63E0FBA3E0FAA3E0F9EE
:10D2BF00A3E0FF75F002A4F58285F083123F44FDD1
:10D2CF00ACF0908C62E0C454F02417F582E4348003
:10D2DF00F58375F002EF1241B7E0FEA3E06D700227
:10D2EF00EE6C60037F0122908C66E004F080A97FD2
:01D2FF00002E
:01D30000220A
:0EDCA6009093E2EFF0A3EBF0A3EAF0A3E9F015
:10DCB400E4FFEFC3940874809480503A9093E3E0B7
:10DCC400FBA3E0FAA3E0F975F002EFA4F58285F076
:10DCD40083123F44FDACF09093E2E0C454F0241767
:10DCE400F582E43480F58375F002EF1241B7ECF06D
:10DCF400A3EDF00F80BC9093E2E02427F582E43496
:06DD040084F5837401F0B8
:01DD0A0022F6
:06B807007B017A807978D4
:0BB80D00908C33EBF0A3EAF0A3E9F00D
:10B81800E4FFEFC3940774809480501F908C33E04A
:10B82800FBA3E0FAA3E0F975F002EFA4F58285F036
:10B8380083E475F0FF123F9B0F80D77B017A8C79E8
:10B8480036908DCAE4F0A304F07F207E307D007C22
:10B8580000128738908C36E0FEA3E0FF908C33E02E
:10B86800FBA3E0FAA3E0F990000EEE8FF0123F9BE5
:10B878007B017A8C7936908DCAE4F0A304F07F902E
:10B888007E107D007C00128738908C36E0FEA3E0A5
:10B89800FF908C33E0FBA3E0FAA3E0F9900010EEF0
:10B8A8008FF0123F9B7B017A8C7936908DCAE4F039
:10B8B800A304F07F257E307D007C00128738908CB1
:10B8C80036E0FEA3E0FF908C33E0FBA3E0FAA3E0B0
:10B8D800F9900012EE8FF0123F9B7F0AEFC3941885
:10B8E80074809480501E908C33E0FBA3E0FAA3E0B0
:10B8F800F975F002EFA4F58285F083E4F5F0123FC4
:04B908009B0F80D839
:01B90C002218
:0BDB7500908C33EBF0A3EAF0A3E9F082
:10DB8000908077E070037F0122E4908C36F0908CD7
:10DB900036E0FFC3941874809480503C908C33E03E
:10DBA000FBA3E0FAA3E0F975F002EFA4F58285F09B
:10DBB00083123F44FDEF25E024D9F582E43481F55A
:10DBC00083E0FEA3E06D7003EE65F060037F012249
:0ADBD000908C36E004F080B67F0070
:01DBDA002228
:0BE3FD009093F1EBF0A3EAF0A3E9F02D
:10E40800E4FFEFC3941874809480502E9093F1E049
:10E41800FBA3E0FAA3E0F975F002EFA4F58285F01A
:10E4280083123F44FDEF25E024D9F582E43481F5D9
:10E4380083E5F0F0A3EDF00F80C89080777401F0C9
:01E4480022B1
:10F1EF0012B8077B017A80797812DB75EF600DD248
:0DF1FF0016C204908767E4F0A374C8F022E4
:10EBB400909405EEF0A3EFF07B017A947905908DA3
:10EBC400ECE4F0A304F07F077E467D007C00129203
:10EBD400A7909405E0FEA3E0FFE4FCFD908C5212A4
:07EBE400417A7F6702C88A35
:04E1C000AD07AC06F5
