:020000040001F9
:0300000002B11A30
:03000B0002A0FA56
:03001B0002C2011D
:0300230002AE4EDC
:03002B0002D1B44B
:0300630002B39055
:03006B0002A6D119
:1000F800FFFF4457494E5435202603021A70C22682
:10010800909264E0FFA3E0909240CFF0A3EFF090CC
:100118009277E4F0A304F0FB7A8A79B8908B70E4C4
:10012800F0A304F07F107E207D007C00128A52909C
:100138009240E0FEA3E08EF0126FDD02FE10010394
:10014800351002036E100316D4101408601016112F
:100158003C101811C8101916D4101A173C10201783
:100168003C1021173C1022173C1023173C10241771
:100178003C102517641070176410711764107217FB
:100188006410731764107417641075188C10801835
:100198008C10811887108218871083114111001163
:1001A8006E1101119B11021129110318CC120002C2
:1001B800FB200003E7200103F0200205332003059C
:1001C800B820110A7B20120A1620130E9120150E52
:1001D800972016105B2017106620181095201B1406
:1001E80056201D10A7201E03802020102B20211729
:1001F8003C2025173C2026148320301676203516FF
:1002080084203617CB2037189120380986305008BB
:1002180065306018C7307018C7307218C730731847
:10022800C7307418C73075097A308309803084164E
:10023800383090039A322410E53508112E35091606
:10024800D4366016D4367016D43680151840061683
:10025800EE401016EE401116EE401216EE40131640
:10026800EE401416EE4015054A4021188C4500183A
:100278008C4501188C4502188C4503188C450418C8
:100288008C4505188C4506170A4700170A470117B9
:100298000A4702170A4703170A4704170A470517A8
:1002A8002047101720471117204712172047131708
:1002B8002047141720471518874820188C482118FC
:1002C8008C482418204825188C4826187B4827175E
:1002D800D84830182D48320D7148500D9D48510DA1
:1002E800CE48520DFF48530E2E48540E5D48550017
:1002F8000018DA02038A908AB8E07002A3E060036B
:100308000218DA7B017A8A79BA908B70F0A304F02C
:100318007F037E207D007C00128A52908ABAE070AA
:1003280002A3E070030216337F230218D7908AB81D
:10033800E07002A3E060030218DA7B017A8A79BAD6
:10034800908B70F0A304F07F037E207D007C001268
:100358008A52908ABAE07002A3E070057F050218FD
:10036800D77F2A0218D7908AB8E07002A3E060030A
:100378000218DA7F040218D790926EE0FF123A96BC
:100388005008D21912D3A60218DA90926EE0FF0232
:1003980018D77B017A8A79BA908B70E4F0A304F0BD
:1003A8007F247E327D007C00128A52908ABAE0FE59
:1003B800A3E0FF64014E6009EF64024E6003021877
:1003C800DA12D46DE4908ABAF0A3F07B017A8A79C4
:1003D800BA908CD4F0A304F07F247E320216CA307F
:1003E80018030218DA02104F3018030218DA12D371
:1003F800D77B017A8A79BA908B70E4F0A304F07FF6
:10040800027E207D007C00128A52908ABAE0FEA308
:10041800E0FFD39403EE940040030218DAEF4E9005
:100428008AC3700EF0A3F07B017A8A79C3908CD4CA
:10043800800EE4F0A304F0FB7A8A79C3908CD4E4AC
:10044800F0A304F07F217E407D007C001298B090DC
:100458008AC3E0FEA3E0FF123B817B017A8A79BF61
:10046800908B70E4F0A304F07F037E207D007C0075
:10047800128A52908ABAE07004A3E06401702B7F5C
:1004880001123A0E908AC1EEF0A3EFF04E700EFD05
:100498007F01123A14908AC1EEF0A3EFF0908AC15E
:1004A800E0FEA3E0FF4E60778072908ABAE07004A5
:1004B800A3E06402702B7F02123A0E908AC1EEF01C
:1004C800A3EFF04E700EFD7F02123A14908AC1EE2F
:1004D800F0A3EFF0908AC1E0FEA3E0FF4E604080F9
:1004E8003B908ABAE07004A3E064037032908ABF3C
:1004F800A3E0FD7F03123A14908AC1EEF0A3EFF057
:100508004E700EFD7F03123A14908AC1EEF0A3EFED
:10051800F0908AC1E0FEA3E0FF4E6003123501129D
:10052800D3CB12D41F12D419021025123ADED219D5
:1005380012D3A612D3CB12D42512D42212D4280255
:1005480018DA123B9650030218DA12D3F2EF60035E
:100558000218DA7B017A8A79BA908B70F0A304F0DA
:100568007F217E407D007C00128A52908ABAE0FE8C
:10057800A3E0FFD39401EE940040030218DA9092AE
:100588006CE0FCA3E0FDEF6D7002EE6C70030218E6
:10059800DA7BFF7AD8796E908B60EEF0A3EFF012D9
:1005A80083D1908ABAA3E0FF7D5312956F02166D2E
:1005B8007F0712CCE47B017A8A79BA908B70E4F0D9
:1005C800A304F07F117E207D007C00128A52908A5D
:1005D800BAE07004A3E0640170657B017A8A79BA95
:1005E800908B70F0A304F07F007E477D007C0012A2
:1005F8008A527B017A8A79BA908CD4E4F0A304F009
:100608007F007E307D007C001298B0E4908ABAF0BA
:10061800A3F07B017A8A79BA908B70F0A304F07FFB
:10062800107E477D007C00128A527B017A8A79BA53
:10063800908CD4E4F0A304F07F057E300216CA90B3
:100648008ABAE07004A3E06402705E7B017A8A795A
:10065800BA908B70F0A304F0FF7E477D007C0012F7
:100668008A527B017A8A79BA908CD4E4F0A304F098
:100678007F007E307D007C001298B07B017A8A79F9
:10068800BA908B70E4F0A304F07F117E477D007C64
:1006980000128A527B017A8A79BA908CD4E4F0A34A
:1006A80004F07F057E300216CA908ABAE07004A36F
:1006B800E06403705F7B017A8A79BA908B70F0A34B
:1006C80004F07F027E477D007C00128A527B017A0B
:1006D8008A79BA908CD4E4F0A304F07F007E307D50
:1006E800007C001298B07B017A8A79BA908B70E40A
:1006F800F0A304F07F127E477D007C00128A527BB3
:10070800017A8A79BA908CD4E4F0A304F07F057E4C
:10071800300216CA908ABAE07004A3E06404705FDD
:100728007B017A8A79BA908B70F0A304F07F037EFC
:10073800477D007C00128A527B017A8A79BA908CB4
:10074800D4E4F0A304F07F007E307D007C00129892
:10075800B07B017A8A79BA908B70E4F0A304F07FB9
:10076800137E477D007C00128A527B017A8A79BA0F
:10077800908CD4E4F0A304F07F057E300216CA9072
:100788008ABAE07004A3E06405705F7B017A8A7915
:10079800BA908B70F0A304F07F047E477D007C0044
:1007A800128A527B017A8A79BA908CD4E4F0A30435
:1007B800F07F007E307D007C001298B07B017A8A41
:1007C80079BA908B70E4F0A304F07F147E477D0023
:1007D8007C00128A527B017A8A79BA908CD4E4F030
:1007E800A304F07F057E300216CA908ABAE070042E
:1007F800A3E0640660030218DA7B017A8A79BA906A
:100808008B70F0A304F07F057E477D007C00128A80
:10081800527B017A8A79BA908CD4E4F0A304F07FF1
:10082800007E307D007C001298B07B017A8A79BA0C
:10083800908B70E4F0A304F07F157E477D007C0068
:10084800128A527B017A8A79BA908CD4E4F0A30494
:10085800F07F057E300216CA7F0D0218D7E4908A11
:10086800BFF07B017A8A79BA908B70F0A304F07F8D
:10087800167E107D007C00128A527B017A8A79C02C
:10088800908B70E4F0A304F07F037E207D007C0051
:10089800128A52908ABAE07004A3E06401706990E9
:1008A8008ABFF0908ABFE0FFC3940674809480509A
:1008B80041EF2440FFE43431FEE4FCFD7B017A8AF9
:1008C80079BA908B70F0A304F0128A52908ABFE034
:1008D8002400FFE43445FEE4FCFD7B017A8A79BA02
:1008E800908CD4F0A304F01298B0908ABFE004F082
:1008F80080B1908AC0E07004A3E0640170057F298C
:100908000218D77F0C0218D7E4908ABFF0908ABFEC
:10091800E0FFC39406748094805041EF2440FFE4C4
:100928003431FEE4FCFD7B017A8A79BA908B70F051
:10093800A304F0128A52908ABFE02410FFE43445E1
:10094800FEE4FCFD7B017A8A79BA908CD4F0A3048A
:10095800F01298B0908ABFE004F080B1908AC0E0AD
:100968007004A3E0640170057F270218D77F110285
:1009780018D712D4460218DA12D44C0218DA7B01BE
:100988007A8A79BA908B70E4F0A304F07F167E100F
:100998007D007C00128A52908ABAE07004A3E06459
:1009A80001702E7B017A8A79BA908B70F0A304F0DB
:1009B8007F037E207D007C00128A52908ABAE07004
:1009C80004A3E0640170057F290218D77F0C021880
:1009D800D7908ABAE07004A3E0640260030218DAD0
:1009E8007B017A8A79BA908B70F0A304F07F037E3A
:1009F800207D007C00128A52908ABAE07004A3E03D
:100A0800640170057F290218D77F110218D77F0665
:100A180012CCE47B017A8A79BA908B70E4F0A30453
:100A2800F07F007E477D007C00128A527B017A8A23
:100A380079BA908CD4E4F0A304F07F207E307D0056
:100A48007C001298B07B017A8A79BA908B70E4F0B6
:100A5800A304F07F107E477D007C00128A527B0140
:100A68007A8A79BA908CD4E4F0A304F07F257E309A
:100A78000216CA7B017A8A79BA908B70E4F0A304D3
:100A8800F07F117E207D007C00128A52908ABAE0A5
:100A9800FEA3E0908ABFF064014E70637F0212CC1F
:100AA800E47B017A8A79BA908B70E4F0A304F07F32
:100AB800007E307D007C00128A527B017A8A79BAE6
:100AC800908CD4E4F0A304F07F007E477D007C0086
:100AD8001298B07B017A8A79BA908B70E4F0A304FB
:100AE800F07F057E307D007C00128A527B017A8A75
:100AF80079BA908CD4E4F0A304F07F10020D2D9005
:100B08008ABAE07004A3E0640270627F0212CCE447
:100B18007B017A8A79BA908B70E4F0A304F07F00A5
:100B28007E307D007C00128A527B017A8A79BA90E5
:100B38008CD4E4F0A304F0FF7E477D007C0012987B
:100B4800B07B017A8A79BA908B70E4F0A304F07FC5
:100B5800057E307D007C00128A527B017A8A79BA40
:100B6800908CD4E4F0A304F07F11020D2D908ABA82
:100B7800E07004A3E0640370637F0212CCE47B019D
:100B88007A8A79BA908B70E4F0A304F07F007E3003
:100B98007D007C00128A527B017A8A79BA908CD4C3
:100BA800E4F0A304F07F027E477D007C001298B039
:100BB8007B017A8A79BA908B70E4F0A304F07F0500
:100BC8007E307D007C00128A527B017A8A79BA9045
:100BD8008CD4E4F0A304F07F12020D2D908ABAE0C1
:100BE8007004A3E0640470637F0312CCE47B017A91
:100BF8008A79BA908B70E4F0A304F07F007E307D90
:100C0800007C00128A527B017A8A79BA908CD4E4EB
:100C1800F0A304F07F037E477D007C001298B07B30
:100C2800017A8A79BA908B70E4F0A304F07F057E8C
:100C3800307D007C00128A527B017A8A79BA908CC6
:100C4800D4E4F0A304F07F13020D2D908ABAE0706B
:100C580004A3E0640570627F0312CCE47B017A8A06
:100C680079BA908B70E4F0A304F07F007E307D00A9
:100C78007C00128A527B017A8A79BA908CD4E4F08B
:100C8800A304F07F047E477D007C001298B07B01AE
:100C98007A8A79BA908B70E4F0A304F07F057E30ED
:100CA8007D007C00128A527B017A8A79BA908CD4B2
:100CB800E4F0A304F07F14806C908ABAE07004A377
:100CC800E0640670697F0312CCE47B017A8A79BA02
:100CD800908B70E4F0A304F07F007E307D007C00F0
:100CE800128A527B017A8A79BA908CD4E4F0A304F0
:100CF800F07F057E477D007C001298B07B017A8AE0
:100D080079BA908B70E4F0A304F07F057E307D0003
:100D18007C00128A527B017A8A79BA908CD4E4F0EA
:100D2800A304F07F157E477D007C001298B012D195
:100D380044908ABFE0FF7E00C39401748094805081
:100D4800030218DAD3EF94067480948040030218E3
:100D5800DAE0C39401FFE4FD12D3DD908ABFE0C35B
:100D68009401FF122F090218DA7B017A8A79BA9066
:100D78008B70E4F0A304F07F027E207D007C0012DB
:100D88008A52908ABAE07004A3E0640160030218F2
:100D9800DA7D01802B7B017A8A79BA908B70E4F036
:100DA800A304F07F027E207D007C00128A52908A84
:100DB800BAE07004A3E0640160030218DA74FFFD6E
:100DC800FC7F01020E8B7B017A8A79BA908B70E4E2
:100DD800F0A304F07F027E207D007C00128A5290EE
:100DE8008ABAE07004A3E0640260030218DA74FFB0
:100DF800FDFC7F02020E8B7B017A8A79BA908B7098
:100E0800E4F0A304F07F027E207D007C00128A5269
:100E1800908ABAE07004A3E0640260030218DA7DE5
:100E280001FC7F02805D7B017A8A79BA908B70E43D
:100E3800F0A304F07F027E207D007C00128A52908D
:100E48008ABAE07004A3E0640360030218DA7D0143
:100E5800FC7F03802E7B017A8A79BA908B70E4F04C
:100E6800A304F07F027E207D007C00128A52908AC3
:100E7800BAE07004A3E0640360030218DA74FFFDAB
:100E8800FC7F031231080218DA122BED0218DA7B04
:100E9800017A8A79C3908B70E4F0A304F07F037E13
:100EA800207D007C00128A52908AC3E07002A3E081
:100EB8007B016003020F727A8A79BF908B70F0A36E
:100EC80004F07F257E207D007C00128A527B017A07
:100ED8008A79BF908CD4E4F0A304F07F057E207D4E
:100EE800007C001298B0908ABFE0FEA3E0FF7D4628
:100EF8001232FB908AC1EEF0A3EFF07B017A8A7977
:100F0800C1908CD4E4F0A304F07F067E207D007CA1
:100F1800001298B07B017A8A79C5908B70E4F0A3AF
:100F280004F07F027E207D007C00128A52908AC5E0
:100F3800123A3E908AC5A3E0FF908AC1E0FAA3E086
:100F4800FB7D01123A4B908AC5A3E0FFC007908A47
:100F5800BFE0FCA3E0FDE4126713908ACA126F4E4B
:100F6800D0071239547F0102101C7A8A79C3908BFA
:100F780070E4F0A304F07F267E207D007C00128AB6
:100F8800527B017A8A79C3908CD4E4F0A304F07F71
:100F9800067E207D007C001298B0908AC31232F43D
:100FA800908ABFEEF0A3EFF07B017A8A79BF908C2C
:100FB800D4E4F0A304F07F057E207D007C00129825
:100FC800B07B017A8A79C7908B70E4F0A304F07F34
:100FD800027E207D007C00128A52908AC7123A3E17
:100FE800908AC7A3E0FF908AC3E0FAA3E0FB7D01E3
:100FF800123A4B908AC7A3E0FFC007908ABFE0FC73
:10100800A3E0FDE4126713908ACA126F4ED007124C
:1010180039547F1E12CCE412D3D712D3CB12D42268
:101028000218DA7B017A8A79BA908B70E4F0A3040B
:10103800F07F217E207D007C00128A52908ABAE0DF
:10104800FEA3E0FF123B4212D3D712D3CB12D42B0C
:101058000218DA7F0F12CCE4122ADA0218DA7B01BE
:101068007A8A79BA908B70E4F0A304F07F187E2016
:101078007D007C00128A52908ABAE0FEA3E0FF90BD
:101088009266EEF0A3EFF012CD370218C21292204A
:1010980090923B126F4E12D3E912D4310218DA7BC8
:1010A800017A8A79BA908B70E4F0A304F07F1E7EEF
:1010B800207D007C00128A527B017A8A79BA908C52
:1010C800D4E4F0A304F07F1E7E207D007C001298FB
:1010D800B0908ABAA3E0FF12CF070218C2E4908A40
:1010E800BFF0A3F07B017A8A79BF908B70F0A304DC
:1010F800F07F087E357D007C00128A527B017A8A57
:1011080079BF908CD4E4F0A304F07F087E357D008D
:101118007C001298B012D47012D3CB12D43D0218AE
:10112800DA7F3D0218D712D47012D3CB12D43D7F88
:10113800340218D77F0E0218D77B017A8A79BA90C1
:101148008B70E4F0A304F07F037E207D007C001206
:101158008A52908ABAE07002A3E070057F0B0218E9
:10116800D77F280218D77B017A8A79BA908B70E4E6
:10117800F0A304F07F037E207D007C00128A529049
:101188008ABAE07002A3E070057F0B0218D77F28A7
:101198000218D77B017A8A79BA908B70E4F0A3049D
:1011A800F07F037E207D007C00128A52908ABAE08C
:1011B8007002A3E070057F100218D77F260218D7A7
:1011C8007B017A8A79BA908B70E4F0A304F07F18D7
:1011D8007E107D007C00128A52908ABAE07004A3C7
:1011E800E06401600302127F7B017A8A79BA908BEE
:1011F80070F0A304F07F197E107D007C00128A52E3
:10120800908ABAE07004A3E0640170667B017A8A70
:1012180079BA908B70F0A304F07F507E307D007C0B
:1012280000128A527B017A8A79BA908CD4E4F0A3AE
:1012380004F07F807E107D007C001298B07B017ADC
:101248008A79BA908B70E4F0A304F07F517E307DE8
:10125800007C00128A527B017A8A79BA908CD4E495
:10126800F0A304F07F817E107D007C001298B012FC
:10127800D44C7F0C0218D7908ABAE07004A3E064BB
:1012880002600302131D7B017A8A79BA908B70F091
:10129800A304F07F197E107D007C00128A52908A88
:1012A800BAE07004A3E0640170667B017A8A79BAB7
:1012B800908B70F0A304F07F507E307D007C00128C
:1012C8008A527B017A8A79BA908CD4E4F0A304F02C
:1012D8007F827E107D007C001298B07B017A8A792B
:1012E800BA908B70E4F0A304F07F517E307D007CCF
:1012F80000128A527B017A8A79BA908CD4E4F0A3DE
:1013080004F07F837E107D007C001298B012D44FC9
:101318007F0B0218D7908ABAE07004A3E0640360D8
:10132800030213B87B017A8A79BA908B70F0A30410
:10133800F07F197E107D007C00128A52908ABAE0F4
:101348007004A3E0640170637B017A8A79BA908B98
:1013580070F0A304F07F507E307D007C00128A522A
:101368007B017A8A79BA908CD4E4F0A304F07F8464
:101378007E107D007C001298B07B017A8A79BA9041
:101388008B70E4F0A304F07F517E307D007C001266
:101398008A527B017A8A79BA908CD4E4F0A304F05B
:1013A8007F857E107D007C001298B07F120218D7CE
:1013B800908ABAE07004A3E0640460030218DA7B40
:1013C800017A8A79BA908B70F0A304F07F197E10A5
:1013D8007D007C00128A52908ABAE07004A3E0640F
:1013E8000170667B017A8A79BA908B70F0A304F059
:1013F8007F507E307D007C00128A527B017A8A7988
:10140800BA908CD4E4F0A304F07F867E107D007C33
:10141800001298B07B017A8A79BA908B70E4F0A3B5
:1014280004F07F517E307D007C00128A527B017A65
:101438008A79BA908CD4E4F0A304F07F877E107D7B
:10144800007C001298B012D4497F100218D77B0193
:101458007A8A79BA908B70E4F0A304F07F037E2037
:101468007D007C00128A52908ABAE07002A3E06084
:10147800057F200218D77F320218D77B017A8A7934
:10148800BA908B70E4F0A304F07F307E207D007C5E
:1014980000128A52908ABAE07002A3E0606DC3908D
:1014A800926BE094D090926AE0940740527B017A64
:1014B8008A79BA908B70E4F0A304F07F107E207DC7
:1014C800007C00128A52908ABAE07002A3E07E0083
:1014D80060047F0080027F01908ABAEEF0A3EFF0EB
:1014E8007B017A8A79BA908CD4E4F0A304F07F1057
:1014F8007E207D007C001298B012D3CB12D42EC26D
:1015080022E490926AF0A3F00218DAD2220218DAE2
:101518007B017A8A79BF908B70E4F0A304F07F2076
:101528007E307D007C00128A52E4908ABEF0908A58
:10153800BEE0FFC39406748094805048E42FFFE413
:101548003447FEE4FCFD7B017A8A79BF908CD4F0A5
:10155800A304F01298B0908ABAE4F0A304F0908A39
:10156800BEE02410FFE43440FEE4FCFD7B017A8AEF
:1015780079BA908CD4F0A304F01298B0908ABEE0A7
:1015880004F080AA7B017A8A79C1908B70E4F0A379
:1015980004F07F257E307D007C00128A52E4908A18
:1015A800BEF0908ABEE0FFC39406748094805023F6
:1015B800EF2410FFE43447FEE4FCFD7B017A8A79CE
:1015C800C1908CD4F0A304F01298B0908ABEE004C5
:1015D800F080CF7B017A8A79BA908B70E4F0A3040B
:1015E800F07F907E107D007C00128A52E4908ABEC3
:1015F800F0908ABEE0FFC39406748094805023EF75
:101608002420FFE43410FEE4FCFD7B017A8A79BAD9
:10161800908CD4F0A304F01298B0908ABEE004F045
:1016280080CF12D14412D3E012D3CB7F020218D755
:101638007B017A8A79BA908B70E4F0A304F07F90EA
:101648007E307D007C00128A527B017A8A79BA90BA
:101658008CD4E4F0A304F07F027E207D007C00128D
:1016680098B012D3D712D3CB12D41F0218DA12D4DF
:10167800737F2D12CCE412D4790218DA7B017A8AAE
:1016880079BA908B70E4F0A304F07F367E207D0059
:101698007C00128A52908ABAE07004A3E064016068
:1016A800030218DA12D47612D479E4908ABAF0A335
:1016B800F07B017A8A79BA908CD4F0A304F07F3653
:1016C8007E207D007C001298B00218DA909240E0EB
:1016D800FEA3E0FF12D3E612D3CB12D43412D437D0
:1016E80012D43A0218DA909240E0FEA3E0FFC394C5
:1016F80010EE94404064EF24F0FFE4FD12D3DD02C5
:1017080017C2909240E0FEA3E0FFC3EE9447400565
:10171800E4FD12D3DD0217C2909240E0FEA3E0FF81
:10172800C39410EE94474009EF24F0FFE4FD12D370
:10173800DD0217C2909240E0FEA3E0FF7D43122035
:101748002E909240E0FEA3E0FFC39420EE94104058
:1017580009EF24E0FFE4FD12D3DD805E122024901F
:101768009240E0FCA3E0FD2490908ABFF0AF05AE64
:1017780004E4FCFD7B017A8A79C0908B70F0A304A5
:10178800F0128A52908AC01232F4908AC2EEF0A304
:10179800EFF0908ABFE02420FFE43410FEE4FCFD63
:1017A8007B017A8A79C2908CD4F0A304F01298B0A5
:1017B800908ABFE0FFE4FD12D3DD12D3CB12D144EF
:1017C8000218DA12D2DA7F1612CCE4D2240218DA1E
:1017D800909240E0FEA3E0FFE4FCFD7B017A8A7969
:1017E800BF908B70F0A304F0128A52908ABF123215
:1017F800F4908AC1EEF0A3EFF07B017A8A79C19068
:101808008CD4E4F0A304F07F247E487D007C001291
:1018180098B012D44C0218C2E4FD7F0112D3EC1226
:10182800D4460218C2909240E0FEA3E0FFE4FCFD1B
:101838007B017A8A79BF908B70F0A304F0128A52E8
:10184800908ABF1232F4908AC1EEF0A3EFF07B01C8
:101858007A8A79C1908CD4E4F0A304F07F387E486A
:101868007D007C001298B0E4FD7F0112D3EC12D405
:101878004680477D01E4FF12D3EC12D449803B1225
:10188800D44F803612D44C80317B017A8A79BA9051
:101898008B70E4F0A304F07F387E207D007C00127A
:1018A8008A52908ABAE07002A3E06004D2258002CE
:1018B800C225A225B3921912C76312D3CB80131283
:1018C80031FD800E12D47012D3CB12D43D7F341266
:1018D800CCE4909240E0FEA3E0FFC3EE94485003AE
:1018E800021A70D3EF945FEE94484003021A70EF27
:1018F8007003EE64487003021A70EF64027003EE1E
:1019080064487003021A70EF64047003EE64487050
:1019180003021A70EF64067003EE64487003021A3B
:1019280070EF64107003EE64487003021A70EF647D
:10193800127003EE64487003021A70EF64147003A7
:10194800EE64487003021A70EF64167003EE644880
:101958007003021A70EF64087003EE64486010EFB9
:10196800640A7003EE64486006BE480EBF0C0B7D27
:101978004312202E12D3CB02D422909240E0FEA331
:10198800E0FF64187003EE64486010EF641A700397
:10199800EE64486006BE4809BF1C06122024021ADD
:1019A8006D909240E0FEA3E0FFE4FCFD7B017A8AA3
:1019B80079BC908B70F0A304F0128A52909240A3E5
:1019C800E0908ABFF0E0FF25E0249BF582E43482B2
:1019D800F583E0FCA3E0FDEF25E0245BF582E43429
:1019E80083F583E0FEA3E0FFD39DEC6480F8EE640A
:1019F80080984056908ABCE0FCA3E0FDD39FEE643B
:101A080080F8EC6480984019908ABFE025E0245B58
:101A1800F582E43483F583E0FFA3E0908ABCCF80AD
:101A280025908ABFE025E0249BF582E43482F58383
:101A3800E0FEA3E0FFC3ED9FEE6480F8EC648098BD
:101A48005008908ABCEEF0A3EFF0909240E0FEA31D
:101A5800E0FFE4FCFD7B017A8A79BC908CD4F0A38A
:101A680004F01298B012D3CB227B017A8B7937908D
:101A78008B70E4F0A304F07F037E207D007C0012CD
:101A88008A527B017A8B7939908B70E4F0A304F049
:101A98007F057E207D007C00128A527B017A8B793B
:101AA8003B908B70E4F0A304F07F067E207D007CE1
:101AB80000128A52908B37E07002A3E0601A908B74
:101AC80039E0FEA3E0FF4E6002802D908B3BE0FEE4
:101AD800A3E0FF4E602F800B908B3BE0FEA3E0FF5E
:101AE8004E600A7D431232FB908B398013908B39FC
:101AF800E0FEA3E0FF4E600D7D461232FB908B3B6B
:101B0800EEF0A3EFF0908B39E0FEA3E0FF4E600209
:101B18008020908B3BE0FEA3E0FF4E60187D4312CF
:101B280032FB908B39EEF0A3EFF0908B39E0FEA3F7
:101B3800E0FF1235017B017A8B7939908CD4E4F07F
:101B4800A304F07F257E207D007C001298B07B01E5
:101B58007A8B793B908CD4E4F0A304F07F267E2026
:101B68007D007C001298B0123697908B46126F5AFF
:101B7800000048107F001238F8908B46126F5A0008
:101B88000048127F021238F8908B46126F5A0000F4
:101B980048147F041238F8908B46126F5A00004898
:101BA800167F061238F8908B3D7401F0908B3DE05B
:101BB800FFD39403748094805040E4FD123A14904B
:101BC8008B39EEF0A3EFF0908B39E0FEA3E0FF4EE7
:101BD800601D7D461232FB908B3BEEF0A3EFF0A325
:101BE800E0FF908B3BE0FAA3E0FB7D01123A4B4308
:101BF800C901908B3DE004F080B2908B46126F5A79
:101C0800000010087F067E101238FA908B46126F7B
:101C18005A0000101A7F147E101238FAE4908B3D97
:101C2800F0908B3DE0FFC3940674809480400302DB
:101C38001CEFEF2420FFE43410FEE4FCFD7B017A66
:101C48008B7939908B70F0A304F0128A52908B3DF7
:101C5800E0FF908B39E0FCA3E0FD123704908B3D48
:101C6800E025E0FFE433FEEF2430FFEE3410FEE41D
:101C7800FCFD7B017A8B793E908B70F0A37402F0A7
:101C8800128A52E4FFFEFDFC908B3EE0F8A3E0F9D7
:101C9800A3E0FAA3E0FB1266956040403E908B3DBE
:101CA800E025E0FFE433FEEF2430FFEE3410FEE4DD
:101CB800FCFDC004C005C006C007E025E0FFE43312
:101CC800FEEF2440FFEE3410FEE4908B46126F4E78
:101CD800D007D006D005D0041238FE43C901908B36
:101CE8003DE004F0021C297B017A8B7939908B70D6
:101CF800E4F0A304F07F247E487D007C00128A5221
:101D0800908B39E0FAA3E0FB4A6017908B46126F7C
:101D18005A00004830908B4AEAF0A3EBF07F241277
:101D280038997B017A8B7939908B70E4F0A304F0B1
:101D38007F387E487D007C00128A52908B39E0FA09
:101D4800A3E0FB4A6017908B46126F5A0000483296
:101D5800908B4AEAF0A3EBF07F3812389902D3EF60
:101D68007B017A8A79B8908B70E4F0A304F07F1233
:101D78007E007D007C00128A521222D912D3AD90C7
:101D88008ABCEFF0908AB8E0FEA3E0FDEDFF908AF0
:101D9800BDEEF0A3EFF0909232E07003021EA39024
:101DA8008ABCE0FF12345DEF7003021EA3908AB86C
:101DB800E0FF909233E06F6003021E87908AB9E0DB
:101DC800FF909234E06F6003021E87908ABDE0FEA8
:101DD800A3E0FF909226E06E7003A3E06F70030209
:101DE8001EA3908ABAE4F0A304F0FB7A8A79BA9029
:101DF8008CD4E4F0A304F07F217E407D007C0012A7
:101E080098B07B017A927938908CD4E4F0A304F0EE
:101E18007F027E207D007C001298B0909238E064AA
:101E280001700BA3E0FB7A00E4FD7F01802490920F
:101E380038E06402700BA3E0FB7A00E4FD7F0280C7
:101E480011909238E06403700CA3E0FB7A00E4FD83
:101E58007F03123A4B909239E0FF7E00123501124F
:101E6800D3D712D3CB12D41912D41F12D422908AEA
:101E7800BDE0FFA3E0909226CFF0A3EFF0801C9086
:101E88008ABDE0FEA3E0FF909226E0B5060DA3E030
:101E9800B5070874FF909226F0A3F0909235E07091
:101EA80003021F3B908ABCE0FF12345DEF7003020F
:101EB8001F3B908AB8E0FF909236E06F7059908A85
:101EC800B9E0FF909237E06F704D908ABDE0FEA3B5
:101ED800E0FF909228E06E7003A3E06F6055E490F5
:101EE8008ABAF0A3F07B017A8A79BA908CD4F0A3ED
:101EF80004F07F217E407D007C001298B012D3D779
:101F080012D3CB12D419908ABDE0FFA3E090922897
:101F1800CFF0A3EFF0801C908ABDE0FEA3E0FF9015
:101F28009228E0B5060DA3E0B5070874FF90922843
:101F3800F0A3F0909254E0606D908ABCE0FF1233F9
:101F4800B8EF6062908AB8E0FF909255E06F703AFF
:101F5800908AB9E0FF909256E0B5072E908ABDE0CE
:101F6800FEA3E0FF90922AE06E7003A3E06F603654
:101F78001229B412D3CB12D144908ABDE0FFA3E05A
:101F880090922ACFF0A3EFF0801C908ABDE0FEA3C8
:101F9800E0FF90922AE0B5060DA3E0B5070874FFAC
:101FA80090922AF0A3F0909257E0606D908ABCE07E
:101FB800FF1233B8EF6062908AB8E0FF909258E061
:101FC8006F703A908AB9E0FF909259E0B5072E9069
:101FD8008ABDE0FEA3E0FF90922CE06E7003A3E0C0
:101FE8006F603612361F12D3CB12D144908ABDE0EF
:101FF800FFA3E090922CCFF0A3EFF0801C908ABD55
:10200800E0FEA3E0FF90922CE0B5060DA3E0B50733
:102018000874FF90922CF0A3F0022504909240E0FF
:10202800FEA3E0FF7D46908AD6EDF0908AD4EEF0CC
:10203800A3EFF0E4FCFD7B017A8A79D7908B70F0EE
:10204800A304F0128A52908AD4E0FEA3E0FFC3945E
:1020580020EE9410400BD3EF9425EE94105002809C
:1020680022C3EF9470EE9410400BD3EF9475EE9466
:102078001050028027908AD4E0FEA3E0FFBE20160D
:10208800BF2513908AD9E4F0A37410F0A3E4F0A359
:102098007420F0022180BE201BBF26187D467F10C9
:1020A8007E001232FB908AD9EEF0A3EFF07D467FD6
:1020B80020022173908AD4E0FEA3E0FFBE4816BF39
:1020C8000813908AD9E4F0A3741EF0A3E4F0A37473
:1020D8003CF0022180BE4816BF0A13908AD9E4F06A
:1020E800A3741EF0A3E4F0A37432F0022180BE486A
:1020F80015BF0C12908AD9E4F0A3740FF0A3E4F092
:10210800A37428F08072BE481ABF18177D467F1E38
:102118007E001232FB908AD9EEF0A3EFF07D467F65
:102128003C8048908AD4E0B4481CA3E0B41A177DD8
:10213800467F1E7E001232FB908AD9EEF0A3EFF0A4
:102148007D467F328025908AD4E064487004A3E0FD
:10215800641C60030222D87D467F0FFE1232FB907A
:102168008AD9EEF0A3EFF07D467F287E001232FB7D
:10217800908ADBEEF0A3EFF0908AD9E0FEA3E0FFAF
:10218800908AD7E0FCA3E0FDC39FEC9E5002800F2D
:10219800908ADBE0FEA3E0FFD3ED9FEC9E40089021
:1021A8008AD7EEF0A3EFF0908AD4E0FEA3E0FFE434
:1021B800FCFD7B017A8A79D7908CD4F0A304F012C5
:1021C80098B0908AD4E0FEA3E0FFC39420EE941068
:1021D800400ED3EF9425EE94105005EF24E0802BA9
:1021E800908AD4E0FEA3E0FFC39470EE94104027D9
:1021F800D3EF9475EE9410501E1232F1908AD7EEF8
:10220800F0A3EFF0908AD4A3E02490FF908AD7E05F
:10221800FCA3E0FD023704908AD4E0B4200FA3E0C9
:10222800B4250A908AD7E0FEA3E0FF800F908AD4F5
:10223800E0B4200BA3E0B426061232F10235019077
:102248008AD4E0FEA3E0FF64087003EE64486014DB
:10225800EF640A7003EE6448600AEF640C7003EEE2
:1022680064487028908AD7E0FEA3E0FF7D461232CA
:10227800FBAB07AA06908AD5E024F8FF908AD4E041
:1022880034B7C313EF1304FF7D018041908AD4E073
:10229800FEA3E0FF64187003EE64486014EF641A4C
:1022A8007003EE6448600AEF641C7003EE644870C3
:1022B8001F1232F1AB07AA06908AD5E024E8FF90F6
:1022C8008AD4E034B7C313EF1304FFE4FD123A4B8A
:1022D8002278BF7C8A7D017BFF7AD879857E007F52
:1022E80002126B477B017A8A79BF908B70E4F0A366
:1022F80004F07F217E487D007C00128A52908AC0BB
:10230800E0909232F07B017A8A79BF908B70E4F08A
:10231800A304F07F807E107D007C00128A52908A90
:10232800C0E0909233F07B017A8A79BF908B70E499
:10233800F0A304F07F817E107D007C00128A529009
:102348008AC0E0909234F07B017A8A79BF908B70D2
:10235800E4F0A304F07F207E487D007C00128A52BE
:10236800908AC0E0909235F07B017A8A79BF908B91
:1023780070E4F0A304F07F827E107D007C00128A56
:1023880052908AC0E0909236F07B017A8A79BF90A9
:102398008B70E4F0A304F07F837E107D007C001234
:1023A8008A52908AC0E0909237F07B017A8A79BF8E
:1023B800908B70E4F0A304F07F267E487D007C00BB
:1023C800128A52908AC0E0909238F0908AC5126FB3
:1023D8005A000048307F2412359C909239EFF07BE8
:1023E800017A8A79BF908B70E4F0A304F07F257E90
:1023F800487D007C00128A52908AC0E0909254F086
:102408007B017A8A79BF908B70E4F0A304F07F8413
:102418007E107D007C00128A52908AC0E09092550E
:10242800F07B017A8A79BF908B70E4F0A304F07F87
:10243800857E107D007C00128A52908AC0E09092BE
:1024480056F07B017A8A79BF908B70E4F0A304F090
:102458007F277E487D007C00128A52908AC0E090D7
:102468009257F07B017A8A79BF908B70E4F0A304CD
:10247800F07F867E107D007C00128A52908AC0E030
:10248800909258F07B017A8A79BF908B70E4F0A320
:1024980004F07F877E107D007C00128A52908AC0EB
:1024A800E0909259F07B017A8A79BF908B70E4F0C2
:1024B800A304F07F367E487D007C00128A52908A01
:1024C800C0E090925AF07B017A8A79BF908B70E4D1
:1024D800F0A304F07F377E487D007C00128A52907A
:1024E8008AC0E090925BF0908AC5126F5A0000484B
:1024F800327F3812359C90925CEFF02290924DE03A
:102508007002A3E070030226BF7B017A8A79BF902C
:102518008B70E4F0A304F07F1B7E207D007C00120A
:102528008A52908ABFE07002A3E0700790924DF043
:10253800A3F0227B017A8A79C1908B70E4F0A3041E
:10254800F07F707E367D007C00128A52908AC1E04E
:102558007002A3E070187B017A8A79C1908B70F0C1
:10256800A304F07F127E107D007C00128A52D39063
:102578008AC2E09400908AC1E094004067E4FFFEBC
:10258800FDFC90923BE0F8A3E0F9A3E0FAA3E0FB9E
:10259800D3126EDD404E12922090923BE0F8A3E0F9
:1025A800F9A3E0FAA3E0FBC3EF9BFFEE9AFEED99D7
:1025B800FDEC98FCC004C005C006C007908AC1E0C5
:1025C800FEA3E0FF7C007D3C12700AA804A905AABE
:1025D80006AB07D007D006D005D004D3126EDD5065
:1025E800030226867B017A8A79C3908B70E4F0A374
:1025F8007402F07F067E107D007C00128A527B01F7
:102608007A8A79C7908B70E4F0A37402F07F147E05
:10261800107D007C00128A52E4FFFEFDFC90923B84
:10262800E0F8A3E0F9A3E0FAA3E0FBD3126EDD40E3
:102638002A12922090923BE0F8A3E0F9A3E0FAA3D3
:10264800E0FBC3EF9BFFEE9AFEED99FDEC98FCE4EE
:102658007B3CFAF9F8D3126EDD505C908AC7E0FC37
:10266800A3E0FDA3E0FEA3E0FF908AC3E0F8A3E0A7
:10267800F9A3E0FAA3E0FB126695603B4039E490C9
:102688008ACBF0A3F090924DF0A3F090923B126F9A
:102698005A0000000012D3DA7B017A8A79CB908C39
:1026A800D4E4F0A304F07F1B7E207D007C00129808
:1026B800B012D3D712D4312212CDAFEFD39406740F
:1026C8008094804002E4FFEF64037005FE7F018080
:1026D800047E007F00908AB8EEF0A3EFF07B017AC9
:1026E8008A79B8908CD4E4F0A304F07F437E307DDF
:1026F800007C001298B0E4908ABAF0A3F07B017ACB
:102708008A79B8908B70F0A304F07F217E487D0011
:102718007C00128A52908AB8E07002A3E0600890A8
:102728008ABAE4F0A304F0908ABAE07002A3E070D9
:102738002A7B017A8A79B8908B70F0A304F07F2005
:102748007E487D007C00128A52908AB8E07002A30D
:10275800E06008908ABAE4F0A304F0908ABAE070C6
:1027680002A3E0702A7B017A8A79B8908B70F0A373
:1027780004F07F257E487D007C00128A52908AB83A
:10278800E07002A3E06008908ABAE4F0A304F09035
:102798008ABAE07002A3E0702A7B017A8A79B8903D
:1027A8008B70F0A304F07F277E487D007C00128A9E
:1027B80052908AB8E07002A3E06008908ABAE4F008
:1027C800A304F0908ABAE07002A3E07E0060047F60
:1027D8000180027F00908AB8EEF0A3EFF07B017AC7
:1027E8008A79B8908CD4E4F0A304F07F047E207D2D
:1027F800007C001298B07B017A8A79BC908B70E4D7
:10280800F0A304F0FF7E207D007C00128A52909293
:102818002EE0FE908ABCE0FF6E600B12300D908AAD
:10282800BCE090922EF090924DE07002A3E07E0002
:1028380060047F0180027F00908AB8EEF0A3EFF079
:102848007B017A8A79B8908CD4E4F0A304F07F41B4
:102858007E307D007C000298B03030030229B3300E
:1028680023030229B3C3909280E0942090927FE0E2
:10287800944E50030229B32025030229B3123ABC0F
:10288800EF64424E600D123ABC90926EEFF07F42B8
:1028980012CCE47B017A8A79BC908B70E4F0A304B3
:1028A800F07F047E207D007C00128A527B017A8AA8
:1028B80079BA908B70E4F0A304F0FF7E207D007C51
:1028C80000128A527B017A8A79BE908B70E4F0A359
:1028D80004F07F077E467D007C00128A52908ABEF3
:1028E800E07002A3E06008908AB97404F08039901F
:1028F8008ABCE07002A3E07006908AB9F080299043
:102908008ABAE0FEA3E0FFEE7018EF24FE600B0425
:102918007010908AB97401F0800E908AB97402F030
:102928008006908AB97403F0908AB9E0FF909231DA
:10293800E06F6077E4908AB8F0908AB8E0FFC394BB
:102948000574809480505CA3E06F601F908AC07407
:10295800FFF0A3E4F0A3F0A3F0908AB8E075F002CA
:10296800A42460FFE5F03430FE801D908AB8E0753D
:10297800F002A42460FFE5F03430FE908AC0F0A392
:10298800EFF0A3E4F0A304F0E4FCFD7B017A8A797C
:10299800C2908CD4F0A304F01298B0908AB8E004E6
:1029A800F08096908AB9E0909231F0227B017A8A81
:1029B80079C2908B70E4F0A304F07F377E487D00E5
:1029C8007C00128A527B017A8A79C4908B70E4F079
:1029D800A304F07F387E487D007C00128A527B0178
:1029E8007A8A79C6908B70E4F0A304F07F817E30F8
:1029F8007D007C00128A52E4908ABFF0908ABFE082
:102A0800FFC39406748094804003022AD7E4908A16
:102A1800C8F0A3F0EF2460FFE43448FEE4FCFD7B3B
:102A2800017A8A79C8908B70F0A304F0128A5290C8
:102A38008AC8E07002A3E07003022ACE908AC0E43C
:102A4800F0A304F0908ABFE02410FFE43440FEE4D1
:102A5800FCFD7B017A8A79C0908CD4F0A304F01233
:102A680098B0908ABFE02400FFE43447FEE4FCFD00
:102A78007B017A8A79C2908CD4F0A304F01298B0C2
:102A8800908ABFE02420FFE43410FEE4FCFD7B01C3
:102A98007A8A79C4908CD4F0A304F01298B0908A02
:102AA800BFE02410FFE43447FEE4FCFD7B017A8A92
:102AB80079C6908CD4F0A304F01298B0908ABFE045
:102AC800FFE4FD12D3DD908ABFE004F0022A04027D
:102AD800D1447B017A8A79CB908B70E4F0A304F01F
:102AE8007F107E307D007C00128A527B017A8A79C1
:102AF800CB908CD4E4F0A304F07F707E307D007C12
:102B0800001298B07B017A8A79CD908B70E4F0A39B
:102B180004F07F117E307D007C00128A52908ACBAF
:102B2800E0FEA3E0FFA3E0FCA3E0FD12D2F5908A4B
:102B3800CFEEF0A3EFF07B017A8A79CF908CD4E4C2
:102B4800F0A304F07F727E307D007C001298B07B89
:102B5800017A8A79C9908B70E4F0A304F07F127E21
:102B6800307D007C00128A527B017A8A79C9908C68
:102B7800D4E4F0A304F07F737E307D007C001298CB
:102B8800B07B017A8A79C9908B70E4F0A304F07F56
:102B9800137E307D007C00128A527B017A8A79C9C3
:102BA800908CD4E4F0A304F07F747E307D007C0028
:102BB8001298B07B017A8A79C9908B70E4F0A304EB
:102BC800F07F147E307D007C00128A527B017A8A65
:102BD80079C9908CD4E4F0A304F07F757E307D0031
:102BE8007C000298B07B017A8A79C9908B70E4F0F6
:102BF800A304F07F027E207D007C00128A52908A16
:102C0800C9A3E0FFE4FD123A14908ACDEEF0A3EFD9
:102C1800F0908AC9A3E0FF7D01123A14908ACFEEA2
:102C2800F0A3EFF0908ACFE07002A3E07018908ACA
:102C3800CDE0FEA3E0FF4E600D7D461232FB908A88
:102C4800CFEEF0A3EFF0908ACDE07002A3E0701809
:102C5800908ACFE0FEA3E0FF4E600D7D431232FB69
:102C6800908ACDEEF0A3EFF07B017A8A79CD908C33
:102C7800D4E4F0A304F07F257E207D007C00129828
:102C8800B07B017A8A79CF908CD4E4F0A304F07FEA
:102C9800267E207D007C001298B07B017A8A79CB51
:102CA800908B70E4F0A304F07F037E207D007C000D
:102CB800128A52908ACBE07002A3E070177F081244
:102CC800CCE47B017A8A79CD908CD4E4F0A304F02B
:102CD8007F0580157F2B12CCE47B017A8A79CF900F
:102CE8008CD4E4F0A304F07F067E207D007C0012E3
:102CF80098B02212D3F8EF6062E4908AB8F0908A14
:102D0800B8E0FFC3940674809480504CEF2410FF01
:102D1800E43440FEE4FCFD7B017A8A79B9908B703B
:102D2800F0A304F0128A52D3908ABAE09401908AF0
:102D3800B9E094004005E4F0A304F0908AB9A3E058
:102D4800FF908AB8E0245EF582E43492F583EFF0D0
:102D5800908AB8E004F080A6022DFCE4908AB8F0CE
:102D6800908AB8E0FFC39406748094804003022DD3
:102D7800FCEF2410FFE43440FEE4FCFD7B017A8A7A
:102D880079B9908B70F0A304F0128A52D3908ABA62
:102D9800E09401908AB9E094004005E4F0A304F0BF
:102DA800909251E07017908AB9A3E0FF908AB8E03A
:102DB800245EF582E43492F583EFF0802E908AB990
:102DC800A3E0FE908AB8E0245EF582E43492F583AD
:102DD800E0FFEE6F6015908AB8E0FF245EF582E4AC
:102DE8003492F583EEF0E4FD12D3DD908AB8E00466
:102DF800F0022D689092517401F022E4908B55F006
:102E0800A3F0A3F0A374FFF0E4908B57F0908B57D6
:102E1800E0FFC39406748094805037EF2410FFE4D9
:102E28003440FEE4FCFD7B017A8B7955908B70F081
:102E3800A304F0128A52908B55E07004A3E0640159
:102E48007008908B57E0A3F08008908B57E004F04F
:102E580080BBE4908B55F0A3F0908B58E0FFC394AF
:102E680006748094805060EF75F020A42401FFE57B
:102E7800F03411FEE4FCFD7B017A8B7955908B7060
:102E8800F0A304F0128A52D3908B56E09404908BEE
:102E980055E094004031908B58E02400FFE434471B
:102EA800FEE4FCFD7B017A8B7955908B70F0A304CE
:102EB800F0128A52D3908B56E09404908B55E0948C
:102EC800004004E4F0A3F07B017A8B7955908CD410
:102ED800E4F0A304F0FF7E207D007C001298B090FF
:102EE8009225E0FF908B55E0FCA3E0FD6F7001ECAC
:102EF800600EAF0512300D908B55A3E0909225F02F
:102F080022908AC9EFF0908ACB74FFF0C3EF940641
:102F180074809480400302300CE4908ACAF0908A4E
:102F2800CAE0FFC39406748094805037EF2410FFE2
:102F3800E43440FEE4FCFD7B017A8A79CC908B7006
:102F4800F0A304F0128A52908ACCE07004A3E064E3
:102F5800017008908ACAE0A3F08008908ACAE00449
:102F6800F080BB908ACBE0FFF4700302300C908AAB
:102F7800C9E0FE6F600302300CEE2400FFE4344722
:102F8800FEE4FCFD7B017A8A79CE908B70F0A30475
:102F9800F0128A52D3908ACFE09404908ACEE094BB
:102FA800004004E4F0A3F0908AC9E075F020A4245E
:102FB80001FFE5F03411FEE4FCFD7B017A8A79CE4D
:102FC800908CD4F0A304F01298B07B017A8A79CE61
:102FD800908CD4E4F0A304F0FF7E207D007C0012E6
:102FE80098B07B017A8A79CE908CD4E4F0A304F06F
:102FF8007F177E407D007C001298B0908ACEA3E0B7
:10300800FF12300D22EFD394047480948040027F25
:1030180004EF14601C14602B14603A24037047906A
:103028008B59E4F0A37432F0A3E4F0A37442F08067
:1030380045908B59E4F0A37446F0A3E4F0A37456CA
:10304800F08033908B59E4F0A37414F0A3E4F0A358
:103058007424F08021908B59E4F0A304F0A3E4F0E9
:10306800A37411F08010908B59E4F0A37428F0A396
:10307800E4F0A37431F07B017A8B795B908CD4E413
:10308800F0A304F07F067E807D007C001298B07B60
:10309800017A8B7959908CD4E4F0A304F07F077EF1
:1030A800807D007C001298B07B017A8B795B908CD4
:1030B800D4E4F0A304F07F087E807D007C001298A1
:1030C800B0908B5DE4F0A304F0FB7A8B795D908C73
:1030D800D4E4F0A304F07F607E407D007C00129869
:1030E800B0E4908B5DF0A3F07B017A8B795D908CD6
:1030F800D4F0A304F07F607E407D007C000298B08D
:10310800908AC9EFF0A3ECF0A3EDF07B017A8A79FD
:10311800CC908B70E4F0A304F07F037E207D007CCC
:1031280000128A52908AC9E0FF908ACCA3E0FD126F
:103138003835908AD0126F4E908AD0E0FCA3E0FD1B
:10314800A3E0FEA3E0FFEC4D4E4F70030231FC7B81
:10315800017A8A79CE908B70E4F0A304F0128A5237
:10316800908ACEE0FEA3E0FF908ACBE02FFF908A02
:10317800CAE03E908ACEF0A3EFF0A3E0FCA3E0FD06
:10318800A3E0FEA3E0FF7B017A8A79CE908CD4E499
:10319800F0A304F01298B0908AD0A3A3E0FEA3E0B5
:1031A800FF908ACCE07002A3E07D4360027D461266
:1031B800202E908AD0E0FCA3E0FDA3E0FEA3E0FF70
:1031C8007B017A8A79CE908B70E4F0A304F0128A9E
:1031D80052908ACCE07002A3E0908ACE6005123249
:1031E800F48005E0FEA3E0FF12350112D3D712D315
:1031F800CB12D422227B017A8A79CF908B70E4F0AB
:10320800A304F07F707E307D007C00128A527B011F
:103218007A8A79D1908B70E4F0A304F07F727E30C3
:103228007D007C00128A527B017A8A79D3908B7058
:10323800E4F0A304F07F737E307D007C00128A5294
:103248007B017A8A79D5908B70E4F0A304F07F74BF
:103258007E307D007C00128A527B017A8A79D79071
:103268008B70E4F0A304F07F757E307D007C001243
:103278008A52908ACFE0FEA3E0FFC394D0EE940771
:10328800400CEF2430FFEE34F8908AD9800B908AF6
:10329800CFE0FFA3E0908AD9CFF0A3EFF0908ADACD
:1032A800E0FE908AD2E0FDEDFF908AC9EEF0A3EF30
:1032B800F0908AD4E0FE908AD6E0FDEDFF908ACBAC
:1032C800EEF0A3EFF0908AD8E0908ACDF0A3E4F076
:1032D8007B017A8A79C9908CD4F0A37403F07F9D1E
:1032E8007E007D007C000298B0908AD7E0FEA3E0C3
:1032F800FF7D43908B55EDF06443703AC3EF94EA39
:10330800EE6480947F50067EFF7FEA800FD3EF94AF
:103318000AEE6480948140047E017F0AEF24E0FF76
:10332800EE34FFFE7C007D32126C1A7D09126C812E
:10333800908B56EE803E908B55E06446703AC3EF12
:1033480094E2EE6480947F50067EFF7FE2800FD384
:10335800EF9482EE6480948040047E007F827C003B
:103368007D5A126C1A7D05126C81EF2440FFEE34F1
:1033780001908B56F0A3EFF0908B56E0FEA3E0FF90
:10338800D39400EE648094804008EF2405FFE43E67
:10339800800D908B57E024FBFF908B56E034FFFEA6
:1033A8007C007D0A126C81908B56EEF0A3EFF02220
:1033B800E4908AC1F0A3F0EF70047F068005C3EFA4
:1033C8009401FF908ABFEFF0E4908AC3F0908AC31B
:1033D800E0FFC39407748094805049EF2410FFE401
:1033E8003445FEE4FCFD7B017A8A79C0908B70F04D
:1033F800A304F0128A52908AC0E06020908AC3E049
:10340800FF7E007401A807088005C333CE33CED8E9
:10341800F9FF908AC1E04EF0A3E04FF0908AC3E034
:1034280004F080A9908AC1E0FCA3E0FD4C70037F02
:103438000122908ABFE0FF7E007401A8070880057A
:10344800C333CE33CED8F9FFEC5EFEED5F4E7F007E
:1034580060027F0122E4908AC1F0A3F0EF70047F3C
:10346800068005C3EF9401FF908ABFEFF0E4908ACD
:10347800C3F0908AC3E0FFC39407748094805048D7
:10348800E42FFFE43445FEE4FCFD7B017A8A79C031
:10349800908B70F0A304F0128A52908AC0E06020EA
:1034A800908AC3E0FF7E007401A807088005C33333
:1034B800CE33CED8F9FF908AC1E04EF0A3E04FF0AA
:1034C800908AC3E004F080AA908AC1E0FCA3E0FDE2
:1034D8004C70037F0122908ABFE0FF7E007401A830
:1034E80007088005C333CE33CED8F9FFEC5EFEED76
:1034F8005F4E7F0060027F0122908B46EEF0A3EFC3
:10350800F0908B46E0FEA3E0FF7D461232FB908BE5
:1035180048EEF0A3EFF07B017A8B7946908CD4E4E7
:10352800F0A304F07F057E207D007C001298B07B1C
:10353800017A8B7948908CD4E4F0A304F07F067E5E
:10354800207D007C001298B07B017A8B794A908BA1
:1035580070E4F0A304F07F027E207D007C00128AD4
:1035680052908B4AE0FEA3E0FFC39401EE94004022
:1035780022D3EF9403EE94005019908B46123A44EC
:10358800908B4AA3E0FF908B48E0FAA3E0FB7D0113
:10359800123A4B227E487D007C00908AC1126F4E01
:1035A8007B017A8A79C9908B70E4F0A304F07F03D9
:1035B8007E207D007C00128A52908AC9E07002A3A6
:1035C800E0602C908AC5E0FCA3E0FDA3E0FEA3E048
:1035D800FF7B017A8A79CD908B70E4F0A304F01216
:1035E8008A52908ACDE0FEA3E0FF7D430232FB9031
:1035F8008AC1E0FCA3E0FDA3E0FEA3E0FF7B017A23
:103608008A79CB908B70E4F0A304F0128A52908AE6
:10361800CBE0FEA3E0FF22E4908AC0F0A3F0908AFA
:10362800BFF0908ABFE0FFC3940674809480505C1A
:10363800E4908AC2F0A3F0EF2460FFE43448FEE48B
:10364800FCFD7B017A8A79C2908B70F0A304F0129A
:103658008A52908AC2E07002A3E06028908ABFE094
:103668002410FFE43440FEE4FCFD7B017A8A79C033
:10367800908CD4F0A304F01298B0908ABFE0FFE4D5
:10368800FD12D3DD908ABFE004F0809602D1447B1E
:10369800017A8B7942908B70E4F0A304F07F027E6C
:1036A800207D007C00128A527B017A8B7944908BB2
:1036B80070E4F0A304F07F037E207D007C00128A72
:1036C80052908B42E0FEA3E0FFC39401EE940040C9
:1036D8002AD3EF9403EE94005021A3A3E0FD123AFD
:1036E80014908B44E07002A3E06009EF4E60057D02
:1036F800431232FBEF4E600312350122908B43ECEC
:10370800F0A3EDF0908B42EFF0C3940674809480A0
:10371800504FA3E0FEA3E0FF7D461232FB908B459D
:10372800EEF0A3EFF0908B42E02420FFE43410FE8B
:10373800E4FCFD7B017A8B7943908CD4F0A304F0F0
:103748001298B0908B42E02470FFE43410FEE4FC41
:10375800FD7B017A8B7945908CD4F0A304F0129804
:10376800B022E4908B55F0908B55E0FFC39406741B
:10377800809480504CEF2410FFE43440FEE4FCFDBC
:103788007B017A8B7956908B70F0A304F0128A52E1
:10379800D3908B57E09401908B56E094004005E459
:1037A800F0A304F0908B56A3E0FF908B55E0245EC5
:1037B800F582E43492F583EFF0908B55E004F080C5
:1037C800A69092517401F02278B87C8A7D017BFF23
:1037D8007AD879817E007F04126B477B017A9279CF
:1037E80081908B70E4F0A37402F07F007E0F7D005F
:1037F8007C00128A52909281E0645A702DA3E0FEF8
:10380800A3E0FDEDFF909240EEF0A3EFF07B017A8C
:103818008A79B8908CD4E4F0A37402F07F007E0F0C
:103828007D007C001298B07F01227F0022908B4E91
:10383800EFF0C3940174809480400AD3EF9403742A
:103848008094804006E4FFFEFDFC22ED908B4E60E4
:103858001BE024FFFFE434FFFE3395E0FDFCE47B2E
:1038680002FAF9F8126D9CEF24188019E024FFFF82
:10387800E434FFFE3395E0FDFCE47B02FAF9F8122C
:103888006D9CEF2408FFEE3448FEE43DFDE43CFC6B
:10389800227E487D007C00908B42126F4E908B4AAE
:1038A800E0FEA3E0FF7D461232FB908B4CEEF0A3C6
:1038B800EFF0908B42E0FCA3E0FDA3E0FEA3E0FF65
:1038C8007B017A8B794A908CD4E4F0A304F01298A7
:1038D800B0908B46E0FCA3E0FDA3E0FEA3E0FF7BF5
:1038E800017A8B794C908CD4E4F0A304F00298B060
:1038F8007E487D007C007B017A8B794A908B70E44E
:10390800F0A37402F0128A52908B4AE0FCA3E0FD07
:10391800A3E0FEA3E0FF12674C7D461232FBAC0623
:10392800AD07EC126713908B4E126F4E908B46E0EA
:10393800FCA3E0FDA3E0FEA3E0FF7B017A8B794EB8
:10394800908CD4E4F0A37402F00298B0908AC9EF86
:10395800F0A3E0FCA3E0FDA3E0FEA3E0FF12674CA8
:10396800908AD0EEF0A3EFF07D461232FB908ACE1B
:10397800EEF0A3EFF0908AC9E0908AD0123A439013
:103988008AC9E0FF908ACEE0FAA3E0FB7D01023A03
:103998004BE4908B35F0A3F0201A0A123ABC123A85
:1039A800965031802C7B017A8B7935908B70E4F0BE
:1039B800A304F07F037E207D007C00128A52908B46
:1039C80035E07002A3E070047F0180027F1E12CCF4
:1039D800E412D40422202402802612D3B9EF60090D
:1039E8007F1712CCE4C224801790922FE004F0E0F5
:1039F800C3941E74809480400C7F1512CCE4C224BA
:103A0800E490922FF022908ABFA3E0FDE4908B46C9
:103A1800F0A3F0123835EC4D4E4F60117B017A8BD4
:103A28007946908B70E4F0A304F0128A52908B468A
:103A3800E0FEA3E0FF22A3E0908ABFFFE0FAA3E044
:103A4800FBE4FD908B4CEAF0A3EBF0123835EC4D1B
:103A58004E4F60117B017A8B794C908CD4E4F0A3A3
:103A680004F01298B022302324909230E0C3940FCF
:103A7800748094805004E004F022C223E4909230D1
:103A8800F0D21912D3A6E490927FF0A3F022C21BC1
:103A9800E4FEEEC3940874809480501574442EF5A7
:103AA80082E43492F583E0B50704D21B80030E80CC
:103AB800E1A21B227B017A8B7937908B70E4F0A30B
:103AC80004F07F147E007D007C00128A52908B37B0
:103AD800E0FEA3E0FF22E4908B35F0A3F07B017AAF
:103AE8008B7935908B70F0A304F07F037E207D00E6
:103AF8007C00128A52021A71909320EEF0A3EFF024
:103B08007B017A937920908CD4E4F0A304F07F2190
:103B18007E407D007C000298B0909322EEF0A3EFE7
:103B2800F07B017A937922908CD4E4F0A304F07F9F
:103B3800217E407D007C000298B0908AC9EEF0A3F7
:103B4800EFF07B017A8A79C9908CD4E4F0A304F071
:103B5800FF7E207D007C000298B01237D0EF6018FD
:103B6800909240E0FFA3E0909264CFF0A3EFF0D2F0
:103B780026E490927FF0A3F022EF4E7E0060047F4F
:103B88000180027F0090926CEEF0A3EFF0229092F9
:103B980052E0D39400748094804002D322C32290D0
:103BA8009252E0D39400748094804003E014F02291
:103BB800909252E0FEEFD39E4002EFF02290926C7A
:0F3BC800E0FEA3E0FF22123BA7123B62020100C6
:10410000C0087441C0E0C082C08375080A750C0005
:1041100012C35022C0087441C0E0C082C083750839
:104120001E750C0112C35022C0087441C0E0C08249
:10413000C083750832750C0212C35022C008744146
:10414000C0E0C082C083750846750C0312C35022BC
:10415000C0087441C0E0C082C08375085A750C0461
:1041600012C35022C0087441C0E0C082C0837508E9
:104170006E750C0512C35022C0087441C0E0C082A5
:10418000C083750882750C0612C35022C0087441A2
:10419000C0E0C082C083750896750C0712C3502218
:1041A000903A4B2114902CFB211490376A211490E3
:1041B0003BB82114903BC52114903B812114903AC7
:1041C000BC2114903BCE2114902E032114903999D8
:1041D000211490350121149032FB2114903ADE21F4
:1041E00014901D6821149026C021149039DD2114EB
:1041F000903A6E21149028612114901B0521509053
:104200001B082150901AFF21509012832150901BBF
:104210000B2150901ABE215090176B2150901AF626
:104220002150901AD12150901AE42150901A222145
:1042300050901AA621509019AF2164900335216443
:1042400090055C216490074821649011BF2164901F
:1042500012AC21649020032164901F0F21649013FD
:10426000992164901B932164901C6D2164901E0A17
:104270002164901CAD2164901E672164901E392139
:1042800064901E912164901EBB2164901EE5216400
:10429000901CEA216490186E216490163421649079
:1042A00016A62164901718216490178A2164901D26
:1042B0002721649017FC2164901D6421649020B92B
:1042C00021649020CE21649018DF2164901A7B2114
:1042D0006490152D21649010BD2164901DD7216438
:1042E0009020D42164901C292164901B3F216400FC
:1042F000E4908ACDF0A3F0908AE1F0A3F0A3F0A3BC
:10430000F0A3F0A3F0A3F0A3F0A3F0A3F0908AF140
:10431000F0A3F078F37C8A7D017BFF7AD579CFFE1C
:104320007F08126B47E4908AFBF0A3F0908FF2E0D5
:10433000640160030256B3F012D39490841CE064CD
:10434000017012908EEAE02405FEE433908AE5F0D5
:10435000A3CEF08009908AE5E4F0A37408F0908A77
:10436000E5E0FEA3E0FF24E7F582748E3EF583E0EE
:10437000908ACFF074E62FF582748E3EF583E0903C
:104380008AD0F0908ACFE0FFA3E0908AE7CFF0A335
:10439000EFF07B017A8E79E8908AE6E024FEFD90CA
:1043A0008AE5E034FFFC12AD95908AE9EEF0A3EFC8
:1043B000F0908AE7E06E7003A3E06F703C90841E7B
:1043C000E0FF908ACDE4F0A3EFF0E4908233F09028
:1043D000841CE09080AE600FE0FEA3E0FF7B017ADA
:1043E0008E79E87D01800DE0FEA3E0FF7B017A8EEF
:1043F00079E8E4FD12BB07803174FF908ACDF0A309
:10440000F0FB7AD579B19080AEE0FFA3E0908B60AD
:10441000CFF0A3EFF01283D190841CE0600C908465
:104420001EE064057004C211D20190841CE0640196
:104430006003025580908ACDE0FEA3E0FFEE6003AA
:104440000256B3EF24FC70030247CD24FE70030232
:104450004BB524FE70030253101470030250E22483
:10446000FD7003025420240760030256B33010038A
:104470000247C6908EEBE0908ACFF0908EECE090F1
:104480008AD0F0908ACFE0FEA3E04E7E0060047FE9
:104490000180027F00908AFDEEF0A3EFF0D39081BF
:1044A000F1E094009081F0E09400401C908235E0AF
:1044B000FEA3E0FF908AFDE06E7003A3E06F7072D0
:1044C0009081F0F0A3F0806A7B017A8B7901908B68
:1044D00070E4F0A304F07F217E407D007C00128A0E
:1044E00052D3908B02E09401908B01E09400400540
:1044F000E4F0A304F0908AFDE0FEA3E0FF908B01BE
:10450000E06E7003A3E06F60297B017A8A79FD90E9
:104510008CD4E4F0A304F07F217E407D007C001267
:1045200098B0908AFDE0FEA3E0FF12D4107F08123D
:10453000D4137B017A807903908B70E4F0A304F0AC
:104540007F027E207D007C00128A52908EEDE090EA
:104550008ACFF0908EEEE0908AD0F0908ACFE0FF84
:10456000A3E0908AD9CFF0A3EFF09081F0E0700241
:10457000A3E07033908AD9E0FEA3E0FF908003E0CF
:104580006E7003A3E06F601F7B017A8A79D9908CEB
:10459000D4E4F0A304F07F027E207D007C0012981A
:1045A000B012CA5912426D7B017A807901908B70EA
:1045B000E4F0A304F07F087E487D007C00128A525C
:1045C000908EEFE0908ACFF0908EF0E0908AD0F05D
:1045D000908ACFE0FEA3E0FF7C007D0A126C2C9055
:1045E0008ADBEEF0A3EFF0908ADBE0FAA3E0FB9029
:1045F0008001E06A7003A3E06B6061E4FD7F01125B
:1046000041A0908ADBE0FEA3E0FF7D461241D7ABDC
:1046100007AA067D017F011241A07B017A8A79FFFA
:10462000908B70E4F0A304F07F027E207D007C007C
:10463000128A52908AFFE07004A3E06401700B902C
:104640008ADBE0FEA3E0FF1241D212CA59908AFF32
:10465000E07004A3E0640170031242727B017A806F
:104660007901908B70E4F0A304F07F0A7E487D000E
:104670007C00128A52908EF1E0908ACFF0908EF2F8
:10468000E0908AD0F0908ACFE0FEA3E0FF7C007D2E
:104690000A126C2C908ADBEEF0A3EFF0908ADBE03C
:1046A000FAA3E0FB908001E06A7003A3E06B606115
:1046B000E4FD7F021241A0908ADBE0FEA3E0FF7DD3
:1046C000461241D7AB07AA067D017F021241A07BAB
:1046D000017A8A79FF908B70E4F0A304F07F027E68
:1046E000207D007C00128A52908AFFE07004A3E0D3
:1046F0006402700B908ADBE0FEA3E0FF1241D2124D
:10470000CA59908AFFE07004A3E064027003124269
:10471000727B017A807901908B70E4F0A304F07FC2
:104720000C7E487D007C00128A52908EFDE0908ABB
:10473000CFF0908EFEE0908AD0F0908ACFE0FEA37A
:10474000E0FF7C007D0A126C2C908ADBEEF0A3EF78
:10475000F0908ADBE0FAA3E0FB908001E06A70034E
:10476000A3E06B6061E4FD7F031241A0908ADBE06F
:10477000FEA3E0FF7D461241D7AB07AA067D017F6D
:10478000031241A07B017A8A79FF908B70E4F0A339
:1047900004F07F027E207D007C00128A52908AFF06
:1047A000E07004A3E06403700B908ADBE0FEA3E0FA
:1047B000FF1241D212CA59908AFFE07004A3E0644C
:1047C000037003124272C211D2010250DF7B017AE0
:1047D0008A79D5908B70E4F0A304F07F037E207D6E
:1047E000007C00128A52908AD5E07002A3E0700328
:1047F0000248D3E4908AE1F0A3F0908AE1E0FCA3C0
:10480000E0FD25E0FFEC33FE74EB2FF582748E3E65
:10481000F583E0908ACFF074EC2FF582748E3EF52C
:1048200083E0908AD0F074822DF58274823CF58307
:10483000E06048E4908ADFF0A3F0908ACFE0FEA326
:10484000E0FF7C007D0A126C2C908ADFEEF0A3EF73
:10485000F0908ADFE0FEA3E0FF7D461241D7908A08
:10486000CFEEF0A3EFF0908AE2E025E0FF908AE13E
:10487000E033FEE42FFFEE34348013908AE2E0252B
:10488000E0FF908AE1E033FEE42FFFEE3444FEE4E3
:10489000FCFD7B017A8A79CF908CD4F0A37402F06E
:1048A0001298B0908AE2E054036403700312D39428
:1048B000908AE2E004F07006908AE1E004F0C39090
:1048C0008AE2E09419908AE1E0940050030247FAEA
:1048D0000249A5E4908AE1F0A3F0908AE1E0FCA30C
:1048E000E0FD25E0FFEC33FE74EB2FF582748E3E85
:1048F000F583E0908ACFF074EC2FF582748E3EF54C
:1049000083E0908AD0F074822DF58274823CF58326
:10491000E0603DE4908ADFF0A3F0908ACFE0FEA350
:10492000E0FF7C007D0A126C2C908ADFEEF0A3EF92
:10493000F0908AE2E025E0FF908AE1E033FEE42F88
:10494000FFEE3444FEE4FCFD7B017A8A79DF801DB2
:10495000908AE2E025E0FF908AE1E033FEE42FFF59
:10496000EE3444FEE4FCFD7B017A8A79CF908CD44E
:10497000F0A37402F01298B0908AE2E0540364034A
:10498000700312D394908AE2E004F07006908AE1FA
:10499000E004F0C3908AE2E09419908AE1E0940088
:1049A00050030248DA908B0C7401F0A37482F0A3D8
:1049B0007482F0E4A3F07D1912B06E7DDA12C56B3B
:1049C0007C007D0A126C2C908ADBEEF0FAA3EFF0EB
:1049D000FB908B0C126F5A00004810AD03AC02E440
:1049E000126713908B10126F4E7F0012AC0AEF60AB
:1049F000091242C2EF60031242A47DDC12C56B7C37
:104A0000007D0A126C2C908ADBEEF0FAA3EFF0FB2B
:104A1000908B0C126F5A00004812AD03AC02E412E6
:104A20006713908B10126F4E7F0212AC0AEF600971
:104A30001242C2EF60031242957B017A8E79E87DC3
:104A4000DD7C0012C5737C007D0A126C2C908ADB21
:104A5000EEF0FAA3EFF0FB908B0C126F5A000048B7
:104A600014AD03AC02E4126713908B10126F4E7FEB
:104A70000412AC0AEF60091242C2EF600312429ABC
:104A80007B017A8E79E87DD67C0012C573908AD737
:104A9000EEF0A3EFF07B017A8A79D7908CD4E4F022
:104AA000A304F07F047E107D007C001298B07B018F
:104AB0007A8E79E87DD77C0012C573908AFDEEF07E
:104AC000A3EFF0D3E09406908AFDE094004006E462
:104AD000F0A37406F07B017A8A79D7908B70E4F0AA
:104AE000A304F07F167E407D007C00128A52908ADB
:104AF000FDE0FEA3E0FF908AD7E06E7003A3E06FB5
:104B000060197B017A8A79FD908CD4E4F0A304F0DB
:104B10007F167E407D007C001298B07B017A8E79F2
:104B2000E87DCD7C0012C573908AD9EEF0A3EFF03A
:104B300090841DE06012908AD9E07002A3E0606E5C
:104B400090822F7401F080667B017A807903908BCC
:104B500070E4F0A304F07F1B7E207D007C00128AAD
:104B600052908AD9E0FEA3E0FF908003E06E7003CC
:104B7000A3E06F60397B017A8A79D9908CD4E4F014
:104B8000A304F07F1B7E207D007C001298B0908AE9
:104B9000D9E07002A3E07E0060047F0180027F0004
:104BA00090924DEEF0A3EFF012CA59124286C20164
:104BB000D2060250DF7B017A8A79D5908B70E4F0BF
:104BC000A304F07F037E207D007C00128A52908A2D
:104BD000D5E07002A3E07003024CBDE4908AE1F0DE
:104BE000A3F0908AE1E0FCA3E0FD25E0FFEC33FEBA
:104BF00074EB2FF582748E3EF583E0908ACFF074CB
:104C0000EC2FF582748E3EF583E0908AD0F0741F0D
:104C10002DF58274843CF583E06049E4908ADFF0EE
:104C2000A3F0908ACFE0FEA3E0FF7C007D0A126C27
:104C30002C908ADFEEF0A3EFF0908ADFE0FEA3E095
:104C4000FF7D461241D7908ACFEEF0A3EFF0908A15
:104C5000E2E025E0FF908AE1E033FEEF2432FFEE50
:104C600034348014908AE2E025E0FF908AE1E0335A
:104C7000FEEF2432FFEE3444FEE4FCFD7B017A8A31
:104C800079CF908CD4F0A37402F01298B0908AE29D
:104C9000E054036403700312D394908AE2E004F0BA
:104CA0007006908AE1E004F0C3908AE2E0942D90CF
:104CB0008AE1E094005003024BE2024D91E4908AB5
:104CC000E1F0A3F0908AE1E0FCA3E0FD25E0FFEC39
:104CD00033FE74EB2FF582748E3EF583E0908ACF1D
:104CE000F074EC2FF582748E3EF583E0908AD0F05C
:104CF000741F2DF58274843CF583E0603EE4908A55
:104D0000DFF0A3F0908ACFE0FEA3E0FF7C007D0AF5
:104D1000126C2C908ADFEEF0A3EFF0908AE2E0258F
:104D2000E0FF908AE1E033FEEF2432FFEE3444FEF0
:104D3000E4FCFD7B017A8A79DF801E908AE2E0251F
:104D4000E0FF908AE1E033FEEF2432FFEE3444FED0
:104D5000E4FCFD7B017A8A79CF908CD4F0A37402B5
:104D6000F01298B0908AE2E054036403700312D307
:104D700094908AE2E004F07006908AE1E004F0C3C7
:104D8000908AE2E0942D908AE1E094005003024C76
:104D9000C4E4908AF1F0A3F0908AE1F0A3F0908A45
:104DA000E1E0FCA3E0FDC39404EC94004003024E58
:104DB00034ED25E0FFEC33FE743B2FF582748F3E1B
:104DC000F583E0908ACFF0743C2FF582748F3EF526
:104DD00083E0908AD0F0908ACFE0FAA3E0FBED2543
:104DE000E0FFEC33FE74DF2FF582748E3EF583EA2C
:104DF000F0A3EBF0908ACFE0FCA3E0FD74F32FF575
:104E000082748A3EF583ECF0A3EDF0908ACFE070D7
:104E100002A3E0600E908AF2E004F07006908AF13E
:104E2000E004F0908AE2E004F07006908AE1E00489
:104E3000F0024D9ED3908AF2E09401908AF1E094C2
:104E4000004067E4908AFBF0A3F0908AFBF0A37423
:104E50002FF07B017A807903908B70E4F0A304F04B
:104E60007F077E467D007C00128A52908AFBE0FE1E
:104E7000A3E0FF908003E06E7003A3E06F70030275
:104E80004FA37B017A8A79FB908CD4E4F0A304F0E1
:104E90007F077E467D007C001298B01242C2EF7000
:104EA00003024FA3124290024FA3E4908AE1F0A3C1
:104EB000F0E4908AE3F0A3F0908AE3E0FCA3E0FD45
:104EC000C39410EC94004003024F83908AE1E0FA0F
:104ED000A3E0FB25E0FFEA33FE74F32FF582748A2A
:104EE0003EF583E0FEA3E0A805088005CEC313CEFF
:104EF00013D8F930E07CE4908AFBF0A3F0EBC4F81F
:104F0000540FC868FFEAC454F048FE908AE4E02FCA
:104F1000FF908AE3E03ECF2401CF3400908AFBF07B
:104F2000A3EFF07B017A807903908B70E4F0A30407
:104F3000F07F077E467D007C00128A52908AFBE05B
:104F4000FEA3E0FF908003E06E7003A3E06F602299
:104F50007B017A8A79FB908CD4E4F0A304F07F077C
:104F60007E467D007C001298B01242C2EF600312B0
:104F70004290908AE4E004F07006908AE3E004F046
:104F8000024EB8908AE2E004F07006908AE1E004F4
:104F9000F0C3908AE2E09404908AE1E09400500328
:104FA000024EB1908B0C7401F0A37484F0A3741FB3
:104FB000F0A37419F07D2D12B06E908EF1E0908AFE
:104FC000D3F0908EF2E0908AD4F0908AD3E0FCA3E4
:104FD000E0FDEC126713E4FBFA792078411265F8E2
:104FE000908AEB126F4E7B017A8A79FD908B70E488
:104FF000F0A37402F07F067E107D007C00128A52BE
:10500000908AEBE0FCA3E0FDA3E0FEA3E0FF1267C3
:105010004CC006C007908AFDE0FCA3E0FDA3E0FEC3
:10502000A3E0FF12674CD005D004EF6D7002EE6C68
:1050300060617B017A8A79EB908CD4E4F0A37402EE
:10504000F07F067E107D007C001298B0908AEBE025
:10505000FCA3E0FDA3E0FEA3E0FF12674C7D461237
:1050600041D7AC06AD07EC126713908AEB126F4E76
:105070007B017A8A79EB908CD4E4F0A37402F07F00
:10508000087E107D007C001298B01242C2EF6003CF
:105090001242A9908EFDE0908AD3F0908EFEE090AF
:1050A0008AD4F0908B0C126F5A00004816908AD365
:1050B000E0FEA3E0FF7C007D0A126C81AC06AD0728
:1050C000EC126713908B10126F4E7F0612AC0AEF32
:1050D00060091242C2EF600312429FC206D2070269
:1050E000D394908EEBE0908AD3F0908EECE0908A8F
:1050F000D4F0908AD3E0FFA3E0908AFFCFF0A3EF33
:10510000F07B017A8B7905908B70E4F0A304F07F3B
:10511000607E367D007C00128A52908AFFE0FEA3FA
:10512000E0FF908B05E06E7003A3E06F6044908A0F
:10513000D7EEF0A3EFF07B017A8A79D7908CD4E494
:10514000F0A37402F07F107E107D007C001298B0F6
:105150007B017A8A79D7908CD4E4F0A304F07F6045
:105160007E367D007C001298B01242C2EF600312BE
:1051700042AE908EEDE0908AD3F0908EEEE0908A71
:10518000D4F0908AD3E0FFA3E0908B01CFF0A3EF9F
:10519000F07B017A8B7905908B70E4F0A304F07FAB
:1051A000707E367D007C00128A52908B01E0FEA357
:1051B000E0FF908B05E06E7003A3E06F6044908A7F
:1051C000D7EEF0A3EFF07B017A8A79D7908CD4E404
:1051D000F0A37402F07F127E107D007C001298B064
:1051E0007B017A8A79D7908CD4E4F0A304F07F70A5
:1051F0007E367D007C001298B01242C2EF6003122E
:1052000042B8908EEFE0908AD3F0908EF0E0908AD2
:10521000D4F0908AD3E0FFA3E0908B03CFF0A3EF0C
:10522000F0908B03E0FEA3E0FF7C007D0A126C2C63
:10523000908AFDEEF0A3EFF07B017A8B7905908BDD
:1052400070E4F0A304F07F807E367D007C00128A3B
:1052500052908AFDE0FCA3E0FD908B05E06C7003AA
:10526000A3E06D607BE4126713908AEB126F4E7BB4
:10527000017A8A79EB908CD4E4F0A37402F07F1465
:105280007E107D007C001298B0908AFDE0FEA3E0C5
:10529000FF7D461241D7AC06AD07EC126713908A2A
:1052A000EB126F4E7B017A8A79EB908CD4E4F0A3F9
:1052B0007402F07F1A7E107D007C001298B07B0192
:1052C0007A8A79FD908CD4E4F0A304F07F807E3656
:1052D0007D007C001298B01242C2EF60031242B30C
:1052E000908AFF12D17290827DEFF0908B0112D1E3
:1052F0007290827EEFF0908B03E0FEA3E0FF7D01D1
:1053000012D17990827FEFF0C208E4908231F022CE
:105310009080AEE0FEA3E0FFC394E8EE9403401655
:10532000EF2418FFEE34FCFE7C007D64126C2C90A0
:105330008AFFEFF08008908227E0908AFFF0908A41
:10534000FFE0C39406748094804002E4F07D07126D
:10535000D2E8908AFDEEF0A3EFF0D39400EE940033
:1053600050030253F7908AFDE0FCA3E0FDE41267CE
:1053700013E4FBFA792078411265F8908AEB126FFA
:105380004E908AFFE025E0FFE433FEEF2430FFEE8D
:105390003410FEE4FCFDC004C005C006C007E025D3
:1053A000E0FFE433FEEF2440FFEE3410FEE4908B88
:1053B0000C126F4E908AEBE0FCA3E0FDA3E0FEA38D
:1053C000E0FF908B10126F4ED007D006D005D004AE
:1053D00012AC10908AFFE075F020A42400FFE5F0E5
:1053E0003411FEE4FCFD7B017A8A79EB908CD4F0D9
:1053F000A37402F01298B0908AFFE0FF2401FDE44C
:1054000033FCC3ED9406EC648094805009EF049063
:105410008231F0D20722E4908231F0C207D2092211
:105420009080AEE0FEA3E0FFC394F8EE942A40160D
:10543000EF2408FFEE34D5FE7C007D1E126C2C900C
:105440008B07EFF08008908231E0908B07F0908B13
:1054500007E0C39406748094804002E4F07B017AF4
:105460008E79E8E4FD12D2EE908AFDEEF0A3EFF023
:105470007E0030E7047F0180027F00908AFFEEF01B
:10548000A3EFF0908B07E02411F582E43480F583DC
:10549000EFF0908AFDE0FEA3E0FF12CC8B908B0131
:1054A000EEF0FAA3EFF0FB908B07E0FF908AFFE0AD
:1054B000FCA3E0FD12AF04908B07E0FF908B01E0AE
:1054C000FCA3E0FD12A9987D0112D2E8908AFDEEBE
:1054D000F0A3EFF012C96D908B03EEF0A3EFF09004
:1054E0008B07E02410FFE43447FEE4FCFD7A8B795F
:1054F00003908CD4F0A304F01298B07B017A8E79DB
:10550000E87D0212D2EE908AFDEEF0FCA3EFF0FDF2
:10551000908B07E0FF12D085908B05EEF0A3EFF0A3
:10552000908B05E0FEA3E0FFC39410EE94004025AD
:10553000D3EF9420EE9400501CA3E02420FFE43429
:1055400010FEE4FCFD7B017A8B7905908CD4F0A3EE
:1055500004F01298B0908B07E0FF2401FDE433FCC7
:10556000C3ED9406EC648094805009EF049082317E
:10557000F0D20922E4908231F0C209D20802A5C615
:10558000E4908233F0908ACDE0F47003A3E0F460FD
:1055900019E4908ACDF0A3F0908EEAE0FEA3E0FD3E
:1055A000EDFF908ACDEEF0A3EFF0908ACDE0FEA360
:1055B000E08EF0126FDD55F6006456782AF8569B9F
:1055C0002AFC56782B16569B2B1A56782B34569B52
:1055D0002B3856782B52569B2B5656782B70569B51
:1055E0002B7456782B8E569B2B9256323A9856AF88
:1055F000769E000056B3C210C215C2039087B2E077
:10560000FD600E908235A3E0FF12CE73E49087B266
:10561000F03001030256B33006030256B3300703DD
:105620000256B33008030256B33009030256B3D210
:105630000122C216C2047B017A80797E12C43D1217
:10564000C71DEF606EE4908AE1F0A3F0908AE1E07C
:10565000FEA3E0FFC39406EE94005057744C2FF560
:105660008274843EF583E4F0908AE2E004F070DC1A
:10567000908AE1E004F080D4C205908232E0FF7BA2
:10568000017A84795212BF78C217C21412D3C5208E
:105690001721908017E0701BD21122C20EC2139006
:1056A000841BE0FF90848EE0C39F500712C9AAC2FA
:1056B00000C20A22E4908AB8F0A3F0908000E0C310
:1056C00094027480948040030264EEE004F09081C0
:1056D000F1E094019081F0E09400400CA3E024FFFD
:1056E000F09081F0E034FFF012B776301516C390D9
:1056F00081F1E094D09081F0E0940750077407F0B6
:10570000A374D0F01242F0301023201520908FF0B7
:10571000E07002A3E06016C3908A9BE094C8908A70
:105720009AE094004007E4908FF0F0A3F0908FF09F
:10573000E07002A3E06062908FF2E0705CC3908A38
:105740009BE09420908A9AE0940350030264E5E47D
:10575000908FF0F0A3F030171B908232E0FF12C55B
:10576000FFC217C205C214E4908231F0D21112D3E5
:10577000C50264E5301609C216C204D2110264E5FE
:10578000301507C210C2150264E590841CE0700356
:105790000264E512B87C0264E5C21830101C9081E6
:1057A000F0E07002A3E0700A9081F07407F0A37437
:1057B000D0F09082337407F0806E300E0890823300
:1057C000740FF08063301708908233740BF08058A8
:1057D000301608908233740AF0804D3000089082B1
:1057E00033740EF0804230110590823380373001DF
:1057F000089082337404F0802F300608908233744E
:1058000006F080243007089082337408F080193045
:1058100008089082337409F0800E908233300905B5
:10582000740CF080037405F0908AB8E475F00112EE
:105830006CCDFE74C425F0F58274803EF58374014E
:10584000F0908233E024FCB40C00400302637390B8
:10585000585D75F003A4C58325F0C5837302588194
:105860000258FD025979025DAD025A750259F702DC
:105870005BB9025C7B025B170263730260A6026184
:10588000D8908AB8E475F001126CCDFE74C425F08E
:10589000F58274803EF5837403F0908AB8E475F065
:1058A00001126CCDFE74C425F0F58274803EF58340
:1058B000E4F0908AB875F001126CCDFE74C425F046
:1058C000F58274803EF58374C8F0908AB8E475F070
:1058D00001126CCDFE74C425F0F58274803EF58310
:1058E000E4F0908AB875F001126CCDFE74C425F016
:1058F000F58274803EF5837419F0026373908AB860
:10590000E475F001126CCDFE74C425F0F58274804C
:105910003EF5837403F0908AB8E475F001126CCD03
:10592000FE74C425F0F58274803EF583E4F0908A1D
:10593000B875F001126CCDFE74C425F0F582748048
:105940003EF5837464F0908AB8E475F001126CCD72
:10595000FE74C425F0F58274803EF583E4F0908AED
:10596000B875F001126CCDFE74C425F0F582748018
:105970003EF583740DF0026373908AB8E475F0010C
:10598000126CCDFE74C425F0F58274803EF58374EC
:1059900003F0908AB8E475F001126CCDFE74C42552
:1059A000F0F58274803EF5837401F0908AB8E47556
:1059B000F001126CCDFE74C425F0F58274803EF5C2
:1059C00083742CF0908AB8E475F001126CCDFE74EB
:1059D000C425F0F58274803EF583E4F0908AB875B2
:1059E000F001126CCDFE74C425F0F58274803EF592
:1059F00083742DF0026373908AB8E475F001126C21
:105A0000CDFE74C425F0F58274803EF5837403F0F6
:105A1000908AB8E475F001126CCDFE74C425F0F5DF
:105A20008274803EF5837476F0908AB8E475F00154
:105A3000126CCDFE74C425F0F58274803EF583743B
:105A40009EF0908AB8E475F001126CCDFE74C42506
:105A5000F0F58274803EF583E4F0908AB875F00129
:105A6000126CCDFE74C425F0F58274803EF583740B
:105A700003F0026373908231E0FF7E007C007D645E
:105A8000126C1AEF24E8FFEE3403908ABEF0A3EF05
:105A9000F0908AB8E475F001126CCDFE74C425F064
:105AA000F58274803EF5837403F0908ABEE0FCA317
:105AB000E0FDECFF908AB8E475F001126CCDFA7449
:105AC000C425F0F58274803AF583EFF0908AB8E44B
:105AD00075F001126CCDFC74C425F0F58274803C25
:105AE000F583EDF0908AB8E475F001126CCDFE7488
:105AF000C425F0F58274803EF583E4F0908AB87591
:105B0000F001126CCDFE74C425F0F58274803EF570
:105B1000837408F0026373908231E0FF7E007C00A2
:105B20007D1E126C1AEF24F8FFEE342A908ABEF024
:105B3000A3EFF0908AB8E475F001126CCDFE74C446
:105B400025F0F58274803EF5837403F0908ABEE000
:105B5000FCA3E0FDECFF908AB8E475F001126CCD77
:105B6000FA74C425F0F58274803AF583EFF0908AD8
:105B7000B8E475F001126CCDFC74C425F0F58274A4
:105B8000803CF583EDF0908AB8E475F001126CCD9D
:105B9000FE74C425F0F58274803EF583E4F0908AAB
:105BA000B875F001126CCDFE74C425F0F5827480D6
:105BB0003EF583741EF002637312D341908AB8E4F9
:105BC00075F001126CCDFE74C425F0F58274803E30
:105BD000F5837410F0908AB8E475F001126CCDFE74
:105BE00074C425F0F58274803EF583743AF0908A8F
:105BF000B8E475F001126CCDFE74C425F0F5827422
:105C0000803EF5837498F0908AB8E475F001126CC8
:105C1000CDFE74C425F0F58274803EF583E4F090E7
:105C20008AB875F001126CCDFE74C425F0F582744B
:105C3000803EF5837418F0908AB8E475F001126C18
:105C4000CDFE74C425F0F58274803EF5837430F087
:105C5000E4908ABEF0908ABEE0FFC39418748094EA
:105C6000804003026373EF25E0247EF582E43480F4
:105C700012C4D5908ABEE004F080DA908232E0FB54
:105C8000FF7E007C007D1E126C1AEF24F8FFEE34BC
:105C90002A908ABFF0A3EFF0AF03128C5F908AB80E
:105CA000E475F001126CCDFE74C425F0F5827480A9
:105CB0003EF5837410F0908ABFE0FCA3E0FDECFF9A
:105CC000908AB8E475F001126CCDFA74C425F0F531
:105CD0008274803AF583EFF0908AB8E475F001128F
:105CE0006CCDFC74C425F0F58274803CF583EDF036
:105CF000908AB8E475F001126CCDFE74C425F0F5FD
:105D00008274803EF583E4F0908AB875F001126CDD
:105D1000CDFE74C425F0F58274803EF583741EF0C8
:105D2000908AB8E475F001126CCDFE74C425F0F5CC
:105D30008274803EF583743CF0E4908ABEF0908AD1
:105D4000BEE0FFC39408748094805015EF25E024D2
:105D500052F582E4348412C4D5908ABEE004F08007
:105D6000DDE4908ABEF0908ABEE0C39416748094FD
:105D7000804003026373908AB8E475F001126CCD21
:105D8000FE74C425F0F58274803EF583E4F0908AB9
:105D9000B875F001126CCDFE74C425F0F5827480E4
:105DA0003EF583E4F0908ABEE004F080B9908AB8B2
:105DB000E475F001126CCDFE74C425F0F582748098
:105DC0003EF5837410F0908AB8E475F001126CCD42
:105DD000FE74C425F0F58274803EF583E4F0908A69
:105DE000B875F001126CCDFE74C425F0F582748094
:105DF0003EF5837464F0908AB8E475F001126CCDBE
:105E0000FE74C425F0F58274803EF583E4F0908A38
:105E1000B875F001126CCDFE74C425F0F582748063
:105E20003EF583740DF0908AB8E475F001126CCDE4
:105E3000FE74C425F0F58274803EF583741AF07BFD
:105E4000017A8A79BA908B70E4F0A304F07F217E06
:105E5000407D007C00128A52908ABAE07002A3E072
:105E60007E0060047F0180027F00AD07AC06ECFF7E
:105E7000908AB8E475F001126CCDFA74C425F0F57F
:105E80008274803AF583EFF0908AB8E475F00112DD
:105E90006CCDFC74C425F0F58274803CF583EDF084
:105EA0007B017A8A79BC908B70E4F0A304F07F02C6
:105EB0007E207D007C00128A52908ABCE0FCA3E028
:105EC000FDECFF908AB8E475F001126CCDFA74C451
:105ED00025F0F58274803AF583EFF0908AB8E47586
:105EE000F001126CCDFC74C425F0F58274803CF591
:105EF00083EDF07D0112B7F97D0212B7F9E4FD9050
:105F00008AB875F001126CCDFA74C425F0F582746C
:105F1000803AF583E4F0908AB875F001126CCDFCFC
:105F200074C425F0F58274803CF583E4F0908AB85F
:105F300075F001126CCDFA74C425F0F58274803AC4
:105F4000F583E4F0908AB875F001126CCDFC74C44E
:105F500025F0F58274803CF583E4F07B017A8A7940
:105F6000BC908B70F0A304F07F1B7E207C00128A13
:105F700052908ABCE0FCA3E0FDECFF908AB8E47587
:105F8000F001126CCDFA74C425F0F58274803AF5F4
:105F900083EFF0908AB8E475F001126CCDFC74C404
:105FA00025F0F58274803CF583EDF0E4908AB875B5
:105FB000F001126CCDFA74C425F0F58274803AF5C4
:105FC00083E4F0908AB875F001126CCDFC74C4259E
:105FD000F0F58274803CF583E4F0908AB875F001A6
:105FE000126CCDFA74C425F0F58274803AF583E41E
:105FF000F0908AB875F001126CCDFC74C425F0F5F0
:106000008274803CF583E4F07B017A8A79B87D0361
:1060100012B7FFE4908AB875F001126CCDFA74C41F
:1060200025F0F58274803AF583E4F0908AB875F033
:1060300001126CCDFC74C425F0F58274803CF583AC
:10604000E4F0908AB875F001126CCDFA74C425F0B2
:10605000F58274803AF583E4F0908AB875F0011205
:106060006CCDFC74C425F0F58274803CF5837464B7
:10607000F07C00EC908AB875F001126CCDFA74C413
:1060800025F0F58274803AF583E4F0908AB875F0D3
:1060900001126CCDFC74C425F0F58274803CF5834C
:1060A0007464F0026373908AC47476F0A3749EF0F3
:1060B0007B017A8A79BE908B70E4F0A304F07F6054
:1060C0007E367D007C00128A527B017A8A79C090EC
