:0300000002C060DB
:0800F800FFFF4457494E543547
:10C06000759401759502758E0075930075C870758D
:10C07000C96075F800787FE4F6D8FD75812602C0A6
:01C08000BC03
:0A431000C1324195DF034195E00042
:10E4F2009095E0E0701C9095DFE0601614F0E070FB
:10E5020011D21912DBDDE490934AF0A3F09095E06A
:02E5120004F013
:01E5140022E4
:10C95D00A230303201B35019A230923230300A1267
:10C96D00E4CC7F3C12DD728008D218D210D22ED2C8
:10C97D002A2030051229A4802812E73C90953CE02E
:10C98D00FEA3E0FFC39470EE94175009EF2401FF4E
:10C99D00E43EFE80047E177F7090953CEEF0A3EF91
:10C9AD00F0C390953DE0947090953CE09417400253
:10C9BD00C230302F07C22FE4FF12E88E30310CE465
:0CC9CD00FBFA7D037F0B12CFAAC23122BF
:10D4600012D01312E9C812E8EA12E8FA12E7B01271
:10D47000EA3A12E8B412EA2812B98612DB9943C9D3
:10D480000243C9011281E1C390875EE0940A90874C
:10D490005DE094004007E4F0A3F0120100C3908720
:10D4A00064E094E8908763E0940340D512E799E440
:0ED4B000908763F0A3F012E4F212DCED80C36B
:10D7CE005B444755535D20454E20544F2025780D20
:10D7DE000A001F1C1F1E1F1E1F1F1E1F1E1F5A006A
:10D7EE0000003F000100A50000003F0001004006C0
:10D7FE00666600000000000000000000000000004F
:10D80E00000000000000000000000000000000000A
:02D81E00000008
:10431A0062C8846A0000000000000000000000007B
:10432A000000000000000000000000000000000083
:10433A000000000000000000000000000001000270
:10434A000003000400050006000700080009000A2F
:10435A00000B000C000C000D000E000F00100010E6
:10436A0000110012001200130014001400150016A8
:10437A0000160017001800180019001A001A001B6E
:10438A00001B001C001D001D001E001E001F002037
:10439A000020002100210022002200230023002403
:1043AA0000250025002600270027002800280029CC
:1043BA000029002A002B002C002C002D002D002E95
:1043CA00002E002F002F0030003000310031003263
:1043DA00003300330034003400350035003600362F
:1043EA0000370038003800390039003A003A003BFB
:1043FA00003C003C003D003D003E003E003F0040C6
:10440A00004000410041004200430043004400458F
:10441A000045004600460047004800480049004A57
:10442A00004B004B004C004D004D004E004F005019
:10443A0000500051005200530054005400550056D9
:10444A00005700580059005A005A005B005B005C94
:10445A00005D005E005F006000610062006400654C
:10446A0000660067006800690000000000000000A4
:10447A000000000000000000000000000000000032
:10448A000000000000000000000000000000000022
:10449A000000000000000000000000000000000012
:1044AA000000000000000000000000000000000002
:1044BA0000000000000000000000000000000000F2
:1044CA0000000000000000000000000000000000E2
:1044DA0000000000000000000000000000000000D2
:1044EA0000000000000000000000000000000000C2
:1044FA0000000000000000000000000000000000B2
:10450A0000000000000000000000000000000000A1
:10451A000000000000000000000000000000000091
:10452A000000000000000000000000000000000081
:10453A000000000000000000000000000000000071
:10454A000000000000000000000000000000000061
:10455A000000000000000000000000000000000051
:10456A000000000000000000000000000000000041
:10457A000000000000000000000000000000000031
:10458A000000000000000000000000000000000021
:10459A000000000000000000000000000000000011
:1045AA000000000000000000000000000000000001
:1045BA0000000000000000000000000000000000F1
:1045CA0000000000000000000000000000000000E1
:1045DA0000000000000000000000000048873200D0
:1045EA0000000000000000020D0000428761000088
:1045FA0042875B00004487515A01003C42875D00B4
:10460A000042876300004287650000428769000014
:10461A00428767000042874F0000428755000054D6
:10462A00873A0000000000000000000000000000BF
:10463A000000000000004487570000000042875F26
:06464A00000041874E0054
:10DA85009095BCEEF0A3EFF0A3ECF0A3EDF030FE23
:10DA9500329095BE74FFF5F0123EF945F0701F7B8C
:10DAA500FF7AD779CE9095BCE0FFA3E0908C74CF38
:10DAB500F0A3EFF01254EBE4F5F8D2AFC32243C95B
:05DAC5000180CBD3221B
:06BA49009093D812417A2F
:10BA4F00E4FFEFC39410748094805013EF25E0242B
:10BA5F00E2F582E43493F583E4F0A3F00F80E3E49E
:10BA6F00FFEFC3941074809480500F74022FF582EF
:10BA7F00E43494F583E4F00F80E77B017A94790244
:10BA8F009093E1E02401FF9093E0E03400C313FEB4
:10BA9F00EF13FF908C8EEEF0A3EFF09093DCE0FCB1
:10BAAF00A3E0FDA3E0FEA3E0FF1283F0E4FFEFFDB0
:10BABF00D39093E1E09D9093E0E09400401B7402DB
:10BACF002FF582E43494F583E0FE74E22FF582E4DF
:10BADF003493F583EEF00F80D59093D8E0FCA3E07C
:10BAEF00FDA3E0FEA3E0FF7B017A9379E2908DE85E
:09BAFF00E4F0A37410F0028D2B99
:06C1010090941212417A35
:10C10700E4FFEFC3941074809480500F743C2FF5B4
:10C1170082E43494F583E4F00F80E7909412E0FC16
:10C12700A3E0FDA3E0FEA3E0FF7B017A94791C90D6
:10C137008C8EE4F0A37410F01283F0E4FFEFFDD3CC
:10C1470090941BE09D90941AE09400401B741C2F60
:10C15700F582E43494F583E0FE743C2FF582E434F1
:10C1670094F583EEF00F80D57B017A94793C909417
:10C177001BE02401FF90941AE03400C313FEEF1371
:10C18700FF908DE8EEF0A3EFF0909416E0FCA3E0AB
:0AC19700FDA3E0FEA3E0FF028D2BE4
:10D01300C2AFC2D3C2D475F901E4F5A8F5B8F59A45
:10D02300F5A9F5B953C9FDF580F590F5A0F5B075EF
:10D03300B710F5BCF5BDF5BE75D88075985075BAB7
:10D043000375AAE4759680759780F5D975E7E07541
:10D05300A78075AB80F5AE75AFE0758911F58CF5DA
:10D063008AC28CF58DF58BC28E75C870F5CDF5CC63
:07D0730075CBBC75CACD228C
:0AE9C80043B70243BC1F43BD022207
:0EA1AE00908C24EEF0A3EFF0A3ECF0A3EDF004
:10A1BC00E4908C2CF0A3F0782E7C8C7D017BFF7AC4
:10A1CC00D87900FE7F20123D73908C26E0C4F854A1
:10A1DC00F0C8A3E0C4540F48908C2AF0E4908C286B
:10A1EC00F0908C2AE0FF908C28E0FEC39F5067EE25
:10A1FC0075F010A4FF908C25E02FFF908C24E03597
:10A20C00F0FEE4FCFD7B017A8C792E908C8EF0A311
:10A21C007410F01283F0E4908C29F0908C29E0FFFC
:10A22C00C39410748094805025EF25E0242EF58281
:10A23C00E4348CF583E0FEA3E0FF908C2DE02FF04E
:10A24C00908C2CE03EF0908C29E004F080CD908C2A
:10A25C0028E004F0808B908C27E0540F908C2BF02E
:10A26C00908C2AE075F010A4FF908C25E02FFF90C5
:10A27C008C24E035F0FEE4FCFDC0077B017A8C7980
:10A28C002E908C2BE0FF908C8EE4F0A3EFF0D00797
:10A29C001283F0E4908C29F0908C2BE0FF908C29A9
:10A2AC00E0FEC39F5025EE25E0242EF582E4348C8D
:10A2BC00F583E0FEA3E0FF908C2DE02FF0908C2C2A
:10A2CC00E03EF0908C29E004F080CD908C2DE004E1
:10A2DC00F07006908C2CE004F0908C2CE0FEA3E047
:01A2EC00FF72
:01A2ED00224E
:10DB9900E4908C22F0A3F012E7F17F027E0012E9F3
:10DBA9003E7B017A8C7922908C8EE4F0A304F07F7D
:10DBB900007E3F1283EC7DFF7C007F017E3F12A136
:10DBC900AE908C22E06E7003A3E06F600302EA4519
:03DBD90012EA4409
:01DBDC002226
:10E7F1007AD779EC128D1812E93A1283D9908732BF
:04E80100E070F422AD
:10E805007AD779F4128D1812E93A1283D9908732A2
:04E81500E070F42299
:10D8C100E49095E1F0A3F090874EE064017020D3DD
:10D8D100908756E09410908755E09427401112EA02
:10D8E1004312E805E490874EF0908755F0A3F0903D
:10D8F1008755E0FEA3E0FFE4FCFD7B607AEAF9F8DE
:0DD90100C31240F35007E4908755F0A3F0E7
:01D90E0022F6
:10DFA100E4908C67F0A3F07B017A8C7967908C8E7A
:10DFB100F0A304F07E351283EA908C67E07004A32D
:10DFC100E06401700890874E04F0E48005E49087D6
:08DFD1004EF0908755F0A3F01B
:01DFD9002225
:06EA160012DFA102EA0874
:10E59C00908C33EFF0E4A3F07B017A8C7933908D7F
:10E5AC00E8F0A304F07F827E007D007C00028D2BBE
:01EA430022B0
:01EA440022AF
:01EA450022AE
:10E8EA00438901758CBC758ACDD2A9D2AFD28C224C
:10E8FA00438901758DBC758BCDD2ABD2AFD28E2236
:10E7B00075C870E4F5CDF5CC75CBBC75CACD43A852
:06E7C00020D2C8D2AF22F6
:1083D9007B017A877932908C8EE4F0A37404F07E65
:0783E900007F087D007C000D
:1083F000908C8712417A908C8BEBF0A3EAF0A3E982
:01840000F08B
:10840100E4908C90F0A3F0A3F0A3F0A3F0A3F0A369
:10841100F0A3F0908C8EE07002A3E070030285C59A
:10842100908C87E0F8A3E0F9A3E0FAA3E0FBC3E4B2
:108431009BFFE49AFE740199FDE498FC908C9812DC
:10844100417A908C8EE0FEA3E0FFE4FCFD908C98D5
:10845100E0F8A3E0F9A3E0FAA3E0FBC3124109505D
:1084610011908C98A3A3E0FFA3E0908C8ECFF0A392
:10847100EFF0908C87E0FCA3E0FDA3E0FEA3E0FF1A
:10848100780112411A908C90EEF0A3EFF0908C8756
:10849100A3A3A3E05401FEE4908C92F0A3CEF0E4F8
:1084A100F5F1908C90E0FCA3E0FDECF5F28DF37515
:1084B100F40175F8AF30FCFD908C92E07002A3E0FE
:1084C100603DD2FE20FEFD908C8BE0FBA3E475F0B5
:1084D10001123EF9A9F0FAE5FC123E12908C8BE0F4
:1084E100FBA3E475F001123EF9A9F0FAE5FD123E95
:1084F10012908C8FE024FFF0908C8EE034FFF0908E
:108501008C8EE0FCA3E0FDECC313FFED13908C9483
:10851100CFF0A3EFF0ED5401FFA3E4F0A3EFF0904F
:108521008C9474FFF5F0123EF945F0605BD2FE20A9
:10853100FEFD908C8BE0FBA3E475F001123EF9A9DE
:10854100F0FAE5FA123E12908C8BE0FBA3E475F091
:1085510001123EF9A9F0FAE5FB123E12908C8BE074
:10856100FBA3E475F001123EF9A9F0FAE5FC123E15
:1085710012908C8BE0FBA3E475F001123EF9A9F097
:10858100FAE5FD123E128097908C96E07002A3E00E
:10859100602FD2FE20FEFD908C8BE0FBA3E475F0F2
:1085A10001123EF9A9F0FAE5FA123E12908C8BE025
:1085B100FBA3E475F001123EF9A9F0FAE5FB123EC6
:0485C10012E4F5F8D3
:0185C5002293
:108D18007BFF908DE8E4F0A37404F07F087E007D6B
:038D2800007C00CC
:108D2B00908DE112417A908DE5EBF0A3EAF0A3E987
:018D3B00F047
:108D3C00E4FBFA908DEAF0A3F0A3F0A3F0A3F0A368
:108D4C00F0908DE8E07002A3E07003028ECB908D62
:108D5C00E1A3A3E0FEA3E0FFC3E49FFFE49EFED3E8
:108D6C00908DE9E09F908DE8E09E4005EEF0A3EF3A
:108D7C00F0908DE1E0FCA3E0FDA3E0FEA3E0FF7822
:108D8C000112411AAA06AB07908DE1A3A3A3E054EC
:108D9C0001FEE4908DEAF0A3CEF0E4F5F1EAF5F2F1
:108DAC00AF038FF375F40175F88330FCFD908DEAF9
:108DBC00E07002A3E0603D908DE5E0FBA3E475F06C
:108DCC0001123EF9A9F0FA123D99F5FC908DE5E0FF
:108DDC00FBA3E475F001123EF9A9F0FA123D99F5E6
:108DEC00FDD2FE20FEFD908DE9E024FFF0908DE891
:108DFC00E034FFF0908DE8E0FCA3E0FDECC313FF42
:108E0C00ED13908DECCFF0A3EFF0ED5401FFA3E444
:108E1C00F0A3EFF075F88F908DEC74FFF5F0123E27
:108E2C00F945F0605B908DE5E0FBA3E475F0011271
:108E3C003EF9A9F0FA123D99F5FA908DE5E0FBA305
:108E4C00E475F001123EF9A9F0FA123D99F5FB9088
:108E5C008DE5E0FBA3E475F001123EF9A9F0FA12DE
:108E6C003D99F5FC908DE5E0FBA3E475F001123E15
:108E7C00F9A9F0FA123D99F5FDD2FE30FE9980FB6E
:108E8C00908DEEE07002A3E0603275F88C908DE569
:108E9C00E0FBA3E475F001123EF9A9F0FA123D993A
:108EAC00F5FA908DE5E0FBA3E475F001123EF9A90B
:0F8EBC00F0FA123D99F5FBD2FE20FEFDE4F5F829
:018ECB002284
:03000B0002ABE164
:10ABE100C0E0C0F0C083C082C0D075D000C000C03A
:10ABF10001C002C003C004C005C006C007C2AF75D2
:10AC01008CBC758ACD908756E004F070069087550C
:10AC1100E004F0908762E004F07006908761E00440
:10AC2100F090876AE004F07006908769E004F09084
:10AC3100875EE004F0700690875DE004F090876421
:10AC4100E004F07006908763E004F0908766E0040A
:10AC5100F07006908765E004F0908768E004F0707A
:10AC610006908767E004F0302925909337E0FEA332
:10AC7100E0FFE4FCFD7BFF7AFFF9F8D31240F340DB
:10AC81000E909338E004F07006909337E004F09052
:10AC9100874FE0FEA3E0FFE4FCFD7BFF7AFFF9F8BC
:10ACA100D31240F3400E908750E004F07006908775
:10ACB1004FE004F0C390934BE0942090934AE094CA
:10ACC1004E500CA3E004F0700690934AE004F0D2D9
:10ACD100AFD007D006D005D004D003D002D001D028
:0CACE10000D0D0D082D083D0F0D0E03280
:03001B0002D628E2
:10D62800C0E0C0F0C083C082C0D075D000C000C0C8
:10D6380004C005C006C007C2AF758DBC758BCD9000
:10D648009463E0FCA3E0FDA3E0FEA3E02401FFE473
:10D658003EFEE43DFDE43CFC90946312417AD2AF77
:10D66800D007D006D005D004D000D0D0D082D08347
:05D67800D0F0D0E0320B
:04E93A007F057E00D7
:0BE93E008E0D8F0EE50E450D70FA22C5
:03002B0002E85593
:10E85500C0E0C2AFC2C6E50E150E7002150DD2AFEF
:03E86500D0E032CE
:10E5BC00E4FDFCC3ED9FEC9E5015E4FBFA0BBB0095
:0FE5CC00010AEB640F4A70F50DBD00010C80E4ED
:01E5DB00221D
:10E5DC00E4FDFCC3ED9FEC9E5015E4FBFA0BBB0075
:0FE5EC00010ABA1CF8BBE8F50DBD00010C80E474
:01E5FB0022FD
:10DD7200908751745AF0A37401F0E4A3F0A3EFF07A
:10DD82007B017A877951908DE8E4F0A37402F07FE9
:10DD920084128D2512E93A7B017A877951908C8E13
:10DDA200E4F0A304F07F841283EC908751E070E4E6
:01DDB200224E
:10E3B800908C33745AF0E4A3F0A3F0A3EFF07B0140
:10E3C8007A8C7933908DE8E4F0A37402F07FDE7ED6
:08E3D800007D007C00028D2B8A
:10DACA007B017A8C7933908C8EE4F0A37402F07F18
:10DADA00807E001283EC908C36E03019054404F005
:10DAEA00800354FBF0908C33745AF07B017A8C7962
:10DAFA0033908DE8E4F0A37402F07F807E007D000D
:05DB0A007C00028D2BE0
:10D67D005B574946495D207265736574207265710B
:10D68D000D0A005B574946495D2073746174653D11
:10D69D002562750D0A005B574946495D2072657319
:10D6AD006574206F6B0D0A005B574946495D20720A
:10D6BD00657365742074696D656F75740D0A00006E
:05D6CD00000000000058
:1046500042932400004493110000000042933C0068
:10466000004293480000429337000048931B011E0C
:104670000506070A0B0CC12D429333001742933AEB
:104680000000C12BC12AC12C42934A00004193393A
:104690000044934C000000004293160000429342F5
:1046A00000004193150042933500024192FAFF4207
:1046B00092FBFFFF4292FDFFFF4292FFFFFF4293FA
:1046C00001FFFF419303FF419304FF419305004124
:0346D0009306004E
:10D27600908C5DEFF0C3940174809480400AD3EFE4
:10D286009403748094804006E4FFFEFDFC22ED903A
:10D296008C5D601BE024FFFFE434FFFE3395E0FD68
:10D2A600FCE47B02FAF9F8123FC8EF24188019E073
:10D2B60024FFFFE434FFFE3395E0FDFCE47B02FA35
:10D2C600F9F8123FC8EF2408FFEE3448FEE43DFDAE
:04D2D600E43CFC2216
:10AAD3007B017A8C7933908C8EE4F0A304F07F02AF
:10AAE3007E207D007C001283F0908C33A3E0FFE492
:10AAF300FD12E22D908C37EEF0A3EFF0908C33A390
:10AB0300E0FF7D0112E22D908C39EEF0A3EFF0907F
:10AB13008C39E07002A3E07018908C37E0FEA3E05C
:10AB2300FF4E600D7D4612B8C9908C39EEF0A3EF4D
:10AB3300F0908C37E07002A3E07018908C39E0FE3F
:10AB4300A3E0FF4E600D7D4312B8C9908C37EEF041
:10AB5300A3EFF07B017A8C7937908DE8E4F0A304BE
:10AB6300F07F257E207D007C00128D2B7B017A8C6B
:10AB73007939908DE8E4F0A304F07F267E207D00F0
:10AB83007C00128D2B7B017A8C7935908C8EE4F0CE
:10AB9300A304F07F037E207D007C001283F0908C61
:10ABA30035E07002A3E070177F0812DD727B017A33
:10ABB3008C7937908DE8E4F0A304F07F0580157F4E
:10ABC3002B12DD727B017A8C7939908DE8E4F0A346
:0DABD30004F07F067E207D007C00128D2B9B
:01ABE0002252
:10952300909324E07002A3E070030296987B017A83
:109533009479E2908C8EE4F0A304F07F1B7E207D6F
:10954300007C001283F09094E2E07002A3E07007C5
:10955300909324F0A3F0227B017A9479E4908C8E8B
:10956300E4F0A304F07F707E367D007C001283F06C
:109573009094E4E07002A3E070187B017A9479E49C
:10958300908C8EF0A304F07F127E107D007C00127D
:1095930083F0D39094E5E094009094E4E094004049
:1095A30064E4FFFEFDFC909311E0F8A3E0F9A3E06F
:1095B300FAA3E0FBD3124109404B128ECC909311D6
:1095C300E0F8A3E0F9A3E0FAA3E0FBC3EF9BFFEE0F
:1095D3009AFEED99FDEC98FCC004C005C006C007D7
:1095E3009094E4E0FEA3E0FF7C007D3C124236A8A9
:1095F30004A905AA06AB07D007D006D005D004D32B
:1096030012410940577B017A9479E6908C8EE4F0FD
:10961300A37402F07F067E107D007C001283F07B32
:10962300017A9479EA908C8EE4F0A37402F07F14AB
:109633007E107D007C001283F09094EAE0FCA3E0AE
:10964300FDA3E0FEA3E0FF9094E6E0F8A3E0F9A316
:0C965300E0FAA3E0FB1237BB603B40399B
:10965F00E49094EEF0A3F0909324F0A3F090931184
:10966F00124186000000007B017A9479EE908DE81C
:10967F00E4F0A304F07F1B7E207D007C00128D2B75
:09968F00E4FD7F0712DCA9D210F2
:0196980022AF
:06E22700908C29A3E0FD2C
:10E22D00E4908C55F0A3F012D276EC4D4E4F601168
:10E23D007B017A8C7955908C8EE4F0A304F01283D7
:09E24D00F0908C55E0FEA3E0FF07
:01E2560022A5
:0DE25700A3E0908C29FFE0FAA3E0FBE4FDBA
:08E26400908C5BEAF0A3EBF0E3
:10E26C0012D276EC4D4E4F60117B017A8C795B901B
:0AE27C008DE8E4F0A304F0128D2BEE
:01E286002275
:05DB0F00908C33EFF0E3
:10DB1400A3E0FCA3E0FDA3E0FEA3E0FF12387290B3
:10DB24008C3AEEF0A3EFF07D4612B8C9908C38EE33
:10DB3400F0A3EFF0908C33E0908C3A12E25C908C7E
:10DB440033E0FF908C38E0FAA3E0FB7D0102E2644D
:06D4BE007E487D007C00A9
:10D4C4007B017A8C7959908C8EE4F0A37402F0126B
:10D4D40083F0908C59E0FCA3E0FDA3E0FEA3E0FF01
:10D4E4001238727D4612B8C9AC06AD07EC12383951
:10D4F400908C5D12417A908C55E0FCA3E0FDA3E092
:10D50400FEA3E0FF7B017A8C795D908DE8E4F0A3C3
:06D514007402F0028D2BF1
:0DD07A00908C52ECF0A3EDF0908C51EFF093
:10D08700C3940674809480504FA3E0FEA3E0FF7D15
:10D097004612B8C9908C54EEF0A3EFF0908C51E093
:10D0A7002420FFE43410FEE4FCFD7B017A8C7952E6
:10D0B700908DE8F0A304F0128D2B908C51E0247032
:10D0C700FFE43410FEE4FCFD7B017A8C7954908DEB
:08D0D700E8F0A304F0128D2B18
:01D0DF00222E
:0DCBBA00908C52ECF0A3EDF0908C51EFF058
:10CBC700C3940674809480505DA3E0FEA3E0FF7DCC
:10CBD7004612B8C9908C54EEF0A3EFF0908C51E058
:10CBE70025E0FFE433FEEF2430FFEE3410FEE4FCD3
:10CBF700FD7B017A8C7952908DE8F0A304F0128DB9
:10CC07002B908C51E025E0FFE433FEEF2440FFEE4C
:10CC17003410FEE4FCFD7B017A8C7954908DE8F0AA
:06CC2700A304F0128D2BA6
:01CC2D0022E4
:06D401007E487D007C0066
:06D40700908C5112417AE5
:10D40D00908C59E0FEA3E0FF7D4612B8C9908C5B6D
:10D41D00EEF0A3EFF0908C51E0FCA3E0FDA3E0FE55
:10D42D00A3E0FF7B017A8C7959908DE8E4F0A30499
:10D43D00F0128D2B908C55E0FCA3E0FDA3E0FEA334
:10D44D00E0FF7B017A8C795B908DE8E4F0A304F02A
:03D45D00028D2B12
:06C75A007E487D007C001A
:06C760009094F012417AF2
:10C766007B017A9479F8908C8EE4F0A304F07F0331
:10C776007E207D007C001283F09094F8E07002A386
:10C78600E0602C9094F4E0FCA3E0FDA3E0FEA3E0BF
:10C79600FF7B017A9479FC908C8EE4F0A304F0126E
:10C7A60083F09094FCE0FEA3E0FF7D4302B8C990BD
:10C7B60094F0E0FCA3E0FDA3E0FEA3E0FF7B017A9A
:10C7C6009479FA908C8EE4F0A304F01283F090949E
:06C7D600FAE0FEA3E0FF03
:01C7DC00223A
:0BB1E700908C33EFF0A3ECF0A3EDF030
:10B1F2007B017A8C7936908C8EE4F0A304F07F0385
:10B202007E207D007C001283F0908C33E0FF908CD6
:10B2120036A3E0FD12D276908C3A12417A908C3AA3
:10B22200E0FCA3E0FDA3E0FEA3E0FFEC4D4E4F7077
:10B232000302B2D47B017A8C7938908C8EE4F0A32D
:10B2420004F01283F0908C38E0FEA3E0FF908C357E
:10B25200E02FFF908C34E03E908C38F0A3EFF0A307
:10B26200E0FCA3E0FDA3E0FEA3E0FF7B017A8C7982
:10B2720038908DE8E4F0A304F0128D2B908C3AA361
:10B28200A3E0FEA3E0FF908C36E07002A3E060042E
:10B292007D4680027D431263C5908C3AE0FCA3E0B8
:10B2A200FDA3E0FEA3E0FF7B017A8C7938908C8EBF
:10B2B200E4F0A304F01283F0908C36E07002A3E075
:10B2C200908C38600512B8C28005E0FEA3E0FF1240
:02B2D200C24078
:01B2D4002257
:10AFFB00EFD394047480948040027F04EF14601CA0
:10B00B0014602B14603A24037047908C64E4F0A313
:10B01B007432F0A3E4F0A37442F08045908C64E4A6
:10B02B00F0A37446F0A3E4F0A37456F08033908C35
:10B03B0064E4F0A37414F0A3E4F0A37424F080216F
:10B04B00908C64E4F0A304F0A3E4F0A37411F080FB
:10B05B0010908C64E4F0A37428F0A3E4F0A3743193
:10B06B00F07B017A8C7966908DE8E4F0A304F07F95
:10B07B00067E807D007C00128D2B7B017A8C79649F
:10B08B00908DE8E4F0A304F07F077E807D007C00C8
:10B09B00128D2B7B017A8C7966908DE8E4F0A304FA
:10B0AB00F07F087E807D007C00128D2B908C68E4F5
:10B0BB00F0A304F0FB7A8C7968908DE8E4F0A3049C
:10B0CB00F07F607E407D007C00128D2BE4908C68BD
:10B0DB00F0A3F07B017A8C7968908DE8F0A304F0F3
:0BB0EB007F607E407D007C00028D2B0A
:10D1AC0078337C8C7D017BFF7AD679CC7E007F0432
:10D1BC00123D737B017A93794C908C8EE4F0A374BE
:10D1CC0002F07F007E0F7D007C001283F090934C68
:10D1DC00E0645A702DA3E0FEA3E0FDEDFF909316E2
:10D1EC00EEF0A3EFF07B017A8C7933908DE8E4F0CC
:10D1FC00A37402F07F007E0F7D007C00128D2B7FCC
:04D20C0001227F007C
:01D2100022FB
:10E515007B017A8C794A908C8EE4F0A304F07F1409
:10E525007E007D007C001283F0908C4AE0FEA3E023
:01E53500FFE6
:01E5360022C2
:100100007B017A8C7922908C8EE4F0A304F07F102E
:100110007E207D007C001283F012D1ACEF3395E09D
:10012000FE909342F0A3EFF04E7003021A69E49040
:10013000934AF0A3F0909316E0FEA3E08EF01242F3
:100140000902C8100102FF10020338100316A110A3
:1001500014081F1016110410181190101916A11070
:100160001A16FD102016FD102116FD102216FD1086
:100170002316FD102416FD1025171D1070171D10D5
:1001800071171D1072171D1073171D1074171D1095
:100190007511091100113611011163110218911224
:1001A0000002C5200003B1200103B4200204DF20B7
:1001B00003057720110A3A201209D520130E452095
:1001C000150E4B2016102D20171038201810672000
:1001D0001B141E201D107D201E034A202010042009
:1001E0002116FD202516FD2026144B203016432015
:1001F00035165120361786203718562038094530D5
:100200005008243060188C3070188C3072188C3084
:1002100073188C3074188C307509393083093F306D
:1002200084160C30900364322410BB350816A136B6
:100230006016A1367016A1368014E5400616AF4050
:100240001016AF401116AF401216AF401316AF4054
:100250001416AF401504EA402116CB470016CB47D1
:100260000116CB470216CB470316CB470416CB47E4
:100270000516E1471016E1471116E1471216E1474E
:100280001316E1471416E1471518514820179C48EA
:1002900021179C482417EA4825179C4826184548EA
:1002A0002717A2483017F748320D2548500D5148FE
:1002B000510D8248520DB348530DE248540E114877
:1002C00055000018BD020354908C22E07002A3E098
:1002D00060030218BD7B017A8C7924908C8EF0A388
:1002E00004F07F037E207D007C001283F0908C243C
:1002F000E07002A3E070030216077F230218BA9091
:100300008C22E07002A3E060030218BD7B017A8CAE
:100310007924908C8EF0A304F07F037E207D007CF6
:10032000001283F0908C24E07002A3E070057F053A
:100330000218BA7F2A0218BA908C22E07002A3E059
:1003400060030218BD7F040218BA909339E0FF12CF
:10035000E4A65008D21912DBDD0218BD909339E0F3
:10036000FF0218BA7B017A8C7924908C8EE4F0A37A
:1003700004F07F247E327D007C001283F0908C2478
:10038000E0FEA3E0FF64014E6009EF64024E6003EB
:100390000218BD12E190E4908C24F0A3F07B017A66
:1003A0008C7924908DE8F0A304F07F247E3202162D
:0403B0009702057239
:1003B400D2107B017A8C7924908C8EE4F0A304F023
:1003C4007F027E207D007C001283F0908C24E0FE6E
:1003D400A3E0FFD39403EE940040030218BDEF4E54
:1003E400908C2D700EF0A3F07B017A8C792D908D7A
:1003F400E8800EE4F0A304F0FB7A8C792D908DE86C
:10040400E4F0A304F07F217E407D007C00128D2B5C
:100414007B017A8C7929908C8EE4F0A304F07F031D
:100424007E207D007C001283F0908C24E07004A375
:10043400E06401702E7F0112E227908C2BEEF0A372
:10044400EFF04E700EFD7F0112E22D908C2BEEF03A
:10045400A3EFF0908C2BE0FEA3E0FF4E7003021894
:10046400878072908C24E07004A3E06402702B7F78
:100474000212E227908C2BEEF0A3EFF04E700EFDEB
:100484007F0212E22D908C2BEEF0A3EFF0908C2BD8
:10049400E0FEA3E0FF4E604B803B908C24E07004B0
:1004A400A3E06403703D908C29A3E0FD7F0312E276
:1004B4002D908C2BEEF0A3EFF04E700EFD7F031207
:1004C400E22D908C2BEEF0A3EFF0908C2BE0FEA3AA
:0804D400E0FF4E600E12C24071
:0E04DC0002188712E0BAD21912DBDD0218876F
:1004EA007B017A8C7924908C8EE4F0A304F07F212E
:1004FA007E407D007C001283F0D3908C25E094012D
:10050A00908C24E0940040030218BD7B017A8C7918
:10051A0029908C8EE4F0A304F07F027E207D007C7B
:10052A00001283F0908C24E07002A3E07011908C8A
:10053A0029F0A3F07B017A8C7929908DE8801A90B2
:10054A008C29E07002A3E0701F908C29F0A304F0BC
:10055A00FB7A8C7929908DE8E4F0A304F07F027E7F
:0A056A00207D007C00128D2BD210C2
:100574000218877F0712DD727B017A8C7924908CB4
:100584008EE4F0A304F07F117E207D007C001283B2
:10059400F0908C24E07004A3E0640170657B017A20
:1005A4008C7924908C8EF0A304F07F007E477D002C
:1005B4007C001283F07B017A8C7924908DE8E4F03E
:1005C400A304F07F007E307D007C00128D2BE4902C
:1005D4008C24F0A3F07B017A8C7924908C8EF0A388
:1005E40004F07F107E477D007C001283F07B017A4B
:1005F4008C7924908DE8E4F0A304F07F057E30022A
:100604001697908C24E07004A3E06402705E7B0172
:100614007A8C7924908C8EF0A304F0FF7E477D00C1
:100624007C001283F07B017A8C7924908DE8E4F0CD
:10063400A304F07F007E307D007C00128D2B7B01B3
:100644007A8C7924908C8EE4F0A304F07F117E4799
:100654007D007C001283F07B017A8C7924908DE8F4
:10066400E4F0A304F07F057E30021697908C24E01A
:100674007004A3E06403705F7B017A8C7924908C0E
:100684008EF0A304F07F027E477D007C001283F08D
:100694007B017A8C7924908DE8E4F0A304F07F0048
:1006A4007E307D007C00128D2B7B017A8C79249026
:1006B4008C8EE4F0A304F07F127E477D007C001250
:1006C40083F07B017A8C7924908DE8E4F0A304F024
:1006D4007F057E30021697908C24E07004A3E064BA
:1006E40004705F7B017A8C7924908C8EF0A304F0E3
:1006F4007F037E477D007C001283F07B017A8C7936
:1007040024908DE8E4F0A304F07F007E307D007C2B
:1007140000128D2B7B017A8C7924908C8EE4F0A3CB
:1007240004F07F137E477D007C001283F07B017A06
:100734008C7924908DE8E4F0A304F07F057E3002E8
:100744001697908C24E07004A3E06405705F7B012D
:100754007A8C7924908C8EF0A304F07F047E477DFC
:10076400007C001283F07B017A8C7924908DE8E47C
:10077400F0A304F07F007E307D007C00128D2B7B83
:10078400017A8C7924908C8EE4F0A304F07F147E9B
:10079400477D007C001283F07B017A8C7924908D54
:1007A400E8E4F0A304F07F057E30021697908C24D1
:1007B400E07004A3E0640660030218BD7B017A8C38
:1007C4007924908C8EF0A304F07F057E477D007C15
:1007D400001283F07B017A8C7924908DE8E4F0A3F5
:1007E40004F07F007E307D007C00128D2B7B017A2B
:1007F4008C7924908C8EE4F0A304F07F157E477DE1
:10080400007C001283F07B017A8C7924908DE8E4DB
:10081400F0A304F07F057E300216977F0D0218BA0C
:10082400E4908C29F07B017A8C7924908C8EF0A34F
:1008340004F07F167E107D007C001283F07B017A29
:100844008C792A908C8EE4F0A304F07F037E207DC3
:10085400007C001283F0908C24E07004A3E0640117
:100864007069908C29F0908C29E0FFC39406748001
:1008740094805041EF2440FFE43431FEE4FCFD7BDE
:10088400017A8C7924908C8EF0A304F01283F0907A
:100894008C29E02400FFE43445FEE4FCFD7B017A6E
:1008A4008C7924908DE8F0A304F0128D2B908C2980
:1008B400E004F080B1908C2AE07004A3E06401703D
:1008C400057F290218BA7F0C0218BAE4908C29F02B
:1008D400908C29E0FFC39406748094805041EF24E7
:1008E40040FFE43431FEE4FCFD7B017A8C792490F2
:1008F4008C8EF0A304F01283F0908C29E02410FF76
:10090400E43445FEE4FCFD7B017A8C7924908DE887
:10091400F0A304F0128D2B908C29E004F080B190A8
:100924008C2AE07004A3E0640170057F270218BAE2
:020934007F1131
:100936000218BA1285C60218BD127BEC0218BD7BDE
:10094600017A8C7924908C8EE4F0A304F07F167ED5
:10095600107D007C001283F0908C24E07004A3E0EC
:100966006401702E7B017A8C7924908C8EF0A3041E
:10097600F07F037E207D007C001283F0908C24E0C3
:100986007004A3E0640170057F290218BA7F0C0287
:1009960018BA908C24E07004A3E064026003021885
:1009A600BD7B017A8C7924908C8EF0A304F07F03B2
:1009B6007E207D007C001283F0908C24E07004A3DE
:1009C600E0640170057F290218BA7F110218BA7F08
:1009D6000612DD727B017A8C7924908C8EE4F0A36A
:1009E60004F07F007E477D007C001283F07B017A55
:1009F6008C7924908DE8E4F0A304F07F207E307D8E
:100A0600007C00128D2B7B017A8C7924908C8EE4ED
:100A1600F0A304F07F107E477D007C001283F07BFC
:100A2600017A8C7924908DE8E4F0A304F07F257E8A
:040A360030021697DD
:100A3A007B017A8C7924908C8EE4F0A304F07F11E8
:100A4A007E207D007C001283F0908C24E0FEA3E0DF
:100A5A00908C29F064014E70637F0212DD727B0173
:100A6A007A8C7924908C8EE4F0A304F07F007E3097
:100A7A007D007C001283F07B017A8C7924908DE8CA
:100A8A00E4F0A304F07F007E477D007C00128D2BEA
:100A9A007B017A8C7924908C8EE4F0A304F07F0594
:100AAA007E307D007C001283F07B017A8C79249061
:100ABA008DE8E4F0A304F07F10020CEC908C24E0A3
:100ACA007004A3E0640270627F0212DD727B017A15
:100ADA008C7924908C8EE4F0A304F07F007E307D24
:100AEA00007C001283F07B017A8C7924908DE8E4F3
:100AFA00F0A304F0FF7E477D007C00128D2B7B0162
:100B0A007A8C7924908C8EE4F0A304F07F057E30F1
:100B1A007D007C001283F07B017A8C7924908DE829
:100B2A00E4F0A304F07F11020CEC908C24E0700432
:100B3A00A3E0640370637F0212DD727B017A8C7911
:100B4A0024908C8EE4F0A304F07F007E307D007C3C
:100B5A00001283F07B017A8C7924908DE8E4F0A36B
:100B6A0004F07F027E477D007C00128D2B7B017A88
:100B7A008C7924908C8EE4F0A304F07F057E307D7E
:100B8A00007C001283F07B017A8C7924908DE8E452
:100B9A00F0A304F07F12020CEC908C24E07004A302
:100BAA00E0640470637F0312DD727B017A8C79241E
:100BBA00908C8EE4F0A304F07F007E307D007C00F0
:100BCA001283F07B017A8C7924908DE8E4F0A304F7
:100BDA00F07F037E477D007C00128D2B7B017A8C8F
:100BEA007924908C8EE4F0A304F07F057E307D009A
:100BFA007C001283F07B017A8C7924908DE8E4F0F2
:100C0A00A304F07F13020CEC908C24E07004A3E0A0
:100C1A00640570627F0312DD727B017A8C792490FD
:100C2A008C8EE4F0A304F07F007E307D007C0012FD
:100C3A0083F07B017A8C7924908DE8E4F0A304F0A8
:100C4A007F047E477D007C00128D2B7B017A8C7994
:100C5A0024908C8EE4F0A304F07F057E307D007C26
:100C6A00001283F07B017A8C7924908DE8E4F0A35A
:100C7A0004F07F14806C908C24E07004A3E0640676
:100C8A0070697F0312DD727B017A8C7924908C8ED5
:100C9A00E4F0A304F07F007E307D007C001283F034
:100CAA007B017A8C7924908DE8E4F0A304F07F0527
:100CBA007E477D007C00128D2B7B017A8C792490F3
:100CCA008C8EE4F0A304F07F057E307D007C001258
:100CDA0083F07B017A8C7924908DE8E4F0A304F008
:100CEA007F157E477D007C00128D2B127538908C03
:100CFA0029E0FF7E00C39401748094805003021897
:100D0A00BDD3EF94067480948040030218BDE0C3FB
:080D1A009401FFE4FD12D82052
:100D22000218BD7B017A8C7924908C8EE4F0A304A6
:100D3200F07F027E207D007C001283F0908C24E004
:100D42007004A3E0640160030218BD7D01802B7B67
:100D5200017A8C7924908C8EE4F0A304F07F027ED9
:100D6200207D007C001283F0908C24E07004A3E0CC
:100D7200640160030218BD74FFFDFC7F01020E3F97
:100D82007B017A8C7924908C8EE4F0A304F07F02AC
:100D92007E207D007C001283F0908C24E07004A3FE
:100DA200E0640260030218BD74FFFDFC7F02020EC4
:100DB2003F7B017A8C7924908C8EE4F0A304F07F3F
:100DC200027E207D007C001283F0908C24E070046F
:100DD200A3E0640260030218BD7D01FC7F02805D16
:100DE2007B017A8C7924908C8EE4F0A304F07F024C
:100DF2007E207D007C001283F0908C24E07004A39E
:100E0200E0640360030218BD7D01FC7F03802E7B3A
:100E1200017A8C7924908C8EE4F0A304F07F027E18
:100E2200207D007C001283F0908C24E07004A3E00B
:100E3200640360030218BD74FFFDFC7F0312B1E777
:090E42000218BD12AAD30218BD6A
:100E4B007B017A8C792D908C8EE4F0A304F07F03D8
:100E5B007E207D007C001283F0908C2DE07002A32D
:100E6B00E07B016003020F3C7A8C7929908C8EF029
:100E7B00A304F07F257E207D007C001283F07B0194
:100E8B007A8C7929908DE8E4F0A304F07F057E201D
:100E9B007D007C00128D2B908C29E0FEA3E0FF7D62
:100EAB004612B8C9908C2BEEF0A3EFF07B017A8C35
:100EBB00792B908DE8E4F0A304F07F067E207D0073
:100ECB007C00128D2B7B017A8C792F908C8EE4F029
:100EDB00A304F07F027E207D007C001283F0908CB7
:100EEB0029E0FEA3E0FFE4FCFD908C5212417A7FD7
:100EFB000412BE70908C2F12E257908C2FA3E0FF40
:100F0B00908C2BE0FAA3E0FB7D0112E264908C2F16
:100F1B00A3E0FFC007908C29E0FCA3E0FDE41238AE
:100F2B0039908C3412417AD00712DB0F7F01020FFC
:010F3B00FCB9
:100F3C007A8C792D908C8EE4F0A304F07F267E20A1
:100F4C007D007C001283F07B017A8C792D908DE8EA
:100F5C00E4F0A304F07F067E207D007C00128D2B34
:100F6C00908C2D12B8C2908C29EEF0A3EFF07B017F
:100F7C007A8C7929908DE8E4F0A304F07F057E202B
:100F8C007D007C00128D2B7B017A8C7931908C8EBC
:100F9C00E4F0A304F07F027E207D007C001283F03D
:100FAC00908C29E0FEA3E0FFE4FCFD908C521241F2
:100FBC007A7F0412BE70908C3112E257908C31A360
:100FCC00E0FF908C2DE0FAA3E0FB7D0112E264902F
:100FDC008C31A3E0FFC007908C29E0FCA3E0FDE47A
:100FEC00123839908C3412417AD00712DB0F7F1EE5
:030FFC0012DD7291
:020FFF00D2100E
:101001000218877B017A8C7924908C8EE4F0A304FA
:10101100F07F217E207D007C001283F0908C24E003
:10102100FEA3E0FF12E5FCD2100218877F0F12DD4C
:101031007212A8B10218BD7B017A8C7924908C8E32
:10104100E4F0A304F07F187E207D007C001283F081
:10105100908C24E0FEA3E0FF909333EEF0A3EFF039
:1010610012E3B8021887128ECC90931112417A12B2
:10107100DB547D017F0712DCA90218BD7B017A8C4C
:101081007924908C8EE4F0A304F07F1E7E207D00F5
:101091007C001283F07B017A8C7924908DE8E4F056
:1010A100A304F07F1E7E207D007C00128D2B908C8E
:0A10B10024A3E0FF12E59C0218875B
:1010BB00E4908C29F0A3F07B017A8C7929908C8EAB
:1010CB00F0A304F07F087E357D007C001283F09046
:1010DB008C29A3E0FD7F6512DEAF7B017A8C792929
:1010EB00908DE8E4F0A304F07F087E357D007C0052
:0610FB00128D2B12C5C08E
:101101000218877F0E0218BA7B017A8C7924908CA1
:101111008EE4F0A304F07F037E207D007C00128327
:10112100F0908C24E07002A3E070057F0B0218BAE6
:101131007F280218BA7B017A8C7924908C8EE4F096
:10114100A304F07F037E207D007C001283F0908C4D
:1011510024E07002A3E070057F0B0218BA7F280219
:1011610018BA7B017A8C7924908C8EE4F0A304F078
:101171007F037E207D007C001283F0908C24E07040
:1011810002A3E070057F100218BA7F260218BA7B0D
:10119100017A8C7924908C8EE4F0A304F07F187E80
:1011A100107D007C001283F0908C24E07004A3E099
:1011B100640160030212477B017A8C7924908C8E42
:1011C100F0A304F07F197E107D007C001283F09063
:1011D1008C24E07004A3E0640170667B017A8C7951
:1011E10024908C8EF0A304F07F507E307D007C0033
:1011F1001283F07B017A8C7924908DE8E4F0A304CA
:10120100F07F807E107D007C00128D2B7B017A8C1B
:101211007924908C8EE4F0A304F07F517E307D0020
:101221007C001283F07B017A8C7924908DE8E4F0C4
:10123100A304F07F817E107D007C00128D2B127B38
:10124100EC7F0C0218BA908C24E07004A3E06402D5
:1012510060030212E57B017A8C7924908C8EF0A3D5
:1012610004F07F197E107D007C001283F0908C24A5
:10127100E07004A3E0640170667B017A8C792490AC
:101281008C8EF0A304F07F507E307D007C001283B1
:10129100F07B017A8C7924908DE8E4F0A304F07F4F
:1012A100827E107D007C00128D2B7B017A8C79244B
:1012B100908C8EE4F0A304F07F517E307D007C00A1
:1012C1001283F07B017A8C7924908DE8E4F0A304F9
:1012D100F07F837E107D007C00128D2B12B49B7FEA
:1012E1000B0218BA908C24E07004A3E0640360033D
:1012F1000213807B017A8C7924908C8EF0A304F008
:101301007F197E107D007C001283F0908C24E070A8
:1013110004A3E0640170637B017A8C7924908C8E44
:10132100F0A304F07F507E307D007C001283F07BBF
:10133100017A8C7924908DE8E4F0A304F07F847E17
:10134100107D007C00128D2B7B017A8C7924908C8E
:101351008EE4F0A304F07F517E307D007C00128387
:10136100F07B017A8C7924908DE8E4F0A304F07F7E
:10137100857E107D007C00128D2B7F120218BA90A1
:101381008C24E07004A3E0640460030218BD7B01B7
:101391007A8C7924908C8EF0A304F07F197E107DD5
:1013A100007C001283F0908C24E07004A3E06401BF
:1013B10070667B017A8C7924908C8EF0A304F07F87
:1013C100507E307D007C001283F07B017A8C792481
:1013D100908DE8E4F0A304F07F867E107D007C0010
:1013E100128D2B7B017A8C7924908C8EE4F0A304EE
:1013F100F07F517E307D007C001283F07B017A8C7E
:101401007924908DE8E4F0A304F07F877E107D00BD
:101411007C00128D2B12B3B97F100218BA7B017AAE
:101421008C7924908C8EE4F0A304F07F037E207DE0
:10143100007C001283F0908C24E07002A3E0600530
:101441007F200218BA7F320218BA7B017A8C792484
:10145100908C8EE4F0A304F07F307E207D007C0030
:101461001283F0908C24E07002A3E06072C3909329
:1014710038E094D0909337E0940740577B017A8C01
:101481007924908C8EE4F0A304F07F107E207D00FF
:101491007C001283F0908C24E07002A3E07E006057
:1014A100047F0080027F01908C24EEF0A3EFF07B9B
:1014B100017A8C7924908DE8E4F0A304F07F107E0A
:1014C100207D007C00128D2B908C24A3E0FD7F03F6
:1014D10012DCA9C229E4909337F0A3F00218BDD21F
:0414E100290218BD07
:1014E5007B017A8C7929908C8EE4F0A304F07F201F
:1014F5007E307D007C001283F0E4908C28F0908C87
:1015050028E0FFC39406748094805048E42FFFE4DC
:101515003447FEE4FCFD7B017A8C7929908DE8F057
:10152500A304F0128D2B908C24E4F0A304F0908C8E
:1015350028E02410FFE43440FEE4FCFD7B017A8CB6
:101545007924908DE8F0A304F0128D2B908C28E07F
:1015550004F080AA7B017A8C792B908C8EE4F0A321
:1015650004F07F257E307D007C001283F0E4908CB2
:1015750028F0908C28E0FFC3940674809480502353
:10158500EF2410FFE43447FEE4FCFD7B017A8C79FF
:101595002B908DE8F0A304F0128D2B908C28E0049D
:1015A500F080CF7B017A8C7924908C8EE4F0A304B3
:1015B500F07F907E107D007C001283F0E4908C28F3
:1015C500F0908C28E0FFC39406748094805023EF3C
:1015D5002420FFE43410FEE4FCFD7B017A8C7924A1
:1015E500908DE8F0A304F0128D2B908C28E004F088
:1015F50080CF1275387D01E4FF12D82012E6D5128E
:04160500EA167F0260
:101609000218BA7B017A8C7924908C8EE4F0A304B9
:10161900F07F907E307D007C001283F07B017A8C14
:101629007924908DE8E4F0A304F07F027E207D0008
:101639007C00128D2BD21002188712EA227F2D12FC
:10164900DD7212AEF90218BD7B017A8C7924908C77
:101659008EE4F0A304F07F367E207D007C001283A7
:10166900F0908C24E07004A3E0640160030218BDCB
:1016790012DC6512AEF9E4908C24F0A3F07B017AB8
:101689008C7924908DE8F0A304F07F367E207D00CC
:101699007C00128D2B0218BD909316E0FEA3E0FF8B
:1016A90012E819021887909316E0FEA3E0FFC3948D
:1016B90010EE9440405CEF24F0FFE4FD12D82002C4
:1016C900177D909316E0FEA3E0FFC3EE9447400513
:1016D900E4FD12D82002177D909316E0FEA3E0FFE7
:1016E900C39410EE94474009EF24F0FFE4FD12D8AB
:1016F9002002177D7D431263BD909316E0FEA3E09F
:10170900FFC39420EE94104009EF24E0FFE4FD129A
:04171900D8208060F4
:10171D007D461263BD909316E0FCA3E0FD249090EE
:10172D008C29F0AF05AE04E4FCFD7B017A8C792A9F
:10173D00908C8EF0A304F01283F0908C2A12B8C214
:10174D00908C2CEEF0A3EFF0908C29E02420FFE498
:10175D003410FEE4FCFD7B017A8C792C908DE8F041
:10176D00A304F0128D2B908C29E0FFE4FD12D820FC
:06177D0012EA1612753895
:101783000218BD7BFF7AD6797D1254EB12E76B7F8B
:0F1793001612DD72D22B0218BD127BEC021887E2
:1017A200909316E0FEA3E0FFE4FCFD7B017A8C79C6
:1017B20029908C8EF0A304F01283F0908C2912B839
:1017C200C2908C2BEEF0A3EFF07B017A8C792B90F8
:1017D2008DE8E4F0A304F07F247E487D007C0012B3
:0517E2008D2B127BECD1
:1017E700021887E4FD7F01127DEC1285C602188777
:1017F700909316E0FEA3E0FFE4FCFD7B017A8C7971
:1018070029908C8EF0A304F01283F0908C2912B8E3
:10181700C2908C2BEEF0A3EFF07B017A8C792B90A2
:101827008DE8E4F0A304F07F387E487D007C001249
:0C1837008D2BE4FD7F01127DEC1285C6B4
:1018430080427D01E4FF127DEC12B3B9803612B4FD
:101853009B80317B017A8C7924908C8EE4F0A304F5
:10186300F07F387E207D007C001283F0908C24E092
:101873007002A3E06004D22C8002C22CA22CB3928B
:101883001912DACA12EA16803112A426802C7B01BF
:101893007A8C7924908C8EE4F0A304F07F307E2040
:1018A3007D007C001283F0908C24E07002A3E06042
:1018B300047F3D80027F3412DD72909316E0FEA315
:1018C300E0FFC3EE94485003021A69D3EF945FEE2E
:0718D30094484003021A696A
:1018DA00EF7003EE64487003021A69EF6402700342
:1018EA00EE64487003021A69EF64047003EE6448F8
:1018FA007003021A69EF64067003EE64487003020B
:10190A001A69EF64107003EE64487003021A69EFF3
:10191A0064127003EE64487003021A69EF6414706B
:10192A0003EE64487003021A69EF64167003EE64EA
:10193A00487003021A69EF64087003EE6448601085
:10194A00EF640A7003EE64486006BE4807BF0C04E1
:10195A007D43802B909316E0FEA3E0FF641870038A
:10196A00EE64486010EF641A7003EE64486006BEC5
:10197A004813BF1C10909316E0FEA3E0FF7D4612A9
:10198A0063C5021A66909316E0FEA3E0FFE4FCFD2D
:10199A007B017A8C7926908C8EF0A304F01283F066
:1019AA00909316A3E0908C29F0E0FF25E02478F5C7
:1019BA0082E43482F583E0FCA3E0FDEF25E02438DD
:1019CA00F582E43483F583E0FEA3E0FFD39DEC6463
:1019DA0080F8EE6480984056908C26E0FCA3E0FDE7
:1019EA00D39FEE6480F8EC6480984019908C29E0CB
:1019FA0025E02438F582E43483F583E0FFA3E09000
:101A0A008C26CF8025908C29E025E02478F582E485
:101A1A003482F583E0FEA3E0FFC3ED9FEE6480F815
:101A2A00EC6480985008908C26EEF0A3EFF0909327
:101A3A0016E0FEA3E0FFE4FCFD7B017A8C79269098
:101A4A008DE8F0A304F0128D2B908C29E090931965
:0F1A5A00F0D213908767E4F0A374C8F012EA1675
:011A6900225A
:10E4A600C21AE4FEEEC39408748094805015741B5F
:10E4B6002EF582E43493F583E0B50704D21A80037F
:05E4C6000E80E1A21A26
:01E4CB00222E
:10ACED00E4908C60F0A3F0A3F0A374FFF0E4908CDB
:10ACFD0062F0908C62E0FFC39406748094805037AC
:10AD0D00EF2410FFE43440FEE4FCFD7B017A8C79E6
:10AD1D0060908C8EF0A304F01283F0908C60E07044
:10AD2D0004A3E064017008908C62E0A3F0800890A9
:10AD3D008C62E004F080BBE4908C60F0A3F0908C0A
:10AD4D0063E0FFC39406748094805060EF75F0202B
:10AD5D00A42401FFE5F03411FEE4FCFD7B017A8CA7
:10AD6D007960908C8EF0A304F01283F0D3908C61F7
:10AD7D00E09404908C60E094004031908C63E0246A
:10AD8D0000FFE43447FEE4FCFD7B017A8C79609092
:10AD9D008C8EF0A304F01283F0D3908C61E09404B8
:10ADAD00908C60E094004004E4F0A3F07B017A8C79
:10ADBD007960908DE8E4F0A304F0FF7E207D007CA7
:10ADCD0000128D2B9092FAE0FF908C60E0FCA3E0D6
:10ADDD00FD6F7001EC600EAF0512AFFB908C60A3A0
:05ADED00E09092FAF075
:01ADF200223E
:10DBDD00E4908C48F0A3F020190A12E51512E4A682
:10DBED005031802C7B017A8C7948908C8EE4F0A397
:10DBFD0004F07F037E207D007C001283F0908C4822
:10DC0D00E07002A3E070047F0180027F1E12DD72BE
:03DC1D0012ACED59
:01DC200022E1
:0863BD00909316E0FEA3E0FF3F
:0D63C500908C40EDF0908C3EEEF0A3EFF0D8
:1063D200E4FCFD7B017A8C7941908C8EF0A304F071
:1063E2001283F0908C3EE0FEA3E0FFC39420EE9473
:1063F20010400BD3EF9425EE941050028022C3EF8D
:106402009470EE9410400BD3EF9475EE94105002FA
:106412008027908C3EE0FEA3E0FFBE2016BF25132E
:10642200908C43E4F0A37410F0A3E4F0A37420F082
:10643200026517BE201BBF26187D467F107E001204
:10644200B8C9908C43EEF0A3EFF07D467F20026541
:106452000A908C3EE0FEA3E0FFBE4816BF081390F0
:106462008C43E4F0A3741EF0A3E4F0A3743CF002A6
:106472006517BE4816BF0A13908C43E4F0A3741E3E
:10648200F0A3E4F0A37432F0026517BE4815BF0C06
:1064920012908C43E4F0A3740FF0A3E4F0A37428E9
:1064A200F08072BE481ABF18177D467F1E7E00120A
:1064B200B8C9908C43EEF0A3EFF07D467F3C804854
:1064C200908C3EE0B4481CA3E0B41A177D467F1EB0
:1064D2007E0012B8C9908C43EEF0A3EFF07D467FA8
:1064E200328025908C3EE064487004A3E0641C6016
:1064F2000302666F7D467F0FFE12B8C9908C43EE91
:10650200F0A3EFF07D467F287E0012B8C9908C453B
:10651200EEF0A3EFF0908C43E0FEA3E0FF908C41FD
:10652200E0FCA3E0FDC39FEC9E5002800F908C45DF
:10653200E0FEA3E0FFD3ED9FEC9E4008908C41EE7D
:10654200F0A3EFF0908C3EE0FEA3E0FFE4FCFD7BC5
:10655200017A8C7941908DE8F0A304F0128D2B9092
:106562008C3EE0FEA3E0FFC39420EE9410400ED3D5
:10657200EF9425EE94105005EF24E0802B908C3E92
:10658200E0FEA3E0FFC39470EE94104027D3EF9493
:1065920075EE9410501E12B8BF908C41EEF0A3EF2E
:1065A200F0908C3EA3E02490FF908C41E0FCA3E0AD
:1065B200FD02D07A908C3EE0B4200FA3E0B4250A0D
:1065C200908C41E0FEA3E0FF800F908C3EE0B4206F
:1065D2000BA3E0B4260612B8BF02C240908C3EE084
:1065E200FEA3E0FF64087003EE64486014EF640ADF
:1065F2007003EE6448600AEF640C7003EE64487046
:1066020028908C41E0FEA3E0FF7D4612B8C9AB079B
:10661200AA06908C3FE024F8FF908C3EE034B7C38A
:1066220013EF1304FF7D018041908C3EE0FEA3E056
:10663200FF64187003EE64486014EF641A7003EE8E
:106642006448600AEF641C7003EE6448701F12B85D
:10665200BFAB07AA06908C3FE024E8FF908C3EE097
:0D66620034B7C313EF1304FFE4FD12E2642C
:01666F002208
:10E5FC00908C33EEF0A3EFF07B017A8C7933908D15
:10E60C00E8E4F0A304F0FF7E207D007C00028D2B5B
:10A8B1007B017A8C7935908C8EE4F0A304F07F10C3
:10A8C1007E307D007C001283F07B017A8C7935909B
:10A8D1008DE8E4F0A304F07F707E307D007C0012EF
:10A8E1008D2B7B017A8C7937908C8EE4F0A304F068
:10A8F1007F117E307D007C001283F0908C35E0FE6C
:10A90100A3E0FFA3E0FCA3E0FD12E966908C39EE21
:10A91100F0A3EFF07B017A8C7939908DE8E4F0A314
:10A9210004F07F727E307D007C00128D2B7B017ADA
:10A931008C7933908C8EE4F0A304F07F127E307D0D
:10A94100007C001283F07B017A8C7933908DE8E4EE
:10A95100F0A304F07F737E307D007C00128D2B7B91
:10A96100017A8C7933908C8EE4F0A304F07F137E0E
:10A97100307D007C001283F07B017A8C7933908DDD
:10A98100E8E4F0A304F07F747E307D007C00128D3A
:10A991002B7B017A8C7933908C8EE4F0A304F07FC9
:10A9A100147E307D007C001283F07B017A8C793338
:10A9B100908DE8E4F0A304F07F757E307D007C008B
:03A9C100028D2BD9
:10A426007B017A8C7939908C8EE4F0A304F07F70EE
:10A436007E307D007C001283F07B017A8C793B9024
:10A446008C8EE4F0A304F07F727E307D007C0012D7
:10A4560083F07B017A8C793D908C8EE4F0A304F036
:10A466007F737E307D007C001283F07B017A8C79CD
:10A476003F908C8EE4F0A304F07F747E307D007CE8
:10A48600001283F07B017A8C7941908C8EE4F0A3E4
:10A4960004F07F757E307D007C001283F0908C394D
:10A4A600E0FEA3E0FFC394D0EE9407400CEF243007
:10A4B600FFEE34F8908C43800B908C39E0FFA3E0DC
:10A4C600908C43CFF0A3EFF0908C44E0FE908C3C50
:10A4D600E0FDEDFF908C33EEF0A3EFF0908C3EE0C4
:10A4E600FE908C40E0FDEDFF908C35EEF0A3EFF092
:10A4F600908C42E0908C37F0A3E4F07B017A8C7963
:10A5060033908DE8F0A37403F07F9D7E007D007C80
:10A5160000128D2B908C3BE0FCA3E0FDA3E0FAA398
:10A52600E0FBA3E0FFA3E0908C62CFF0A3EFF090F6
:10A536008C41E0FFA3E0908C64CFF0A3EFF0908C09
:09A5460039E0FEA3E0FF02C49E0F
:08C24000908C55EEF0A3EFF025
:10C24800908C55E0FEA3E0FF7D4612B8C9908C574C
:10C25800EEF0A3EFF07B017A8C7955908DE8E4F04D
:10C26800A304F07F057E207D007C00128D2B7B01CE
:10C278007A8C7957908DE8E4F0A304F07F067E204D
:10C288007D007C00128D2B7B017A8C7959908C8EE5
:10C29800E4F0A304F07F027E207D007C001283F08E
:10C2A800908C59E0FEA3E0FFC39401EE9400402275
:10C2B800D3EF9403EE94005019908C5512E25D90E0
:10C2C8008C59A3E0FF908C57E0FAA3E0FB7D0112A4
:02C2D800E2641E
:01C2DA002241
:10CE64007B017A8C7951908C8EE4F0A304F07F02DC
:10CE74007E207D007C001283F07B017A8C795390B4
:10CE84008C8EE4F0A304F07F037E207D007C0012EE
:10CE940083F0908C51E0FEA3E0FFC39401EE940074
:10CEA400402AD3EF9403EE94005021A3A3E0FD1293
:10CEB400E22D908C53E07002A3E06009EF4E600510
:0CCEC4007D4312B8C9EF4E600312C2405B
:01CED000223F
:106670007B017A8C794A908C8EE4F0A304F07F033E
:106680007E207D007C001283F07B017A8C794C9017
:106690008C8EE4F0A304F07F057E207D007C001248
:1066A00083F07B017A8C794E908C8EE4F0A304F019
:1066B0007F067E207D007C001283F0908C4AE07083
:1066C00002A3E0601A908C4CE0FEA3E0FF4E600253
:1066D000802D908C4EE0FEA3E0FF4E602F800B904B
:1066E0008C4EE0FEA3E0FF4E600A7D4312B8C990D5
:1066F0008C4C8013908C4CE0FEA3E0FF4E600D7D2F
:106700004612B8C9908C4EEEF0A3EFF0908C4CE09E
:10671000FEA3E0FF4E60028020908C4EE0FEA3E0DE
:10672000FF4E60187D4312B8C9908C4CEEF0A3EF79
:10673000F0908C4CE0FEA3E0FF12C2407B017A8C0B
:10674000794C908DE8E4F0A304F07F257E207D0055
:106750007C00128D2B7B017A8C794E908DE8E4F0D1
:10676000A304F07F267E207D007C00128D2B12CEAC
:1067700064908C55124186000048107F0012D4BEF0
:10678000908C55124186000048127F0212D4BE90B0
:106790008C55124186000048147F0412D4BE908CA0
:1067A00055124186000048167F0612D4BE908C50C8
:1067B0007401F0908C50E0FFD39403748094805067
:1067C00040E4FD12E22D908C4CEEF0A3EFF0908CA3
:1067D0004CE0FEA3E0FF4E601D7D4612B8C9908CD0
:1067E0004EEEF0A3EFF0A3E0FF908C4EE0FAA3E0B2
:1067F000FB7D0112E26443C901908C50E004F080FB
:10680000B2908C55124186000010087F067E10124F
:10681000D4C0908C551241860000101A7F147E104F
:1068200012D4C0E4908C50F0908C50E0FFC39406DA
:1068300074809480506EEF2420FFE43410FEE4FC5A
:10684000FD7B017A8C794C908C8EF0A304F012833E
:10685000F0908C50E0FF908C4CE0FCA3E0FD12D057
:106860007A908C50E025E0FFE433FEEF2430FFEE19
:106870003410FEE4FCFD7B017A8C794C908C8EF018
:10688000A304F01283F0908C4CE0FCA3E0FD4C607C
:1068900008908C50E0FF12CBBA43C901908C50E0B5
:1068A00004F080847B017A8C794C908C8EE4F0A388
:1068B00004F07F247E487D007C001283F0908C4C95
:1068C000E0FAA3E0FB4A6017908C55124186000065
:1068D0004830908C59EAF0A3EBF07F2412D4017B6E
:1068E000017A8C794C908C8EE4F0A304F07F387E92
:1068F000487D007C001283F0908C4CE0FAA3E0FB12
:106900004A6017908C5512418600004832908C598D
:0D691000EAF0A3EBF07F3812D401029808E2
:0AB8BF00908C41E0FEA3E0FF7D4302
:05B8C900908C67EDF01A
:10B8CE006443703AC3EF94EAEE6480947F50067E30
:10B8DE00FF7FEA800FD3EF940AEE648094814004D8
:10B8EE007E017F0AEF24E0FFEE34FFFE7C007D3206
:10B8FE00123E467D09123EAD908C68EE803E908CD5
:10B90E0067E06446703AC3EF94E2EE6480947F5031
:10B91E00067EFF7FE2800FD3EF9482EE64809480E8
:10B92E0040047E007F827C007D5A123E467D0512C9
:10B93E003EADEF2440FFEE3401908C68F0A3EFF0A3
:10B94E00908C68E0FEA3E0FFD39400EE64809480B8
:10B95E004008EF2405FFE43E800D908C69E024FB47
:10B96E00FF908C68E034FFFE7C007D0A123EAD90A5
:07B97E008C68EEF0A3EFF06E
:01B98500229F
:10E0BA00E4908C48F0A3F07B017A8C7948908C8E9E
:10E0CA00F0A304F07F037E207D007C001283F09091
:10E0DA008C48E07002A3E07003FD80027D017F0698
:06E0EA0012DEAF026670B9
:1079C10078E37C957D017BFF7AD679D07E007F02BA
:1079D100123D737B017A9579E3908C8EE4F0A304D8
:1079E100F07F217E487D007C001283F09095E4E0D9
:1079F100909308F07B017A9579E3908C8EE4F0A363
:107A010004F07F807E107D007C001283F09095E46D
:107A1100E0909309F07B017A9579E3908C8EE4F004
:107A2100A304F07F817E107D007C001283F090958D
:107A3100E4E090930AF07B017A9579E3908C8EE4EF
:107A4100F0A304F07F207E487D007C001283F0903B
:107A510095E4E090930BF07B017A9579E3908C8E1D
:107A6100E4F0A304F07F827E107D007C001283F09D
:107A71009095E4E090930CF07B017A9579E3908CFA
:107A81008EE4F0A304F07F837E107D007C001283DE
:107A9100F09095E4E090930DF07B017A9579E39075
:107AA1008C8EE4F0A304F07F267E487D007C0012DA
:107AB10083F09095E4E090930EF09094F412418657
:107AC100000048307F2412C75A90930FEFF07B01DA
:107AD1007A9579E3908C8EE4F0A304F07F257E48BB
:107AE1007D007C001283F09095E4E0909329F07B77
:107AF100017A9579E3908C8EE4F0A304F07F847E83
:107B0100107D007C001283F09095E4E090932AF0C0
:107B11007B017A9579E3908C8EE4F0A304F07F8564
:107B21007E107D007C001283F09095E4E090932B11
:107B3100F07B017A9579E3908C8EE4F0A304F07FD9
:107B4100277E487D007C001283F09095E4E09093BD
:107B51002CF07B017A9579E3908C8EE4F0A304F00C
:107B61007F867E107D007C001283F09095E4E0908A
:107B7100932DF07B017A9579E3908C8EE4F0A30448
:107B8100F07F877E107D007C001283F09095E4E009
:107B910090932EF07B017A9579E3908C8EE4F0A39B
:107BA10004F07F367E487D007C001283F09095E4DE
:107BB100E090932FF07B017A9579E3908C8EE4F03D
:107BC100A304F07F377E487D007C001283F09095FE
:107BD100E4E0909330F09094F41241860000483232
:0A7BE1007F3812C75A909331EFF07D
:017BEB002277
:05BBC100909588E0FFF3
:10BBC600E49095A0F0A3F0EF70047F068005C3EF24
:10BBD6009401FF90959EEFF0E49095A2F09095A2C7
:10BBE600E0FFC39407748094805049EF2410FFE46B
:10BBF6003445FEE4FCFD7B017A95799F908C8EF0AE
:10BC0600A304F01283F090959FE060209095A2E047
:10BC1600FF7E007401A807088005C333CE33CED853
:10BC2600F9FF9095A0E04EF0A3E04FF09095A2E0CA
:10BC360004F080A99095A0E0FCA3E0FD4C70037F82
:10BC4600012290959EE0FF7E007401A807088005FA
:10BC5600C333CE33CED8F9FFEC5EFEED5F4E600403
:06BC66007F0180027F0057
:01BC6C0022B5
:10A54F007B017A957933908C8EE4F0A304F07F37FA
:10A55F007E487D007C001283F07B017A95793590DF
:10A56F008C8EE4F0A304F07F387E487D007C0012CF
:10A57F0083F07B017A957937908C8EE4F0A304F009
:10A58F007F817E307D007C001283F0E4909530F067
:10A59F00909530E0FFC3940674809480400302A628
:01A5AF007239
:10A5B000E4909539F0A3F0EF2460FFE43448FEE422
:10A5C000FCFD7B017A957939908C8EF0A304F01212
:10A5D00083F0909539E07002A3E0700302A66990C1
:10A5E0009531E4F0A304F0909530E02410FFE434BA
:10A5F00040FEE4FCFD7B017A957931908DE8F0A373
:10A6000004F0128D2B909530E02400FFE43447FED7
:10A61000E4FCFD7B017A957933908DE8F0A304F09A
:10A62000128D2B909530E02420FFE43410FEE4FCE2
:10A63000FD7B017A957935908DE8F0A304F0128DB9
:10A640002B909530E02410FFE43447FEE4FCFD7BC2
:10A65000017A957937908DE8F0A304F0128D2B9054
:09A660009530E0FFE4FD12D82062
:0CA66900909530E004F002A59F027538C7
:10CACD00E49095A4F0A3F09095A3F09095A3E0FFCA
:09CADD00C3940674809480505C3F
:10CAE600E49095A6F0A3F0EF2460FFE43448FEE45A
:10CAF600FCFD7B017A9579A6908C8EF0A304F0124A
:10CB060083F09095A6E07002A3E060289095A3E0DC
:10CB16002410FFE43440FEE4FCFD7B017A9579A401
:10CB2600908DE8F0A304F0128D2B9095A3E0FFE41E
:04CB3600FD12D820F4
:0BCB3A009095A3E004F080960275388F
:10691D007B017A957984908C8EE4F0A304F07F123C
:10692D007E007D007C001283F01279C112EA1C906A
:10693D009588EFF0909584E0FEA3E0FDEDFF909536
:10694D0089EEF0A3EFF0909308E07003026A49120C
:10695D00BBC1EF7003026A49909584E0FF909309E3
:10696D00E06F6003026A2D909585E0FF90930AE039
:10697D006F6003026A2D909589E0FEA3E0FF90926F
:10698D00FBE06E7003A3E06F7003026A4990958679
:10699D00E4F0A304F0FB7A957986908DE8E4F0A3FA
:1069AD0004F07F217E407D007C00128D2B7B017ACF
:1069BD0093790E908DE8E4F0A304F07F027E207DA4
:1069CD00007C00128D2B90930EE06401700BA3E000
:1069DD00FB7A00E4FD7F01802490930EE064027049
:1069ED000BA3E0FB7A00E4FD7F02801190930EE093
:1069FD006403700CA3E0FB7A00E4FD7F0312E264F4
:106A0D0090930FE0FF7E0012C240D21012EA169052
:106A1D009589E0FFA3E09092FBCFF0A3EFF0801CEF
:106A2D00909589E0FEA3E0FF9092FBE0B5060DA3E3
:106A3D00E0B5070874FF9092FBF0A3F090930BE084
:106A4D007003026AD812BBC1EF7003026AD8909529
:106A5D0084E0FF90930CE06F7055909585E0FF906A
:106A6D00930DE06F7049909589E0FEA3E0FF909241
:106A7D00FDE06E7003A3E06F6051E4909586F0A386
:106A8D00F07B017A957986908DE8F0A304F07F2153
:106A9D007E407D007C00128D2BD21012EA1690954F
:106AAD0089E0FFA3E09092FDCFF0A3EFF0801C9062
:106ABD009589E0FEA3E0FF9092FDE0B5060DA3E001
:106ACD00B5070874FF9092FDF0A3F0909329E06054
:106ADD006512BBC1EF605F909584E0FF90932AE053
:106AED00B50737909585E0FF90932BE0B5072B9078
:106AFD009589E0FEA3E0FF9092FFE06E7003A3E0A6
:106B0D006F603312A54F12EA16909589E0FFA3E04E
:106B1D009092FFCFF0A3EFF0801C909589E0FEA33B
:106B2D00E0FF9092FFE0B5060DA3E0B5070874FFF6
:106B3D009092FFF0A3F090932CE0606512BBC1EF33
:106B4D00605F909584E0FF90932DE0B507379095A9
:106B5D0085E0FF90932EE0B5072B909589E0FEA37D
:106B6D00E0FF909301E06E7003A3E06F603312CAF3
:106B7D00CD12EA16909589E0FFA3E0909301CFF036
:106B8D00A3EFF0801C909589E0FEA3E0FF909301A8
:106B9D00E0B5060DA3E0B5070874FF909301F0A3CF
:046BAD00F00295233A
:109EFF0012E7999095C3EFF0D39406748094805035
:109F0F0023909304E0FF9095C3E0FE6F60167BFFF4
:109F1F007AD67990908C74EEF01254EB9095C3E052
:109F2F00909304F09095C3E0D3940674809480408E
:109F3F0002E4F09095C3E024FD700A9095C0E4F020
:109F4F00A304F08007E49095C0F0A3F07B017A950D
:109F5F0079C0908DE8E4F0A304F07F437E307D005C
:109F6F007C00128D2BE49095C0F0A3F07B017A95C5
:109F7F0079C0908C8EF0A304F07F217E487D007C09
:109F8F00001283F09095C0E07002A3E070187B017F
:109F9F007A9579C0908C8EF0A304F07F207E487D57
:109FAF00007C001283F09095C0E07002A3E070185F
:109FBF007B017A9579C0908C8EF0A304F07F257E7B
:109FCF00487D007C001283F09095C0E07002A3E002
:109FDF0070187B017A9579C0908C8EF0A304F07F76
:109FEF00277E487D007C001283F07B017A9579C033
:109FFF00908DE8E4F0A304F07F047E207D007C00C8
:10A00F00128D2B7B017A9579C2908C8EE4F0A3048C
:10A01F00F0FF7E207D007C001283F0909303E0FE22
:10A02F009095C2E0FF6E600B12AFFB9095C2E0906F
:10A03F009303F07B017A937924908DE8E4F0A304E5
:0CA04F00F07F417E307D007C00028D2BF4
:10DCED00202B02803812EA2EEF60127BFF7AD67954
:10DCFD00A31254EB7F1712DD72C22B802090930577
:10DD0D00E004F0E0C3941E7480948040157BFF7A8C
:10DD1D00D679B51254EB7F1512DD72C22BE49093B8
:02DD2D0005F0FF
:01DD2F0022D1
:10E3E000302A24909306E0C3940F748094805004E4
:10E3F000E004F022C22AE4909306F0D21912DBDD89
:07E40000E490934AF0A3F041
:01E4070022F2
:10A05B0030300302A1AD302A0302A1ADC390934B64
:10A06B00E0942090934AE0944E500302A1AD202C33
:10A07B000302A1AD12E515EF64424E600D12E5151A
:10A08B00909339EFF07F4212DD727B017A95791C48
:10A09B00908C8EE4F0A304F07F047E207D007C0086
:10A0AB001283F07B017A95791A908C8EE4F0A304DD
:10A0BB00F0FF7E207D007C001283F07B017A957986
:10A0CB001E908C8EE4F0A304F07F077E467D007C0F
:10A0DB00001283F090951EE07002A3E0600890954B
:10A0EB00197404F0803990951CE07002A3E070069F
:10A0FB00909519F0802990951AE0FEA3E0FFEE7081
:10A10B0018EF24FE600B0470109095197401F08009
:10A11B000E9095197402F080069095197403F090C7
:10A12B009519E0FF909307E06F6077E4909518F036
:10A13B00909518E0FFC3940574809480505CA3E065
:10A14B006F601F90952074FFF0A3E4F0A3F0A3F0D1
:10A15B00909518E075F002A42460FFE5F03430FE12
:10A16B00801D909518E075F002A42460FFE5F03493
:10A17B0030FE909520F0A3EFF0A3E4F0A304F0E4FD
:10A18B00FCFD7B017A957922908DE8F0A304F01207
:10A19B008D2B909518E004F08096909519E0909394
:02A1AB0007F0BB
:01A1AD00228F
:1046D30041908D00429093000042909A00004390D5
:1046E30095000000429091000043909C000000421E
:1046F3009098000041908C004190900041908A0175
:0E47030042908E00014190A10042909F000064
:10E6B80043C94053B7CF43B71075985075D88053A6
:0DE6C800877F75BA0275AAB0C2ACD2AF222E
:0CE98D00C2AC8F993099FDC299D2AC2227
:0300230002C3769F
:10C37600C0E0C0F0C083C082C0D075D000C000C08D
:0DC3860001C002C003C004C005C006C0070E
:10C39300C2AF309807C298AF9912BD1930994BC2FA
:10C3A30099D3909092E09400909091E09400403063
:10C3B300909095E0FBA3E0FAA3E0F9123D99F5997B
:10C3C300909096E475F001123EE3909092E024FF82
:10C3D300F0909091E034FFF090908B7401F0800521
:0CC3E30090908BE4F090908DE4F0D2AFCD
:10C3EF00D007D006D005D004D003D002D001D000A2
:0BC3FF00D0D0D082D083D0F0D0E0324C
:10E7DC0075A78075AB8075AE0A75AF80D2BCD2BD03
:05E7EC00C281D2AF2242
:10CCA1009095D0EBF0A3EAF0A3E9F09095D0E0FBEA
:10CCB100A3E0FAA3E04A4B6057C3ED9408EC94005B
:10CCC100404E9095D0A3A3E0F990909CEBF0A3EA9D
:10CCD100F0A3E9F0AF05909098ECF0A3EFF0D281CA
:10CCE10090909CE0FBA3E0FAA3E0F9123D99F5AC2A
:10CCF10090909DE475F001123EE3909099E024FF3D
:10CD0100F0909098E034FFF090908C7401F0C2BDE7
:01CD110022FF
:0300630002CD12B9
:10CD1200C0E0C0F0C083C082C0D075D000C000C0E7
:10CD220001C002C003C2AF53A7FED3909099E09412
:10CD320000909098E09400402A90909CE0FBA3E041
:10CD4200FAA3E0F9123D99F5AC90909DE475F001DB
:10CD5200123EE3909099E024FFF0909098E034FF27
:10CD6200F08009D2BD90908CE4F0C281D2AFD003A2
:10CD7200D002D001D000D0D0D082D083D0F0D0E089
:01CD8200327E
:03006B0002B7F7E2
:10B7F700C0E0C083C082C0D075D000C001C004C003
:05B8070005C006C007AA
:10B80C00C2AFE5AB54016401600302B8AAA9AD90C4
:10B81C00909AE0FCA3E0FDC39406EC9400405A74AB
:10B82C008A2DF582748F3CF583E9F090909BE004AF
:10B83C00F0700690909AE004F0908F8BE06410709A
:10B84C0005FE7F08800A908F8CE02405FFE433FE10
:10B85C00C390909BE09F90909AE09E4013909090A4
:10B86C007401F090908EE4F0A3F090909AF0A3F015
:10B87C00908767E4F0A3F08022AF0190909AE0FCEF
:10B88C00A3E0248AF582748F3CF583E9F090909BB9
:10B89C00E004F0700690909AE004F053ABFED2AF47
:10B8AC00D007D006D005D004D001D0D0D082D08320
:03B8BC00D0E032A7
:10E8B40075968075978075D90A75E78043B701C24C
:02E8C4008022B0
:10E61C00D2808F9EE59630E0FB5396FEE4FDFC0D18
:0FE62C00BD00010CED64644C70F5C28043C90160
:01E63B0022BC
:08E9F800000000000000000017
:10471100612C80A8000000000000000000000000E3
:104721000000000000000000000000000000000088
:104731000000000000000000000000000000000078
:104741000000000000000000000000000000000068
:104751000000000000000000000000000000000058
:104761000000000000000000000000000000000048
:104771000000000000000000000000000000000038
:104781000000000000000000000000000000000028
:104791000000000000000000000000000000000018
:1047A1000000000000000000000000000000000008
:1047B10000000000000000000000000000000000F8
:1047C10000000000000000000000000000000000E8
:1047D10000000000000000000000000000000000D8
:1047E10000000000000000000000000000000000C8
:1047F10000000000000000000000000000000000B8
:1048010000000000000000000000000000000000A7
:104811000000000000000000000000000000000097
:104821000000000000000000000000000000000087
:104831000000000000000000000000000000000077
:10484100C198C100C10E4182130041821100418310
:10485100F9004182100042801400004181D40041DE
:1048610083F80041846900C114C18259825F00004C
:104871000000000000000000000000000000000037
:1048810001010101010101602D83FA000000010114
:10489100010101010101000100000101010101000B
:1048A1000000000000000000000100000000000006
:1048B100000000000000000041821200428012004E
:1048C1000141801600418209014281D5000B4281DC
:1048D100D700164C80060041002300230005003C50
:0A48E1000028C10541807700C104E2
:10BB0800909550EBF0A3EAF0A3E9F0A3ECF0A3EDD5
:01BB1800F03C
:10BB190074FF909557F0A3F0E4909555F0A3F09039
:10BB29009553E0FEA3E0FFC3909556E09F9095558D
:10BB3900E09E507B909550E0FBA3E0FAA3E0F990DA
:10BB49009555E0FEA3E0F5828E83123DB2FF9095F4
:10BB590057E0F0A3E06FF0E4FDEDC394087480941E
:10BB6900805038909558E05401FB909557E0C313E5
:10BB7900FEA3E013FF909557EEF0A3EFF0EE547F8C
:10BB8900909557F0A3EFF0AF03EF600C909557E055
:10BB990064A0F0A3E06401F00D80BE909556E00426
:10BBA900F0600302BB28909555E004F002BB289091
:07BBB9009557E0FEA3E0FF39
:01BBC0002262
:03EA3A0002E7DC14
:0DD9A700F583E0FCA3E0FD7B017A94796735
:10D9B4009095E5ECF0A3EDF09095E5E0FFE475F0CB
:10D9C40001123F0FFC74A825F0F58274803CF583A6
:10D9D400EFF09095E5A3E0FFE475F001123F0FFC32
:0ED9E40074A825F0F58274803CF583EFF022E4
:06C7DD007B017A947967EC
:0BC7E3009095A8EBF0A3EAF0A3E9F0AA
:10C7EE00E4A3F0A3F0EDFF7E00C394017480948067
:10C7FE00403FD3EF9403748094805035EF24FFFFB5
:10C80E00EE34FFFE3395E0FDFCE47B02FAF9F812FC
:10C81E003FC8EF2408FFEE3448FEE43DFDE43CFC47
:10C82E007B017A9579AB908C8EE4F0A304F01283A1
:10C83E00F09095ABE0FEA3E0FF7C007D0A123E4631
:10C84E00AC06AD079095A8E0FBA3E0FAA3E0F902D1
:02C85E00D9B44B
:10DE3300EF4E7003FEFF22EC7029ED1460131460A3
:10DE43001614601914601C240470187A007B028075
:10DE5300167A007B0680107A007B01800A7A007BA9
:0DDE63000380047A007B07AE02EB4480FFD1
:01DE7000228F
:10E33D00EE7021EF14600E1460101460122403703F
:10E34D0013E4FEFF227E007F02227E007F04227EE8
:09E35D00007F06227E007F0822E9
:067FE7007B017A84792D74
:0E7FED00908C62EFF0A3EBF0A3EAF0A3E9F0B2
:107FFB00908C62E02410FFE43440FEE4FCFD7B0136
:10800B007A8C7966908C8EF0A304F01283F0908CAE
:10801B0062E02400FFE43447FEE4FCFD7B017A8C34
:10802B007968908C8EF0A304F01283F0908C62E050
:10803B002420FFE43410FEE4FCFD7B017A8C796A8A
:10804B00908C8EF0A304F01283F0908C62E02410DD
:10805B00FFE43447FEE4FCFD7B017A8C796C908C59
:10806B008EF0A304F01283F0908C66E0FEA3E0FF89
:10807B00A3E0FCA3E0FD12DE33908C63E0FBA3E0F6
:10808B00FAA3E0F9EE8FF0123F7C908C6CE0FEA32C
:10809B00E0FF12E33D908C63E0FBA3E0FAA3E0F971
:1080AB00900002EE8FF0123F9B908C6AE0FFA3E0F2
:1080BB00900004CF8FF0123F9B908C62E0FF7E000C
:1080CB007C007D10124236EF2440FFEE3448FEE474
:1080DB003DFDE43CFC908C6E12417A908C63E0FB8E
:1080EB00A3E0FAA3E0F9900006E4F5F0123F9B90B1
:1080FB008C6EE0FCA3E0FDA3E0FEA3E0FFE9240807
:10810B00F9E43AFA908C8EE4F0A304F01283F09029
:10811B008C6EE0FCA3E0FDA3E0FEA3E02401FFE4F2
:10812B003EFEE43DFDE43CFC908C63E0FBA3E0FAF7
:10813B00A3E0240AF9E43AFA908C8EE4F0A304F05D
:10814B001283F0908C6EE0FCA3E0FDA3E0FEA3E0B5
:10815B002402FFE43EFEE43DFDE43CFC908C63E036
:10816B00FBA3E0FAA3E0240CF9E43AFA908C8EE43A
:10817B00F0A304F01283F0908C6EE0FCA3E0FDA35F
:10818B00E0FEA3E02403FFE43EFEE43DFDE43CFC03
:10819B00908C63E0FBA3E0FAA3E0240EF9E43AFA37
:1081AB00908C8EE4F0A304F01283F07F08EFC3945D
:1081BB001E74809480501E908C63E0FBA3E0FAA3A6
:1081CB00E0F975F002EFA4F58285F083E4F5F01287
:0581DB003F9B0F80D85E
:0181E000227C
:0EC86000908C62EFF0A3EBF0A3EAF0A3E9F0F6
:10C86E00908C62E02427F582E43484F583E0700333
:10C87E007F0122E4908C66F0908C66E0C39408747D
:10C88E00809480504A908C63E0FBA3E0FAA3E0F919
:10C89E00A3E0FF75F002A4F58285F083123F44FDFC
:10C8AE00ACF0908C62E0C454F02417F582E434802E
:10C8BE00F58375F002EF1241B7E0FEA3E06D700252
:10C8CE00EE6C60037F0122908C66E004F080A97FFD
:01C8DE000059
:01C8DF002236
:0ED211009095C4EFF0A3EBF0A3EAF0A3E9F0D0
:10D21F00E4FFEFC3940874809480503A9095C5E072
:10D22F00FBA3E0FAA3E0F975F002EFA4F58285F015
:10D23F0083123F44FDACF09095C4E0C454F0241722
:10D24F00F582E43480F58375F002EF1241B7ECF00C
:10D25F00A3EDF00F80BC9095C4E02427F582E43451
:06D26F0084F5837401F058
:01D275002296
:06ADF3007B017A807978F3
:0BADF900908C33EBF0A3EAF0A3E9F02C
:10AE0400E4FFEFC3940774809480501F908C33E068
:10AE1400FBA3E0FAA3E0F975F002EFA4F58285F054
:10AE240083E475F0FF123F9B0F80D77B017A8C7906
:10AE340036908C8EE4F0A304F07F207E307D007C7D
:10AE4400001283F0908C36E0FEA3E0FF908C33E098
:10AE5400FBA3E0FAA3E0F990000EEE8FF0123F9B03
:10AE64007B017A8C7936908C8EE4F0A304F07F9089
:10AE74007E107D007C001283F0908C36E0FEA3E00F
:10AE8400FF908C33E0FBA3E0FAA3E0F9900010EE0E
:10AE94008FF0123F9B7B017A8C7936908C8EE4F094
:10AEA400A304F07F257E307D007C001283F0908C1B
:10AEB40036E0FEA3E0FF908C33E0FBA3E0FAA3E0CE
:10AEC400F9900012EE8FF0123F9B7F0AEFC39418A3
:10AED40074809480501E908C33E0FBA3E0FAA3E0CE
:10AEE400F975F002EFA4F58285F083E4F5F0123FE2
:04AEF4009B0F80D858
:01AEF8002237
:0BD0E000908C33EBF0A3EAF0A3E9F022
:10D0EB00908077E070037F0122E4908C36F0908C77
:10D0FB0036E0FFC3941874809480503C908C33E0DE
:10D10B00FBA3E0FAA3E0F975F002EFA4F58285F03A
:10D11B0083123F44FDEF25E024D9F582E43481F5F9
:10D12B0083E0FEA3E06D7003EE65F060037F0122E8
:0AD13B00908C36E004F080B67F000F
:01D1450022C7
:0BD90F009095D3EBF0A3EAF0A3E9F041
:10D91A00E4FFEFC3941874809480502E9095D3E05E
:10D92A00FBA3E0FAA3E0F975F002EFA4F58285F013
:10D93A0083123F44FDEF25E024D9F582E43481F5D2
:10D94A0083E5F0F0A3EDF00F80C89080777401F0C2
:01D95A0022AA
:10E6D50012ADF37B017A80797812D0E0EF600DD22C
:0DE6E50016C204908767E4F0A374C8F02209
:10E083009095E7EEF0A3EFF07B017A9579E7908D19
:10E09300E8E4F0A304F07F077E467D007C00128D48
:10E0A3002B9095E7E0FEA3E0FFE4FCFD908C521279
:07E0B300417A7F6702BE7095
:04D6D200AD07AC06EE
:10D6D600ED4C7002FF22ED24FFFFEC34FFC4F8543A
:10D6E600F0C8EFC4540F489095E9F0ED24FFFFEF22
:10D6F600540FFFE0FEC394047480948040037F00BF
:10D706002275F002EEA4F58285F083123F44AEF056
:0FD71600A807088005CEC313CE13D8F95401FF1E
:01D7250022E1
:07E7C600E0FEA3E0FFE4FD0B
:02E7CD00AB0798
:0CE7CF00ED60077C007D0A023E58AF039D
:01E7DB00221B
:06BC6D007B017A8F798A49
:0EBC73009094FEEBF0A3EAF0A3E9F0A3EDF04D
:10BC8100E4909506F0909501E0FF909506E0FEC3E3
:10BC91009F400302BD189094FEE0FBA3E0FAA3E0ED
:10BCA100F975F002EEA42403F582E435F0F5831270
:10BCB1003DB2909507F09094FEE0FBA3E0FAA3E07B
:10BCC100F975F002EEA42404F582E435F0F583124F
:10BCD1003DB2909508F0909507E0FEA3E0FF9095A6
:10BCE10002E0FBA3E0FAA3E0F9909506E0F5827586
:10BCF1008300123DB2FD12E7CD909506E0FE9095CE
:10BD010005E02E2414F582E43482F583EFF090955A
:07BD110006E004F002BC860D
:01BD18002208
:06CDF4007E487D007C007A
:06CDFA009094B212417A90
:10CE00009094BAE0FCA3E0FDA3E0FEA3E0FF12389B
:10CE1000727D4612B8C9AC06AD07EC123839909451
:10CE2000BE12417A9094B2E0FCA3E0FDA3E0FEA321
:10CE3000E0FF7B017A9479BA908DE8E4F0A3740264
:10CE4000F0128D2B9094B6E0FCA3E0FDA3E0FEA3CE
:10CE5000E0FF7B017A9479BE908DE8E4F0A3740240
:04CE6000F0028D2B24
:0BDA3C009095D6EBF0A3EAF0A3E9F010
:10DA47004A603AEDC3944B748094805004AF0580CC
:10DA5700027F4BE4FEEEC39F502374142EF582E43D
:10DA67003482F583E0FD9095D6E0FBA3E0FAA3E0CE
:0DDA7700F98E82758300ED123E240E80D8DA
:01DA8400227F
:10DB5400908C33E4F0A304F09083F9F0E490821005
:10DB6400F09082137403F0909324E4F0A304F0FB88
:10DB74007A8C7933908DE8E4F0A304F07F1B7E2047
:10DB84007D007C00128D2BD203D210908767E4F0C5
:04DB9400A374C8F0BE
:01DB9800226A
:10DF2B009083F8E0FF908469E0C39F400AE49083FC
:10DF3B00F8F0908469F022908469E0FF04F0740A91
:10DF4B002FF582E43482F583E09081D4F0D20EC2B7
:0BDF5B0014908767E4F0A374C8F02264
:10E458009083F8E0C39406748094805010E0FE0422
:10E46800F0740A2EF582E43482F583EFF0200E066C
:07E4780020140312DF2B2228
:0A7DEC00908C68EDF0908C67EFF0CA
:107DF600E4908C6AF09083F8F0908469F0EF605C10
:107E06007B017A8C796B908C8EE4F0A304F07F254D
:107E16007E487D007C001283F07B017A8C796F901E
:107E26008C8EE4F0A304F07F847E107D007C00122B
:107E360083F07B017A8C7971908C8EE4F0A304F048
:107E46007F857E107D007C001283F0908C70E0FEB2
:107E5600A3E04EFFA3E0A3CFF0A3EFF0908C68E081
:107E6600605E7B017A8C796D908C8EE4F0A304F0D1
:107E76007F277E487D007C001283F07B017A8C7917
:107E86006F908C8EE4F0A304F07F867E107D007CDC
:107E9600001283F07B017A8C7971908C8EE4F0A3CA
:107EA60004F07F877E107D007C001283F0908C703A
:107EB600E0FEA3E04EFFA3E0908C75CFF0A3EFF0B9
:107EC600E4908C69F0908C69E0FFC394067480940A
:107ED600804003027FE6EF2460FFE43448FEE4FCC2
:107EE600FD7B017A8C7977908C8EF0A304F0128357
:107EF600F0908C77E07002A3E07003027FDD908C37
:107F06006AE004F0908C69E0FF7E007C007D101230
:107F16004236EF2440FFEE3448FEE43DFDE43CFCEF
:107F2600908C7912417A908C67E06049908C79E068
:107F3600FCA3E0FDA3E0FEA3E0FF7B017A8C796B56
:107F4600908DE8E4F0A304F0128D2B908C79E0FC80
:107F5600A3E0FDA3E0FEA3E02401FFE43EFEE43D32
:107F6600FDE43CFC7B017A8C7973908DE8E4F0A308
:107F760004F0128D2B908C68E06054908C79E0FCB4
:107F8600A3E0FDA3E0FEA3E02402FFE43EFEE43D01
:107F9600FDE43CFC7B017A8C796D908DE8E4F0A3DE
:107FA60004F0128D2B908C79E0FCA3E0FDA3E0FE9B
:107FB600A3E02403FFE43EFEE43DFDE43CFC7B013C
:107FC6007A8C7975908DE8E4F0A304F0128D2B90ED
:107FD6008C69E0FF12E458908C69E004F0027ECBD5
:017FE6002278
:10D82000908C61EDF0908C60EFF0C394067480945E
:10D8300080503DE0FF127FE7908C61E07011908C8A
:10D8400060E0FF7B017A84792D12C860EF6021903F
:10D850008C60E0908211F0908C61E06003D38001D5
:10D86000C39215D217C205908767E4F0A374C8F07D
:01D870002295
:10E81900908014EEF0A3EFF0D200908767E4F0A3A4
:04E8290074C8F0229D
:1029A400E4909467F0A3F0C2183010089082127477
:1029B40007F08079300E08908212740FF0806E3028
:1029C4001708908212740BF08063301608908212FC
:1029D400740AF08058301308908212740DF0804D00
:1029E400300008908212740EF080423011059082FB
:1029F4001280373001089082127404F0802F300660
:102A0400089082127406F0802430070890821274B1
:102A140008F080193008089082127409F0800E9032
:102A24008212300905740CF080037405F0909467E9
:102A3400E475F001123EF9FE74A825F0F582748065
