:0300000002CE5CD1
:0800F800FFFF4457494E543547
:10CE5C00759401759502758E0075930075C8707583
:10CE6C00C96075F800787FE4F6D8FD75812602CE8E
:01CE7C00B8FD
:0A46BC00C1324195090341950A003F
:10F89B0090950AE07020909509E0601A14F0E070E2
:10F8AB0015D21912EE81E49094C3F0A3F090950A4F
:06F8BB0004F0FF12F9C980
:01F8C1002224
:10DBD300A230303201B35019A230923230300A12DF
:10DBE300F95C7F3C12EF4D8008D218D210D22ED2AE
:10DBF3002430302812FCBE9094FFE0FEA3E0FFC364
:10DC03009470EE94175009EF2401FFE43EFE800464
:10DC13007E177F709094FFEEF0A3EFF0C390950012
:10DC2300E094709094FFE094174002C230302F07C5
:10DC3300C22FE4FF12FE0030310CE4FBFA7D037FB8
:07DC43000B12E267C231225F
:10D0D10012E1FE12FF8012FE6E12FE7E12FD32126E
:10D0E100FFDB12FE2612FFCC12C4BC12E59812F32C
:10D0F1001B43C90243C90112F4E2203003122CC7B9
:10D1010012F4E2C3908AB6E0940A908AB5E09400E2
:10D111004013E4F0A3F012010012CA7412EABF1224
:10D12100DBD312CDB8C3908ABEE09410908ABDE0E3
:10D131009427400AE4F0A3F012A5A812E881C39055
:10D141008ABCE094E8908ABBE0940340A7E4F0A392
:10D15100F012FD1B12F89B126D5412F45112F84B90
:05D1610012A1C9808F3E
:10EF8E001F1C1F1E1F1E1F1F1E1F1E1F5A000000AC
:10EF9E003F000100A50000003F000100400666662C
:10EFAE000000000000000000000000000000000053
:10EFBE000000000000000000000000000000000043
:1046C60062C887C200000000000000000000000071
:1046D60000000000000000000000000000000000D4
:1046E60000000000000000000000000000010002C1
:1046F6000003000400050006000700080009000A80
:10470600000B000C000C000D000E000F0010001036
:1047160000110012001200130014001400150016F8
:1047260000160017001800180019001A001A001BBE
:10473600001B001C001D001D001E001E001F002087
:104746000020002100210022002200230023002453
:10475600002500250026002700270028002800291C
:104766000029002A002B002C002C002D002D002EE5
:10477600002E002F002F00300030003100310032B3
:10478600003300330034003400350035003600367F
:1047960000370038003800390039003A003A003B4B
:1047A600003C003C003D003D003E003E003F004016
:1047B60000400041004100420043004300440045E0
:1047C6000045004600460047004800480049004AA8
:1047D600004B004B004C004D004D004E004F00506A
:1047E600005000510052005300540054005500562A
:1047F600005700580059005A005A005B005B005CE5
:10480600005D005E005F006000610062006400659C
:1048160000660067006800690000000000000000F4
:104826000000000000000000000000000000000082
:104836000000000000000000000000000000000072
:104846000000000000000000000000000000000062
:104856000000000000000000000000000000000052
:104866000000000000000000000000000000000042
:104876000000000000000000000000000000000032
:104886000000000000000000000000000000000022
:104896000000000000000000000000000000000012
:1048A6000000000000000000000000000000000002
:1048B60000000000000000000000000000000000F2
:1048C60000000000000000000000000000000000E2
:1048D60000000000000000000000000000000000D2
:1048E60000000000000000000000000000000000C2
:1048F60000000000000000000000000000000000B2
:1049060000000000000000000000000000000000A1
:104916000000000000000000000000000000000091
:104926000000000000000000000000000000000081
:104936000000000000000000000000000000000071
:104946000000000000000000000000000000000061
:104956000000000000000000000000000000000051
:104966000000000000000000000000000000000041
:104976000000000000000000000000000000000031
:10498600000000000000000000000000488A8A00C5
:1049960000000000000000020D0000428AB900007D
:1049A600428AB30000448AA95A01003C428AB500F3
:1049B60000428ABB0000428ABD0000428AC1000054
:1049C600428ABF0000428AA70000428AAD00005416
:1049D6008A920000000000000000000000000000B5
:1049E600000000000000448AAF00000000428AB7C1
:0649F6000000418AA6004A
:10E1FE00C2AFC2D3C2D475F901E4F5A8F5B8F59A49
:10E20E0075A92075B93053C9FDF580F590F5A0F5C7
:10E21E00B075B710F5BCF5BDF5BE75D880759850C4
:10E22E0075BA0375AAE4759680759780F5D975E76A
:10E23E00E075A78075AB80F5AE75AFE0758911F509
:10E24E008CF58AC28CF58DF58BC28E75C870F5CDA6
:09E25E00F5CC75CBBC75CACD22CC
:0AFF800043B70243BC1F43BD022239
:0EA46800908D75EEF0A3EFF0A3ECF0A3EDF0F5
:10A47600E4908D7DF0A3F0787F7C8D7D017BFF7A63
:10A48600EF79AEFE7F201240F4908D77E0C4F85449
:10A49600F0C8A3E0C4540F48908D7BF0E4908D790A
:10A4A600F0908D7BE0FF908D79E0FEC39F5067EEC4
:10A4B60075F010A4FF908D76E02FFF908D75E03536
:10A4C600F0FEE4FCFD7B017A8D797F908F15F0A379
:10A4D6007410F0128297E4908D7AF0908D7AE0FFF6
:10A4E600C39410748094805025EF25E0247FF58274
:10A4F600E4348DF583E0FEA3E0FF908D7EE02FF03F
:10A50600908D7DE03EF0908D7AE004F080CD908DC8
:10A5160079E004F0808B908D78E0540F908D7CF07C
:10A52600908D7BE075F010A4FF908D76E02FFF9064
:10A536008D75E035F0FEE4FCFDC0077B017A8D7970
:10A546007F908D7CE0FF908F15E4F0A3EFF0D007AD
:10A55600128297E4908D7AF0908D7CE0FF908D7A50
:10A56600E0FEC39F5025EE25E0247FF582E4348D7E
:10A57600F583E0FEA3E0FF908D7EE02FF0908D7DC9
:10A58600E03EF0908D7AE004F080CD908D7EE00480
:10A59600F07006908D7DE004F0908D7DE0FEA3E0E6
:01A5A600FFB5
:01A5A7002291
:10E59800E4908D71F0A3F012FD9F7F027E0012FEC1
:10E5A800D27B017A8D7971908F15E4F0A304F07F06
:10E5B800007E3F1282937DFF7C007F017E3F12A484
:10E5C80068908D71E06E7003A3E06F600512FFE93B
:05E5D800800312FFE8C2
:10E5DD00E4908D73F0A3F07B017A8D7973908F9019
:0BE5ED00F0A304F07F1B7E20128F794A
:03E5F80002FF47D8
:10FD9F007AEF799A128F6A12FECE128280908A8A37
:04FDAF00E070F422EA
:10FDB3007AEF79A2128F6A12FECE128280908A8A1B
:04FDC300E070F422D6
:10EABF00E4908D71F0A3F0908AA6E064017020D3EA
:10EACF00908AAEE09410908AADE09427401112FF27
:10EADF00E712FDB3E4908AA6F0908AADF0A3F09010
:10EAEF008AADE0FEA3E0FFE4FCFD7B607AEAF9F873
:0DEAFF00C312449F5007E4908AADF0A3F0CD
:01EB0C0022E6
:10F2AA00E4908E0FF0A3F07B017A8E790F908F1580
:10F2BA00F0A304F07E35128291908E0FE07004A3C1
:10F2CA00E064017008908AA604F0E48005E4908A5C
:08F2DA00A6F0908AADF0A3F04C
:01F2E2002209
:03FFD80002F2AA88
:10FAB600908D82EFF0E4A3F07B017A8D7982908FAE
:10FAC60090F0A304F07F827E007D007C00028F7D93
:01FFE70022F7
:01FFE80022F6
:01FFE90022F5
:10FE6E00438901758CBC758ACDD2A9D2AFD28C22B2
:10FE7E00438901758DBC758BCDD2ABD2AFD28E229C
:10FD320075C870E4F5CDF5CC75CBBC75CACD43A8BA
:06FD420020D2C8D2AF225E
:108280007B017A8A798A908F15E4F0A37404F07EDA
:07829000007F087D007C0067
:10829700908F0E124526908F12EBF0A3EAF0A3E918
:0182A700F0E6
:1082A800E4908F17F0A3F0A3F0A3F0A3F0A3F0A33A
:1082B800F0A3F0908F15E07002A3E0700302846CC5
:1082C800908F0EE0F8A3E0F9A3E0FAA3E0FBC3E483
:1082D8009BFFE49AFE740199FDE498FC908F1F12AD
:1082E8004526908F15E0FEA3E0FFE4FCFD908F1F6C
:1082F800E0F8A3E0F9A3E0FAA3E0FBC31244B55009
:1083080011908F1FA3A3E0FFA3E0908F15CFF0A3D8
:10831800EFF0908F0EE0FCA3E0FDA3E0FEA3E0FFEA
:1083280078011244C6908F17EEF0A3EFF0908F0EED
:10833800A3A3A3E05401FEE4908F19F0A3CEF0E4C8
:10834800F5F1908F17E0FCA3E0FDECF5F28DF375E5
:10835800F40175F8AF30FCFD908F19E07002A3E0CE
:10836800603DD2FE20FEFD908F12E0FBA3E475F085
:108378000112427AA9F0FAE5FC124193908F12E0BB
:10838800FBA3E475F00112427AA9F0FAE5FD124167
:1083980093908F16E024FFF0908F15E034FFF09053
:1083A8008F15E0FCA3E0FDECC313FFED13908F1BCA
:1083B800CFF0A3EFF0ED5401FFA3E4F0A3EFF090AA
:1083C8008F1B74FFF5F012427A45F0605BD2FE20F5
:1083D800FEFD908F12E0FBA3E475F00112427AA92A
:1083E800F0FAE5FA124193908F12E0FBA3E475F0DE
:1083F8000112427AA9F0FAE5FB124193908F12E03C
:10840800FBA3E475F00112427AA9F0FAE5FC1241E7
:1084180093908F12E0FBA3E475F00112427AA9F061
:10842800FAE5FD1241938097908F1DE07002A3E05A
:10843800602FD2FE20FEFD908F12E0FBA3E475F0C2
:108448000112427AA9F0FAE5FA124193908F12E0EC
:10845800FBA3E475F00112427AA9F0FAE5FB124198
:0484680093E4F5F8AC
:01846C0022ED
:108F6A007BFF908F90E4F0A37404F07F087E007D6D
:038F7A00007C0078
:108F7D00908F89124526908F8DEBF0A3EAF0A3E92F
:018F8D00F0F3
:108F8E00E4FBFA908F92F0A3F0A3F0A3F0A3F0A36A
:108F9E00F0908F90E07002A3E0700302911D908F0D
:108FAE0089A3A3E0FEA3E0FFC3E49FFFE49EFED3EC
:108FBE00908F91E09F908F90E09E4005EEF0A3EF92
:108FCE00F0908F89E0FCA3E0FDA3E0FEA3E0FF7824
:108FDE00011244C6AA06AB07908F89A3A3A3E0543F
:108FEE0001FEE4908F92F0A3CEF0E4F5F1EAF5F2F3
:108FFE00AF038FF375F40175F88330FCFD908F92FB
:10900E00E07002A3E0603D908F8DE0FBA3E475F06D
:10901E000112427AA9F0FA12411AF5FC908F8DE0F6
:10902E00FBA3E475F00112427AA9F0FA12411AF587
:10903E00FDD2FE20FEFD908F91E024FFF0908F90E8
:10904E00E034FFF0908F90E0FCA3E0FDECC313FF43
:10905E00ED13908F94CFF0A3EFF0ED5401FFA3E446
:10906E00F0A3EFF075F88F908F9474FFF5F0124225
:10907E007A45F0605B908F8DE0FBA3E475F00112F2
:10908E00427AA9F0FA12411AF5FA908F8DE0FBA3FD
:10909E00E475F00112427AA9F0FA12411AF5FB902A
:1090AE008F8DE0FBA3E475F00112427AA9F0FA125B
:1090BE00411AF5FC908F8DE0FBA3E475F00112428E
:1090CE007AA9F0FA12411AF5FDD2FE30FE9980FB14
:1090DE00908F96E07002A3E0603275F88C908F8DC1
:1090EE00E0FBA3E475F00112427AA9F0FA12411ADC
:1090FE00F5FA908F8DE0FBA3E475F00112427AA988
:0F910E00F0FA12411AF5FBD2FE20FEFDE4F5F84F
:01911D00222F
:03000B0002ACB78D
:10ACB700C0E0C0F0C083C082C0D075D000C000C063
:10ACC70001C002C003C004C005C006C007C2AF75FB
:10ACD7008CBC758ACD908AAEE004F07006908AAD80
:10ACE700E004F0908ABAE004F07006908AB9E004B4
:10ACF700F0908AC2E004F07006908AC1E004F090F8
:10AD07008AB6E004F07006908AB5E004F0908ABC39
:10AD1700E004F07006908ABBE004F0908ABEE0047D
:10AD2700F07006908ABDE004F0908AC0E004F070ED
:10AD370006908ABFE004F03023259094AEE0FEA38E
:10AD4700E0FFE4FCFD7BFF7AFFF9F8D312449F4054
:10AD57000E9094AFE004F070069094AEE004F0908B
:10AD670092A8E07002A3E06025908AA7E0FEA3E026
:10AD7700FFE4FCFD7BFF7AFFF9F8D312449F400EF6
:10AD8700908AA8E004F07006908AA7E004F0C390C8
:10AD970094C4E094209094C3E0944E500CA3E00434
:10ADA700F070069094C3E004F0D2AFD007D006D07D
:10ADB70005D004D003D002D001D000D0D0D082D0AB
:06ADC70083D0F0D0E03261
:03001B0002E7D821
:10E7D800C0E0C0F0C083C082C0D075D000C000C007
:10E7E80004C005C006C007C2AF758DBC758BCD903F
:10E7F80094E0E0FCA3E0FDA3E0FEA3E02401FFE435
:10E808003EFEE43DFDE43CFC9094E0124526D2AF88
:10E81800D007D006D005D004D000D0D0D082D08385
:05E82800D0F0D0E03249
:04FECE007F057E002E
:0BFED2008E0D8F0EE50E450D70FA221C
:03002B0002FDC70C
:10FDC700C0E0C2AFC2C6E50E150E7002150DD2AF68
:03FDD700D0E03247
:10EF4D00908AA9745AF0A37401F0E4A3F0A3EFF032
:10EF5D007B017A8A79A9908F90E4F0A37402F07FF7
:10EF6D0084128F7712FECE7B017A8A79A9908F1544
:10EF7D00E4F0A304F07F84128293908AA9E070E4F8
:01EF8D002261
:10F82300908D82745AF0E4A3F0A3F0A3EFF07B0170
:10F833007A8D7982908F90E4F0A37402F07FDE7E5C
:08F84300007D007C00028F7DB6
:10EE3C007B017A8D7982908F15E4F0A37402F07FB8
:10EE4C00807E00128293908D85E03019054404F089
:10EE5C00800354FBF0908D82745AF07B017A8D798B
:10EE6C0082908F90E4F0A37402F07F807E007D008E
:05EE7C007C00028F7D07
:06FFB40000000000000047
:1049FC004294C1000042949B000044948900000042
:104A0C00004294B300004294BF00004294AE0000F8
:104A1C00489492011E0506070A0B0CC1274294AA62
:104A2C0000174294B10000C125C124C1264294C391
:104A3C0000004194B0004494C50000000042948EE4
:104A4C0000004294B9000041948D004294AC0002E5
:104A5C00429470FFFF419472FF429473FFFF4294A3
:104A6C0075FFFF429477FFFF429479FFFF41947BDF
:0D4A7C00FF41947CFF41947D0041947E0039
:10E53400908E0AEFF0C3940174809480400AD3EF64
:10E544009403748094804006E4FFFEFDFC22ED9069
:10E554008E0A601BE024FFFFE434FFFE3395E0FDE8
:10E56400FCE47B02FAF9F8124374EF24188019E0F2
:10E5740024FFFFE434FFFE3395E0FDFCE47B02FA64
:10E58400F9F8124374EF2408FFEE3448FEE43DFD2D
:04E59400E43CFC2245
:10D87000908E08EBF0A3EAF0A3E9F0EF24FE600736
:10D8800014602724028046908E08E0FBA3E0FAA3F0
:10D89000E0F9E475F01E124328908E0BE0FBA3E044
:10D8A000FAA3E0F9E475F0328044908E08E0FBA31F
:10D8B000E0FAA3E0F9E475F00F124328908E0BE034
:10D8C000FBA3E0FAA3E0F9E475F0288021908E082C
:10D8D000E0FBA3E0FAA3E0F9E475F01E1243289000
:10D8E0008E0BE0FBA3E0FAA3E0F9E475F03C1243F1
:02D8F0002822EC
:0EEDB000908D82A3E0FF908D86E0FCA3E0FD35
:10EDBE00908E0B7401F0A3748EF0A37405F07B019A
:10EDCE007A8E790312D870908E03E0FEA3E0FFD303
:10EDDE009DEE9C5012C3908E06E09D908E05E09C99
:07EDEE00500122AE04AF0545
:01EDF50022FB
:10F38600908D75EEF0A3EFF07B017A8D7975908FF5
:10F3960090E4F0A304F07F107E207D007C00128FA5
:10F3A6007D908D75E07002A3E07008D21912EE818F
:04F3B60012A5A822D2
:05E5FB00908DFEEFF021
:10E600007E00C39401748094804052D3EF940374CD
:10E610008094805048E0FFE4FD12F488908DFFEE76
:10E62000F0FCA3EFF0FD908DFEE0FF12EDBE908DAB
:10E63000FFEEF0A3EFF07D4612C275908E01EEF072
:10E64000A3EFF0908DFEE0A312F4B7908DFEE0FFF3
:0DE65000908E01E0FAA3E0FB7D0112F4BF03
:01E65D00229A
:10CA740020230302CB1BC39094AFE094D09094AED8
:0ECA8400E09407500302CB1D30220302CB1DAD
:10CA9200E4908D73F0A3F0D2227B017A8D797190AC
:10CAA2008F15F0A304F07F107E207D007C0012829F
:10CAB20097908D71E07002A3E07E0060047F008099
:10CAC200027F01908D71EEF0A3EFF0908D71E0FE88
:10CAD200A3E0FF12F38612FFD812F701C223E490FB
:10CAE20094AEF0A3F09094C1E0FEA3E0FFC39430B3
:10CAF200EE9420401CD3EF9432EE94205013E4FCC9
:10CB0200FD7B017A8D7973908F90F0A304F0128FE0
:08CB12007DE49094C1F0A3F052
:03CB1A0022C22212
:01CB1D0022F5
:109ABA007B017A8D7982908F15E4F0A304F07F02FE
:109ACA007E207D007C00128297908D82E0FEA3E0CA
:109ADA00FFC39401EE94004009D3EF9403EE94007F
:109AEA004008908D82E4F0A304F0908D82A3E0FFF9
:109AFA00E4FD12F488908D86EEF0A3EFF0908D824B
:109B0A00A3E0FF7D0112F488908D88EEF0A3EFF0B8
:109B1A0012EDB0908D86EEF0A3EFF0A3E07002A3F1
:109B2A00E07018908D86E0FEA3E0FF4E600D7D4642
:109B3A0012C275908D88EEF0A3EFF0908D86E070DA
:109B4A0002A3E07018908D88E0FEA3E0FF4E600D3E
:109B5A007D4312C275908D86EEF0A3EFF012EDB040
:109B6A00908D86EEF0A3EFF0908D86E0FEA3E0FFE5
:109B7A007D4612C275908D88EEF0A3EFF0908D822B
:109B8A00A3E0FF908D8612F4B8908D82A3E0FF9037
:109B9A008D88E0FAA3E0FB7D0112F4BF7B017A8D88
:109BAA007986908F90E4F0A304F07F257E207D00D3
:109BBA007C00128F7D7B017A8D7988908F90E4F0FA
:109BCA00A304F07F267E207D007C00128F7D7B011E
:109BDA007A8D7984908F15E4F0A304F07F037E20B8
:109BEA007D007C00128297908D84E07002A3E07061
:109BFA00177F0812EF4D7B017A8D7986908F90E45A
:109C0A00F0A304F07F0580157F2B12EF4D7B017ABC
:109C1A008D7988908F90E4F0A304F07F067E207DF2
:069C2A00007C00128F7D9A
:019C30002211
:1092C30090949BE07002A3E070030294667B017AA2
:1092D3008D7978908F15E4F0A304F07F1B7E207DB9
:1092E300007C00128297908D78E07002A3E07013E7
:1092F30090949BE07002A3E07003029466E4FFFE87
:1093030002E0BB7B017A8D797A908F15E4F0A30498
:10931300F07F707E367D007C00128297908D7AE01C
:109323007002A3E070187B017A8D797A908F15F023
:10933300A304F07F127E107D007C00128297D390ED
:109343008D7BE09400908D7AE094004067E4FFFE0B
:10935300FDFC909489E0F8A3E0F9A3E0FAA3E0FB15
:10936300D31244B5404E12911E909489E0F8A3E0C5
:10937300F9A3E0FAA3E0FBC3EF9BFFEE9AFEED999E
:10938300FDEC98FCC004C005C006C007908D7AE0D0
:10939300FEA3E0FF7C007D3C1245E2A804A905AAD8
:1093A30006AB07D007D006D005D004D31244B5507E
:1093B300030294517B017A8D797C908F15E4F0A39D
:1093C3007402F07F067E107D007C001282977B0181
:1093D3007A8D7980908F15E4F0A37402F07F147E68
:1093E300107D007C00128297E4FFFEFDFC909489BF
:1093F300E0F8A3E0F9A3E0FAA3E0FBD31244B540FD
:109403002A12911E909489E0F8A3E0F9A3E0FAA34D
:10941300E0FBC3EF9BFFEE9AFEED99FDEC98FCE4B5
:109423007B3CFAF9F8D31244B55038908D80E0FCB8
:10943300A3E0FDA3E0FEA3E0FF908D7CE0F8A3E0B2
:10944300F9A3E0FAA3E0FB123C4260174015E4FFE6
:10945300FE12E0BB90948912453200000000D21046
:0394630012F72BD2
:0194660022E3
:0BFF5F0090948912453200000000223F
:06F48200908D78A3E0FD6F
:10F48800E4908E03F0A3F012E534EC4D4E4F60117A
:10F498007B017A8E7903908F15E4F0A304F0128231
:09F4A80097908E03E0FEA3E0FF43
:01F4B1002238
:0DF4B200A3E0908D78FFE0FAA3E0FBE4FDFD
:08F4BF00908E08EAF0A3EBF0C7
:10F4C70012E534EC4D4E4F60117B017A8E7908902E
:0AF4D7008F90E4F0A304F0128F7D83
:01F4E1002208
:05EDF600908D82EFF09A
:10EDFB00A3E0FCA3E0FDA3E0FEA3E0FF123CF9902F
:10EE0B008D89EEF0A3EFF07D4612C275908D87EEE3
:10EE1B00F0A3EFF0908D82E0FF908D8912F4B89003
:10EE2B008D82E0FF908D87E0FAA3E0FB7D0102F479
:01EE3B00BF17
:06E720007E487D007C0034
:10E726007B017A8E7906908F15E4F0A37402F012BD
:10E736008297908E06E0FCA3E0FDA3E0FEA3E0FF37
:10E74600123CF97D4612C275AC06AD07EC123CC010
:10E75600908E0A124526908E02E0FCA3E0FDA3E00F
:10E76600FEA3E0FF7B017A8E790A908F90E4F0A3F6
:06E776007402F0028F7D29
:0DE33700908DFFECF0A3EDF0908DFEEFF067
:10E34400C3940674809480504FA3E0FEA3E0FF7D45
:10E354004612C275908E01EEF0A3EFF0908DFEE0B0
:10E364002420FFE43410FEE4FCFD7B017A8D79FF68
:10E37400908F90F0A304F0128F7D908DFEE02470B6
:10E38400FFE43410FEE4FCFD7B017A8E7901908F6A
:08E3940090F0A304F0128F7D4C
:01E39C00225E
:06E6C1007E487D007C0094
:06E6C700908DFE124526B5
:10E6CD00908E06E0FEA3E0FF7D4612C275908E0887
:10E6DD00EEF0A3EFF0908DFEE0FCA3E0FDA3E0FED5
:10E6ED00A3E0FF7B017A8E7906908F90E4F0A3046E
:10E6FD00F0128F7D908E02E0FCA3E0FDA3E0FEA35F
:10E70D00E0FF7B017A8E7908908F90E4F0A304F0FE
:03E71D00028F7DEB
:06D664007E487D007C0001
:06D66A00908D7A124526A6
:10D670007B017A8D7982908F15E4F0A304F07F030B
:10D680007E207D007C00128297908D82E07002A344
:10D69000E0602C908D7EE0FCA3E0FDA3E0FEA3E023
:10D6A000FF7B017A8D7986908F15E4F0A304F01248
:10D6B0008297908D86E0FEA3E0FF7D4302C27590C5
:10D6C0008D7AE0FCA3E0FDA3E0FEA3E0FF7B017AFE
:10D6D0008D7984908F15E4F0A304F0128297908DD9
:06D6E00084E0FEA3E0FF60
:01D6E6002221
:0BB61C00908D82EFF0A3ECF0A3EDF0A6
:10B627007B017A8D7985908F15E4F0A304F07F0371
:10B637007E207D007C00128297908D82E0FF908DA6
:10B6470085A3E0FD12E534908D89124526908D89FA
:10B65700E0FCA3E0FDA3E0FEA3E0FFEC4D4E4F703E
:10B667000302B7117B017A8D7987908F15E4F0A3D8
:10B6770004F0128297908D87E0FEA3E0FF908D84FF
:10B68700E02FFF908D83E03E908D87F0A3EFF0A32E
:10B69700E0FCA3E0FDA3E0FEA3E0FF7B017A8D7948
:10B6A70087908F90E4F0A304F0128F7D908D89A38B
:10B6B700A3E0FEA3E0FF908D85E07002A3E06004A5
:10B6C7007D4680027D43126A9A908D89E0FCA3E053
:10B6D700FDA3E0FEA3E0FF7B017A8D7987908F15AC
:10B6E700E4F0A304F0128297908D85E07002A3E046
:10B6F700908D87600512C26E8005E0FEA3E0FF1201
:0AB70700CF9CD21012FFD812F106F9
:01B711002215
:10B52100EFD394047480948040027F04EF14601C74
:10B5310014602B14603A24037047908E21E4F0A329
:10B541007432F0A3E4F0A37442F08045908E21E4BC
:10B55100F0A37446F0A3E4F0A37456F08033908E08
:10B5610021E4F0A37414F0A3E4F0A37424F0802187
:10B57100908E21E4F0A304F0A3E4F0A37411F08011
:10B5810010908E21E4F0A37428F0A3E4F0A37431A9
:10B59100F07B017A8E7923908F90E4F0A304F07F01
:10B5A100067E807D007C00128F7D7B017A8E792161
:10B5B100908F90E4F0A304F07F077E807D007C00F3
:10B5C100128F7D7B017A8E7923908F90E4F0A30412
:10B5D100F07F087E807D007C00128F7D908E25E4B7
:10B5E100F0A304F0FB7A8E7925908F90E4F0A30408
:10B5F100F07F607E407D007C00128F7DE4908E257F
:10B60100F0A3F07B017A8E7925908F90F0A304F05E
:0BB611007F607E407D007C00028F7D8A
:05BBB200908D82EFF010
:10BBB700908D8474FFF0C3EF9406748094804003E3
:10BBC70002BC96E4908D83F0908D83E0FFC39406CA
:10BBD700748094805037EF2410FFE43440FEE4FC77
:10BBE700FD7B017A8D7985908F15F0A304F0128281
:10BBF70097908D85E07004A3E064017008908D83B1
:10BC0700E0A3F08008908D83E004F080BB908D84E2
:10BC1700E0FFF4607A908D82E0FE6F7072EE240090
:10BC2700FFE43447FEE4FCFD7B017A8D7987908F32
:10BC370015F0A304F0128297D3908D88E0940490B6
:10BC47008D87E094004004E4F0A3F0908D82E075C6
:10BC5700F020A42401FFE5F03411FEE4FCFD7B0194
:10BC67007A8D7987908F90F0A304F0128F7D7B01F6
:10BC77007A8D7987908F90E4F0A304F0FF7E207D82
:0FBC8700007C00128F7D908D87A3E0FF12B52106
:01BC9600228B
:10E4CF0078827C8D7D017BFF7AFF79B47E007F049B
:10E4DF001240F47B017A9479C5908F15E4F0A37400
:10E4EF0002F07F007E0F7D007C001282979094C512
:10E4FF00E0645A702DA3E0FEA3E0FDEDFF90948E33
:10E50F00EEF0A3EFF07B017A8D7982908F90E4F09B
:10E51F00A37402F07F007E0F7D007C00128F7D7F41
:04E52F0001227F0046
:01E5330022C5
:10F9EC007B017A8D79F3908F15E4F0A304F07F14EA
:10F9FC007E007D007C00128297908DF3E0FEA3E0E8
:01FA0C00FFFA
:01FA0D0022D6
:100100007B017A8D7971908F15E4F0A304F07F1054
:100110007E207D007C0012829712E4CFEF3395E0C1
:10012000FE9094B9F0A3EFF04E7003021AB6E4907B
:1001300094C3F0A3F090948EE0FEA3E08EF01245FD
:10014000B5033C10010373100203AC100317141025
:100150001408C8101611A21018122E101917141016
:100160001A177C1020177C1021177C1022177C1086
:1001700023177C1024177C102517A4107017A410C7
:100180007117A4107217A4107317A4107417A41079
:1001900075181810801818108118CD108218CD10FD
:1001A00083186610841866108518C1108618C1104F
:1001B0008711A7110011D4110112011102118F1121
:1001C00003191212000339200004252001042820FD
:1001D0000205592003062020110AE320120A7E207E
:1001E000130EF920150EFF201610C1201710CC2079
:1001F0001810FB201B14BF201D110D201E03BE2054
:100200002010922021177C2025177C202614F12015
:100210003014F1203114F1203216B6203516C420E6
:1002200036180B203718D7203809EE305008CD305B
:1002300060190D3070190D3072190D3073190D30B1
:1002400074190D30751866308109E2308309E83081
:10025000841679309003D83224114B350811943527
:10026000091714366017143670171436801552406B
:1002700006172E4010172E4011172E4012172E4031
:1002800013172E4014172E40150570402118D24523
:100290000018D2450118D2450218D2450318D2459C
:1002A0000418D2450518D24506186645101866454B
:1002B00011186645121866451318664514186645E8
:1002C0001518664516174A4700174A4701174A4747
:1002D00002174A4703174A4704174A47051760475A
:1002E00010176047111760471217604713176047D0
:1002F000141760471518CD482018184821181848B9
:1003000024186648251818482618C14827181E487A
:10031000301873483218664836186648370DD94881
:10032000500E0548510E3648520E6748530E9648F7
:10033000540EC54855000019200203C8908D71E085
:100340007002A3E060030219207B017A8D7973901B
:100350008F15F0A304F07F037E207D007C001282C5
:1003600097908D73E07002A3E070030216747F23F0
:1003700002191D908D71E07002A3E0600302192044
:100380007B017A8D7973908F15F0A304F07F037E43
:10039000207D007C00128297908D73E07002A3E0B4
:1003A00070057F0502191D7F2A02191D908D71E0CD
:1003B0007002A3E060030219207F0402191D9094CB
:1003C000B0E0FF12F9105008D21912EE8102192084
:1003D0009094B0E0FF02191D7B017A8D7973908FA4
:1003E00015E4F0A304F07F247E327D007C001282AD
:1003F00097908D73E0FEA3E0FF64014E6009EF6407
:10040000024E600302192012F3BAE4908D73F0A338
:10041000F07B017A8D7973908F90F0A304F07F24A4
:080420007E3202170A0210B639
:10042800D2107B017A8D7973908F15E4F0A304F0D4
:100438007F027E207D007C00128297908D73E0FE03
:10044800A3E0FFD39403EE94004003021920EF4E7B
:10045800908D7C700EF0A3F07B017A8D797C908F63
:1004680090800EE4F0A304F0FB7A8D797C908F9055
:10047800E4F0A304F07F217E407D007C00128F7D94
:100488007B017A8D7978908F15E4F0A304F07F03CF
:100498007E207D007C00128297908D73E07004A30B
:1004A800E06401702B7F0112F482908D7AEEF0A344
:1004B800EFF04E700EFD7F0112F488908D7AEEF009
:1004C800A3EFF0908D7AE0FEA3E0FF4E6077807294
:1004D800908D73E07004A3E06402702B7F0212F425
:1004E80082908D7AEEF0A3EFF04E700EFD7F02122F
:1004F800F488908D7AEEF0A3EFF0908D7AE0FEA369
:10050800E0FF4E6040803B908D73E07004A3E06490
:10051800037032908D78A3E0FD7F0312F488908DEC
:100528007AEEF0A3EFF04E700EFD7F0312F4889080
:100538008D7AEEF0A3EFF0908D7AE0FEA3E0FF4E07
:0E054800600312CF9C12FFD812F54212F6ADDE
:1005560002108C12FA0ED21912EE8112FFD812F680
:0A056600D712F10612DF700219200F
:100570007B017A8D7973908F15E4F0A304F07F21CD
:100580007E407D007C00128297908D73E0FEA3E098
:10059000FFD39401EE94004003021920909470E080
:1005A000FCA3E0FDEF6D7002EE6C70030219209069
:1005B0009470EEF0A3EFF07B017A8D7978908F152F
:1005C000E4F0A304F07F027E207D007C001282977D
:1005D000908D73E07002A3E07011908D78F0A3F01D
:1005E0007B017A8D7978908F90801A908D78E07069
:1005F00002A3E0701F908D78F0A304F0FB7A8D7950
:1006000078908F90E4F0A304F07F027E207D007C40
:0D06100000128F7D12C33212FFD812F6AD1A
:10061D000216B07F0712EF4D7B017A8D7973908FA3
:10062D0015E4F0A304F07F117E207D007C00128282
:10063D0097908D73E07004A3E0640170657B017A7F
:10064D008D7973908F15F0A304F07F007E477D00A8
:10065D007C001282977B017A8D7973908F90E4F0F4
:10066D00A304F07F007E307D007C00128F7DE4902E
:10067D008D73F0A3F07B017A8D7973908F15F0A3B4
:10068D0004F07F107E477D007C001282977B017AFB
:10069D008D7973908F90E4F0A304F07F057E300286
:1006AD00170A908D73E07004A3E06402705E7B0105
:1006BD007A8D7973908F15F0A304F0FF7E477D003E
:1006CD007C001282977B017A8D7973908F90E4F084
:1006DD00A304F07F007E307D007C00128F7D7B01B6
:1006ED007A8D7973908F15E4F0A304F07F117E4716
:1006FD007D007C001282977B017A8D7973908F90AB
:10070D00E4F0A304F07F057E3002170A908D73E0AC
:10071D007004A3E06403705F7B017A8D7973908F11
:10072D0015F0A304F07F027E477D007C00128297B6
:10073D007B017A8D7973908F90E4F0A304F07F00A4
:10074D007E307D007C00128F7D7B017A8D797390D8
:10075D008F15E4F0A304F07F127E477D007C00121C
:10076D0082977B017A8D7973908F90E4F0A304F0DA
:10077D007F057E3002170A908D73E07004A3E0644C
:10078D0004705F7B017A8D7973908F15F0A304F05F
:10079D007F037E477D007C001282977B017A8D79E5
:1007AD0073908F90E4F0A304F07F007E307D007C89
:1007BD0000128F7D7B017A8D7973908F15E4F0A3F4
:1007CD0004F07F137E477D007C001282977B017AB7
:1007DD008D7973908F90E4F0A304F07F057E300245
:1007ED00170A908D73E07004A3E06405705F7B01C0
:1007FD007A8D7973908F15F0A304F07F047E477D79
:10080D00007C001282977B017A8D7973908F90E432
:10081D00F0A304F07F007E307D007C00128F7D7B85
:10082D00017A8D7973908F15E4F0A304F07F147E17
:10083D00477D007C001282977B017A8D7973908FB2
:10084D0090E4F0A304F07F057E3002170A908D73BB
:10085D00E07004A3E0640660030219207B017A8D29
:10086D007973908F15F0A304F07F057E477D007C92
:10087D00001282977B017A8D7973908F90E4F0A3AB
:10088D0004F07F007E307D007C00128F7D7B017A2D
:10089D008D7973908F15E4F0A304F07F157E477D5D
:1008AD00007C001282977B017A8D7973908F90E492
:1008BD00F0A304F07F057E3002170A7F0D02191D8B
:1008CD00E4908D78F07B017A8D7973908F15F0A37C
:1008DD0004F07F167E107D007C001282977B017ADA
:1008ED008D7979908F15E4F0A304F07F037E207D40
:1008FD00007C00128297908D73E07004A3E0640178
:10090D007069908D78F0908D78E0FFC394067480B7
:10091D0094805041EF2440FFE43431FEE4FCFD7B34
:10092D00017A8D7973908F15F0A304F01282979050
:10093D008D78E02400FFE43445FEE4FCFD7B017A74
:10094D008D7973908F90F0A304F0128F7D908D7838
:10095D00E004F080B1908D79E07004A3E064017043
:10096D00057F2902191D7F0C02191DE4908D78F069
:10097D00908D78E0FFC39406748094805041EF24ED
:10098D0040FFE43431FEE4FCFD7B017A8D797390F8
:10099D008F15F0A304F0128297908D78E02410FF4C
:1009AD00E43445FEE4FCFD7B017A8D7973908F90E4
:1009BD00F0A304F0128F7D908D78E004F080B1905B
:1009CD008D79E07004A3E0640170057F2702191D85
:0209DD007F1188
:1009DF0002191D12846D021920128DB10219207B8C
:1009EF00017A8D7973908F15E4F0A304F07F167E52
:1009FF00107D007C00128297908D73E07004A3E04D
:100A0F006401702E7B017A8D7973908F15F0A3049A
:100A1F00F07F037E207D007C00128297908D73E023
:100A2F007004A3E0640170057F2902191D7F0C0279
:100A3F00191D908D73E07004A3E064026003021926
:100A4F00207B017A8D7973908F15F0A304F07F03CB
:100A5F007E207D007C00128297908D73E07004A33E
:100A6F00E0640170057F2902191D7F1102191D7F96
:100A7F000612EF4D7B017A8D7973908F15E4F0A3F9
:100A8F0004F07F007E477D007C001282977B017A05
:100A9F008D7973908F90E4F0A304F07F207E307DEA
:100AAF00007C00128F7D7B017A8D7973908F15E416
:100ABF00F0A304F07F107E477D007C001282977BAD
:100ACF00017A8D7973908F90E4F0A304F07F257EE7
:040ADF003002170AC0
:100AE3007B017A8D7973908F15E4F0A304F07F1165
:100AF3007E207D007C00128297908D73E0FEA3E040
:100B0300908D78F064014E70637F0212EF4D7B018C
:100B13007A8D7973908F15E4F0A304F07F007E3013
:100B23007D007C001282977B017A8D7973908F9080
:100B3300E4F0A304F07F007E477D007C00128F7DEC
:100B43007B017A8D7973908F15E4F0A304F07F0510
:100B53007E307D007C001282977B017A8D797390C1
:100B63008F90E4F0A304F07F10020D95908D73E055
:100B73007004A3E0640270627F0212EF4D7B017A7E
:100B83008D7973908F15E4F0A304F07F007E307DA0
:100B9300007C001282977B017A8D7973908F90E4A9
:100BA300F0A304F0FF7E477D007C00128F7D7B0164
:100BB3007A8D7973908F15E4F0A304F07F057E306E
:100BC3007D007C001282977B017A8D7973908F90E0
:100BD300E4F0A304F07F11020D95908D73E070048F
:100BE300A3E0640370637F0212EF4D7B017A8D797A
:100BF30073908F15E4F0A304F07F007E307D007CBA
:100C0300001282977B017A8D7973908F90E4F0A321
:100C130004F07F027E477D007C00128F7D7B017A8A
:100C23008D7973908F15E4F0A304F07F057E307DFA
:100C3300007C001282977B017A8D7973908F90E408
:100C4300F0A304F07F12020D95908D73E07004A35E
:100C5300E0640470637F0312EF4D7B017A8D797337
:100C6300908F15E4F0A304F07F007E307D007C00BC
:100C73001282977B017A8D7973908F90E4F0A304AD
:100C8300F07F037E477D007C00128F7D7B017A8D90
:100C93007973908F15E4F0A304F07F057E307D0017
:100CA3007C001282977B017A8D7973908F90E4F0A8
:100CB300A304F07F13020D95908D73E07004A3E0FD
:100CC300640570627F0312EF4D7B017A8D79739017
:100CD3008F15E4F0A304F07F007E307D007C0012CA
:100CE30082977B017A8D7973908F90E4F0A304F05F
:100CF3007F047E477D007C00128F7D7B017A8D7996
:100D030073908F15E4F0A304F07F057E307D007CA3
:100D1300001282977B017A8D7973908F90E4F0A310
:100D230004F07F14806C908D73E07004A3E064067C
:100D330070697F0312EF4D7B017A8D7973908F1564
:100D4300E4F0A304F07F007E307D007C00128297E4
:100D53007B017A8D7973908F90E4F0A304F07F0583
:100D63007E477D007C00128F7D7B017A8D797390A5
:100D73008F15E4F0A304F07F057E307D007C001224
:100D830082977B017A8D7973908F90E4F0A304F0BE
:100D93007F157E477D007C00128F7D127E49908DEA
:100DA30078E0FF7E00C3940174809480500302199D
:100DB30020D3EF9406748094804003021920E0C38B
:100DC3009401FFE4FD12CBC5908D78E0C39401FF3D
:030DD30012BBB29E
:100DD6000219207B017A8D7973908F15E4F0A304B4
:100DE600F07F027E207D007C00128297908D73E05A
:100DF6007004A3E0640160030219207D01802B7B4F
:100E0600017A8D7973908F15E4F0A304F07F027E4A
:100E1600207D007C00128297908D73E07004A3E021
:100E26006401600302192074FFFDFC7F01020EF3CA
:100E36007B017A8D7973908F15E4F0A304F07F021D
:100E46007E207D007C00128297908D73E07004A353
:100E5600E06402600302192074FFFDFC7F02020EAB
:100E6600F37B017A8D7973908F15E4F0A304F07FFC
:100E7600027E207D007C00128297908D73E07004C4
:100E8600A3E0640260030219207D01FC7F02805DFD
:100E96007B017A8D7973908F15E4F0A304F07F02BD
:100EA6007E207D007C00128297908D73E07004A3F3
:100EB600E0640360030219207D01FC7F03802E7B22
:100EC600017A8D7973908F15E4F0A304F07F027E8A
:100ED600207D007C00128297908D73E07004A3E061
:100EE6006403600302192074FFFDFC7F0312B61C25
:090EF600021920129ABA02192017
:100EFF007B017A8D797C908F15E4F0A304F07F034A
:100F0F007E207D007C00128297908D7CE07002A382
:100F1F00E07B016003020FDA7A8D7978908F15F0FC
:100F2F00A304F07F257E207D007C001282977B0139
:100F3F007A8D7978908F90E4F0A304F07F057E206E
:100F4F007D007C00128F7D908D78E0FEA3E0FF7D09
:100F5F004612C275908D7AEEF0A3EFF07B017A8D79
:100F6F00797A908F90E4F0A304F07F067E207D00C5
:100F7F007C00128F7D7B017A8D797E908F15E4F046
:100F8F00A304F07F027E207D007C00128297908D5B
:100F9F007E12F4B2908D7EA3E0FF908D7AE0FAA3DB
:100FAF00E0FB7D0112F4BF908D7EA3E0FFC00790A0
:100FBF008D78E0FCA3E0FDE4123CC0908D831245D8
:0B0FCF0026D00712EDF67F010210840F
:100FDA007A8D797C908F15E4F0A304F07F267E2029
:100FEA007D007C001282977B017A8D797C908F90AC
:100FFA00E4F0A304F07F067E207D007C00128F7D42
:10100A00908D7C12C26E908D78EEF0A3EFF07B018A
:10101A007A8D7978908F90E4F0A304F07F057E2092
:10102A007D007C00128F7D7B017A8D7980908F15EF
:10103A00E4F0A304F07F027E207D007C00128297F8
:10104A00908D8012F4B2908D80A3E0FF908D7CE0A9
:10105A00FAA3E0FB7D0112F4BF908D80A3E0FFC0EC
:10106A0007908D78E0FCA3E0FDE4123CC0908D83EC
:0D107A00124526D00712EDF67F1E12EF4D35
:08108700D21012FFD812F1068D
:10108F000219207B017A8D7973908F15E4F0A304F8
:10109F00F07F217E207D007C00128297908D73E07F
:1010AF00FEA3E0FF12FAD6D21012FFD812F5CE022D
:1010BF0019207F0F12EF4D12ADCD0219207B017A4F
:1010CF008D7973908F15E4F0A304F07F187E207D47
:1010DF00007C00128297908D73E0FEA3E0FF909446
:1010EF00AAEEF0A3EFF012F82302190812911E9046
:1010FF00948912452612F9A612F72B0219207B01AB
:10110F007A8D7973908F15E4F0A304F07F1E7E2003
:10111F007D007C001282977B017A8D7973908F907E
:10112F00E4F0A304F07F1E7E207D007C00128F7DF3
:0C113F00908D73A3E0FF12FAB6021908AD
:10114B00E4908D78F0A3F07B017A8D7978908F15F0
:10115B00F0A304F07F087E357D007C001282977B24
:10116B00017A8D7978908F90E4F0A304F07F087E5C
:10117B00357D007C00128F7D12D43E12FFD812F702
:01118B00550E
:10118C000219207F3D02191D12D43E12FFD812F70E
:10119C00557F3402191D7F0E02191D7B017A8D7942
:1011AC0073908F15E4F0A304F07F037E207D007C08
:1011BC0000128297908D73E07002A3E070057F0B94
:1011CC0002191D7F2802191D7B017A8D7973908F6E
:1011DC0015E4F0A304F07F037E207D007C001282D6
:1011EC0097908D73E07002A3E070057F0B02191DC0
:1011FC007F2802191D7B017A8D7973908F15E4F08D
:10120C00A304F07F037E207D007C00128297908DDA
:10121C0073E07002A3E070057F1002191D7F260297
:10122C00191D7B017A8D7973908F15E4F0A304F06E
:10123C007F187E107D007C00128297908D73E07079
:10124C0004A3E0640160030212E57B017A8D7973DB
:10125C00908F15F0A304F07F197E107D007C001296
:10126C008297908D73E07004A3E0640170667B013B
:10127C007A8D7973908F15F0A304F07F507E307DBA
:10128C00007C001282977B017A8D7973908F90E4A9
:10129C00F0A304F07F807E107D007C00128F7D7B9C
:1012AC00017A8D7973908F15E4F0A304F07F517E51
:1012BC00307D007C001282977B017A8D7973908F40
:1012CC0090E4F0A304F07F817E107D007C00128FEF
:1012DC007D128DB17F0C02191D908D73E07004A3EB
:1012EC00E0640260030213837B017A8D7973908F23
:1012FC0015F0A304F07F197E107D007C00128297FC
:10130C00908D73E07004A3E0640170667B017A8DAC
:10131C007973908F15F0A304F07F507E307D007CA4
:10132C00001282977B017A8D7973908F90E4F0A3F1
:10133C0004F07F827E107D007C00128F7D7B017A11
:10134C008D7973908F15E4F0A304F07F517E307D7E
:10135C00007C001282977B017A8D7973908F90E4D8
:10136C00F0A304F07F837E107D007C00128F7D1231
:10137C00B8F37F0B02191D908D73E07004A3E06429
:10138C000360030214217B017A8D7973908F15F021
:10139C00A304F07F197E107D007C00128297908D43
:1013AC0073E07004A3E0640170667B017A8D79733D
:1013BC00908F15F0A304F07F507E307D007C0012DE
:1013CC0082977B017A8D7973908F90E4F0A304F06F
:1013DC007F847E107D007C00128F7D7B017A8D795D
:1013EC0073908F15E4F0A304F07F517E307D007C68
:1013FC00001282977B017A8D7973908F90E4F0A321
:10140C0004F07F857E107D007C00128F7D12846D30
:10141C007F1202191D908D73E07004A3E0640460C8
:10142C00030219207B017A8D7973908F15F0A30438
:10143C00F07F197E107D007C00128297908D73E0F6
:10144C007004A3E0640170667B017A8D7973908FD0
:10145C0015F0A304F07F507E307D007C0012829743
:10146C007B017A8D7973908F90E4F0A304F07F86E2
:10147C007E107D007C00128F7D7B017A8D797390BC
:10148C008F15E4F0A304F07F517E307D007C0012B8
:10149C0082977B017A8D7973908F90E4F0A304F09E
:1014AC007F877E107D007C00128F7D12B8067F1026
:1014BC0002191D7B017A8D7973908F15E4F0A304CA
:1014CC00F07F037E207D007C00128297908D73E06C
:1014DC007002A3E060047F2080027F3212EF4D1275
:1014EC00F31B02192090948EE0FEA3E0FFE4FCFDB8
:1014FC007B017A8D7973908F15F0A304F01282978B
:10150C00908D73E07002A3E0602130230302192058
:10151C00D223E49094AEF0A3F090948EE0FFA3E07D
:10152C009094C1CFF0A3EFF0021920C39094AFE0D8
:10153C0094D09094AEE094074003021920C223E4A7
:06154C00F0A3F0021920DB
:101552007B017A8D7978908F15E4F0A304F07F20D7
:101562007E307D007C00128297E4908D77F0908D22
:1015720077E0FFC39406748094805048E42FFFE420
:101582003447FEE4FCFD7B017A8D7978908F90F0F0
:10159200A304F0128F7D908D73E4F0A304F0908D7C
:1015A20077E02410FFE43440FEE4FCFD7B017A8DF9
:1015B2007973908F90F0A304F0128F7D908D77E075
:1015C20004F080AA7B017A8D797A908F15E4F0A3DA
:1015D20004F07F257E307D007C00128297E4908D9E
:1015E20077F0908D77E0FFC3940674809480502347
:1015F200EF2410FFE43447FEE4FCFD7B017A8D7991
:101602007A908F90F0A304F0128F7D908D77E00492
:10161200F080CF7B017A8D7973908F15E4F0A3046B
:10162200F07F907E107D007C00128297E4908D778F
:10163200F0908D77E0FFC39406748094805023EF7E
:101642002420FFE43410FEE4FCFD7B017A8D7973E3
:10165200908F90F0A304F0128F7D908D77E004F0CC
:1016620080CF127E497D01E4FF12CBC512FBEA1244
:04167200FFD87F021C
:1016760002191D7B017A8D7973908F15E4F0A3040E
:10168600F07F907E307D007C001282977B017A8D00
:101696007973908F90E4F0A304F07F027E207D00A2
:1016A6007C00128F7DD21012FFD812F5420219204B
:1016B60012FFC07F2D12EF4D12B41F0219207B01BD
:1016C6007A8D7973908F15E4F0A304F07F367E202F
:1016D6007D007C00128297908D73E07004A3E06415
:1016E60001600302192012EF0912B41FE4908D73F2
:1016F600F0A3F07B017A8D7973908F90F0A304F0BC
:101706007F367E207D007C00128F7D02192090940A
:101716008EE0FEA3E0FF12FD5E12FFD812F18012EA
:10172600F1BD12DEFE02192090948EE0FEA3E0FFCA
:10173600C39410EE94404064EF24F0FFE4FD12CB16
:10174600C502180290948EE0FEA3E0FFC3EE944714
:101756004005E4FD12CBC502180290948EE0FEA36C
:10176600E0FFC39410EE94474009EF24F0FFE4FD38
:1017760012CBC502180290948EE0FEA3E0FF7D43D3
:10178600126A9A90948EE0FEA3E0FFC39420EE9432
:0E179600104009EF24E0FFE4FD12CBC5805E99
:1017A400126A9090948EE0FCA3E0FD2490908D78D2
:1017B400F0AF05AE04E4FCFD7B017A8D7979908F5E
:1017C40015F0A304F0128297908D7912C26E908D59
:1017D4007BEEF0A3EFF0908D78E02420FFE434104A
:1017E400FEE4FCFD7B017A8D797B908F90F0A3045D
:1017F400F0128F7D908D78E0FFE4FD12CBC512FFCF
:04180400D8127E492F
:1018080002192012FEEC7F1612EF4DD22502192084
:06181800128DB102190857
:10181E0090948EE0FEA3E0FFE4FCFD7B017A8D79CF
:10182E0078908F15F0A304F0128297908D7812C2E3
:10183E006E908D7AEEF0A3EFF07B017A8D797A902F
:10184E008F90E4F0A304F07F247E487D007C00128C
:05185E008F7D128DB129
:10186300021908E4FD7F0112700E12846D0219083B
:1018730090948EE0FEA3E0FFE4FCFD7B017A8D797A
:1018830078908F15F0A304F0128297908D7812C28E
:101893006E908D7AEEF0A3EFF07B017A8D797A90DA
:1018A3008F90E4F0A304F07F387E487D007C001223
:0C18B3008F7DE4FD7F0112700E12846D29
:1018BF0080477D01E4FF12700E12B806803B12B80C
:1018CF00F38036128DB180317B017A8D7973908FD1
:1018DF0015E4F0A304F07F387E207D007C00128297
:1018EF0097908D73E07002A3E06004D2268002C24D
:1018FF0026A226B3921912EE3C12FFD8801312B70C
:10190F0012800E12D43E12FFD812F7557F3412EF09
:10191F004D90948EE0FEA3E0FFC3EE944850030277
:0E192F001AB6D3EF945FEE94484003021AB646
:10193D00EF7003EE64487003021AB6EF6402700391
:10194D00EE64487003021AB6EF64047003EE644847
:10195D007003021AB6EF64067003EE64487003025A
:10196D001AB6EF64107003EE64487003021AB6EFF6
:10197D0064127003EE64487003021AB6EF641470BB
:10198D0003EE64487003021AB6EF64167003EE643A
:10199D00487003021AB6EF64087003EE64486010D5
:1019AD00EF640A7003EE64486006BE480EBF0C0B70
:1019BD007D43126A9A12FFD802F10690948EE0FED2
:1019CD00A3E0FF64187003EE64486010EF641A70B2
:1019DD0003EE64486006BE4809BF1C06126A9002F9
:1019ED001AB390948EE0FEA3E0FFE4FCFD7B017A38
:1019FD008D7975908F15F0A304F012829790948EC7
:101A0D00A3E0908D78F0E0FF25E0249BF582E4348F
:101A1D0082F583E0FCA3E0FDEF25E0245BF582E495
:101A2D003483F583E0FEA3E0FFD39DEC6480F8EEF4
:101A3D006480984056908D75E0FCA3E0FDD39FEE39
:101A4D006480F8EC6480984019908D78E025E0244E
:101A5D005BF582E43483F583E0FFA3E0908D75CFD1
:101A6D008025908D78E025E0249BF582E43482F585
:101A7D0083E0FEA3E0FFC3ED9FEE6480F8EC64808D
:101A8D00985008908D75EEF0A3EFF090948EE0FED7
:101A9D00A3E0FFE4FCFD7B017A8D7975908F90F0CA
:091AAD00A304F0128F7D12FFD892
:011AB600220D
:10F91000C21AE4FEEEC39408748094805015749269
:10F920002EF582E43494F583E0B50704D21A8003FF
:05F930000E80E1A21AA7
:01F9350022AF
:10B31900E4908E1DF0A3F0A3F0A374FFF0E4908EE7
:10B329001FF0908E1FE0FFC39406748094805037FD
:10B33900EF2410FFE43440FEE4FCFD7B017A8E79B2
:10B349001D908F15F0A304F0128297908E1DE07066
:10B3590004A3E064017008908E1FE0A3F0800890B8
:10B369008E1FE004F080BBE4908E1DF0A3F0908E58
:10B3790020E0FFC39406748094805060EF75F0203C
:10B38900A42401FFE5F03411FEE4FCFD7B017A8E73
:10B39900791D908F15F0A304F0128297D3908E1E19
:10B3A900E09404908E1DE094004031908E20E024BA
:10B3B90000FFE43447FEE4FCFD7B017A8E791D90A1
:10B3C9008F15F0A304F0128297D3908E1EE0940497
:10B3D900908E1DE094004004E4F0A3F07B017A8E86
:10B3E900791D908F90E4F0A304F0FF7E207D007C0E
:10B3F90000128F7D909472E0FF908E1DE0FCA3E017
:10B40900FD6F7001EC600EAF0512B521908E1DA382
:05B41900E0909472F0C8
:01B41E00220B
:10EE8100E4908DF1F0A3F020190A12F9EC12F910B7
:10EE91005031802C7B017A8D79F1908F15E4F0A3AC
:10EEA10004F07F037E207D007C00128297908DF11B
:10EEB100E07002A3E070047F0180027F1E12EF4D1B
:03EEC10012B31970
:01EEC400222B
:0A6A900090948EE0FEA3E0FF7D4627
:0D6A9A00908D8FEDF0908D8DEEF0A3EFF05C
:106AA700E4FCFD7B017A8D7990908F15F0A304F0BB
:106AB700128297908D8DE0FEA3E0FFC39420EE94A1
:106AC70010400BD3EF9425EE941050028022C3EFB1
:106AD7009470EE9410400BD3EF9475EE941050021F
:106AE7008027908D8DE0FEA3E0FFBE2016BF251303
:106AF700908D92E4F0A37410F0A3E4F0A37420F057
:106B0700026BECBE201BBF26187D467F107E00124D
:106B1700C275908D92EEF0A3EFF07D467F20026B59
:106B2700DF908D8DE0FEA3E0FFBE4816BF081390EF
:106B37008D92E4F0A3741EF0A3E4F0A3743CF0027A
:106B47006BECBE4816BF0A13908D92E4F0A3741E37
:106B5700F0A3E4F0A37432F0026BECBE4815BF0C4F
:106B670012908D92E4F0A3740FF0A3E4F0A37428BD
:106B7700F08072BE481ABF18177D467F1E7E00122E
:106B8700C275908D92EEF0A3EFF07D467F3C804872
:106B9700908D8DE0B4481CA3E0B41A177D467F1E84
:106BA7007E0012C275908D92EEF0A3EFF07D467FC6
:106BB700328025908D8DE064487004A3E0641C60EA
:106BC70003026D537D467F0FFE12C275908D92EEC4
:106BD700F0A3EFF07D467F287E0012C275908D945A
:106BE700EEF0A3EFF0908D92E0FEA3E0FF908D9082
:106BF700E0FCA3E0FDC39FEC9E5002800F908D94B4
:106C0700E0FEA3E0FFD3ED9FEC9E4008908D90EE51
:106C1700F0A3EFF0908D8DE0FEA3E0FFE4FCFD7B99
:106C2700017A8D7990908F90F0A304F0128F7D9068
:106C37008D8DE0FEA3E0FFC39420EE9410400ED3A9
:106C4700EF9425EE94105005EF24E0802B908D8D66
:106C5700E0FEA3E0FFC39470EE94104027D3EF94B7
:106C670075EE9410501E12C26B908D90EEF0A3EF4C
:106C7700F0908D8DA3E02490FF908D90E0FCA3E031
:106C8700FD02E337908D8DE0B4200FA3E0B4250A11
:106C9700908D90E0FEA3E0FF800F908D8DE0B420F3
:106CA7000BA3E0B4260612C26B02CF9C908D8DE039
:106CB700FEA3E0FF64087003EE64486014EF640A03
:106CC7007003EE6448600AEF640C7003EE6448706A
:016CD7003785
:106CD800908D8EE024F8FF908D8DE034B7C313EFCC
:106CE8001304FF908D96F0908D9012F4B8908D90CB
:106CF800E0FEA3E0FF7D4612C275AB07AA06908DA1
:056D080096E0FF7D0193
:106D0D008041908D8DE0FEA3E0FF64187003EE646A
:106D1D00486014EF641A7003EE6448600AEF641C57
:106D2D007003EE6448701F12C26BAB07AA06908DFC
:106D3D008EE024E8FF908D8DE034B7C313EF13047C
:066D4D00FFE4FD12F4BF9B
:016D5300221D
:10F31B007D437F087E48126A9A7D437F0A7E48129E
:10F32B006A9A7D437F0C7E48126A9A7D467F187ECF
:10F33B0048126A9A7D467F1A7E48126A9A7D467FEA
:06F34B001C7E48026A9AD4
:10FAD600908D82EEF0A3EFF07B017A8D7982908F84
:10FAE60090E4F0A304F0FF7E207D007C00028F7D71
:10ADCD007B017A8D7984908F15E4F0A304F07F10C8
:10ADDD007E307D007C001282977B017A8D79849084
:10ADED008F90E4F0A304F07F707E307D007C001224
:10ADFD008F7D7B017A8D7986908F15E4F0A304F019
:10AE0D007F117E307D007C00128297908D84E0FE54
:10AE1D00A3E0FFA3E0FCA3E0FD12FF07908D88EEF9
:10AE2D00F0A3EFF07B017A8D7988908F90E4F0A3F9
:10AE3D0004F07F727E307D007C00128F7D7B017A65
:10AE4D008D7982908F15E4F0A304F07F127E307D12
:10AE5D00007C001282977B017A8D7982908F90E42D
:10AE6D00F0A304F07F737E307D007C00128F7D7B1C
:10AE7D00017A8D7982908F15E4F0A304F07F137E13
:10AE8D00307D007C001282977B017A8D7982908FC4
:10AE9D0090E4F0A304F07F747E307D007C00128F6F
:10AEAD007D7B017A8D7982908F15E4F0A304F07F7C
:10AEBD00147E307D007C001282977B017A8D798221
:10AECD00908F90E4F0A304F07F757E307D007C00C0
:03AEDD00028F7D64
:10B712007B017A8D7988908F15E4F0A304F07F7015
:10B722007E307D007C001282977B017A8D798A902F
:10B732008F15E4F0A304F07F727E307D007C00124E
:10B7420082977B017A8D798C908F15E4F0A304F0B7
:10B752007F737E307D007C001282977B017A8D7927
:10B762008E908F15E4F0A304F07F747E307D007C10
:10B77200001282977B017A8D7990908F15E4F0A365
:10B7820004F07F757E307D007C00128297908D8858
:10B79200E0FEA3E0FFC394D0EE9407400CEF243008
:10B7A200FFEE34F8908D92800B908D88E0FFA3E03D
:10B7B200908D92CFF0A3EFF0908D93E0FE908D8B61
:10B7C200E0FDEDFF908D82EEF0A3EFF0908D8DE025
:10B7D200FE908D8FE0FDEDFF908D84EEF0A3EFF0F3
:10B7E200908D91E0908D86F0A3E4F07B017A8D79C3
:10B7F20082908F90F0A37403F07F9D7E007D007C89
:04B8020000028F7D34
:08CF9C00908E02EEF0A3EFF00D
:10CFA400908E02E0FEA3E0FF7D4612C275908E04CF
:10CFB400EEF0A3EFF07B017A8E7902908F90E4F08B
:10CFC400A304F07F057E207D007C00128F7D7B0111
:10CFD4007A8E7904908F90E4F0A304F07F067E208B
:10CFE4007D007C00128F7D7B017A8E7906908F15EF
:10CFF400E4F0A304F07F027E207D007C001282977F
:10D00400908E06E0FEA3E0FFC39401EE940040225C
:10D01400D3EF9403EE94005019908E0212F4B8905A
:10D024008E06A3E0FF908E04E0FAA3E0FB7D0112DC
:02D03400F4BF47
:01D0360022D7
:10DFE1007B017A8D79FE908F15E4F0A304F07F0216
:10DFF1007E207D007C001282977B017A8E790090D1
:10E001008F15E4F0A304F07F037E207D007C0012D5
:10E011008297908DFEE0FEA3E0FFC39401EE940091
:10E02100402AD3EF9403EE94005021A3A3E0FD1204
:10E03100F488908E00E07002A3E06009EF4E600565
:0CE041007D4312C275EF4E600312CF9CAD
:01E04D0022B0
:1064AE007B017A8D79F3908F15E4F0A304F07F03CE
:1064BE007E207D007C001282977B017A8D79F5908B
:1064CE008F15E4F0A304F07F057E207D007C001282
:1064DE0082977B017A8D79F7908F15E4F0A304F003
:1064EE007F067E207D007C00128297908DF3E070F7
:1064FE0002A3E0601A908DF5E0FEA3E0FF4E60026D
:10650E00802D908DF7E0FEA3E0FF4E602F800B9064
:10651E008DF7E0FEA3E0FF4E600A7D4312C2759038
:10652E008DF58013908DF5E0FEA3E0FF4E600D7D9E
:10653E004612C275908DF7EEF0A3EFF0908DF5E058
:10654E00FEA3E0FF4E60028020908DF7E0FEA3E0F8
:10655E00FF4E60187D4312C275908DF5EEF0A3EFDD
:10656E00F0908DF5E0FEA3E0FF12CF9C7B017A8DBB
:10657E0079F5908F90E4F0A304F07F257E207D00C6
:10658E007C00128F7D7B017A8D79F7908F90E4F0ED
:10659E00A304F07F267E207D007C00128F7D12DF0B
:1065AE00E1908E02124532000048107F0012E72063
:1065BE00908E02124532000048127F0212E72090A0
:1065CE008E02124532000048147F0412E720908E8E
:1065DE0002124532000048167F0612E720908DF910
:1065EE007401F0908DF9E0FFD39403748094805081
:1065FE004812E5FB908DF9E0FFE4FD12F488908DD2
:10660E00F5EEF0A3EFF0908DF5E0FEA3E0FF4E6007
:10661E001D7D4612C275908DF7EEF0A3EFF0A3E04C
:10662E00FF908DF7E0FAA3E0FB7D0112F4BF43C9A2
:10663E0001908DF9E004F080AA908E02124532008E
:10664E000010087F067E1012E722908E021245324D
:10665E000000101A7F147E1012E722E4908DF9F0DC
:10666E00908DF9E0FFC39406748094804003026716
:01667E0034E7
:10667F00EF2420FFE43410FEE4FCFD7B017A8D79DA
:10668F00F5908F15F0A304F0128297908DF9E0FF2B
:10669F00908DF5E0FCA3E0FD12E337908DF9E02536
:1066AF00E0FFE433FEEF2430FFEE3410FEE4FCFD98
:1066BF007B017A8D79FA908F15F0A37402F0128214
:1066CF0097E4FFFEFDFC908DFAE0F8A3E0F9A3E05C
:1066DF00FAA3E0FB123C426040403E908DF9E0256A
:1066EF00E0FFE433FEEF2430FFEE3410FEE4FCFD58
:1066FF00C004C005C006C007E025E0FFE433FEEF8D
:10670F002440FFEE3410FEE4908E02124526D0078F
:0C671F00D006D005D00412E72643C901C3
:10672B00908DF9E004F002666E7B017A8D79F5901D
:10673B008F15E4F0A304F07F247E487D007C0012CB
:10674B008297908DF5E0FAA3E0FB4A6017908E02DA
:10675B0012453200004830908E06EAF0A3EBF07F32
:10676B002412E6C17B017A8D79F5908F15E4F0A3A5
:10677B0004F07F387E487D007C00128297908DF567
:10678B00E0FAA3E0FB4A6017908E0212453200003C
:10679B004832908E06EAF0A3EBF07F3812E6C10286
:0267AB009C311F
:0AC26B00908D90E0FEA3E0FF7D43FC
:05C27500908E1DEDF0AC
:10C27A006443703AC3EF94EAEE6480947F50067E7A
:10C28A00FF7FEA800FD3EF940AEE64809481400422
:10C29A007E017F0AEF24E0FFEE34FFFE7C007D3250
:10C2AA001241C77D0912422E908E1EEE803E908E5C
:10C2BA001DE06446703AC3EF94E2EE6480947F50C6
:10C2CA00067EFF7FE2800FD3EF9482EE6480948033
:10C2DA0040047E007F827C007D5A1241C77D051290
:10C2EA00422EEF2440FFEE3401908E1EF0A3EFF0B1
:10C2FA00908E1EE0FEA3E0FFD39400EE648094804B
:10C30A004008EF2405FFE43E800D908E1FE024FBD9
:10C31A00FF908E1EE034FFFE7C007D0A12422E90B2
:07C32A008E1EEEF0A3EFF000
:01C3310022E9
:10FA0E00E4908DF1F0A3F07B017A8D79F1908F1552
:10FA1E00F0A304F07F037E207D007C00128297020B
:02FA2E0064AEC4
:107C1E0078787C8D7D017BFF7AFF79B87E007F02BC
:107C2E001240F47B017A8D7978908F15E4F0A304DD
:107C3E00F07F217E487D007C00128297908D79E046
:107C4E00909480F07B017A8D7978908F15E4F0A373
:107C5E0004F07F807E107D007C00128297908D79DB
:107C6E00E0909481F07B017A8D7978908F15E4F015
:107C7E00A304F07F817E107D007C00128297908D90
:107C8E0079E0909482F07B017A8D7978908F15E46B
:107C9E00F0A304F07F207E487D007C001282979036
:107CAE008D79E0909483F07B017A8D7978908F15A1
:107CBE00E4F0A304F07F827E107D007C0012829798
:107CCE00908D79E0909484F07B017A8D7978908F05
:107CDE0015E4F0A304F07F837E107D007C001282F9
:107CEE0097908D79E0909485F07B017A8D797890DC
:107CFE008F15E4F0A304F07F267E487D007C0012F1
:107D0E008297908D79E0909486F0908D7E12453218
:107D1E00000048307F2412D664909487EFF07B01E8
:107D2E007A8D7978908F15E4F0A304F07F257E4844
:107D3E007D007C00128297908D79E09094A0F07B6C
:107D4E00017A8D7978908F15E4F0A304F07F847E0C
:107D5E00107D007C00128297908D79E09094A1F0B6
:107D6E007B017A8D7978908F15E4F0A304F07F85EE
:107D7E007E107D007C00128297908D79E09094A207
:107D8E00F07B017A8D7978908F15E4F0A304F07F63
:107D9E00277E487D007C00128297908D79E090942A
:107DAE00A3F07B017A8D7978908F15E4F0A304F01F
:107DBE007F867E107D007C00128297908D79E090F8
:107DCE0094A4F07B017A8D7978908F15E4F0A3045A
:107DDE00F07F877E107D007C00128297908D79E077
:107DEE009094A5F07B017A8D7978908F15E4F0A3AD
:107DFE0004F07F367E487D007C00128297908D794C
:107E0E00E09094A6F07B017A8D7978908F15E4F04E
:107E1E00A304F07F377E487D007C00128297908D00
:107E2E0079E09094A7F0908D7E1245320000483292
:0A7E3E007F3812D6649094A8EFF08C
:017E48002217
:10CB1E00E4908D7AF0A3F0EF70047F068005C3EFEA
:10CB2E009401FF908D78EFF0E4908D7CF0908D7CE9
:10CB3E00E0FFC39407748094805049EF2410FFE403
:10CB4E003445FEE4FCFD7B017A8D7979908F15F0EA
:10CB5E00A304F0128297908D79E06020908D7CE096
:10CB6E00FF7E007401A807088005C333CE33CED8EC
:10CB7E00F9FF908D7AE04EF0A3E04FF0908D7CE0BF
:10CB8E0004F080A9908D7AE0FCA3E0FD4C70037F49
:10CB9E000122908D78E0FF7E007401A807088005C1
:10CBAE00C333CE33CED8F9FFEC5EFEED5F4E60049C
:06CBBE007F0180027F00F0
:01CBC400224E
:10CC6C00E4908D7AF0A3F0EF70047F068005C3EF9B
:10CC7C009401FF908D78EFF0E4908D7CF0908D7C9A
:10CC8C00E0FFC39407748094805048E42FFFE43491
:10CC9C0045FEE4FCFD7B017A8D7979908F15F0A32C
:10CCAC0004F0128297908D79E06020908D7CE0FFEB
:10CCBC007E007401A807088005C333CE33CED8F9A3
:10CCCC00FF908D7AE04EF0A3E04FF0908D7CE00465
:10CCDC00F080AA908D7AE0FCA3E0FD4C70037F01FC
:10CCEC0022908D78E0FF7E007401A807088005C3B0
:10CCFC0033CE33CED8F9FFEC5EFEED5F4E60047F91
:05CD0C000180027F0020
:01CD110022FF
:10A955007B017A8D797B908F15E4F0A304F07F3726
:10A965007E487D007C001282977B017A8D797D90EF
:10A975008F15E4F0A304F07F387E487D007C00123B
:10A9850082977B017A8D797F908F15E4F0A304F08F
:10A995007F817E307D007C00128297E4908D78F077
:10A9A500908D78E0FFC3940674809480400302AADA
:01A9B5007829
:10A9B600E4908D81F0A3F0EF2460FFE43448FEE4D8
:10A9C600FCFD7B017A8D7981908F15F0A304F0123E
:10A9D6008297908D81E07002A3E0700302AA6F90C7
:10A9E6008D79E4F0A304F0908D78E02410FFE43430
:10A9F60040FEE4FCFD7B017A8D7979908F90F0A37F
:10AA060004F0128F7D908D78E02400FFE43447FE39
:10AA1600E4FCFD7B017A8D797B908F90F0A304F0A6
:10AA2600128F7D908D78E02420FFE43410FEE4FC44
:10AA3600FD7B017A8D797D908F90F0A304F0128FC3
:10AA46007D908D78E02410FFE43447FEE4FCFD7B26
:10AA5600017A8D797F908F90F0A304F0128F7D900C
:09AA66008D78E0FFE4FD12CBC580
:0CAA6F00908D78E004F002A9A5027E4959
:10DAE300E4908D79F0A3F0908D78F0908D78E0FF3D
:09DAF300C3940674809480505C19
:10DAFC00E4908D7BF0A3F0EF2460FFE43448FEE467
:10DB0C00FCFD7B017A8D797B908F15F0A304F012CC
:10DB1C008297908D7BE07002A3E06028908D78E076
:10DB2C002410FFE43440FEE4FCFD7B017A8D79790E
:10DB3C00908F90F0A304F0128F7D908D78E0FFE42D
:04DB4C00FD12CBC536
:0BDB5000908D78E004F08096027E4982
:106D54007B017A8D7971908F15E4F0A304F07F1292
:106D64007E007D007C00128297127C1E12FFBA9076
:106D74008D75EFF0908D71E0FEA3E0FDEDFF908D39
:106D840076EEF0A3EFF0909480E07003026E8E90A4
:106D94008D75E0FF12CC6CEF7003026E8E908D71D6
:106DA400E0FF909481E06F6003026E72908D72E058
:106DB400FF909482E06F6003026E72908D76E0FE25
:106DC400A3E0FF909473E06E7003A3E06F7003027E
:106DD4006E8E908D73E4F0A304F0FB7A8D7973903A
:106DE4008F90E4F0A304F07F217E407D007C0012AC
:106DF4008F7D7B017A947986908F90E4F0A304F0E0
:106E04007F027E207D007C00128F7D909486E0645A
:106E140001700BA3E0FB7A00E4FD7F0180249094D1
:106E240086E06402700BA3E0FB7A00E4FD7F02803D
:106E340011909486E06403700CA3E0FB7A00E4FDF7
:106E44007F0312F4BF909487E0FF7E0012CF9CD2A0
:106E54001012FFD812F6AD12F54212F106908D769B
:106E6400E0FFA3E0909473CFF0A3EFF0801C908D2B
:106E740076E0FEA3E0FF909473E0B5060DA3E0B5C1
:106E8400070874FF909473F0A3F0909483E0700368
:106E9400026F25908D75E0FF12CC6CEF7003026FCA
:106EA40025908D71E0FF909484E06F7058908D72FE
:106EB400E0FF909485E06F704C908D76E0FEA3E047
:106EC400FF909475E06E7003A3E06F6054E4908DBE
:106ED40073F0A3F07B017A8D7973908F90F0A30403
:106EE400F07F217E407D007C00128F7DD21012FF46
:106EF400D812F6AD908D76E0FFA3E0909475CFF0B4
:106F0400A3EFF0801C908D76E0FEA3E0FF909475D3
:106F1400E0B5060DA3E0B5070874FF909475F0A3DF
:106F2400F09094A0E0606D908D75E0FF12CB1EEFA1
:106F34006062908D71E0FF9094A1E06F703A908D43
:106F440072E0FF9094A2E0B5072E908D76E0FEA348
:106F5400E0FF909477E06E7003A3E06F603612A9AF
:106F64005512FFD8127E49908D76E0FFA3E09094ED
:106F740077CFF0A3EFF0801C908D76E0FEA3E0FFC6
:106F8400909477E0B5060DA3E0B5070874FF9094DC
:106F940077F0A3F09094A3E0606D908D75E0FF12FC
:106FA400CB1EEF6062908D71E0FF9094A4E06F704F
:106FB4003A908D72E0FF9094A5E0B5072E908D76FF
:106FC400E0FEA3E0FF909479E06E7003A3E06F60AD
:106FD4003612DAE312FFD8127E49908D76E0FFA3D1
:106FE400E0909479CFF0A3EFF0801C908D76E0FED2
:106FF400A3E0FF909479E0B5060DA3E0B50708740B
:0A700400FF909479F0A3F00292C30C
:10A5A80012FD1BEFFD7C00D3940674809480500943
:10A5B80090947CE06F6002EFF0D3ED9406EC648039
:10A5C80094804002E4FFEF24FD700A908DF1E4F0DE
:10A5D800A304F08007E4908DF1F0A3F07B017A8D5D
:10A5E80079F1908F90E4F0A304F07F437E307D00F2
:10A5F8007C00128F7DE4908DF1F0A3F07B017A8DC1
:10A6080079F1908F15F0A304F07F217E487D007CBE
:10A6180000128297908DF1E07002A3E070187B0120
:10A628007A8D79F1908F15F0A304F07F207E487D14
:10A63800007C00128297908DF1E07002A3E0701800
:10A648007B017A8D79F1908F15F0A304F07F257E38
:10A65800487D007C00128297908DF1E07002A3E0A3
:10A6680070187B017A8D79F1908F15F0A304F07F33
:10A67800277E487D007C001282977B017A8D79F1D4
:10A68800908F90E4F0A304F07F047E207D007C008E
:10A69800128F7D7B017A8D79F3908F15E4F0A304F6
:10A6A800F0FF7E207D007C0012829790947BE0FE74
:10A6B800908DF3E0FF6E600B12B521908DF3E09062
:10A6C800947BF07B017A94799B908F90E4F0A304BB
:0CA6D800F07F417E307D007C00028F7D11
:10F45100202502802612FFD2EF60097F1712EF4D9F
:10F46100C225801790947DE004F0E0C3941E74805F
:10F471009480400C7F1512EF4DC225E490947DF0ED
:01F481002268
:10F84B0030242490947EE0C3940F748094805004F1
:10F85B00E004F022C224E490947EF0D21912EE81DF
:07F86B00E49094C3F0A3F048
:01F872002273
:10A1C90030300302A31B30240302A31BC39094C4A1
:10A1D900E094209094C3E0944E500302A31B2026E0
:10A1E9000302A31B12F9ECEF64424E600D12F9EC65
:10A1F9009094B0EFF07F4212EF4D7B017A8D797523
:10A20900908F15E4F0A304F07F047E207D007C008C
:10A219001282977B017A8D7973908F15E4F0A304EC
:10A22900F0FF7E207D007C001282977B017A8D7978
:10A2390077908F15E4F0A304F07F077E467D007CBC
:10A2490000128297908D77E07002A3E06008908DEC
:10A25900727404F08039908D75E07002A3E0700685
:10A26900908D72F08029908D73E0FEA3E0FFEE706F
:10A2790018EF24FE600B047010908D727401F08049
:10A289000E908D727402F08006908D727403F090B6
:10A299008D72E0FF90947FE06F6077E4908D71F0AC
:10A2A900908D71E0FFC3940574809480505CA3E0A5
:10A2B9006F601F908D7974FFF0A3E4F0A3F0A3F011
:10A2C900908D71E075F002A42460FFE5F03430FE52
:10A2D900801D908D71E075F002A42460FFE5F034D3
:10A2E90030FE908D79F0A3EFF0A3E4F0A304F0E43D
:10A2F900FCFD7B017A8D797B908F90F0A304F0129D
:10A309008F7D908D71E004F08096908D72E090942D
:02A319007FF0D3
:01A31B00221F
:104A89004192A3004292AF00004292B600004392C5
:104A9900B10000004292AD00004392B8000000420C
:104AA90092B400004192A2004192AA004192A00151
:104AB9004292A800004192BD004292AB000044928C
:0A4AC900A4000000004292BB0000B0
:10FBB00043C94053B7CF43B71075985075D8805399
:0DFBC000877F75BA0275AAB0D2ACD2AF2211
:10FBCD009092A37401F0C2998F9920990843C901AD
:0DFBDD0012F27080F5C299E49092A3F0221C
:0300230002C7B25F
:10C7B200C0E0C0F0C083C082C0D075D000C000C04D
:0DC7C20001C002C003C004C005C006C007CE
:10C7CF00C2AF309828C298AB999092A4E0FCA3E036
:10C7DF00FDA3E0FEA3E02401FFE43EFEE43DFDE403
:10C7EF003CFC9092A4124526AF0312C00330994C23
:10C7FF009092A3E07046C299D39092AEE0940090CD
:10C80F0092ADE0940040309092B1E0FBA3E0FAA328
:10C81F00E0F912411AF5999092B2E475F0011242C3
:10C82F00649092AEE024FFF09092ADE034FFF09070
:0EC83F0092A17401F080059092A1E4F0D2AFB6
:10C84D00D007D006D005D004D003D002D001D0003F
:0BC85D00D0D0D082D083D0F0D0E032E9
:10FD8A0075A78075AB8075AE0A75AF80D2BCD2BD3F
:05FD9A00C281D2AF227E
:10DB5B00908D86EBF0A3EAF0A3E9F0908D86E0FBC5
:10DB6B00A3E0FAA3E04A4B605EC3ED9408EC94008B
:10DB7B004055E49092B6F0A3F0908D86A3A3E0F904
:10DB8B009092B8EBF0A3EAF0A3E9F0AF059092B452
:10DB9B00ECF0A3EFF0D2819092B8E0FBA3E0FAA3F4
:10DBAB00E0F912411AF5AC9092B9E475F00112420A
:10DBBB00649092B5E024FFF09092B4E034FFF090C3
:08DBCB0092A27401F0C2BD2218
:0300630002D1FACD
:10D1FA00C0E0C0F0C083C082C0D075D000C000C0FB
:10D20A0001C002C003C2AF53A7FED39092B5E09407
:10D21A00009092B4E09400402A9092B8E0FBA3E018
:10D22A00FAA3E0F912411AF5AC9092B9E475F0014B
:10D23A001242649092B5E024FFF09092B4E034FF79
:03D24A00F0802948
:10D24D009092A2E4F0C281908F99F0A3F0908F9A02
:10D25D00E004F07006908F99E004F0908F99E070E3
:09D26D0004A3E0647870E6D2BD70
:10D27600D2AFD003D002D001D000D0D0D082D0839C
:05D28600D0F0D0E03201
:03006B0002B20ED0
:10B20E00C0E0C0F0C083C082C0D075D000C000C006
:0BB21E0001C002C004C005C006C0074C
:10B22900E4FFFEC2AFE5AB54016401600302B2FE64
:10B23900ADAD53ABFEC39092B6E094014004E4F087
:10B24900A3F09092B6E07002A3E07008ED6401608B
:10B259000302B2FE9092B6E475F00112427AFA74D2
:10B26900A025F0F58274913AF583EDF0C39092B779
:10B27900E094039092B6E09400407A9091A0E06443
:10B289000160099092B6E4F0A3F080279091A1E0C3
:10B29900F9FD7C006403700AA3E02405FFE433FE92
:10B2A9008011ED64064C6007E96410700280007E2D
:10B2B900007F08C3EF9408EE940050047E007F08D5
:10B2C900D3EF9400EE940140069092B6E48023C334
:10B2D9009092B7E09F9092B6E09E40199092AA741E
:10B2E90001F09092A8E4F0A3F09092B6F0A3F09048
:07B2F9008ABFF0A3F0D2AF01
:10B30000D007D006D005D004D002D001D000D0D0D4
:09B31000D082D083D0F0D0E032ED
:10FE260075968075978075D90A75E78043B701C2C4
:02FE3600802228
:10FAF600D2808F9EE59630E0FB5396FEE4FDFC0D2A
:0FFB0600BD00010CED64644C70F5C28043C90171
:01FB150022CD
:08FF9D0000000000000000005C
:104AD300612C80C400000000000000000000000002
:104AE30000000000000000000000000000000000C3
:104AF30000000000000000000000000000000000B3
:104B030000000000000000000000000000000000A2
:104B13000000000000000000000000000000000092
:104B23000000000000000000000000000000000082
:104B33000000000000000000000000000000000072
:104B43000000000000000000000000000000000062
:104B53000000000000000000000000000000000052
:104B63000000000000000000000000000000000042
:104B73000000000000000000000000000000000032
:104B83000000000000000000000000000000000022
:104B93000000000000000000000000000000000012
:104BA3000000000000000000000000000000000002
:104BB30000000000000000000000000000000000F2
:104BC30000000000000000000000000000000000E2
:104BD30000000000000000000000000000000000D2
:104BE30000000000000000000000000000000000C2
:104BF30000000000000000000000000000000000B2
:104C0300C198C100C10E4182340041823200418407
:104C13001D0042801900004181F30041841B0041C3
:104C2300849A004181F000418228004180AD00C197
:104C330013C1154281F1000042823500004280C257
:104C43000000C10AC18259828200000000000000F6
:104C5300000000000000000000000001010101014C
:104C63000101602D841F0000000101010101010108
:104C7300010001000001010101010000000000002A
:104C83000000000001000000000000000000000020
:104C93000000004182330041841E00418231004202
:104CA30080AE000041841C00418229004280110033
:104CB3000141801B0041822A014281F4000B4281A1
:104CC300F600164C80050041002300230005003C3C
:0E4CD3000028C10541807C00C1044180000022
:10FB7400EFC39406748094805013EF25E0248EF52F
:0EFB840082E43484F583740BF0A374B8F0228D
:10E39D00E4FFEFC39406748094805059EF25E02478
:10E3AD008EF582E43484F583E0FCA3E0D39401EC94
:10E3BD0094004013EF25E0248EF582E43484F58338
:10E3CD0074FFF5F0124264EF25E024B6F582E434D3
:10E3DD0080F583E0FCA3E0D39401EC94004013EFAF
:10E3ED0025E024B6F582E43480F58374FFF5F01250
:05E3FD0042640F809D49
:01E4020022F7
:09FF940043C90112F27002F4E20B
:10C64000908DC3EBF0A3EAF0A3E9F0A3ECF0A3ED27
:01C65000F0F9
:10C6510074FF908DCAF0A3F0E4908DC8F0A3F09020
:10C661008DC6E0FEA3E0FFC3908DC9E09F908DC809
:10C67100E09E507B908DC3E0FBA3E0FAA3E0F9902C
:10C681008DC8E0FEA3E0F5828E83124133FF908DC9
:10C69100CAE0F0A3E06FF0E4FDEDC3940874809468
:10C6A100805038908DCBE05401FB908DCAE0C313CC
:10C6B100FEA3E013FF908DCAEEF0A3EFF0EE547FDE
:10C6C100908DCAF0A3EFF0AF03EF600C908DCAE03C
:10C6D10064A0F0A3E06401F00D80BE908DC9E00478
:10C6E100F0600302C660908DC8E004F002C660905D
:07C6F1008DCAE0FEA3E0FF8B
:01C6F800221F
:03FFDB0002FD8A9A
:0DEC3F00F583E0FCA3E0FD7B017A8D797187
:10EC4C00908D8BECF0A3EDF0908D8BE0FFE475F0E4
:10EC5C00011242BBFC74C425F0F58274803CF58330
:10EC6C00EFF0908D8BA3E0FFE475F0011242BBFC3A
:0EEC7C0074C425F0F58274803CF583EFF0221D
:06D6E7007B017A8D7971D0
:0BD6ED00908D86EBF0A3EAF0A3E9F0BB
:10D6F800E4A3F0A3F0EDFF7E00C39401748094804E
:10D70800403FD3EF9403748094805035EF24FFFF9B
:10D71800EE34FFFE3395E0FDFCE47B02FAF9F812E3
:10D728004374EF2408FFEE3448FEE43DFDE43CFC7E
:10D738007B017A8D7989908F15E4F0A304F0128229
:10D7480097908D89E0FEA3E0FF7C007D0A1241C717
:10D75800AC06AD07908D86E0FBA3E0FAA3E0F902E2
:02D76800EC4C87
:10F04D00EF4E7003FEFF22EC7029ED146013146077
:10F05D001614601914601C240470187A007B028049
:10F06D00167A007B0680107A007B01800A7A007B7D
:0DF07D000380047A007B07AE02EB4480FFA5
:01F08A002263
:10F5FC00EE700FEF14600D14600F14601114601393
:10F60C00240480147E007F02227E007F04227E0070
:0DF61C007F06227E007F07227E007F0822ED
:10F62900EF540714601424FE601524FD600714606C
:10F6390013240580147E007F01227E007F02227E32
:0DF64900007F03227E007F0422E4FEFF22EA
:10F0C900EF64084E7003FEFF22EF4E7003FEFF222D
:10F0D900D3EF9402EE940050057E007F0122D3EF16
:10F0E9009404EE940050057E007F0222D3EF94062B
:0DF0F900EE94007E0050037F03227F04226E
:10FC5C00AB05AA04EF700AFC7D0AAF03AE020241A9
:09FC6C00C7EB25E0FFEA33FE229C
:10FC7500AB05AA04EF700AFC7D0AAF03AE02024190
:09FC8500D9EAC313FEEB13FF22C0
:10E19300908DC3EBF0A3EAF0A3E9F0908DC3E0FB0D
:10E1A300A3E0FAA3E0F9E4FD12FE43EF4E60037F20
:10E1B30000227D0112FE38EF4E60037F00227D02B4
:10E1C30012FE38EF4E60037F0022908DC3E0FBA365
:10E1D300E0FAA3E0F97D0412FE43EF4E60037F00F3
:10E1E30022908DC3E0FBA3E0FAA3E0F97D0512FEC4
:0BE1F30043EF4E60037F00227F0122FB
:0BC6F900908DC3EFF0A3ECF0A3EDF078
:10C70400908DC774FFF0D3908DC5E09404908DC4D0
:10C71400E094004004E4F0A3F0908DC3E075F020B1
:10C72400A42401FFE5F03411FEE4FCFD7B017A8DC5
:10C7340079C4908F90F0A304F0128F7DE4908DC69D
:10C74400F0908DC6E0FFC39406748094805037EF58
:10C754002410FFE43440FEE4FCFD7B017A8D79C8AB
:10C76400908F15F0A304F0128297908DC8E07004A6
:10C77400A3E064017008908DC6E0A3F08008908D5A
:10C78400C6E004F080BB908DC7E0FFF4601F908D7D
:10C79400C3E0B507187B017A8D79C4908F90E4F0DB
:0DC7A400A304F0FF7E207D007C00128F7D3D
:01C7B1002265
:08807000E0FF7B017A847952E4
:0E807800908E20EFF0A3EBF0A3EAF0A3E9F066
:10808600908E20E02410FFE43440FEE4FCFD7B01EA
:108096007A8E7924908F15F0A304F0128297908E31
:1080A60020E02400FFE43447FEE4FCFD7B017A8EE9
:1080B6007926908F15F0A304F0128297908E20E017
:1080C6002420FFE43410FEE4FCFD7B017A8E79283F
:1080D600908F15F0A304F0128297908E20E0241062
:1080E600FFE43447FEE4FCFD7B017A8E792A908F0B
:1080F60015F0A304F0128297908E24E0FEA3E0FF11
:10810600A3E0FCA3E0FD12F04D908E21E0FBA3E07E
:10811600FAA3E0F9EE8FF0124328908E2AE0FEA330
:10812600E0FF12F5FC908E21E0FBA3E0FAA3E0F954
:10813600900002EE8FF0124347908E20E0FF908E63
:1081460028E0FCA3E0FD12FC5C908E21E0FBA3E09E
:10815600FAA3E0F9900004EE8FF0124347908E20C8
:10816600E0FF7E007C007D101245E2EF2470FFEEFA
:108176003448FEE43DFDE43CFC908E2C12452690EE
:108186008E21E0FBA3E0FAA3E0F9900006E4F5F007
:10819600124347908E2CE0FCA3E0FDA3E0FEA3E093
:1081A600FFE92408F9E43AFA908F15E4F0A304F005
:1081B600128297908E2CE0FCA3E0FDA3E0FEA3E0E4
:1081C6002401FFE43EFEE43DFDE43CFC908E21E00C
:1081D600FBA3E0FAA3E0240AF9E43AFA908F15E447
:1081E600F0A304F0128297908E2CE0FCA3E0FDA38E
:1081F600E0FEA3E02402FFE43EFEE43DFDE43CFC99
:10820600908E21E0FBA3E0FAA3E0240CF9E43AFA0D
:10821600908F15E4F0A304F0128297908E2CE0FC68
:10822600A3E0FDA3E0FEA3E02403FFE43EFEE43D5D
:10823600FDE43CFC908E21E0FBA3E0FAA3E0240ED3
:10824600F9E43AFA908F15E4F0A304F01282977FCE
:1082560008EFC3941E74809480501E908E21E0FB1C
:10826600A3E0FAA3E0F975F002EFA4F58285F083A6
:09827600E4F5F01243470F80D833
:01827F0022DC
:0ED8F200908E1FEFF0A3EBF0A3EAF0A3E9F095
:10D90000908E1FE0244CF582E43484F583E07003AC
:10D910007F0122E4908E23F0908E23E0C39408745C
:10D92000809480504A908E20E0FBA3E0FAA3E0F9B7
:10D93000A3E0FF75F002A4F58285F0831242F0FDAA
:10D94000ACF0908E1FE0C454F0241CF582E43480C7
:10D95000F58375F002EF124563E0FEA3E06D7002FF
:10D96000EE6C60037F0122908E23E004F080A97F9B
:01D9700000B6
:01D971002293
:0ED55200908DC3EFF0A3EBF0A3EAF0A3E9F095
:10D56000E4FFEFC3940874809480503A908DC4E037
:10D57000FBA3E0FAA3E0F975F002EFA4F58285F0D1
:10D58000831242F0FDACF0908DC3E0C454F0241C33
:10D59000F582E43480F58375F002EF124563ECF018
:10D5A000A3EDF00F80BC908DC3E0FF244CF582E426
:10D5B0003484F5837401F0908DC4E0FBA3E0FAA3FA
:10D5C000E0F912429030E7047E0180027E0074B0E0
:0AD5D0002FF582E43480F583EEF0BD
:01D5DA00222E
:06AEE0007B017A80797D00
:0BAEE600908D86EBF0A3EAF0A3E9F0EA
:10AEF100E4FFEFC3940774809480501F908D86E027
:10AF0100FBA3E0FAA3E0F975F002EFA4F58285F066
:10AF110083E475F0FF1243470F80D77B017A8D7967
:10AF210089908F15E4F0A304F07F207E307D007CB2
:10AF310000128297908D89E0FCA3E0FD7F017E00E5
:10AF410012F04D908D86E0FBA3E0FAA3E0F99000AA
:10AF51000EEE8FF01243477B017A8D7989908F1520
:10AF6100E4F0A304F07F907E107D007C00128297B4
:10AF7100908D89E0FEA3E0FF908D86E0FBA3E0FACF
:10AF8100A3E0F9900010EE8FF01243477B017A8D18
:10AF91007989908F15E4F0A304F07F257E307D0040
:10AFA1007C00128297908D89E0FEA3E0FF12F5FCF0
:10AFB100908D86E0FBA3E0FAA3E0F9900012EE8FFA
:10AFC100F01243477F0AEFC3941874809480501E97
:10AFD100908D86E0FBA3E0FAA3E0F975F002EFA4FF
:0EAFE100F58285F083E4F5F01243470F80D827
:01AFEF00223F
:0BE40300908D82EBF0A3EAF0A3E9F09B
:10E40E0090807CE070037F0122E4908D85F0908DEA
:10E41E0085E0FFC3941874809480503C908D82E008
:10E42E00FBA3E0FAA3E0F975F002EFA4F58285F004
:10E43E00831242F0FDEF25E024F8F582E43481F5F5
:10E44E0083E0FEA3E06D7003EE65F060037F0122B2
:0AE45E00908D85E004F080B67F0089
:01E468002291
:0BEB5B00908DC3EBF0A3EAF0A3E9F0FB
:10EB6600E4FFEFC3941874809480502E908DC3E018
:10EB7600FBA3E0FAA3E0F975F002EFA4F58285F0B5
:10EB8600831242F0FDEF25E024F8F582E43481F5A6
:10EB960083E5F0F0A3EDF00F80C890807C7401F05F
:01EBA600224C
