:020000040001F9
:0300000002B04FFC
:03000B0002A0410F
:03001B0002BFD54C
:0300230002AD83A8
:03002B0002CF966B
:0300630002B2C521
:03006B0002A618D2
:1000F800FFFF4457494E5435202603021A70C22682
:10010800909264E0FFA3E0909240CFF0A3EFF090CC
:100118009277E4F0A304F0FB7A8A79B8908B7EE4B6
:10012800F0A304F07F107E207D007C001289D99016
:100138009240E0FEA3E08EF0126F9202FE100103DF
:10014800351002036E100316D4101408601016112F
:100158003C101811C8101916D4101A173C10201783
:100168003C1021173C1022173C1023173C10241771
:100178003C102517641070176410711764107217FB
:100188006410731764107417641075188C10801835
:100198008C10811887108218871083114111001163
:1001A8006E1101119B11021129110318CC120002C2
:1001B800FB200003E7200103F0200205332003059C
:1001C800B820110A7B20120A1620130E9120150E52
:1001D800972016105B2017106620181095201B1406
:1001E80056201D10A7201E03802020102B20211729
:1001F8003C2025173C2026148320301676203516FF
:1002080084203617CB2037189120380986305008BB
:1002180065306018C7307018C7307218C730731847
:10022800C7307418C73075097A308309803084164E
:10023800383090039A322410E53508112E35091606
:10024800D4366016D4367016D43680151840061683
:10025800EE401016EE401116EE401216EE40131640
:10026800EE401416EE4015054A4021188C4500183A
:100278008C4501188C4502188C4503188C450418C8
:100288008C4505188C4506170A4700170A470117B9
:100298000A4702170A4703170A4704170A470517A8
:1002A8002047101720471117204712172047131708
:1002B8002047141720471518874820188C482118FC
:1002C8008C482418204825188C4826187B4827175E
:1002D800D84830182D48320D7148500D9D48510DA1
:1002E800CE48520DFF48530E2E48540E5D48550017
:1002F8000018DA02038A908AB8E07002A3E060036B
:100308000218DA7B017A8A79BA908B7EF0A304F01E
:100318007F037E207D007C001289D9908ABAE07024
:1003280002A3E070030216337F230218D7908AB81D
:10033800E07002A3E060030218DA7B017A8A79BAD6
:10034800908B7EF0A304F07F037E207D007C00125A
:1003580089D9908ABAE07002A3E070057F05021877
:10036800D77F2A0218D7908AB8E07002A3E060030A
:100378000218DA7F040218D790926EE0FF123A96BC
:100388005008D21912D1880218DA90926EE0FF0252
:1003980018D77B017A8A79BA908B7EE4F0A304F0AF
:1003A8007F247E327D007C001289D9908ABAE0FED3
:1003B800A3E0FF64014E6009EF64024E6003021877
:1003C800DA12D256E4908ABAF0A3F07B017A8A79DD
:1003D800BA908CD4F0A304F07F247E320216CA307F
:1003E80018030218DA02104F3018030218DA12D173
:1003F800C07B017A8A79BA908B7EE4F0A304F07FFF
:10040800027E207D007C001289D9908ABAE0FEA382
:10041800E0FFD39403EE940040030218DAEF4E9005
:100428008AC3700EF0A3F07B017A8A79C3908CD4CA
:10043800800EE4F0A304F0FB7A8A79C3908CD4E4AC
:10044800F0A304F07F217E407D007C001296A390EB
:100458008AC3E0FEA3E0FF123B817B017A8A79BF61
:10046800908B7EE4F0A304F07F037E207D007C0067
:100478001289D9908ABAE07004A3E06401702B7FD6
:1004880001123A0E908AC1EEF0A3EFF04E700EFD05
:100498007F01123A14908AC1EEF0A3EFF0908AC15E
:1004A800E0FEA3E0FF4E60778072908ABAE07004A5
:1004B800A3E06402702B7F02123A0E908AC1EEF01C
:1004C800A3EFF04E700EFD7F02123A14908AC1EE2F
:1004D800F0A3EFF0908AC1E0FEA3E0FF4E604080F9
:1004E8003B908ABAE07004A3E064037032908ABF3C
:1004F800A3E0FD7F03123A14908AC1EEF0A3EFF057
:100508004E700EFD7F03123A14908AC1EEF0A3EFED
:10051800F0908AC1E0FEA3E0FF4E6003123501129D
:10052800D1B412D20812D202021025123ADED21920
:1005380012D18812D1B412D20E12D20B12D21102D9
:1005480018DA123B9650030218DA12D1DBEF600377
:100558000218DA7B017A8A79BA908B7EF0A304F0CC
:100568007F217E407D007C001289D9908ABAE0FE06
:10057800A3E0FFD39401EE940040030218DA9092AE
:100588006CE0FCA3E0FDEF6D7002EE6C70030218E6
:10059800DA7BFF7AD479BB908B60EEF0A3EFF01290
:1005A8008358908ABAA3E0FF7D531294F602166D21
:1005B8007F0712CAAC7B017A8A79BA908B7EE4F005
:1005C800A304F07F117E207D007C001289D9908AD7
:1005D800BAE07004A3E0640170657B017A8A79BA95
:1005E800908B7EF0A304F07F007E477D007C001294
:1005F80089D97B017A8A79BA908CD4E4F0A304F083
:100608007F007E307D007C001296A3E4908ABAF0C9
:10061800A3F07B017A8A79BA908B7EF0A304F07FED
:10062800107E477D007C001289D97B017A8A79BACD
:10063800908CD4E4F0A304F07F057E300216CA90B3
:100648008ABAE07004A3E06402705E7B017A8A795A
:10065800BA908B7EF0A304F0FF7E477D007C0012E9
:1006680089D97B017A8A79BA908CD4E4F0A304F012
:100678007F007E307D007C001296A37B017A8A7908
:10068800BA908B7EE4F0A304F07F117E477D007C56
:10069800001289D97B017A8A79BA908CD4E4F0A3C4
:1006A80004F07F057E300216CA908ABAE07004A36F
:1006B800E06403705F7B017A8A79BA908B7EF0A33D
:1006C80004F07F027E477D007C001289D97B017A85
:1006D8008A79BA908CD4E4F0A304F07F007E307D50
:1006E800007C001296A37B017A8A79BA908B7EE40B
:1006F800F0A304F07F127E477D007C001289D97B2D
:10070800017A8A79BA908CD4E4F0A304F07F057E4C
:10071800300216CA908ABAE07004A3E06404705FDD
:100728007B017A8A79BA908B7EF0A304F07F037EEE
:10073800477D007C001289D97B017A8A79BA908C2E
:10074800D4E4F0A304F07F007E307D007C00129694
:10075800A37B017A8A79BA908B7EE4F0A304F07FB8
:10076800137E477D007C001289D97B017A8A79BA89
:10077800908CD4E4F0A304F07F057E300216CA9072
:100788008ABAE07004A3E06405705F7B017A8A7915
:10079800BA908B7EF0A304F07F047E477D007C0036
:1007A8001289D97B017A8A79BA908CD4E4F0A304AF
:1007B800F07F007E307D007C001296A37B017A8A50
:1007C80079BA908B7EE4F0A304F07F147E477D0015
:1007D8007C001289D97B017A8A79BA908CD4E4F0AA
:1007E800A304F07F057E300216CA908ABAE070042E
:1007F800A3E0640660030218DA7B017A8A79BA906A
:100808008B7EF0A304F07F057E477D007C00128973
:10081800D97B017A8A79BA908CD4E4F0A304F07F6A
:10082800007E307D007C001296A37B017A8A79BA1B
:10083800908B7EE4F0A304F07F157E477D007C005A
:100848001289D97B017A8A79BA908CD4E4F0A3040E
:10085800F07F057E300216CA7F0D0218D7E4908A11
:10086800BFF07B017A8A79BA908B7EF0A304F07F7F
:10087800167E107D007C001289D97B017A8A79C0A6
:10088800908B7EE4F0A304F07F037E207D007C0043
:100898001289D9908ABAE07004A3E0640170699063
:1008A8008ABFF0908ABFE0FFC3940674809480509A
:1008B80041EF2440FFE43431FEE4FCFD7B017A8AF9
:1008C80079BA908B7EF0A304F01289D9908ABFE0A0
:1008D8002400FFE43445FEE4FCFD7B017A8A79BA02
:1008E800908CD4F0A304F01296A3908ABFE004F091
:1008F80080B1908AC0E07004A3E0640170057F298C
:100908000218D77F0C0218D7E4908ABFF0908ABFEC
:10091800E0FFC39406748094805041EF2440FFE4C4
:100928003431FEE4FCFD7B017A8A79BA908B7EF043
:10093800A304F01289D9908ABFE02410FFE434455B
:10094800FEE4FCFD7B017A8A79BA908CD4F0A3048A
:10095800F01296A3908ABFE004F080B1908AC0E0BC
:100968007004A3E0640170057F270218D77F110285
:1009780018D712D22F0218DA12D2350218DA7B01F0
:100988007A8A79BA908B7EE4F0A304F07F167E1001
:100998007D007C001289D9908ABAE07004A3E064D3
:1009A80001702E7B017A8A79BA908B7EF0A304F0CD
:1009B8007F037E207D007C001289D9908ABAE0707E
:1009C80004A3E0640170057F290218D77F0C021880
:1009D800D7908ABAE07004A3E0640260030218DAD0
:1009E8007B017A8A79BA908B7EF0A304F07F037E2C
:1009F800207D007C001289D9908ABAE07004A3E0B7
:100A0800640170057F290218D77F110218D77F0665
:100A180012CAAC7B017A8A79BA908B7EE4F0A3047F
:100A2800F07F007E477D007C001289D97B017A8A9D
:100A380079BA908CD4E4F0A304F07F207E307D0056
:100A48007C001296A37B017A8A79BA908B7EE4F0B7
:100A5800A304F07F107E477D007C001289D97B01BA
:100A68007A8A79BA908CD4E4F0A304F07F257E309A
:100A78000216CA7B017A8A79BA908B7EE4F0A304C5
:100A8800F07F117E207D007C001289D9908ABAE01F
:100A9800FEA3E0908ABFF064014E70637F0212CA21
:100AA800AC7B017A8A79BA908B7EE4F0A304F07F5C
:100AB800007E307D007C001289D97B017A8A79BA60
:100AC800908CD4E4F0A304F07F007E477D007C0086
:100AD8001296A37B017A8A79BA908B7EE4F0A304FC
:100AE800F07F057E307D007C001289D97B017A8AEF
:100AF80079BA908CD4E4F0A304F07F10020D2D9005
:100B08008ABAE07004A3E0640270627F0212CAAC81
:100B18007B017A8A79BA908B7EE4F0A304F07F0097
:100B28007E307D007C001289D97B017A8A79BA905F
:100B38008CD4E4F0A304F0FF7E477D007C0012967D
:100B4800A37B017A8A79BA908B7EE4F0A304F07FC4
:100B5800057E307D007C001289D97B017A8A79BABA
:100B6800908CD4E4F0A304F07F11020D2D908ABA82
:100B7800E07004A3E0640370637F0212CAAC7B01D7
:100B88007A8A79BA908B7EE4F0A304F07F007E30F5
:100B98007D007C001289D97B017A8A79BA908CD43D
:100BA800E4F0A304F07F027E477D007C001296A348
:100BB8007B017A8A79BA908B7EE4F0A304F07F05F2
:100BC8007E307D007C001289D97B017A8A79BA90BF
:100BD8008CD4E4F0A304F07F12020D2D908ABAE0C1
:100BE8007004A3E0640470637F0312CAAC7B017ACB
:100BF8008A79BA908B7EE4F0A304F07F007E307D82
:100C0800007C001289D97B017A8A79BA908CD4E465
:100C1800F0A304F07F037E477D007C001296A37B3F
:100C2800017A8A79BA908B7EE4F0A304F07F057E7E
:100C3800307D007C001289D97B017A8A79BA908C40
:100C4800D4E4F0A304F07F13020D2D908ABAE0706B
:100C580004A3E0640570627F0312CAAC7B017A8A40
:100C680079BA908B7EE4F0A304F07F007E307D009B
:100C78007C001289D97B017A8A79BA908CD4E4F005
:100C8800A304F07F047E477D007C001296A37B01BD
:100C98007A8A79BA908B7EE4F0A304F07F057E30DF
:100CA8007D007C001289D97B017A8A79BA908CD42C
:100CB800E4F0A304F07F14806C908ABAE07004A377
:100CC800E0640670697F0312CAAC7B017A8A79BA3C
:100CD800908B7EE4F0A304F07F007E307D007C00E2
:100CE8001289D97B017A8A79BA908CD4E4F0A3046A
:100CF800F07F057E477D007C001296A37B017A8AEF
:100D080079BA908B7EE4F0A304F07F057E307D00F5
:100D18007C001289D97B017A8A79BA908CD4E4F064
:100D2800A304F07F157E477D007C001296A312CFA6
:100D380026908ABFE0FF7E00C3940174809480509F
:100D4800030218DAD3EF94067480948040030218E3
:100D5800DAE0C39401FFE4FD12D1C6908ABFE0C374
:100D68009401FF122F090218DA7B017A8A79BA9066
:100D78008B7EE4F0A304F07F027E207D007C0012CD
:100D880089D9908ABAE07004A3E06401600302186C
:100D9800DA7D01802B7B017A8A79BA908B7EE4F028
:100DA800A304F07F027E207D007C001289D9908AFE
:100DB800BAE07004A3E0640160030218DA74FFFD6E
:100DC800FC7F01020E8B7B017A8A79BA908B7EE4D4
:100DD800F0A304F07F027E207D007C001289D99068
:100DE8008ABAE07004A3E0640260030218DA74FFB0
:100DF800FDFC7F02020E8B7B017A8A79BA908B7E8A
:100E0800E4F0A304F07F027E207D007C001289D9E3
:100E1800908ABAE07004A3E0640260030218DA7DE5
:100E280001FC7F02805D7B017A8A79BA908B7EE42F
:100E3800F0A304F07F027E207D007C001289D99007
:100E48008ABAE07004A3E0640360030218DA7D0143
:100E5800FC7F03802E7B017A8A79BA908B7EE4F03E
:100E6800A304F07F027E207D007C001289D9908A3D
:100E7800BAE07004A3E0640360030218DA74FFFDAB
:100E8800FC7F031231080218DA122BED0218DA7B04
:100E9800017A8A79C3908B7EE4F0A304F07F037E05
:100EA800207D007C001289D9908AC3E07002A3E0FB
:100EB8007B016003020F727A8A79BF908B7EF0A360
:100EC80004F07F257E207D007C001289D97B017A81
:100ED8008A79BF908CD4E4F0A304F07F057E207D4E
:100EE800007C001296A3908ABFE0FEA3E0FF7D4637
:100EF8001232FB908AC1EEF0A3EFF07B017A8A7977
:100F0800C1908CD4E4F0A304F07F067E207D007CA1
:100F1800001296A37B017A8A79C5908B7EE4F0A3B0
:100F280004F07F027E207D007C001289D9908AC55A
:100F3800123A3E908AC5A3E0FF908AC1E0FAA3E086
:100F4800FB7D01123A4B908AC5A3E0FFC007908A47
:100F5800BFE0FCA3E0FDE41266C8908ACA126F03E2
:100F6800D0071239547F0102101C7A8A79C3908BFA
:100F78007EE4F0A304F07F267E207D007C001289A9
:100F8800D97B017A8A79C3908CD4E4F0A304F07FEA
:100F9800067E207D007C001296A3908AC31232F44C
:100FA800908ABFEEF0A3EFF07B017A8A79BF908C2C
:100FB800D4E4F0A304F07F057E207D007C00129627
:100FC800A37B017A8A79C7908B7EE4F0A304F07F33
:100FD800027E207D007C001289D9908AC7123A3E91
:100FE800908AC7A3E0FF908AC3E0FAA3E0FB7D01E3
:100FF800123A4B908AC7A3E0FFC007908ABFE0FC73
:10100800A3E0FDE41266C8908ACA126F03D00712E3
:1010180039547F1E12CAAC12D1C012D1B412D20BED
:101028000218DA7B017A8A79BA908B7EE4F0A304FD
:10103800F07F217E207D007C001289D9908ABAE059
:10104800FEA3E0FF123B4212D1C012D1B412D21457
:101058000218DA7F0F12CAAC122ADA0218DA7B01F8
:101068007A8A79BA908B7EE4F0A304F07F187E2008
:101078007D007C001289D9908ABAE0FEA3E0FF9037
:101088009266EEF0A3EFF012CAFF0218C21291A7FF
:1010980090923B126F0312D1D212D21A0218DA7B45
:1010A800017A8A79BA908B7EE4F0A304F07F1E7EE1
:1010B800207D007C001289D97B017A8A79BA908CCC
:1010C800D4E4F0A304F07F1E7E207D007C001296FD
:1010D800A3908ABAA3E0FF12CCEF0218C2E4908A68
:1010E800BFF0A3F07B017A8A79BF908B7EF0A304CE
:1010F800F07F087E357D007C001289D97B017A8AD1
:1011080079BF908CD4E4F0A304F07F087E357D008D
:101118007C001296A312D25912D1B412D226021808
:10112800DA7F3D0218D712D25912D1B412D2267FD3
:10113800340218D77F0E0218D77B017A8A79BA90C1
:101148008B7EE4F0A304F07F037E207D007C0012F8
:1011580089D9908ABAE07002A3E070057F0B021863
:10116800D77F280218D77B017A8A79BA908B7EE4D8
:10117800F0A304F07F037E207D007C001289D990C3
:101188008ABAE07002A3E070057F0B0218D77F28A7
:101198000218D77B017A8A79BA908B7EE4F0A3048F
:1011A800F07F037E207D007C001289D9908ABAE006
:1011B8007002A3E070057F100218D77F260218D7A7
:1011C8007B017A8A79BA908B7EE4F0A304F07F18C9
:1011D8007E107D007C001289D9908ABAE07004A341
:1011E800E06401600302127F7B017A8A79BA908BEE
:1011F8007EF0A304F07F197E107D007C001289D94F
:10120800908ABAE07004A3E0640170667B017A8A70
:1012180079BA908B7EF0A304F07F507E307D007CFD
:10122800001289D97B017A8A79BA908CD4E4F0A328
:1012380004F07F807E107D007C001296A37B017AEB
:101248008A79BA908B7EE4F0A304F07F517E307DDA
:10125800007C001289D97B017A8A79BA908CD4E40F
:10126800F0A304F07F817E107D007C001296A3120B
:10127800D2357F0C0218D7908ABAE07004A3E064D4
:1012880002600302131D7B017A8A79BA908B7EF083
:10129800A304F07F197E107D007C001289D9908A02
:1012A800BAE07004A3E0640170667B017A8A79BAB7
:1012B800908B7EF0A304F07F507E307D007C00127E
:1012C80089D97B017A8A79BA908CD4E4F0A304F0A6
:1012D8007F827E107D007C001296A37B017A8A793A
:1012E800BA908B7EE4F0A304F07F517E307D007CC1
:1012F800001289D97B017A8A79BA908CD4E4F0A358
:1013080004F07F837E107D007C001296A312D238F1
:101318007F0B0218D7908ABAE07004A3E0640360D8
:10132800030213B87B017A8A79BA908B7EF0A30402
:10133800F07F197E107D007C001289D9908ABAE06E
:101348007004A3E0640170637B017A8A79BA908B98
:101358007EF0A304F07F507E307D007C001289D996
:101368007B017A8A79BA908CD4E4F0A304F07F8464
:101378007E107D007C001296A37B017A8A79BA9050
:101388008B7EE4F0A304F07F517E307D007C001258
:1013980089D97B017A8A79BA908CD4E4F0A304F0D5
:1013A8007F857E107D007C001296A37F120218D7DD
:1013B800908ABAE07004A3E0640460030218DA7B40
:1013C800017A8A79BA908B7EF0A304F07F197E1097
:1013D8007D007C001289D9908ABAE07004A3E06489
:1013E8000170667B017A8A79BA908B7EF0A304F04B
:1013F8007F507E307D007C001289D97B017A8A7902
:10140800BA908CD4E4F0A304F07F867E107D007C33
:10141800001296A37B017A8A79BA908B7EE4F0A3B6
:1014280004F07F517E307D007C001289D97B017ADF
:101438008A79BA908CD4E4F0A304F07F877E107D7B
:10144800007C001296A312D2327F100218D77B01BB
:101458007A8A79BA908B7EE4F0A304F07F037E2029
:101468007D007C001289D9908ABAE07002A3E060FE
:10147800057F200218D77F320218D77B017A8A7934
:10148800BA908B7EE4F0A304F07F307E207D007C50
:10149800001289D9908ABAE07002A3E0606DC39007
:1014A800926BE094D090926AE0940740527B017A64
:1014B8008A79BA908B7EE4F0A304F07F107E207DB9
:1014C800007C001289D9908ABAE07002A3E07E00FD
:1014D80060047F0080027F01908ABAEEF0A3EFF0EB
:1014E8007B017A8A79BA908CD4E4F0A304F07F1057
:1014F8007E207D007C001296A312D1B412D217C2AE
:1015080022E490926AF0A3F00218DAD2220218DAE2
:101518007B017A8A79BF908B7EE4F0A304F07F2068
:101528007E307D007C001289D9E4908ABEF0908AD2
:10153800BEE0FFC39406748094805048E42FFFE413
:101548003447FEE4FCFD7B017A8A79BF908CD4F0A5
:10155800A304F01296A3908ABAE4F0A304F0908A48
:10156800BEE02410FFE43440FEE4FCFD7B017A8AEF
:1015780079BA908CD4F0A304F01296A3908ABEE0B6
:1015880004F080AA7B017A8A79C1908B7EE4F0A36B
:1015980004F07F257E307D007C001289D9E4908A92
:1015A800BEF0908ABEE0FFC39406748094805023F6
:1015B800EF2410FFE43447FEE4FCFD7B017A8A79CE
:1015C800C1908CD4F0A304F01296A3908ABEE004D4
:1015D800F080CF7B017A8A79BA908B7EE4F0A304FD
:1015E800F07F907E107D007C001289D9E4908ABE3D
:1015F800F0908ABEE0FFC39406748094805023EF75
:101608002420FFE43410FEE4FCFD7B017A8A79BAD9
:10161800908CD4F0A304F01296A3908ABEE004F054
:1016280080CF12CF2612D1C912D1B47F020218D7A7
:101638007B017A8A79BA908B7EE4F0A304F07F90DC
:101648007E307D007C001289D97B017A8A79BA9034
:101658008CD4E4F0A304F07F027E207D007C00128D
:1016680096A312D1C012D1B412D2080218DA12D23B
:101678005C7F2D12CAAC12D2620218DA7B017A8A18
:1016880079BA908B7EE4F0A304F07F367E207D004B
:101698007C001289D9908ABAE07004A3E0640160E2
:1016A800030218DA12D25F12D262E4908ABAF0A367
:1016B800F07B017A8A79BA908CD4F0A304F07F3653
:1016C8007E207D007C001296A30218DA909240E0FA
:1016D800FEA3E0FF12D1CF12D1B412D21D12D22034
:1016E80012D2230218DA909240E0FEA3E0FFC394DE
:1016F80010EE94404064EF24F0FFE4FD12D1C602DE
:1017080017C2909240E0FEA3E0FFC3EE9447400565
:10171800E4FD12D1C60217C2909240E0FEA3E0FF9A
:10172800C39410EE94474009EF24F0FFE4FD12D172
:10173800C60217C2909240E0FEA3E0FF7D4312204C
:101748002E909240E0FEA3E0FFC39420EE94104058
:1017580009EF24E0FFE4FD12D1C6805E1220249038
:101768009240E0FCA3E0FD2490908ABFF0AF05AE64
:1017780004E4FCFD7B017A8A79C0908B7EF0A30497
:10178800F01289D9908AC01232F4908AC2EEF0A37E
:10179800EFF0908ABFE02420FFE43410FEE4FCFD63
:1017A8007B017A8A79C2908CD4F0A304F01296A3B4
:1017B800908ABFE0FFE4FD12D1C612D1B412CF2641
:1017C8000218DA12D0BC7F1612CAACD2240218DA78
:1017D800909240E0FEA3E0FFE4FCFD7B017A8A7969
:1017E800BF908B7EF0A304F01289D9908ABF123281
:1017F800F4908AC1EEF0A3EFF07B017A8A79C19068
:101808008CD4E4F0A304F07F247E487D007C001291
:1018180096A312D2350218C2E4FD7F0112D1D51267
:10182800D22F0218C2909240E0FEA3E0FFE4FCFD34
:101838007B017A8A79BF908B7EF0A304F01289D954
:10184800908ABF1232F4908AC1EEF0A3EFF07B01C8
:101858007A8A79C1908CD4E4F0A304F07F387E486A
:101868007D007C001296A3E4FD7F0112D1D512D22F
:101878002F80477D01E4FF12D1D512D232803B126E
:10188800D238803612D23580317B017A8A79BA9083
:101898008B7EE4F0A304F07F387E207D007C00126C
:1018A80089D9908ABAE07002A3E06004D225800248
:1018B800C225A225B3921912C53712D1B4801312CA
:1018C80031FD800E12D25912D1B412D2267F3412B1
:1018D800CAAC909240E0FEA3E0FFC3EE94485003E8
:1018E800021A70D3EF945FEE94484003021A70EF27
:1018F8007003EE64487003021A70EF64027003EE1E
:1019080064487003021A70EF64047003EE64487050
:1019180003021A70EF64067003EE64487003021A3B
:1019280070EF64107003EE64487003021A70EF647D
:10193800127003EE64487003021A70EF64147003A7
:10194800EE64487003021A70EF64167003EE644880
:101958007003021A70EF64087003EE64486010EFB9
:10196800640A7003EE64486006BE480EBF0C0B7D27
:101978004312202E12D1B402D20B909240E0FEA363
:10198800E0FF64187003EE64486010EF641A700397
:10199800EE64486006BE4809BF1C06122024021ADD
:1019A8006D909240E0FEA3E0FFE4FCFD7B017A8AA3
:1019B80079BC908B7EF0A304F01289D9909240A351
:1019C800E0908ABFF0E0FF25E0249BF582E43482B2
:1019D800F583E0FCA3E0FDEF25E0245BF582E43429
:1019E80083F583E0FEA3E0FFD39DEC6480F8EE640A
:1019F80080984056908ABCE0FCA3E0FDD39FEE643B
:101A080080F8EC6480984019908ABFE025E0245B58
:101A1800F582E43483F583E0FFA3E0908ABCCF80AD
:101A280025908ABFE025E0249BF582E43482F58383
:101A3800E0FEA3E0FFC3ED9FEE6480F8EC648098BD
:101A48005008908ABCEEF0A3EFF0909240E0FEA31D
:101A5800E0FFE4FCFD7B017A8A79BC908CD4F0A38A
:101A680004F01296A312D1B4227B017A8B793790B5
:101A78008B7EE4F0A304F07F037E207D007C0012BF
:101A880089D97B017A8B7939908B7EE4F0A304F0B5
:101A98007F057E207D007C001289D97B017A8B79B5
:101AA8003B908B7EE4F0A304F07F067E207D007CD3
:101AB800001289D9908B37E07002A3E0601A908BEE
:101AC80039E0FEA3E0FF4E6002802D908B3BE0FEE4
:101AD800A3E0FF4E602F800B908B3BE0FEA3E0FF5E
:101AE8004E600A7D431232FB908B398013908B39FC
:101AF800E0FEA3E0FF4E600D7D461232FB908B3B6B
:101B0800EEF0A3EFF0908B39E0FEA3E0FF4E600209
:101B18008020908B3BE0FEA3E0FF4E60187D4312CF
:101B280032FB908B39EEF0A3EFF0908B39E0FEA3F7
:101B3800E0FF1235017B017A8B7939908CD4E4F07F
:101B4800A304F07F257E207D007C001296A37B01F4
:101B58007A8B793B908CD4E4F0A304F07F267E2026
:101B68007D007C001296A3123697908B46126F0F59
:101B7800000048107F001238F8908B46126F0F0053
:101B88000048127F021238F8908B46126F0F00003F
:101B980048147F041238F8908B46126F0F000048E3
:101BA800167F061238F8908B3D7401F0908B3DE05B
:101BB800FFD39403748094805040E4FD123A14904B
:101BC8008B39EEF0A3EFF0908B39E0FEA3E0FF4EE7
:101BD800601D7D461232FB908B3BEEF0A3EFF0A325
:101BE800E0FF908B3BE0FAA3E0FB7D01123A4B4308
:101BF800C901908B3DE004F080B2908B46126F0FC4
:101C0800000010087F067E101238FA908B46126F7B
:101C18000F0000101A7F147E101238FAE4908B3DE2
:101C2800F0908B3DE0FFC3940674809480400302DB
:101C38001CEFEF2420FFE43410FEE4FCFD7B017A66
:101C48008B7939908B7EF0A304F01289D9908B3D63
:101C5800E0FF908B39E0FCA3E0FD123704908B3D48
:101C6800E025E0FFE433FEEF2430FFEE3410FEE41D
:101C7800FCFD7B017A8B793E908B7EF0A37402F099
:101C88001289D9E4FFFEFDFC908B3EE0F8A3E0F951
:101C9800A3E0FAA3E0FB12664A6040403E908B3D09
:101CA800E025E0FFE433FEEF2430FFEE3410FEE4DD
:101CB800FCFDC004C005C006C007E025E0FFE43312
:101CC800FEEF2440FFEE3410FEE4908B46126F03C3
:101CD800D007D006D005D0041238FE43C901908B36
:101CE8003DE004F0021C297B017A8B7939908B7EC8
:101CF800E4F0A304F07F247E487D007C001289D99B
:101D0800908B39E0FAA3E0FB4A6017908B46126F7C
:101D18000F00004830908B4AEAF0A3EBF07F2412C2
:101D280038997B017A8B7939908B7EE4F0A304F0A3
:101D38007F387E487D007C001289D9908B39E0FA83
:101D4800A3E0FB4A6017908B46126F0F00004832E1
:101D5800908B4AEAF0A3EBF07F3812389902D1D879
:101D68007B017A8A79B8908B7EE4F0A304F07F1225
:101D78007E007D007C001289D91222D912D196905A
:101D88008ABCEFF0908AB8E0FEA3E0FDEDFF908AF0
:101D9800BDEEF0A3EFF0909232E07003021EA39024
:101DA8008ABCE0FF12345DEF7003021EA3908AB86C
:101DB800E0FF909233E06F6003021E87908AB9E0DB
:101DC800FF909234E06F6003021E87908ABDE0FEA8
:101DD800A3E0FF909226E06E7003A3E06F70030209
:101DE8001EA3908ABAE4F0A304F0FB7A8A79BA9029
:101DF8008CD4E4F0A304F07F217E407D007C0012A7
:101E080096A37B017A927938908CD4E4F0A304F0FD
:101E18007F027E207D007C001296A3909238E064B9
:101E280001700BA3E0FB7A00E4FD7F01802490920F
:101E380038E06402700BA3E0FB7A00E4FD7F0280C7
:101E480011909238E06403700CA3E0FB7A00E4FD83
:101E58007F03123A4B909239E0FF7E00123501124F
:101E6800D1C012D1B412D20212D20812D20B908A67
:101E7800BDE0FFA3E0909226CFF0A3EFF0801C9086
:101E88008ABDE0FEA3E0FF909226E0B5060DA3E030
:101E9800B5070874FF909226F0A3F0909235E07091
:101EA80003021F3B908ABCE0FF12345DEF7003020F
:101EB8001F3B908AB8E0FF909236E06F7059908A85
:101EC800B9E0FF909237E06F704D908ABDE0FEA3B5
:101ED800E0FF909228E06E7003A3E06F6055E490F5
:101EE8008ABAF0A3F07B017A8A79BA908CD4F0A3ED
:101EF80004F07F217E407D007C001296A312D1C0A1
:101F080012D1B412D202908ABDE0FFA3E0909228C9
:101F1800CFF0A3EFF0801C908ABDE0FEA3E0FF9015
:101F28009228E0B5060DA3E0B5070874FF90922843
:101F3800F0A3F0909254E0606D908ABCE0FF1233F9
:101F4800B8EF6062908AB8E0FF909255E06F703AFF
:101F5800908AB9E0FF909256E0B5072E908ABDE0CE
:101F6800FEA3E0FF90922AE06E7003A3E06F603654
:101F78001229B412D1B412CF26908ABDE0FFA3E093
:101F880090922ACFF0A3EFF0801C908ABDE0FEA3C8
:101F9800E0FF90922AE0B5060DA3E0B5070874FFAC
:101FA80090922AF0A3F0909257E0606D908ABCE07E
:101FB800FF1233B8EF6062908AB8E0FF909258E061
:101FC8006F703A908AB9E0FF909259E0B5072E9069
:101FD8008ABDE0FEA3E0FF90922CE06E7003A3E0C0
:101FE8006F603612361F12D1B412CF26908ABDE028
:101FF800FFA3E090922CCFF0A3EFF0801C908ABD55
:10200800E0FEA3E0FF90922CE0B5060DA3E0B50733
:102018000874FF90922CF0A3F0022504909240E0FF
:10202800FEA3E0FF7D46908AD6EDF0908AD4EEF0CC
:10203800A3EFF0E4FCFD7B017A8A79D7908B7EF0E0
:10204800A304F01289D9908AD4E0FEA3E0FFC394D8
:1020580020EE9410400BD3EF9425EE94105002809C
:1020680022C3EF9470EE9410400BD3EF9475EE9466
:102078001050028027908AD4E0FEA3E0FFBE20160D
:10208800BF2513908AD9E4F0A37410F0A3E4F0A359
:102098007420F0022180BE201BBF26187D467F10C9
:1020A8007E001232FB908AD9EEF0A3EFF07D467FD6
:1020B80020022173908AD4E0FEA3E0FFBE4816BF39
:1020C8000813908AD9E4F0A3741EF0A3E4F0A37473
:1020D8003CF0022180BE4816BF0A13908AD9E4F06A
:1020E800A3741EF0A3E4F0A37432F0022180BE486A
:1020F80015BF0C12908AD9E4F0A3740FF0A3E4F092
:10210800A37428F08072BE481ABF18177D467F1E38
:102118007E001232FB908AD9EEF0A3EFF07D467F65
:102128003C8048908AD4E0B4481CA3E0B41A177DD8
:10213800467F1E7E001232FB908AD9EEF0A3EFF0A4
:102148007D467F328025908AD4E064487004A3E0FD
:10215800641C60030222D87D467F0FFE1232FB907A
:102168008AD9EEF0A3EFF07D467F287E001232FB7D
:10217800908ADBEEF0A3EFF0908AD9E0FEA3E0FFAF
:10218800908AD7E0FCA3E0FDC39FEC9E5002800F2D
:10219800908ADBE0FEA3E0FFD3ED9FEC9E40089021
:1021A8008AD7EEF0A3EFF0908AD4E0FEA3E0FFE434
:1021B800FCFD7B017A8A79D7908CD4F0A304F012C5
:1021C80096A3908AD4E0FEA3E0FFC39420EE941077
:1021D800400ED3EF9425EE94105005EF24E0802BA9
:1021E800908AD4E0FEA3E0FFC39470EE94104027D9
:1021F800D3EF9475EE9410501E1232F1908AD7EEF8
:10220800F0A3EFF0908AD4A3E02490FF908AD7E05F
:10221800FCA3E0FD023704908AD4E0B4200FA3E0C9
:10222800B4250A908AD7E0FEA3E0FF800F908AD4F5
:10223800E0B4200BA3E0B426061232F10235019077
:102248008AD4E0FEA3E0FF64087003EE64486014DB
:10225800EF640A7003EE6448600AEF640C7003EEE2
:1022680064487028908AD7E0FEA3E0FF7D461232CA
:10227800FBAB07AA06908AD5E024F8FF908AD4E041
:1022880034B7C313EF1304FF7D018041908AD4E073
:10229800FEA3E0FF64187003EE64486014EF641A4C
:1022A8007003EE6448600AEF641C7003EE644870C3
:1022B8001F1232F1AB07AA06908AD5E024E8FF90F6
:1022C8008AD4E034B7C313EF1304FFE4FD123A4B8A
:1022D8002278BF7C8A7D017BFF7AD479D27E007F09
:1022E80002126AFC7B017A8A79BF908B7EE4F0A3A4
:1022F80004F07F217E487D007C001289D9908AC035
:10230800E0909232F07B017A8A79BF908B7EE4F07C
:10231800A304F07F807E107D007C001289D9908A0A
:10232800C0E0909233F07B017A8A79BF908B7EE48B
:10233800F0A304F07F817E107D007C001289D99083
:102348008AC0E0909234F07B017A8A79BF908B7EC4
:10235800E4F0A304F07F207E487D007C001289D938
:10236800908AC0E0909235F07B017A8A79BF908B91
:102378007EE4F0A304F07F827E107D007C00128949
:10238800D9908AC0E0909236F07B017A8A79BF9022
:102398008B7EE4F0A304F07F837E107D007C001226
:1023A80089D9908AC0E0909237F07B017A8A79BF08
:1023B800908B7EE4F0A304F07F267E487D007C00AD
:1023C8001289D9908AC0E0909238F0908AC5126F2D
:1023D8000F000048307F2412359C909239EFF07B33
:1023E800017A8A79BF908B7EE4F0A304F07F257E82
:1023F800487D007C001289D9908AC0E0909254F000
:102408007B017A8A79BF908B7EE4F0A304F07F8405
:102418007E107D007C001289D9908AC0E090925588
:10242800F07B017A8A79BF908B7EE4F0A304F07F79
:10243800857E107D007C001289D9908AC0E0909238
:1024480056F07B017A8A79BF908B7EE4F0A304F082
:102458007F277E487D007C001289D9908AC0E09051
:102468009257F07B017A8A79BF908B7EE4F0A304BF
:10247800F07F867E107D007C001289D9908AC0E0AA
:10248800909258F07B017A8A79BF908B7EE4F0A312
:1024980004F07F877E107D007C001289D9908AC065
:1024A800E0909259F07B017A8A79BF908B7EE4F0B4
:1024B800A304F07F367E487D007C001289D9908A7B
:1024C800C0E090925AF07B017A8A79BF908B7EE4C3
:1024D800F0A304F07F377E487D007C001289D990F4
:1024E8008AC0E090925BF0908AC5126F0F00004896
:1024F800327F3812359C90925CEFF02290924DE03A
:102508007002A3E070030226BF7B017A8A79BF902C
:102518008B7EE4F0A304F07F1B7E207D007C0012FC
:1025280089D9908ABFE07002A3E0700790924DF0BD
:10253800A3F0227B017A8A79C1908B7EE4F0A30410
:10254800F07F707E367D007C001289D9908AC1E0C8
:102558007002A3E070187B017A8A79C1908B7EF0B3
:10256800A304F07F127E107D007C001289D9D390DD
:102578008AC2E09400908AC1E094004067E4FFFEBC
:10258800FDFC90923BE0F8A3E0F9A3E0FAA3E0FB9E
:10259800D3126E92404E1291A790923BE0F8A3E0BE
:1025A800F9A3E0FAA3E0FBC3EF9BFFEE9AFEED99D7
:1025B800FDEC98FCC004C005C006C007908AC1E0C5
:1025C800FEA3E0FF7C007D3C126FBFA804A905AA0A
:1025D80006AB07D007D006D005D004D3126E9250B0
:1025E800030226867B017A8A79C3908B7EE4F0A366
:1025F8007402F07F067E107D007C001289D97B0171
:102608007A8A79C7908B7EE4F0A37402F07F147EF7
:10261800107D007C001289D9E4FFFEFDFC90923BFE
:10262800E0F8A3E0F9A3E0FAA3E0FBD3126E92402E
:102638002A1291A790923BE0F8A3E0F9A3E0FAA34D
:10264800E0FBC3EF9BFFEE9AFEED99FDEC98FCE4EE
:102658007B3CFAF9F8D3126E92505C908AC7E0FC82
:10266800A3E0FDA3E0FEA3E0FF908AC3E0F8A3E0A7
:10267800F9A3E0FAA3E0FB12664A603B4039E49014
:102688008ACBF0A3F090924DF0A3F090923B126F9A
:102698000F0000000012D1C37B017A8A79CB908C9D
:1026A800D4E4F0A304F07F1B7E207D007C0012960A
:1026B800A312D1C012D21A2212CB77EFD394067488
:1026C8008094804002E4FFEF64037005FE7F018080
:1026D800047E007F00908AB8EEF0A3EFF07B017AC9
:1026E8008A79B8908CD4E4F0A304F07F437E307DDF
:1026F800007C001296A3E4908ABAF0A3F07B017ADA
:102708008A79B8908B7EF0A304F07F217E487D0003
:102718007C001289D9908AB8E07002A3E060089022
:102728008ABAE4F0A304F0908ABAE07002A3E070D9
:102738002A7B017A8A79B8908B7EF0A304F07F20F7
:102748007E487D007C001289D9908AB8E07002A387
:10275800E06008908ABAE4F0A304F0908ABAE070C6
:1027680002A3E0702A7B017A8A79B8908B7EF0A365
:1027780004F07F257E487D007C001289D9908AB8B4
:10278800E07002A3E06008908ABAE4F0A304F09035
:102798008ABAE07002A3E0702A7B017A8A79B8903D
:1027A8008B7EF0A304F07F277E487D007C00128991
:1027B800D9908AB8E07002A3E06008908ABAE4F081
:1027C800A304F0908ABAE07002A3E07E0060047F60
:1027D8000180027F00908AB8EEF0A3EFF07B017AC7
:1027E8008A79B8908CD4E4F0A304F07F047E207D2D
:1027F800007C001296A37B017A8A79BC908B7EE4D8
:10280800F0A304F0FF7E207D007C001289D990920D
:102818002EE0FE908ABCE0FF6E600B12300D908AAD
:10282800BCE090922EF090924DE07002A3E07E0002
:1028380060047F0180027F00908AB8EEF0A3EFF079
:102848007B017A8A79B8908CD4E4F0A304F07F41B4
:102858007E307D007C000296A33030030229B3301D
:1028680023030229B3C3909280E0942090927FE0E2
:10287800944E50030229B32025030229B3123ABC0F
:10288800EF64424E600D123ABC90926EEFF07F42B8
:1028980012CAAC7B017A8A79BC908B7EE4F0A304DF
:1028A800F07F047E207D007C001289D97B017A8A22
:1028B80079BA908B7EE4F0A304F0FF7E207D007C43
:1028C800001289D97B017A8A79BE908B7EE4F0A3C5
:1028D80004F07F077E467D007C001289D9908ABE6D
:1028E800E07002A3E06008908AB97404F08039901F
:1028F8008ABCE07002A3E07006908AB9F080299043
:102908008ABAE0FEA3E0FFEE7018EF24FE600B0425
:102918007010908AB97401F0800E908AB97402F030
:102928008006908AB97403F0908AB9E0FF909231DA
:10293800E06F6077E4908AB8F0908AB8E0FFC394BB
:102948000574809480505CA3E06F601F908AC07407
:10295800FFF0A3E4F0A3F0A3F0908AB8E075F002CA
:10296800A42460FFE5F03430FE801D908AB8E0753D
:10297800F002A42460FFE5F03430FE908AC0F0A392
:10298800EFF0A3E4F0A304F0E4FCFD7B017A8A797C
:10299800C2908CD4F0A304F01296A3908AB8E004F5
:1029A800F08096908AB9E0909231F0227B017A8A81
:1029B80079C2908B7EE4F0A304F07F377E487D00D7
:1029C8007C001289D97B017A8A79C4908B7EE4F0E5
:1029D800A304F07F387E487D007C001289D97B01F2
:1029E8007A8A79C6908B7EE4F0A304F07F817E30EA
:1029F8007D007C001289D9E4908ABFF0908ABFE0FC
:102A0800FFC39406748094804003022AD7E4908A16
:102A1800C8F0A3F0EF2460FFE43448FEE4FCFD7B3B
:102A2800017A8A79C8908B7EF0A304F01289D99034
:102A38008AC8E07002A3E07003022ACE908AC0E43C
:102A4800F0A304F0908ABFE02410FFE43440FEE4D1
:102A5800FCFD7B017A8A79C0908CD4F0A304F01233
:102A680096A3908ABFE02400FFE43447FEE4FCFD0F
:102A78007B017A8A79C2908CD4F0A304F01296A3D1
:102A8800908ABFE02420FFE43410FEE4FCFD7B01C3
:102A98007A8A79C4908CD4F0A304F01296A3908A11
:102AA800BFE02410FFE43447FEE4FCFD7B017A8A92
:102AB80079C6908CD4F0A304F01296A3908ABFE054
:102AC800FFE4FD12D1C6908ABFE004F0022A040296
:102AD800CF267B017A8A79CB908B7EE4F0A304F031
:102AE8007F107E307D007C001289D97B017A8A793B
:102AF800CB908CD4E4F0A304F07F707E307D007C12
:102B0800001296A37B017A8A79CD908B7EE4F0A39C
:102B180004F07F117E307D007C001289D9908ACB29
:102B2800E0FEA3E0FFA3E0FCA3E0FD12D0D7908A6B
:102B3800CFEEF0A3EFF07B017A8A79CF908CD4E4C2
:102B4800F0A304F07F727E307D007C001296A37B98
:102B5800017A8A79C9908B7EE4F0A304F07F127E13
:102B6800307D007C001289D97B017A8A79C9908CE2
:102B7800D4E4F0A304F07F737E307D007C001296CD
:102B8800A37B017A8A79C9908B7EE4F0A304F07F55
:102B9800137E307D007C001289D97B017A8A79C93D
:102BA800908CD4E4F0A304F07F747E307D007C0028
:102BB8001296A37B017A8A79C9908B7EE4F0A304EC
:102BC800F07F147E307D007C001289D97B017A8ADF
:102BD80079C9908CD4E4F0A304F07F757E307D0031
:102BE8007C000296A37B017A8A79C9908B7EE4F0F7
:102BF800A304F07F027E207D007C001289D9908A90
:102C0800C9A3E0FFE4FD123A14908ACDEEF0A3EFD9
:102C1800F0908AC9A3E0FF7D01123A14908ACFEEA2
:102C2800F0A3EFF0908ACFE07002A3E07018908ACA
:102C3800CDE0FEA3E0FF4E600D7D461232FB908A88
:102C4800CFEEF0A3EFF0908ACDE07002A3E0701809
:102C5800908ACFE0FEA3E0FF4E600D7D431232FB69
:102C6800908ACDEEF0A3EFF07B017A8A79CD908C33
:102C7800D4E4F0A304F07F257E207D007C0012962A
:102C8800A37B017A8A79CF908CD4E4F0A304F07FF7
:102C9800267E207D007C001296A37B017A8A79CB60
:102CA800908B7EE4F0A304F07F037E207D007C00FF
:102CB8001289D9908ACBE07002A3E070177F0812BE
:102CC800CAAC7B017A8A79CD908CD4E4F0A304F065
:102CD8007F0580157F2B12CAAC7B017A8A79CF9049
:102CE8008CD4E4F0A304F07F067E207D007C0012E3
:102CF80096A32212D1E1EF6062E4908AB8F0908A3C
:102D0800B8E0FFC3940674809480504CEF2410FF01
:102D1800E43440FEE4FCFD7B017A8A79B9908B7E2D
:102D2800F0A304F01289D9D3908ABAE09401908A6A
:102D3800B9E094004005E4F0A304F0908AB9A3E058
:102D4800FF908AB8E0245EF582E43492F583EFF0D0
:102D5800908AB8E004F080A6022DFCE4908AB8F0CE
:102D6800908AB8E0FFC39406748094804003022DD3
:102D7800FCEF2410FFE43440FEE4FCFD7B017A8A7A
:102D880079B9908B7EF0A304F01289D9D3908ABACE
:102D9800E09401908AB9E094004005E4F0A304F0BF
:102DA800909251E07017908AB9A3E0FF908AB8E03A
:102DB800245EF582E43492F583EFF0802E908AB990
:102DC800A3E0FE908AB8E0245EF582E43492F583AD
:102DD800E0FFEE6F6015908AB8E0FF245EF582E4AC
:102DE8003492F583EEF0E4FD12D1C6908AB8E0047F
:102DF800F0022D689092517401F022E4908B63F0F8
:102E0800A3F0A3F0A374FFF0E4908B65F0908B65BA
:102E1800E0FFC39406748094805037EF2410FFE4D9
:102E28003440FEE4FCFD7B017A8B7963908B7EF065
:102E3800A304F01289D9908B63E07004A3E06401C5
:102E48007008908B65E0A3F08008908B65E004F033
:102E580080BBE4908B63F0A3F0908B66E0FFC39493
:102E680006748094805060EF75F020A42401FFE57B
:102E7800F03411FEE4FCFD7B017A8B7963908B7E44
:102E8800F0A304F01289D9D3908B64E09404908B5A
:102E980063E094004031908B66E02400FFE43447FF
:102EA800FEE4FCFD7B017A8B7963908B7EF0A304B2
:102EB800F01289D9D3908B64E09404908B63E094EA
:102EC800004004E4F0A3F07B017A8B7963908CD402
:102ED800E4F0A304F0FF7E207D007C001296A3900E
:102EE8009225E0FF908B63E0FCA3E0FD6F7001EC9E
:102EF800600EAF0512300D908B63A3E0909225F021
:102F080022908AC9EFF0908ACB74FFF0C3EF940641
:102F180074809480400302300CE4908ACAF0908A4E
:102F2800CAE0FFC39406748094805037EF2410FFE2
:102F3800E43440FEE4FCFD7B017A8A79CC908B7EF8
:102F4800F0A304F01289D9908ACCE07004A3E0645D
:102F5800017008908ACAE0A3F08008908ACAE00449
:102F6800F080BB908ACBE0FFF4700302300C908AAB
:102F7800C9E0FE6F600302300CEE2400FFE4344722
:102F8800FEE4FCFD7B017A8A79CE908B7EF0A30467
:102F9800F01289D9D3908ACFE09404908ACEE09435
:102FA800004004E4F0A3F0908AC9E075F020A4245E
:102FB80001FFE5F03411FEE4FCFD7B017A8A79CE4D
:102FC800908CD4F0A304F01296A37B017A8A79CE70
:102FD800908CD4E4F0A304F0FF7E207D007C0012E6
:102FE80096A37B017A8A79CE908CD4E4F0A304F07E
:102FF8007F177E407D007C001296A3908ACEA3E0C6
:10300800FF12300D22EFD394047480948040027F25
:1030180004EF14601C14602B14603A24037047906A
:103028008B67E4F0A37432F0A3E4F0A37442F08059
:1030380045908B67E4F0A37446F0A3E4F0A37456BC
:10304800F08033908B67E4F0A37414F0A3E4F0A34A
:103058007424F08021908B67E4F0A304F0A3E4F0DB
:10306800A37411F08010908B67E4F0A37428F0A388
:10307800E4F0A37431F07B017A8B7969908CD4E405
:10308800F0A304F07F067E807D007C001296A37B6F
:10309800017A8B7967908CD4E4F0A304F07F077EE3
:1030A800807D007C001296A37B017A8B7969908CD5
:1030B800D4E4F0A304F07F087E807D007C001296A3
:1030C800A3908B6BE4F0A304F0FB7A8B796B908C64
:1030D800D4E4F0A304F07F607E407D007C0012966B
:1030E800A3E4908B6BF0A3F07B017A8B796B908CC7
:1030F800D4F0A304F07F607E407D007C000296A39C
:10310800908AC9EFF0A3ECF0A3EDF07B017A8A79FD
:10311800CC908B7EE4F0A304F07F037E207D007CBE
:10312800001289D9908AC9E0FF908ACCA3E0FD12E9
:103138003835908AD0126F03908AD0E0FCA3E0FD66
:10314800A3E0FEA3E0FFEC4D4E4F70030231FC7B81
:10315800017A8A79CE908B7EE4F0A304F01289D9A3
:10316800908ACEE0FEA3E0FF908ACBE02FFF908A02
:10317800CAE03E908ACEF0A3EFF0A3E0FCA3E0FD06
:10318800A3E0FEA3E0FF7B017A8A79CE908CD4E499
:10319800F0A304F01296A3908AD0A3A3E0FEA3E0C4
:1031A800FF908ACCE07002A3E07D4360027D461266
:1031B800202E908AD0E0FCA3E0FDA3E0FEA3E0FF70
:1031C8007B017A8A79CE908B7EE4F0A304F0128991
:1031D800D9908ACCE07002A3E0908ACE60051232C2
:1031E800F48005E0FEA3E0FF12350112D1C012D130
:1031F800B412D20B227B017A8A79CF908B7EE4F0CD
:10320800A304F07F707E307D007C001289D97B0199
:103218007A8A79D1908B7EE4F0A304F07F727E30B5
:103228007D007C001289D97B017A8A79D3908B7EC4
:10323800E4F0A304F07F737E307D007C001289D90E
:103248007B017A8A79D5908B7EE4F0A304F07F74B1
:103258007E307D007C001289D97B017A8A79D790EB
:103268008B7EE4F0A304F07F757E307D007C001235
:1032780089D9908ACFE0FEA3E0FFC394D0EE9407EB
:10328800400CEF2430FFEE34F8908AD9800B908AF6
:10329800CFE0FFA3E0908AD9CFF0A3EFF0908ADACD
:1032A800E0FE908AD2E0FDEDFF908AC9EEF0A3EF30
:1032B800F0908AD4E0FE908AD6E0FDEDFF908ACBAC
:1032C800EEF0A3EFF0908AD8E0908ACDF0A3E4F076
:1032D8007B017A8A79C9908CD4F0A37403F07F9D1E
:1032E8007E007D007C000296A3908AD7E0FEA3E0D2
:1032F800FF7D43908B63EDF06443703AC3EF94EA2B
:10330800EE6480947F50067EFF7FEA800FD3EF94AF
:103318000AEE6480948140047E017F0AEF24E0FF76
:10332800EE34FFFE7C007D32126BCF7D09126C36C5
:10333800908B64EE803E908B63E06446703AC3EFF6
:1033480094E2EE6480947F50067EFF7FE2800FD384
:10335800EF9482EE6480948040047E007F827C003B
:103368007D5A126BCF7D05126C36EF2440FFEE3488
:1033780001908B64F0A3EFF0908B64E0FEA3E0FF74
:10338800D39400EE648094804008EF2405FFE43E67
:10339800800D908B65E024FBFF908B64E034FFFE8A
:1033A8007C007D0A126C36908B64EEF0A3EFF0225D
:1033B800E4908AC1F0A3F0EF70047F068005C3EFA4
:1033C8009401FF908ABFEFF0E4908AC3F0908AC31B
:1033D800E0FFC39407748094805049EF2410FFE401
:1033E8003445FEE4FCFD7B017A8A79C0908B7EF03F
:1033F800A304F01289D9908AC0E06020908AC3E0C3
:10340800FF7E007401A807088005C333CE33CED8E9
:10341800F9FF908AC1E04EF0A3E04FF0908AC3E034
:1034280004F080A9908AC1E0FCA3E0FD4C70037F02
:103438000122908ABFE0FF7E007401A8070880057A
:10344800C333CE33CED8F9FFEC5EFEED5F4E7F007E
:1034580060027F0122E4908AC1F0A3F0EF70047F3C
:10346800068005C3EF9401FF908ABFEFF0E4908ACD
:10347800C3F0908AC3E0FFC39407748094805048D7
:10348800E42FFFE43445FEE4FCFD7B017A8A79C031
:10349800908B7EF0A304F01289D9908AC0E0602056
:1034A800908AC3E0FF7E007401A807088005C33333
:1034B800CE33CED8F9FF908AC1E04EF0A3E04FF0AA
:1034C800908AC3E004F080AA908AC1E0FCA3E0FDE2
:1034D8004C70037F0122908ABFE0FF7E007401A830
:1034E80007088005C333CE33CED8F9FFEC5EFEED76
:1034F8005F4E7F0060027F0122908B46EEF0A3EFC3
:10350800F0908B46E0FEA3E0FF7D461232FB908BE5
:1035180048EEF0A3EFF07B017A8B7946908CD4E4E7
:10352800F0A304F07F057E207D007C001296A37B2B
:10353800017A8B7948908CD4E4F0A304F07F067E5E
:10354800207D007C001296A37B017A8B794A908BB0
:103558007EE4F0A304F07F027E207D007C001289C7
:10356800D9908B4AE0FEA3E0FFC39401EE9400409B
:1035780022D3EF9403EE94005019908B46123A44EC
:10358800908B4AA3E0FF908B48E0FAA3E0FB7D0113
:10359800123A4B227E487D007C00908AC1126F034C
:1035A8007B017A8A79C9908B7EE4F0A304F07F03CB
:1035B8007E207D007C001289D9908AC9E07002A320
:1035C800E0602C908AC5E0FCA3E0FDA3E0FEA3E048
:1035D800FF7B017A8A79CD908B7EE4F0A304F01208
:1035E80089D9908ACDE0FEA3E0FF7D430232FB90AB
:1035F8008AC1E0FCA3E0FDA3E0FEA3E0FF7B017A23
:103608008A79CB908B7EE4F0A304F01289D9908A52
:10361800CBE0FEA3E0FF22E4908AC0F0A3F0908AFA
:10362800BFF0908ABFE0FFC3940674809480505C1A
:10363800E4908AC2F0A3F0EF2460FFE43448FEE48B
:10364800FCFD7B017A8A79C2908B7EF0A304F0128C
:1036580089D9908AC2E07002A3E06028908ABFE00E
:103668002410FFE43440FEE4FCFD7B017A8A79C033
:10367800908CD4F0A304F01296A3908ABFE0FFE4E4
:10368800FD12D1C6908ABFE004F0809602CF267B57
:10369800017A8B7942908B7EE4F0A304F07F027E5E
:1036A800207D007C001289D97B017A8B7944908B2C
:1036B8007EE4F0A304F07F037E207D007C00128965
:1036C800D9908B42E0FEA3E0FFC39401EE94004042
:1036D8002AD3EF9403EE94005021A3A3E0FD123AFD
:1036E80014908B44E07002A3E06009EF4E60057D02
:1036F800431232FBEF4E600312350122908B43ECEC
:10370800F0A3EDF0908B42EFF0C3940674809480A0
:10371800504FA3E0FEA3E0FF7D461232FB908B459D
:10372800EEF0A3EFF0908B42E02420FFE43410FE8B
:10373800E4FCFD7B017A8B7943908CD4F0A304F0F0
:103748001296A3908B42E02470FFE43410FEE4FC50
:10375800FD7B017A8B7945908CD4F0A304F0129606
:10376800A322E4908B63F0908B63E0FFC39406740C
:10377800809480504CEF2410FFE43440FEE4FCFDBC
:103788007B017A8B7964908B7EF0A304F01289D93F
:10379800D3908B65E09401908B64E094004005E43D
:1037A800F0A304F0908B64A3E0FF908B63E0245EA9
:1037B800F582E43492F583EFF0908B63E004F080B7
:1037C800A69092517401F02278B87C8A7D017BFF23
:1037D8007AD479CE7E007F04126AFC7B017A9279D2
:1037E80081908B7EE4F0A37402F07F007E0F7D0051
:1037F8007C001289D9909281E0645A702DA3E0FE72
:10380800A3E0FDEDFF909240EEF0A3EFF07B017A8C
:103818008A79B8908CD4E4F0A37402F07F007E0F0C
:103828007D007C001296A37F01227F0022908B4EA0
:10383800EFF0C3940174809480400AD3EF9403742A
:103848008094804006E4FFFEFDFC22ED908B4E60E4
:103858001BE024FFFFE434FFFE3395E0FDFCE47B2E
:1038680002FAF9F8126D51EF24188019E024FFFFCD
:10387800E434FFFE3395E0FDFCE47B02FAF9F8122C
:103888006D51EF2408FFEE3448FEE43DFDE43CFCB6
:10389800227E487D007C00908B42126F03908B4AF9
:1038A800E0FEA3E0FF7D461232FB908B4CEEF0A3C6
:1038B800EFF0908B42E0FCA3E0FDA3E0FEA3E0FF65
:1038C8007B017A8B794A908CD4E4F0A304F01296A9
:1038D800A3908B46E0FCA3E0FDA3E0FEA3E0FF7B02
:1038E800017A8B794C908CD4E4F0A304F00296A36F
:1038F8007E487D007C007B017A8B794A908B7EE440
:10390800F0A37402F01289D9908B4AE0FCA3E0FD81
:10391800A3E0FEA3E0FF1267017D461232FBAC066E
:10392800AD07EC1266C8908B4E126F03908B46E081
:10393800FCA3E0FDA3E0FEA3E0FF7B017A8B794EB8
:10394800908CD4E4F0A37402F00296A3908AC9EF95
:10395800F0A3E0FCA3E0FDA3E0FEA3E0FF126701F3
:10396800908AD0EEF0A3EFF07D461232FB908ACE1B
:10397800EEF0A3EFF0908AC9E0908AD0123A439013
:103988008AC9E0FF908ACEE0FAA3E0FB7D01023A03
:103998004BE4908B35F0A3F0201A0A123ABC123A85
:1039A800965031802C7B017A8B7935908B7EE4F0B0
:1039B800A304F07F037E207D007C001289D9908BC0
:1039C80035E07002A3E070047F0180027F1E12CAF6
:1039D800AC12D1ED22202402802612D1A2EF600978
:1039E8007F1712CAACC224801790922FE004F0E02F
:1039F800C3941E74809480400C7F1512CAACC224F4
:103A0800E490922FF022908ABFA3E0FDE4908B46C9
:103A1800F0A3F0123835EC4D4E4F60117B017A8BD4
:103A28007946908B7EE4F0A304F01289D9908B46F6
:103A3800E0FEA3E0FF22A3E0908ABFFFE0FAA3E044
:103A4800FBE4FD908B4CEAF0A3EBF0123835EC4D1B
:103A58004E4F60117B017A8B794C908CD4E4F0A3A3
:103A680004F01296A322302324909230E0C3940FDE
:103A7800748094805004E004F022C223E4909230D1
:103A8800F0D21912D188E490927FF0A3F022C21BE1
:103A9800E4FEEEC3940874809480501574442EF5A7
:103AA80082E43492F583E0B50704D21B80030E80CC
:103AB800E1A21B227B017A8B7937908B7EE4F0A3FD
:103AC80004F07F147E007D007C001289D9908B372A
:103AD800E0FEA3E0FF22E4908B35F0A3F07B017AAF
:103AE8008B7935908B7EF0A304F07F037E207D00D8
:103AF8007C001289D9021A71909324EEF0A3EFF09A
:103B08007B017A937924908CD4E4F0A304F07F218C
:103B18007E407D007C000296A3909326EEF0A3EFF2
:103B2800F07B017A937926908CD4E4F0A304F07F9B
:103B3800217E407D007C000296A3908AC9EEF0A306
:103B4800EFF07B017A8A79C9908CD4E4F0A304F071
:103B5800FF7E207D007C000296A31237D0EF60180C
:103B6800909240E0FFA3E0909264CFF0A3EFF0D2F0
:103B780026E490927FF0A3F022EF4E7E0060047F4F
:103B88000180027F0090926CEEF0A3EFF0229092F9
:103B980052E0D39400748094804002D322C32290D0
:103BA8009252E0D39400748094804003E014F02291
:103BB800909252E0FEEFD39E4002EFF02290926C7A
:0F3BC800E0FEA3E0FF22123BA7123B62020100C6
:10410000C0087441C0E0C082C08375080A750C0005
:1041100012C12422C0087441C0E0C082C083750867
:104120001E750C0112C12422C0087441C0E0C08277
:10413000C083750832750C0212C12422C008744174
:10414000C0E0C082C083750846750C0312C12422EA
:10415000C0087441C0E0C082C08375085A750C0461
:1041600012C12422C0087441C0E0C082C083750817
:104170006E750C0512C12422C0087441C0E0C082D3
:10418000C083750882750C0612C12422C0087441D0
:10419000C0E0C082C083750896750C0712C1242246
:1041A000903A4B2114902CFB211490376A211490E3
:1041B0003BB82114903BC52114903B812114903AC7
:1041C000BC2114903BCE2114902E032114903999D8
:1041D000211490350121149032FB2114903ADE21F4
:1041E00014901D6821149026C021149039DD2114EB
:1041F000903A6E21149028612114901BFC2150905C
:104200001BFF2150901BF6215090137A2150901CD7
:10421000022150901BB521509018622150901BED47
:104220002150901BC82150901BDB2150901B19215D
:1042300050901B9D21509019AF216490033521644B
:1042400090055C216490074821649011BF2164901F
:1042500012AC21649020032164901F0F21649013FD
:10426000992164901B932164901C6D2164901E0A17
:104270002164901CAD2164901E672164901E392139
:1042800064901E912164901EBB2164901EE5216400
:10429000901CEA216490186E216490163421649079
:1042A00016A62164901718216490178A2164901D26
:1042B0002721649017FC2164901D6421649020B92B
:1042C00021649020CE21649018DF2164901A7B2114
:1042D0006490152D21649010BD2164901DD7216438
:1042E0009020D42164901C292164901B3F216400FC
:1042F000E4908ACDF0A3F0908AE1F0A3F0A3F0A3BC
:10430000F0A3F0A3F0A3F0A3F0A3F0A3F0908AF140
:10431000F0A3F078F37C8A7D017BFF7AD479FDFEEF
:104320007F08126AFCE4908AFBF0A3F0908FF2E021
:1043300064016003025678F012D17690841CE06428
:10434000017012908EEAE02405FEE433908AE5F0D5
:10435000A3CEF08009908AE5E4F0A37408F0908A77
:10436000E5E0FEA3E0FF24E7F582748E3EF583E0EE
:10437000908ACFF074E62FF582748E3EF583E0903C
:104380008AD0F0908ACFE0FFA3E0908AE7CFF0A335
:10439000EFF07B017A8E79E8908AE6E024FEFD90CA
:1043A0008AE5E034FFFC12ACCA908AE9EEF0A3EF94
:1043B000F0908AE7E0B5061DA3E0B5071890841ECB
:1043C000E0FF908ACDE4F0A3EFF0E4908233F09028
:1043D000841CE0801A74FF908ACDF0A3F090841CB6
:1043E000E0600C90841EE064057004C211D201905C
:1043F000841CE064016003025545908ACDE0FEA371
:10440000E0FFEE6003025678EF24FC70030247924F
:1044100024FE7003024B7A24FE70030252D51470FE
:10442000030250A724FD70030253E5240760030232
:10443000567830100302478B908EEBE0908ACFF0D5
:10444000908EECE0908AD0F0908ACFE0FEA3E04E10
:104450007E0060047F0180027F00908AFDEEF0A361
:10446000EFF0D39081F1E094009081F0E09400406F
:104470001C908235E0FEA3E0FF908AFDE06E7003A1
:10448000A3E06F70729081F0F0A3F0806A7B017AF4
:104490008B7901908B7EE4F0A304F07F217E407D38
:1044A000007C001289D9D3908B02E09401908B019B
:1044B000E094004005E4F0A304F0908AFDE0FEA340
:1044C000E0FF908B01E06E7003A3E06F60297B0139
:1044D0007A8A79FD908CD4E4F0A304F07F217E40A9
:1044E0007D007C001296A3908AFDE0FEA3E0FF12FF
:1044F000D1F97F0812D1FC7B017A807903908B7E01
:10450000E4F0A304F07F027E207D007C001289D9B4
:10451000908EEDE0908ACFF0908EEEE0908AD0F011
:10452000908ACFE0FFA3E0908AD9CFF0A3EFF0907C
:1045300081F0E07002A3E07033908AD9E0FEA3E03E
:10454000FF908003E06E7003A3E06F601F7B017A31
:104550008A79D9908CD4E4F0A304F07F027E207D88
:10456000007C001296A312C82712426D7B017A804C
:104570007901908B7EE4F0A304F07F087E487D00F3
:104580007C001289D9908EEFE0908ACFF0908EF067
:10459000E0908AD0F0908ACFE0FEA3E0FF7C007D1F
:1045A0000A126BE1908ADBEEF0A3EFF0908ADBE079
:1045B000FAA3E0FB908001E06A7003A3E06B606106
:1045C000E4FD7F011241A0908ADBE0FEA3E0FF7DC5
:1045D000461241D7AB07AA067D017F011241A07B9D
:1045E000017A8A79FF908B7EE4F0A304F07F027E4B
:1045F000207D007C001289D9908AFFE07004A3E03E
:104600006401700B908ADBE0FEA3E0FF1241D2123E
:10461000C827908AFFE07004A3E06401700312428F
:10462000727B017A807901908B7EE4F0A304F07FA5
:104630000A7E487D007C001289D9908EF1E0908A34
:10464000CFF0908EF2E0908AD0F0908ACFE0FEA377
:10465000E0FF7C007D0A126BE1908ADBEEF0A3EFB5
:10466000F0908ADBE0FAA3E0FB908001E06A70033F
:10467000A3E06B6061E4FD7F021241A0908ADBE061
:10468000FEA3E0FF7D461241D7AB07AA067D017F5E
:10469000021241A07B017A8A79FF908B7EE4F0A31D
:1046A00004F07F027E207D007C001289D9908AFF71
:1046B000E07004A3E06402700B908ADBE0FEA3E0EC
:1046C000FF1241D212C827908AFFE07004A3E06471
:1046D0000270031242727B017A807901908B7EE432
:1046E000F0A304F07F0C7E487D007C001289D990F5
:1046F0008EFDE0908ACFF0908EFEE0908AD0F09010
:104700008ACFE0FEA3E0FF7C007D0A126BE1908A75
:10471000DBEEF0A3EFF0908ADBE0FAA3E0FB908001
:1047200001E06A7003A3E06B6061E4FD7F03124166
:10473000A0908ADBE0FEA3E0FF7D461241D7AB07E5
:10474000AA067D017F031241A07B017A8A79FF903E
:104750008B7EE4F0A304F07F027E207D007C0012BB
:1047600089D9908AFFE07004A3E06403700B908AFB
:10477000DBE0FEA3E0FF1241D212C827908AFFE0DF
:104780007004A3E064037003124272C211D20102EA
:1047900050A47B017A8A79D5908B7EE4F0A304F053
:1047A0007F037E207D007C001289D9908AD5E0703D
:1047B00002A3E07003024898E4908AE1F0A3F0902D
:1047C0008AE1E0FCA3E0FD25E0FFEC33FE74EB2F73
:1047D000F582748E3EF583E0908ACFF074EC2FF56D
:1047E00082748E3EF583E0908AD0F074822DF5823B
:1047F00074823CF583E06048E4908ADFF0A3F09097
:104800008ACFE0FEA3E0FF7C007D0A126BE1908A74
:10481000DFEEF0A3EFF0908ADFE0FEA3E0FF7D463D
:104820001241D7908ACFEEF0A3EFF0908AE2E02514
:10483000E0FF908AE1E033FEE42FFFEE3434801392
:10484000908AE2E025E0FF908AE1E033FEE42FFF6A
:10485000EE3444FEE4FCFD7B017A8A79CF908CD45F
:10486000F0A37402F01296A3908AE2E0540364036A
:10487000700312D176908AE2E004F07006908AE12B
:10488000E004F0C3908AE2E09419908AE1E0940099
:1048900050030247BF02496AE4908AE1F0A3F09016
:1048A0008AE1E0FCA3E0FD25E0FFEC33FE74EB2F92
:1048B000F582748E3EF583E0908ACFF074EC2FF58C
:1048C00082748E3EF583E0908AD0F074822DF5825A
:1048D00074823CF583E0603DE4908ADFF0A3F090C1
:1048E0008ACFE0FEA3E0FF7C007D0A126BE1908A94
:1048F000DFEEF0A3EFF0908AE2E025E0FF908AE19E
:10490000E033FEE42FFFEE3444FEE4FCFD7B017A4D
:104910008A79DF801D908AE2E025E0FF908AE1E05D
:1049200033FEE42FFFEE3444FEE4FCFD7B017A8A83
:1049300079CF908CD4F0A37402F01296A3908AE2FF
:10494000E054036403700312D176908AE2E004F02D
:104950007006908AE1E004F0C3908AE2E094199036
:104960008AE1E09400500302489F908B0C7401F0A0
:10497000A37482F0A37482F0E4A3F07D1912AFA3B4
:104980007DDA12C33F7C007D0A126BE1908ADBEE78
:10499000F0FAA3EFF0FB908B0C126F0F00004810A1
:1049A000AD03AC02E41266C8908B10126F037F0057
:1049B00012AA79EF60091242C2EF60031242A47D8D
:1049C000DC12C33F7C007D0A126BE1908ADBEEF0C3
:1049D000FAA3EFF0FB908B0C126F0F00004812ADA2
:1049E00003AC02E41266C8908B10126F037F0212B0
:1049F000AA79EF60091242C2EF60031242957B016F
:104A00007A8E79E87DDD7C0012C3477C007D0A1236
:104A10006BE1908ADBEEF0FAA3EFF0FB908B0C12C7
:104A20006F0F00004814AD03AC02E41266C8908B0F
:104A300010126F037F0412AA79EF60091242C2EFCD
:104A4000600312429A7B017A8E79E87DD67C00124F
:104A5000C347908AD7EEF0A3EFF07B017A8A79D72B
:104A6000908CD4E4F0A304F07F047E107D007C00E1
:104A70001296A37B017A8E79E87DD77C0012C3471A
:104A8000908AFDEEF0A3EFF0D3E09406908AFDE06B
:104A900094004006E4F0A37406F07B017A8A79D78B
:104AA000908B7EE4F0A304F07F167E407D007C00B6
:104AB0001289D9908AFDE0FEA3E0FF908AD7E06ECC
:104AC0007003A3E06F60197B017A8A79FD908CD422
:104AD000E4F0A304F07F167E407D007C001296A3D4
:104AE0007B017A8E79E87DCD7C0012C347908AD90C
:104AF000EEF0A3EFF090841DE06012908AD9E07090
:104B000002A3E0606E90822F7401F080667B017AD0
:104B1000807903908B7EE4F0A304F07F1B7E207DE0
:104B2000007C001289D9908AD9E0FEA3E0FF908032
:104B300003E06E7003A3E06F60397B017A8A79D954
:104B4000908CD4E4F0A304F07F1B7E207D007C00D9
:104B50001296A3908AD9E07002A3E07E0060047FE1
:104B60000180027F0090924DEEF0A3EFF012C82773
:104B7000124286C201D2060250A47B017A8A79D5FC
:104B8000908B7EE4F0A304F07F037E207D007C0008
:104B90001289D9908AD5E07002A3E07003024C829A
:104BA000E4908AE1F0A3F0908AE1E0FCA3E0FD2527
:104BB000E0FFEC33FE74EB2FF582748E3EF583E05C
:104BC000908ACFF074EC2FF582748E3EF583E090DE
:104BD0008AD0F0741F2DF58274843CF583E060491F
:104BE000E4908ADFF0A3F0908ACFE0FEA3E0FF7CA0
:104BF000007D0A126BE1908ADFEEF0A3EFF0908A5D
:104C0000DFE0FEA3E0FF7D461241D7908ACFEEF0B1
:104C1000A3EFF0908AE2E025E0FF908AE1E033FE26
:104C2000EF2432FFEE34348014908AE2E025E0FF76
:104C3000908AE1E033FEEF2432FFEE3444FEE4FCE0
:104C4000FD7B017A8A79CF908CD4F0A37402F012A4
:104C500096A3908AE2E054036403700312D1769025
:104C60008AE2E004F07006908AE1E004F0C3908AE2
:104C7000E2E0942D908AE1E094005003024BA702F9
:104C80004D56E4908AE1F0A3F0908AE1E0FCA3E0C5
:104C9000FD25E0FFEC33FE74EB2FF582748E3EF5BC
:104CA00083E0908ACFF074EC2FF582748E3EF5830A
:104CB000E0908AD0F0741F2DF58274843CF583E077
:104CC000603EE4908ADFF0A3F0908ACFE0FEA3E09C
:104CD000FF7C007D0A126BE1908ADFEEF0A3EFF01B
:104CE000908AE2E025E0FF908AE1E033FEEF243293
:104CF000FFEE3444FEE4FCFD7B017A8A79DF801EFE
:104D0000908AE2E025E0FF908AE1E033FEEF243272
:104D1000FFEE3444FEE4FCFD7B017A8A79CF908C6F
:104D2000D4F0A37402F01296A3908AE2E0540364D4
:104D300003700312D176908AE2E004F07006908A44
:104D4000E1E004F0C3908AE2E0942D908AE1E094DF
:104D5000005003024C89E4908AF1F0A3F0908AE1BC
:104D6000F0A3F0908AE1E0FCA3E0FDC39404EC948E
:104D7000004003024DF9ED25E0FFEC33FE743B2FBC
:104D8000F582748F3EF583E0908ACFF0743C2FF566
:104D900082748F3EF583E0908AD0F0908ACFE0FA5B
:104DA000A3E0FBED25E0FFEC33FE74DF2FF582740A
:104DB0008E3EF583EAF0A3EBF0908ACFE0FCA3E00F
:104DC000FD74F32FF582748A3EF583ECF0A3EDF0C9
:104DD000908ACFE07002A3E0600E908AF2E004F0C7
:104DE0007006908AF1E004F0908AE2E004F0700628
:104DF000908AE1E004F0024D63D3908AF2E09401DE
:104E0000908AF1E094004067E4908AFBF0A3F09070
:104E10008AFBF0A3742FF07B017A807903908B7E5C
:104E2000E4F0A304F07F077E467D007C001289D960
:104E3000908AFBE0FEA3E0FF908003E06E7003A386
:104E4000E06F7003024F687B017A8A79FB908CD403
:104E5000E4F0A304F07F077E467D007C001296A359
:104E60001242C2EF7003024F68124290024F68E490
:104E7000908AE1F0A3F0E4908AE3F0A3F0908AE353
:104E8000E0FCA3E0FDC39410EC94004003024F4803
:104E9000908AE1E0FAA3E0FB25E0FFEA33FE74F339
:104EA0002FF582748A3EF583E0FEA3E0A805088012
:104EB00005CEC313CE13D8F930E07CE4908AFBF022
:104EC000A3F0EBC4F8540FC868FFEAC454F048FEDE
:104ED000908AE4E02FFF908AE3E03ECF2401CF34B4
:104EE00000908AFBF0A3EFF07B017A807903908B2E
:104EF0007EE4F0A304F07F077E467D007C001289EB
:104F0000D9908AFBE0FEA3E0FF908003E06E70037F
:104F1000A3E06F60227B017A8A79FB908CD4E4F065
:104F2000A304F07F077E467D007C001296A3124208
:104F3000C2EF6003124290908AE4E004F0700690A1
:104F40008AE3E004F0024E7D908AE2E004F070060D
:104F5000908AE1E004F0C3908AE2E09404908AE150
:104F6000E094005003024E76908B0C7401F0A37411
:104F700084F0A3741FF0A37419F07D2D12AFA390D9
:104F80008EF1E0908AD3F0908EF2E0908AD4F09087
:104F90008AD3E0FCA3E0FDEC1266C8E4FBFA7920BA
:104FA00078411265AD908AEB126F037B017A8A79A2
:104FB000FD908B7EE4F0A37402F07F067E107D00EE
:104FC0007C001289D9908AEBE0FCA3E0FDA3E0FE0F
:104FD000A3E0FF126701C006C007908AFDE0FCA3B2
:104FE000E0FDA3E0FEA3E0FF126701D005D004EFCF
:104FF0006D7002EE6C60617B017A8A79EB908CD4E3
:10500000E4F0A37402F07F067E107D007C0012960F
:10501000A3908AEBE0FCA3E0FDA3E0FEA3E0FF1277
:1050200067017D461241D7AC06AD07EC1266C89009
:105030008AEB126F037B017A8A79EB908CD4E4F0CF
:10504000A37402F07F087E107D007C001296A312EC
:1050500042C2EF60031242A9908EFDE0908AD3F025
:10506000908EFEE0908AD4F0908B0C126F0F0000AF
:105070004816908AD3E0FEA3E0FF7C007D0A126C04
:1050800036AC06AD07EC1266C8908B10126F037F2A
:105090000612AA79EF60091242C2EF600312429F22
:1050A000C206D20702D176908EEBE0908AD3F090C0
:1050B0008EECE0908AD4F0908AD3E0FFA3E0908A4F
:1050C000FFCFF0A3EFF07B017A8B7905908B7EE424
:1050D000F0A304F07F607E367D007C001289D990B9
:1050E0008AFFE0FEA3E0FF908B05E06E7003A3E073
:1050F0006F6044908AD7EEF0A3EFF07B017A8A7953
:10510000D7908CD4E4F0A37402F07F107E107D0061
:105110007C001296A37B017A8A79D7908CD4E4F034
:10512000A304F07F607E367D007C001296A31242BD
:10513000C2EF60031242AE908EEDE0908AD3F09001
:105140008EEEE0908AD4F0908AD3E0FFA3E0908BBB
:1051500001CFF0A3EFF07B017A8B7905908B7EE491
:10516000F0A304F07F707E367D007C001289D99018
:105170008B01E0FEA3E0FF908B05E06E7003A3E0DF
:105180006F6044908AD7EEF0A3EFF07B017A8A79C2
:10519000D7908CD4E4F0A37402F07F127E107D00CF
:1051A0007C001296A37B017A8A79D7908CD4E4F0A4
:1051B000A304F07F707E367D007C001296A312421D
:1051C000C2EF60031242B8908EEFE0908AD3F09065
:1051D0008EF0E0908AD4F0908AD3E0FFA3E0908B29
:1051E00003CFF0A3EFF0908B03E0FEA3E0FF7C0081
:1051F0007D0A126BE1908AFDEEF0A3EFF07B017A5D
:105200008B7905908B7EE4F0A304F07F807E367D61
:10521000007C001289D9908AFDE0FCA3E0FD908B10
:1052200005E06C7003A3E06D607BE41266C8908AB1
:10523000EB126F037B017A8A79EB908CD4E4F0A3B4
:105240007402F07F147E107D007C001296A3908A79
:10525000FDE0FEA3E0FF7D461241D7AC06AD07ECB2
:105260001266C8908AEB126F037B017A8A79EB9001
:105270008CD4E4F0A37402F07F1A7E107D007C00D1
:105280001296A37B017A8A79FD908CD4E4F0A30472
:10529000F07F807E367D007C001296A31242C2EF22
:1052A00060031242B3908AFF12CF5490827DEFF0D8
:1052B000908B0112CF5490827EEFF0908B03E0FE32
:1052C000A3E0FF7D0112CF5B90827FEFF0C208E484
:1052D000908231F0229080AEE0FEA3E0FFC394E81C
:1052E000EE94034016EF2418FFEE34FCFE7C007DA4
:1052F00064126BE1908AFFEFF08008908227E090C3
:105300008AFFF0908AFFE0C3940674809480400284
:10531000E4F07D0712D0CA908AFDEEF0A3EFF0D33F
:105320009400EE940050030253BC908AFDE0FCA36D
:10533000E0FDE41266C8E4FBFA792078411265AD1D
:10534000908AEB126F03908AFFE025E0FFE433FEC2
:10535000EF2430FFEE3410FEE4FCFDC004C005C0B5
:1053600006C007E025E0FFE433FEEF2440FFEE3403
:1053700010FEE4908B0C126F03908AEBE0FCA3E02C
:10538000FDA3E0FEA3E0FF908B10126F03D007D0C7
:1053900006D005D00412AA7F908AFFE075F020A401
:1053A0002400FFE5F03411FEE4FCFD7B017A8A79EC
:1053B000EB908CD4F0A37402F01296A3908AFFE0D5
:1053C000FF2401FDE433FCC3ED9406EC648094807B
:1053D0005009EF04908231F0D20722E4908231F03C
:1053E000C207D209229080AEE0FEA3E0FFC394F88A
:1053F000EE942A4016EF2408FFEE34D5FE7C007DA3
:105400001E126BE1908B07EFF08008908231E090E4
:105410008B07F0908B07E0C3940674809480400261
:10542000E4F07B017A8E79E8E4FD12D0D0908AFD19
:10543000EEF0A3EFF07E0030E7047F0180027F00F2
:10544000908AFFEEF0A3EFF0908B07E02411F58235
:10545000E43480F583EFF0908AFDE0FEA3E0FF12D4
:10546000CA27908B01EEF0FAA3EFF0FB908B07E0D8
:10547000FF908AFFE0FCA3E0FD12AE39908B07E0BD
:10548000FF908B01E0FCA3E0FD12A8077D0112D084
:10549000CA908AFDEEF0A3EFF012C6FE908B03EEE9
:1054A000F0A3EFF0908B07E02410FFE43447FEE414
:1054B000FCFD7A8B7903908CD4F0A304F01296A3B0
:1054C0007B017A8E79E87D0212D0D0908AFDEEF0D1
:1054D000FCA3EFF0FD908B07E0FF12CE50908B0500
:1054E000EEF0A3EFF0908B05E0FEA3E0FFC3941075
:1054F000EE94004025D3EF9420EE9400501CA3E0DE
:105500002420FFE43410FEE4FCFD7B017A8B790556
:10551000908CD4F0A304F01296A3908B07E0FF24A4
:1055200001FDE433FCC3ED9406EC648094805009E3
:10553000EF04908231F0D20922E4908231F0C20966
:10554000D20802A50DE4908233F0908ACDE0F47089
:1055500003A3E0F46019E4908ACDF0A3F0908EEA02
:10556000E0FEA3E0FDEDFF908ACDEEF0A3EFF0901A
:105570008ACDE0FEA3E08EF0126F9255BB00645618
:105580003D2AF856602AFC563D2B1656602B1A56BB
:105590003D2B3456602B38563D2B5256602B5656B9
:1055A0003D2B7056602B74563D2B8E56602B9255BA
:1055B000F73A985674769E00005678C210C215C20B
:1055C000039087B2E0FD600E908235A3E0FF12CC1D
:1055D0003BE49087B2F030010302567830060302B4
:1055E000567830070302567830080302567830099F
:1055F00003025678D20122C216C2047B017A807956
:105600007E12C21112C4F1EF606EE4908AE1F0A341
:10561000F0908AE1E0FEA3E0FFC39406EE94005010
:1056200057744C2FF58274843EF583E4F0908AE23F
:10563000E004F070DC908AE1E004F080D4C20590D0
:105640008232E0FF7B017A84795212BDA2C217C276
:105650001412D1AE201721908017E0701BD21122B6
:10566000C20EC21390841BE0FF90848EE0C39F5053
:105670000712C778C200C20A22E4908AB8F0A3F0E9
:10568000908000E0C394027480948040030264A37D
:10569000E004F09081F1E094019081F0E09400400A
:1056A0000CA3E024FFF09081F0E034FFF012B61D6F
:1056B000301516C39081F1E094D09081F0E094070A
:1056C00050077407F0A374D0F01242F0301023207A
:1056D0001520908FF0E07002A3E06016C3908A9BC3
:1056E000E094C8908A9AE094004007E4908FF0F02C
:1056F000A3F0908FF0E07002A3E06062908FF2E080
:10570000705CC3908A9BE09420908A9AE094035046
:105710000302649AE4908FF0F0A3F030171B90829C
:1057200032E0FF12C3D3C217C205C214E490823123
:10573000F0D21112D1AE02649A301609C216C20418
:10574000D21102649A301507C210C21502649A90F1
:10575000841CE0700302649A12B72302649AC21890
:1057600030101C9081F0E07002A3E0700A9081F08C
:105770007407F0A374D0F09082337407F0806E3019
:105780000E08908233740FF08063301708908233D4
:10579000740BF08058301608908233740AF0804DF4
:1057A000300008908233740EF080423011059082F0
:1057B0003380373001089082337404F0802F300634
:1057C000089082337406F080243007089082337486
:1057D00008F080193008089082337409F0800E9028
:1057E0008233300905740CF080037405F0908AB898
:1057F000E475F001126C82FE74C425F0F5827480A9
:105800003EF5837401F0908233E024FCB40C004038
:105810000302633890582275F003A4C58325F0C5B0
:1058200083730258460258C202593E025D72025A00
:105830003A0259BC025B7E025C40025ADC026338C9
:1058400002606B02619D908AB8E475F001126C826F
:10585000FE74C425F0F58274803EF5837403F090E5
:105860008AB8E475F001126C82FE74C425F0F582EA
:1058700074803EF583E4F0908AB875F001126C8272
:10588000FE74C425F0F58274803EF58374C8F090F0
:105890008AB8E475F001126C82FE74C425F0F582BA
:1058A00074803EF583E4F0908AB875F001126C8242
:1058B000FE74C425F0F58274803EF5837419F002FD
:1058C0006338908AB8E475F001126C82FE74C425C6
:1058D000F0F58274803EF5837403F0908AB8E47525
:1058E000F001126C82FE74C425F0F58274803EF5DE
:1058F00083E4F0908AB875F001126C82FE74C425BE
:10590000F0F58274803EF5837464F0908AB8E47593
:10591000F001126C82FE74C425F0F58274803EF5AD
:1059200083E4F0908AB875F001126C82FE74C4258D
:10593000F0F58274803EF583740DF0026338908A2E
:10594000B8E475F001126C82FE74C425F0F582741F
:10595000803EF5837403F0908AB8E475F001126C10
:1059600082FE74C425F0F58274803EF5837401F0E4
:10597000908AB8E475F001126C82FE74C425F0F5CB
:105980008274803EF583742CF0908AB8E475F0013F
:10599000126C82FE74C425F0F58274803EF583E4B7
:1059A000F0908AB875F001126C82FE74C425F0F58F
:1059B0008274803EF583742DF0026338908AB8E4D7
:1059C00075F001126C82FE74C425F0F58274803E7D
:1059D000F5837403F0908AB8E475F001126C82FECE
:1059E00074C425F0F58274803EF5837476F0908A55
:1059F000B8E475F001126C82FE74C425F0F582746F
:105A0000803EF583749EF0908AB8E475F001126CC4
:105A100082FE74C425F0F58274803EF583E4F09034
:105A20008AB875F001126C82FE74C425F0F5827498
:105A3000803EF5837403F0026338908231E0FF7E8C
:105A4000007C007D64126BCFEF24E8FFEE340390FE
:105A50008ABEF0A3EFF0908AB8E475F001126C8270
:105A6000FE74C425F0F58274803EF5837403F090D3
:105A70008ABEE0FCA3E0FDECFF908AB8E475F0017B
:105A8000126C82FA74C425F0F58274803AF583EFC3
:105A9000F0908AB8E475F001126C82FC74C425F0B1
:105AA000F58274803CF583EDF0908AB8E475F001DE
:105AB000126C82FE74C425F0F58274803EF583E496
:105AC000F0908AB875F001126C82FE74C425F0F56E
:105AD0008274803EF5837408F0026338908231E06E
:105AE000FF7E007C007D1E126BCFEF24F8FFEE34AA
:105AF0002A908ABEF0A3EFF0908AB8E475F0011204
:105B00006C82FE74C425F0F58274803EF5837403C4
:105B1000F0908ABEE0FCA3E0FDECFF908AB8E4754B
:105B2000F001126C82FA74C425F0F58274803AF5A3
:105B300083EFF0908AB8E475F001126C82FC74C4B3
:105B400025F0F58274803CF583EDF0908AB8E47519
:105B5000F001126C82FE74C425F0F58274803EF56B
:105B600083E4F0908AB875F001126C82FE74C4254B
:105B7000F0F58274803EF583741EF002633812D112
:105B800023908AB8E475F001126C82FE74C425F08B
:105B9000F58274803EF5837410F0908AB8E475F055
:105BA00001126C82FE74C425F0F58274803EF58388
:105BB000743AF0908AB8E475F001126C82FE74C4F5
:105BC00025F0F58274803EF5837498F0908AB8E4ED
:105BD00075F001126C82FE74C425F0F58274803E6B
:105BE000F583E4F0908AB875F001126C82FE74C4FB
:105BF00025F0F58274803EF5837418F0908AB8E43D
:105C000075F001126C82FE74C425F0F58274803E3A
:105C1000F5837430F0E4908ABEF0908ABEE0FFC352
:105C20009418748094804003026338EF25E0247E4A
:105C3000F582E4348012C2A9908ABEE004F080DAD2
:105C4000908232E0FBFF7E007C007D1E126BCFEF66
:105C500024F8FFEE342A908ABFF0A3EFF0AF0312CE
:105C60008BE6908AB8E475F001126C82FE74C4254C
:105C7000F0F58274803EF5837410F0908ABFE0FCEA
:105C8000A3E0FDECFF908AB8E475F001126C82FA93
:105C900074C425F0F58274803AF583EFF0908AB8E9
:105CA000E475F001126C82FC74C425F0F5827480F6
:105CB0003CF583EDF0908AB8E475F001126C82FE39
:105CC00074C425F0F58274803EF583E4F0908AB8C0
:105CD00075F001126C82FE74C425F0F58274803E6A
:105CE000F583741EF0908AB8E475F001126C82FEA0
:105CF00074C425F0F58274803EF583743CF0E49022
:105D00008ABEF0908ABEE0FFC394087480948050ED
:105D100015EF25E02452F582E4348412C2A9908A5A
:105D2000BEE004F080DDE4908ABEF0908ABEE0C35D
:105D30009416748094804003026338908AB8E475A6
:105D4000F001126C82FE74C425F0F58274803EF579
:105D500083E4F0908AB875F001126C82FE74C42559
:105D6000F0F58274803EF583E4F0908ABEE004F0A2
:105D700080B9908AB8E475F001126C82FE74C42573
:105D8000F0F58274803EF5837410F0908AB8E47563
:105D9000F001126C82FE74C425F0F58274803EF529
:105DA00083E4F0908AB875F001126C82FE74C42509
:105DB000F0F58274803EF5837464F0908AB8E475DF
:105DC000F001126C82FE74C425F0F58274803EF5F9
:105DD00083E4F0908AB875F001126C82FE74C425D9
:105DE000F0F58274803EF583740DF0908AB8E47506
:105DF000F001126C82FE74C425F0F58274803EF5C9
:105E000083741AF07B017A8A79BA908B7EE4F0A3CE
:105E100004F07F217E407D007C001289D9908ABAEF
:105E2000E07002A3E07E0060047F0180027F00AD8D
:105E300007AC06ECFF908AB8E475F001126C82FAA8
:105E400074C425F0F58274803AF583EFF0908AB837
:105E5000E475F001126C82FC74C425F0F582748044
:105E60003CF583EDF07B017A8A79BC908B7EE4F07F
:105E7000A304F07F027E207D007C001289D9908AE5
:105E8000BCE0FCA3E0FDECFF908AB8E475F00112E1
:105E90006C82FA74C425F0F58274803AF583EFF0D1
:105EA000908AB8E475F001126C82FC74C425F0F598
:105EB0008274803CF583EDF07D0112B6A07D021264
:105EC000B6A0E4FD908AB875F001126C82FA74C431
:105ED00025F0F58274803AF583E4F0908AB875F085
:105EE00001126C82FC74C425F0F58274803CF58349
:105EF000E4F0908AB875F001126C82FA74C425F04F
:105F0000F58274803AF583E4F0908AB875F0011256
:105F10006C82FC74C425F0F58274803CF583E4F057
:105F20007B017A8A79BC908B7EF0A304F07F1B7E84
:105F3000207C001289D9908ABCE0FCA3E0FDECFF34
:105F4000908AB8E475F001126C82FA74C425F0F5F9
:105F50008274803AF583EFF0908AB8E475F001120C
:105F60006C82FC74C425F0F58274803CF583EDF0FE
:105F7000E4908AB875F001126C82FA74C425F0F5C9
:105F80008274803AF583E4F0908AB875F001126C5F
:105F900082FC74C425F0F58274803CF583E4F090B3
:105FA0008AB875F001126C82FA74C425F0F5827417
:105FB000803AF583E4F0908AB875F001126C82FCA7
:105FC00074C425F0F58274803CF583E4F07B017A9B
:105FD0008A79B87D0312B6A6E4908AB875F00112EA
:105FE0006C82FA74C425F0F58274803AF583E4F08B
:105FF000908AB875F001126C82FC74C425F0F582A9
:1060000074803CF583E4F0908AB875F001126C82DC
:10601000FA74C425F0F58274803AF583E4F0908A2E
:10602000B875F001126C82FC74C425F0F58274809E
:106030003CF5837464F07C00EC908AB875F0011232
:106040006C82FA74C425F0F58274803AF583E4F02A
:10605000908AB875F001126C82FC74C425F0F58248
:1060600074803CF5837464F0026338908AC474765B
:10607000F0A3749EF07B017A8A79BE908B7EE4F067
:10608000A304F07F607E367D007C001289D97B01FD
:106090007A8A79C0908B7EE4F0A304F07F707E361C
:1060A0007D007C001289D97B017A8A79C2908B7E2F
:1060B000E4F0A304F07F807E367D007C001289D955
:1060C000908AC2E0FEA3E0FF7C007D0A126BCF90B5
