:020000040001F9
:0300000002B2BD8C
:03000B0002A22925
:03001B0002C8C256
:0300230002AF41E8
:03002B0002D9D91E
:0300630002B79D44
:03006B0002A6F5F5
:1000F800FFFF4457494E5435202803021A5BC22893
:100108009092CFE0FFA3E09092ACCFF0A3EFF090F5
:1001180092E6E4F0A304F0FB7A8A79D9908C7BE428
:10012800F0A304F07F107E207D007C00128D6D907E
:1001380092ACE0FEA3E08EF0127024033D100103A0
:1001480074100203AD100316031014083A101610A9
:1001580051101810DD10191603101A16B4102016B5
:10016800B4102116B4102216B4102316B410241695
:10017800B4102516D4107016D4107116D410721637
:10018800D4107316D4107416D41075174A1080172B
:100198004A10811824108218241083179F1084177E
:1001A8009F1085181010861810108710561100100F
:1001B80083110110B01102103E11031869120003D7
:1001C80037200004262001042F2002050C200305F7
:1001D8009220110A59201209F420130DC820150D78
:1001E800CE20160F9920170FA420180FAA201B1332
:1001F8006B201D0FBC201E03BF20200F6920211675
:10020800B4202516B42026139D2030139D203113C9
:100218009D203215A2203515B320361744203718F3
:100228002E203809643050083F3060186430701848
:100238006430721864307318643074186430751739
:100248009F308109543083095C30841564309003F1
:10025800D932240FFA3508104335091603366016CB
:100268000336701603368014444006161D401016D7
:100278001D4011161D4012161D4013161D40141660
:100288001D40150523402118294500182945011846
:100298002945021829450318294504182945051830
:1002A800294506179F4510179F4511179F45121797
:1002B8009F4513179F4514179F4515179F451616F9
:1002C8007F4700167F4701167F4702167F470316B0
:1002D8007F4704167F47051698471016984711164A
:1002E80098471216984713169847141698471518E2
:1002F800244820174A4821174A4824179F48251799
:100308004A4826181048271750483017AC48321763
:100318009F4836181F4837179F4838180148400D1E
:100328004F48500D7648520D9D48540000187712DA
:10033800DB4A0203C9908AD9E07002A3E060030295
:1003480018777B017A8A79DB908C7BF0A304F07FA5
:10035800037E207D007C00128D6D908ADBE07002A8
:10036800A3E0700302155F7F23021874908AD9E016
:100378007002A3E060030218777B017A8A79DB9028
:100388008C7BF0A304F07F037E207D007C00128D1F
:100398006D908ADBE07002A3E070057F0502187497
:1003A8007F2A021874908AD9E07002A3E0600302E1
:1003B80018777F040218749092D7E0FF123E0D5010
:1003C80008D21A12DC800218779092D7E0FF021840
:1003D800747B017A8A79DB908C7BE4F0A304F07F4C
:1003E800247E327D007C00128D6D908ADBE0FEA3B6
:1003F800E0FF64014E6009EF64024E600302187763
:1004080012DD5AE4908ADBF0A3F07B017A8A79DB6B
:10041800908CF5F0A304F07F247E320215F9301990
:1004280003021877020F8D30190302187712DCC106
:100438007B017A8A79DB908C7BE4F0A304F07F025D
:100448007E207D007C00128D6D908ADBE0FEA3E0AB
:10045800FFD39403EE94004003021877EF4E908A7E
:10046800E2700EF0A3F07B017A8A79E2908CF58035
:100478000EE4F0A304F0FB7A8A79E2908CF5E4F0BC
:10048800A304F07F217E407D007C001299DF908AD2
:10049800E2E0FEA3E0FF12DA2F7B017A8A79E0908E
:1004A8008C7BE4F0A304F07F037E207D007C0012A7
:1004B8008D6D908ADBE07004A3E06401700A908A75
:1004C800E0A3E0FD7F01802A908ADBE07004A3E0CE
:1004D8006402700A908AE0A3E0FD7F028014908A8B
:1004E800DBE07004A3E06403700E908AE0A3E0FDF3
:1004F8007F03123DBB1232F312DCB512DD0C12DDA4
:1005080006020F63123E33D21A12DC8012DCB512D7
:10051800DD1212DD0F12DD1502187712DAE750032B
:1005280002187712DCDCEF60030218777B017A8A05
:1005380079DB908C7BF0A304F07F217E407D007CEA
:1005480000128D6DD3908ADCE09401908ADBE094F0
:1005580000400302187712DC77908ADBE0FCA3E006
:10056800FD6F7002EC6E70030218777BFF7AE179F9
:10057800DE908B94ECF0A3EDF0128427908ADBA335
:10058800E0FF7D531298320215997F0712D45E7BE3
:10059800017A8A79DB908C7BE4F0A304F07F117EEA
:1005A800207D007C00128D6D908ADBE07004A3E052
:1005B800640170657B017A8A79DB908C7BF0A304F7
:1005C800F07F007E477D007C00128D6D7B017A8A6A
:1005D80079DB908CF5E4F0A304F07F007E307D0099
:1005E8007C001299DFE4908ADBF0A3F07B017A8A21
:1005F80079DB908C7BF0A304F07F107E477D007C34
:1006080000128D6D7B017A8A79DB908CF5E4F0A37A
:1006180004F07F057E300215F9908ADBE07004A3B0
:10062800E06402705E7B017A8A79DB908C7BF0A3B0
:1006380004F0FF7E477D007C00128D6D7B017A8A75
:1006480079DB908CF5E4F0A304F07F007E307D0028
:100658007C001299DF7B017A8A79DB908C7BE4F04D
:10066800A304F07F117E477D007C00128D6D7B0115
:100678007A8A79DB908CF5E4F0A304F07F057E306C
:100688000215F9908ADBE07004A3E06403705F7BD5
:10069800017A8A79DB908C7BF0A304F07F027E4795
:1006A8007D007C00128D6D7B017A8A79DB908CF558
:1006B800E4F0A304F07F007E307D007C001299DF17
:1006C8007B017A8A79DB908C7BE4F0A304F07F12BB
:1006D8007E477D007C00128D6D7B017A8A79DB90E4
:1006E8008CF5E4F0A304F07F057E300215F9908ABA
:1006F800DBE07004A3E06404705F7B017A8A79DB35
:10070800908C7BF0A304F07F037E477D007C001271
:100718008D6D7B017A8A79DB908CF5E4F0A304F087
:100728007F007E307D007C001299DF7B017A8A7918
:10073800DB908C7BE4F0A304F07F137E477D007C84
:1007480000128D6D7B017A8A79DB908CF5E4F0A339
:1007580004F07F057E300215F9908ADBE07004A36F
:10076800E06405705F7B017A8A79DB908C7BF0A36B
:1007780004F07F047E477D007C00128D6D7B017A3A
:100788008A79DB908CF5E4F0A304F07F007E307D5D
:10079800007C001299DF7B017A8A79DB908C7BE4FC
:1007A800F0A304F07F147E477D007C00128D6D7BE2
:1007B800017A8A79DB908CF5E4F0A304F07F057E5A
:1007C800300215F9908ADBE07004A3E06406600348
:1007D8000218777B017A8A79DB908C7BF0A304F08E
:1007E8007F057E477D007C00128D6D7B017A8A79BA
:1007F800DB908CF5E4F0A304F07F007E307D007C74
:10080800001299DF7B017A8A79DB908C7BE4F0A374
:1008180004F07F157E477D007C00128D6D7B017A88
:100828008A79DB908CF5E4F0A304F07F057E300232
:1008380015F97F0D021874E4908AE0F07B017A8A3A
:1008480079DB908C7BF0A304F07F167E107D007C12
:1008580000128D6D7B017A8A79E1908C7BE4F0A39C
:1008680004F07F037E207D007C00128D6D908ADB72
:10087800E07004A3E064017069908AE0F0908AE077
:10088800E0FFC39406748094805041EF2440FFE455
:100898003431FEE4FCFD7B017A8A79DB908C7BF0B5
:1008A800A304F0128D6D908AE0E02400FFE4344543
:1008B800FEE4FCFD7B017A8A79DB908CF5F0A304D9
:1008C800F01299DF908AE0E004F080B1908AE1E0CC
:1008D8007004A3E0640170057F290218747F0C027C
:1008E8001874E4908AE0F0908AE0E0FFC3940674FC
:1008F8008094805041EF2440FFE43431FEE4FCFD55
:100908007B017A8A79DB908C7BF0A304F0128D6DE1
:10091800908AE0E02410FFE43445FEE4FCFD7B010E
:100928007A8A79DB908CF5F0A304F01299DF908A2B
:10093800E0E004F080B1908AE1E07004A3E0640193
:1009480070057F270218747F1102187412DD337F37
:100958001002187412DD397F0B0218747B017A8A31
:1009680079DB908C7BE4F0A304F07F167E107D0089
:100978007C00128D6D908ADBE07004A3E064017046
:100988002E7B017A8A79DB908C7BF0A304F07F03BD
:100998007E207D007C00128D6D908ADBE07004A3C0
:1009A800E0640170057F290218747F0C02187490A6
:1009B8008ADBE07004A3E0640260030218777B011D
:1009C8007A8A79DB908C7BF0A304F07F037E207D0C
:1009D800007C00128D6D908ADBE07004A3E0640156
:1009E80070057F290218747F110218747F0612D4CB
:1009F8005E7B017A8A79DB908C7BE4F0A304F07F3C
:100A0800007E477D007C00128D6D7B017A8A79DB40
:100A1800908CF5E4F0A304F07F207E307D007C000C
:100A28001299DF7B017A8A79DB908C7BE4F0A3044E
:100A3800F07F107E477D007C00128D6D7B017A8AE5
:100A480079DB908CF5E4F0A304F07F257E30021565
:100A5800F97B017A8A79DB908C7BE4F0A304F07F40
:100A6800117E207D007C00128D6D908ADBE0FEA354
:100A7800E0908AE0F064014E70637F0212D45E7BDE
:100A8800017A8A79DB908C7BE4F0A304F07F007E06
:100A9800307D007C00128D6D7B017A8A79DB908C29
:100AA800F5E4F0A304F07F007E477D007C001299F6
:100AB800DF7B017A8A79DB908C7BE4F0A304F07FFA
:100AC800057E307D007C00128D6D7B017A8A79DB92
:100AD800908CF5E4F0A304F07F10020D0B908ADBF4
:100AE800E07004A3E0640270627F0212D45E7B01AE
:100AF8007A8A79DB908C7BE4F0A304F07F007E3067
:100B08007D007C00128D6D7B017A8A79DB908CF5F3
:100B1800E4F0A304F0FF7E477D007C001299DF7BA0
:100B2800017A8A79DB908C7BE4F0A304F07F057E60
:100B3800307D007C00128D6D7B017A8A79DB908C88
:100B4800F5E4F0A304F07F11020D0B908ADBE0704E
:100B580004A3E0640370637F0212D45E7B017A8A87
:100B680079DB908C7BE4F0A304F07F007E307D007D
:100B78007C00128D6D7B017A8A79DB908CF5E4F02C
:100B8800A304F07F027E477D007C001299DF7B0181
:100B98007A8A79DB908C7BE4F0A304F07F057E30C1
:100BA8007D007C00128D6D7B017A8A79DB908CF553
:100BB800E4F0A304F07F12020D0B908ADBE07004CE
:100BC800A3E0640470637F0312D45E7B017A8A79A0
:100BD800DB908C7BE4F0A304F07F007E307D007C0A
:100BE80000128D6D7B017A8A79DB908CF5E4F0A395
:100BF80004F07F037E477D007C001299DF7B017A39
:100C08008A79DB908C7BE4F0A304F07F057E307D4D
:100C1800007C00128D6D7B017A8A79DB908CF5E47B
:100C2800F0A304F07F13020D0B908ADBE07004A39D
:100C3800E0640570627F0312D45E7B017A8A79DBF7
:100C4800908C7BE4F0A304F07F007E307D007C0074
:100C5800128D6D7B017A8A79DB908CF5E4F0A30420
:100C6800F07F047E477D007C001299DF7B017A8A41
:100C780079DB908C7BE4F0A304F07F057E307D0067
:100C88007C00128D6D7B017A8A79DB908CF5E4F01B
:100C9800A304F07F14806C908ADBE07004A3E06406
:100CA8000670697F0312D45E7B017A8A79DB908CA7
:100CB8007BE4F0A304F07F007E307D007C00128D81
:100CC8006D7B017A8A79DB908CF5E4F0A304F07FE0
:100CD800057E477D007C001299DF7B017A8A79DBEB
:100CE800908C7BE4F0A304F07F057E307D007C00CF
:100CF800128D6D7B017A8A79DB908CF5E4F0A30480
:100D0800F07F157E477D007C001299DF12D969902B
:100D18008AE0E0FF7E00C39401748094805003024F
:100D28001877D3EF9406748094804003021877E014
:100D3800C39401FFE4FD12DCC7908AE0E0C394018C
:100D4800FF123E9F0218779092ACE0FEA3E0FFE40A
:100D5800FCFD7B017A8A79DB908C7BF0A304F0128E
:100D68008D6D908ADBE0FCA3E0FD7F02804C9092C1
:100D7800ACE0FEA3E0FFE4FCFD7B017A8A79DB901E
:100D88008C7BF0A304F0128D6D908ADBE0FCA3E06D
:100D9800FD7F0180259092ACE0FEA3E0FFE4FCFD1E
:100DA8007B017A8A79DB908C7BF0A304F0128D6D3D
:100DB800908ADBE0FCA3E0FD7F03123485021877FC
:100DC8001227E30218777B017A8A79E4908C7BE416
:100DD800F0A304F07F037E207D007C00128D6D90CF
:100DE8008AE4E07002A3E07B016003020EA97A8A1C
:100DF80079E0908C7BF0A304F07F257E207D007C39
:100E080000128D6D7B017A8A79E0908CF5E4F0A36D
:100E180004F07F057E207D007C001299DF908AE037
:100E2800E0FEA3E0FF7D4612ADC5908AE2EEF0A396
:100E3800EFF07B017A8A79E2908CF5E4F0A304F074
:100E48007F067E207D007C001299DF7B017A8A79FB
:100E5800E6908C7BE4F0A304F07F027E207D007C8A
:100E680000128D6D908AE612391A908AE6A3E0FF87
:100E7800908AE2E0FAA3E0FB7D01123927908AE626
:100E8800A3E0FFC007908AE0E0FCA3E0FDE412675E
:100E98005A908AEB126F95D007123D117F01020F0D
:100EA8005A7A8A79E4908C7BE4F0A304F07F267E5A
:100EB800207D007C00128D6D7B017A8A79E4908C0C
:100EC800F5E4F0A304F07F067E207D007C001299F3
:100ED800DF908AE4E0FEA3E0FF7D4312ADC5908A6F
:100EE800E0EEF0A3EFF07B017A8A79E0908CF5E4EC
:100EF800F0A304F07F057E207D007C001299DF7B43
:100F0800017A8A79E8908C7BE4F0A304F07F027E72
:100F1800207D007C00128D6D908AE812391A908A23
:100F2800E8A3E0FF908AE4E0FAA3E0FB7D01123930
:100F380027908AE8A3E0FFC007908AE0E0FCA3E0DE
:100F4800FDE412675A908AEB126F95D007123D1193
:100F58007F1E12D45E12DCC112DCB512DD0F02183E
:100F6800777B017A8A79DB908C7BE4F0A304F07FAD
:100F7800217E207D007C00128D6D908ADBE0FEA32F
:100F8800E0FF123E5512DCC112DCB512DD18021862
:100F9800777F0F12D45E122D0102187712C86C02E7
:100FA80018771293409092A7126F9512DCD312DD36
:100FB8001E0218777B017A8A79DB908C7BE4F0A398
:100FC80004F07F1E7E207D007C00128D6D7B017AEF
:100FD8008A79DB908CF5E4F0A304F07F1E7E207DF7
:100FE800007C001299DF908ADBA3E0FF12D77E0213
:100FF800185FE4908AE0F0A3F07B017A8A79E090A8
:101008008C7BF0A304F07F087E357D007C00128D78
:101018006D7B017A8A79E0908CF5E4F0A304F07F87
:10102800087E357D007C001299DF12DD5D12DCB58B
:1010380012DD2A0218777F3D02187412DD5D12DC7A
:10104800B512DD2A7F340218747F0E0218747B01F2
:101058007A8A79DB908C7BE4F0A304F07F037E200E
:101068007D007C00128D6D908ADBE07002A3E07039
:10107800057F0B0218747F280218747B017A8A791D
:10108800DB908C7BE4F0A304F07F037E207D007C62
:1010980000128D6D908ADBE07002A3E070057F0B73
:1010A8000218747F280218747B017A8A79DB908C85
:1010B8007BE4F0A304F07F037E207D007C00128D8A
:1010C8006D908ADBE07002A3E070057F100218744F
:1010D8007F260218747B017A8A79DB908C7BE4F096
:1010E800A304F07F187E107D007C00128D6D908A1D
:1010F800DBE07004A3E0640160030211947B017AD1
:101108008A79DB908C7BF0A304F07F197E107D0038
:101118007C00128D6D908ADBE07004A3E06401709E
:10112800667B017A8A79DB908C7BF0A304F07F5090
:101138007E307D007C00128D6D7B017A8A79DB9090
:101148008CF5E4F0A304F07F807E107D007C001213
:1011580099DF7B017A8A79DB908C7BE4F0A304F039
:101168007F527E307D007C00128D6D7B017A8A79FA
:10117800DB908CF5E4F0A304F07F817E107D007C89
:10118800001299DF12DD397F0C021874908ADBE0B7
:101198007004A3E0640260030212327B017A8A7948
:1011A800DB908C7BF0A304F07F197E107D007C001F
:1011B800128D6D908ADBE07004A3E0640170667B99
:1011C800017A8A79DB908C7BF0A304F07F507E3023
:1011D8007D007C00128D6D7B017A8A79DB908CF51D
:1011E800E4F0A304F07F827E107D007C001299DF7A
:1011F8007B017A8A79DB908C7BE4F0A304F07F5240
:101208007E307D007C00128D6D7B017A8A79DB90BF
:101218008CF5E4F0A304F07F837E107D007C00123F
:1012280099DF12DD3C7F0B021874908ADBE07004B2
:10123800A3E0640360030212CD7B017A8A79DB9014
:101248008C7BF0A304F07F197E107D007C00128D4A
:101258006D908ADBE07004A3E0640170637B017A1F
:101268008A79DB908C7BF0A304F07F507E307D0080
:101278007C00128D6D7B017A8A79DB908CF5E4F025
:10128800A304F07F847E107D007C001299DF7B012F
:101298007A8A79DB908C7BE4F0A304F07F527E306D
:1012A8007D007C00128D6D7B017A8A79DB908CF54C
:1012B800E4F0A304F07F857E107D007C001299DFA6
:1012C8007F12021874908ADBE07004A3E064046063
:1012D800030218777B017A8A79DB908C7BF0A30470
:1012E800F07F197E107D007C00128D6D908ADBE006
:1012F8007004A3E0640170667B017A8A79DB908CC4
:101308007BF0A304F07F507E307D007C00128D6D51
:101318007B017A8A79DB908CF5E4F0A304F07F8670
:101328007E107D007C001299DF7B017A8A79DB9040
:101338008C7BE4F0A304F07F527E307D007C0012A9
:101348008D6D7B017A8A79DB908CF5E4F0A304F04B
:101358007F877E107D007C001299DF12DD367F10BA
:101368000218747B017A8A79DB908C7BE4F0A30401
:10137800F07F037E207D007C00128D6D908ADBE07B
:101388007002A3E060047F2080027F3212D45E12D4
:101398003EAA0218779092ACE0FEA3E0FFBE200EB2
:1013A800BF310B302403021877D224E4807BEF642A
:1013B800327003EE64207043C39092D6E094D090CC
:1013C80092D5E094075006C224E4F0A3F07B017A9A
:1013D8008A79E0908C7BE4F0A304F07F107E207D76
:1013E800007C00128D6D7B017A8A79E0908CF5E49F
:1013F800F0A304F07F307E200215F97B017A8A7908
:10140800DB908C7BE4F0A304F07F307E207D007CB1
:1014180000128D6D908ADBE07002A3E06003021871
:1014280077302403021877D2249092D5F0A3F09055
:1014380092EE7420F0A37430F00218777B017A8A58
:1014480079E0908C7BE4F0A304F07F207E307D006F
:101458007C00128D6DE4908ADFF0908ADFE0FFC394
:101468009406748094805048E42FFFE43447FEE4E7
:10147800FCFD7B017A8A79E0908CF5F0A304F012E8
:1014880099DF908ADBE4F0A304F0908ADFE024106F
:10149800FFE43440FEE4FCFD7B017A8A79DB908C22
:1014A800F5F0A304F01299DF908ADFE004F080AA37
:1014B8007B017A8A79E2908C7BE4F0A304F07F25A3
:1014C8007E307D007C00128D6DE4908ADFF0908A7A
:1014D800DFE0FFC39406748094805023EF2410FF4C
:1014E800E43447FEE4FCFD7B017A8A79E2908CF5CE
:1014F800F0A304F01299DF908ADFE004F080CF7B3C
:10150800017A8A79DB908C7BE4F0A304F07F907EEB
:10151800107D007C00128D6DE4908ADFF0908ADFE8
:10152800E0FFC39406748094805023EF2420FFE4E6
:101538003410FEE4FCFD7B017A8A79DB908CF5F0AF
:10154800A304F01299DF908ADFE004F080CF12D96B
:101558006912DCCA12DCB57F020218747B017A8A30
:1015680079DB908C7BE4F0A304F07F907E307D00E3
:101578007C00128D6D7B017A8A79DB908CF5E4F022
:10158800A304F07F027E207D007C001299DF12DC2C
:10159800C112DCB512DD0C02187712DD5D12DD60B8
:1015A8007F2D12D45E12DD660218777B017A8A7964
:1015B800DB908C7BE4F0A304F07F367E207D007CFA
:1015C80000128D6D908ADBE07004A3E06401600373
:1015D80002187712DD6312DD66E4908ADBF0A3F06F
:1015E8007B017A8A79DB908CF5F0A304F07F367E54
:1015F800207D007C001299DF0218779092ACE0FE03
:10160800A3E0FF12DCD012DCB512DD2112DD2412BA
:10161800DD270218779092ACE0FEA3E0FFC3941098
:10162800EE944050030216B1E4FCFD7B017A8A79FE
:10163800DB908C7BF0A304F0128D6D7BFF7AE1794F
:10164800F19092ACE0FFA3E0908B94CFF0A3EFF081
:10165800908ADBE0FFA3E0908B96CFF0A3EFF01227
:1016680084279092ACA3E024F0FFE4FD12DCC712BB
:1016780039F5122E1480329092ACE0FEA3E0FFC33D
:10168800EE94474005E4FD12DCC7122E1402173B06
:101698009092ACE0FEA3E0FFC39410EE944740099B
:1016A800EF24F0FFE4FD12DCC702173B7D43122252
:1016B800449092ACE0FEA3E0FFC39420EE94104067
:1016C80009EF24E0FFE4FD12DCC780677D461222A3
:1016D800449092ACE0FCA3E0FD2490908AE0F0AF47
:1016E80005AE04E4FCFD7B017A8A79E1908C7BF0FD
:1016F800A304F0128D6D908AE1E0FEA3E0FF7D4324
:1017080012ADC5908AE3EEF0A3EFF0908AE0E024F2
:1017180020FFE43410FEE4FCFD7B017A8A79E39033
:101728008CF5F0A304F01299DF908AE0E0FFE4FD65
:1017380012DCC712DCB512D96902187712B4050297
:10174800187712DD3902185F9092ACE0FEA3E0FF33
:10175800E4FCFD7B017A8A79E0908C7BF0A304F0AD
:10176800128D6D908AE0E0FEA3E0FF7D4312ADC5C7
:10177800908AE2EEF0A3EFF07B017A8A79E2908C0E
:10178800F5E4F0A304F07F247E487D007C001299E4
:10179800DF12DD3902185FE4FD7F0112DCD612DDAD
:1017A8003302185F9092ACE0FEA3E0FFE4FCFD7BFF
:1017B800017A8A79E0908C7BF0A304F0128D6D9009
:1017C8008AE0E0FEA3E0FF7D4312ADC5908AE2EE19
:1017D800F0A3EFF07B017A8A79E2908CF5E4F0A32C
:1017E80004F07F387E487D007C001299DFE4FD7F9D
:1017F8000112DCD612DD33805E12D1467D01E4FF92
:1018080012DCD612DD36804F7D01E4FF12DCD612E1
:10181800D17E12DD36804012DD33803B12DD3C8004
:101828003612DD3980317B017A8A79DB908C7BE452
:10183800F0A304F07F387E207D007C00128D6D902F
:101848008ADBE07002A3E06004D2278002C227A2EC
:1018580027B3921A12CDDC12DCB5801312301E8029
:101868000E12DD5D12DCB512DD2A7F3412D45E90D3
:1018780092ACE0FEA3E0FFC3EE94485003021A5B6B
:10188800D3EF945FEE94484003021A5BEF7003EEC7
:1018980064487003021A5BEF64027003EE644870D8
:1018A80003021A5BEF64047003EE64487003021AC3
:1018B8005BEF64067003EE64487003021A5BEF6422
:1018C800107003EE64487003021A5BEF6412700331
:1018D800EE64487003021A5BEF64147003EE644808
:1018E8007003021A5BEF64167003EE64487003021B
:1018F8001A5BEF64507003EE64487003021A5BEFE2
:1019080064527003EE64487003021A5BEF6454700B
:1019180003EE64487003021A5BEF64467003EE64DA
:10192800487003021A5BEF64427003EE6448700368
:10193800021A5BEF64447003EE64487003021A5B9A
:101948001233BEEF6003021A5B908AE1F09092AC0A
:10195800E0FEA3E0FF7B017A8A79E11236A6908A3D
:10196800E2EFF060279092ACE0FEA3E0FF908AE1FE
:10197800E07D4360027D4612224C908AE1E06003DC
:10198800021A5812B67412DD0F021A589092ACE07F
:10199800FEA3E0FFE4FCFD7B017A8A79DD908C7B75
:1019A800F0A304F0128D6D9092ACA3E0908AE0F061
:1019B800E0FF25E024B6F582E43482F583E0FCA359
:1019C800E0FDEF25E02476F582E43483F583E0FE3C
:1019D800A3E0FFD39DEC6480F8EE648098405690B5
:1019E8008ADDE0FCA3E0FDD39FEE6480F8EC648020
:1019F800984019908AE0E025E02476F582E4348363
:101A0800F583E0FFA3E0908ADDCF8025908AE0E0AF
:101A180025E024B6F582E43482F583E0FEA3E0FFF6
:101A2800C3ED9FEE6480F8EC6480985008908ADDDE
:101A3800EEF0A3EFF09092ACE0FEA3E0FFE4FCFD33
:101A48007B017A8A79DD908CF5F0A304F01299DF96
:101A580012DCB5227B017A8B7958908C7BE4F0A359
:101A680004F07F037E207D007C00128D6D7B017A5F
:101A78008B795A908C7BE4F0A304F07F057E207D5F
:101A8800007C00128D6D7B017A8B795C908C7BE4F5
:101A9800F0A304F07F067E207D007C00128D6D90FF
:101AA8008B58E07002A3E0601A908B5AE0FEA3E026
:101AB800FF4E6002802D908B5CE0FEA3E0FF4E603D
:101AC8002F800B908B5CE0FEA3E0FF4E600A7D4305
:101AD80012ADC5908B5A8013908B5AE0FEA3E0FF9D
:101AE8004E600D7D4612ADC5908B5CEEF0A3EFF015
:101AF800908B5AE0FEA3E0FF4E60028020908B5C42
:101B0800E0FEA3E0FF4E60187D4312ADC5908B5AEE
:101B1800EEF0A3EFF0908B5AE0FEA3E0FF1232F351
:101B28007B017A8B795A908CF5E4F0A304F07F2539
:101B38007E207D007C001299DF7B017A8B795C9096
:101B48008CF5E4F0A304F07F267E207D007C001253
:101B580099DF123BDA908B67126FA1000048107F63
:101B680000123B7E908B67126FA1000048127F0223
:101B7800123B7E908B67126FA1000048147F0412FD
:101B88003B7E908B67126FA1000048167F06123BC0
:101B98007E908B5E7401F0908B5EE0FFD3940374AB
:101BA8008094805044123AC0908B5E1238A5908B76
:101BB8005AEEF0A3EFF0908B5AE0FEA3E0FF4E60E0
:101BC8001D7D4612ADC5908B5CEEF0A3EFF0A3E04F
:101BD800FF908B5CE0FAA3E0FB7D0112392743C933
:101BE80001908B5EE004F080AE908B67126FA100CD
:101BF8000010087F067E10123B80908B67126FA141
:101C08000000101A7F147E10123B80E4908B5EF067
:101C1800908B5EE0FFC39406748094804003021C9E
:101C2800DEEF2420FFE43410FEE4FCFD7B017A8B18
:101C3800795A908C7BF0A304F0128D6D908B5EE046
:101C4800FF908B5AE0FCA3E0FD12398F908B5EE089
:101C580025E0FFE433FEEF2430FFEE3410FEE4FC11
:101C6800FD7B017A8B795F908C7BF0A37402F01274
:101C78008D6DE4FFFEFDFC908B5FE0F8A3E0F9A317
:101C8800E0FAA3E0FB1266DC6040403E908B5EE029
:101C980025E0FFE433FEEF2430FFEE3410FEE4FCD1
:101CA800FDC004C005C006C007E025E0FFE433FE20
:101CB800EF2440FFEE3410FEE4908B67126F95D04E
:101CC80007D006D005D004123B8443C901908B5E2F
:101CD800E004F0021C187B017A8B795A908C7BE423
:101CE800F0A304F07F247E487D007C00128D6D9067
:101CF8008B5AE0FAA3E0FB4A6017908B67126FA13A
:101D080000004830908B6BEAF0A3EBF07F24123B85
:101D18001F7B017A8B795A908C7BE4F0A304F07FC7
:101D2800387E487D007C00128D6D908B5AE0FAA3B6
:101D3800E0FB4A6017908B67126FA1000048329051
:101D48008B6BEAF0A3EBF07F38123B1F12DB6802C3
:101D5800DCD97B017A8A79D9908C7BE4F0A304F0F2
:101D68007F127E007D007C00128D6D12201612DC21
:101D78008E908ADDEFF0908AD9E0FEA3E0FDEDFFBA
:101D8800908ADEEEF0A3EFF090929EE07003021EC0
:101D980095908ADDE0FF1235EFEF7003021E9590F3
:101DA8008AD9E0FF90929FE06F6003021E79908AC3
:101DB800DAE0FF9092A0E06F6003021E79908ADE5D
:101DC800E0FEA3E0FF909292E06E7003A3E06F70D4
:101DD80003021E95908ADBE4F0A304F0FB7A8A796B
:101DE800DB908CF5E4F0A304F07F217E407D007C3D
:101DF800001299DF7B017A9279A4908CF5E4F0A324
:101E080004F07F027E207D007C001299DF9092A46E
:101E1800E06401700BA3E0FB7A00E4FD7F018024FD
:101E28009092A4E06402700BA3E0FB7A00E4FD7FCB
:101E38000280119092A4E06403700CA3E0FB7A0086
:101E4800E4FD7F031239279092A5E0FF7E0012324D
:101E5800F312DCC112DCB512DD0612DD0C12DD0F47
:101E6800908ADEE0FFA3E0909292CFF0A3EFF0809B
:101E78001C908ADEE0FEA3E0FF909292E0B5060D8A
:101E8800A3E0B5070874FF909292F0A3F09092A196
:101E9800E07003021F2D908ADDE0FF1235EFEF702E
:101EA80003021F2D908AD9E0FF9092A2E06F70592B
:101EB800908ADAE0FF9092A3E06F704D908ADEE09E
:101EC800FEA3E0FF909294E06E7003A3E06F60556C
:101ED800E4908ADBF0A3F07B017A8A79DB908CF5B9
:101EE800F0A304F07F217E407D007C001299DF1270
:101EF800DCC112DCB512DD06908ADEE0FFA3E090BB
:101F08009294CFF0A3EFF0801C908ADEE0FEA3E06D
:101F1800FF909294E0B5060DA3E0B5070874FF9012
:101F28009294F0A3F09092BFE0606D908ADDE0FF9C
:101F380012354AEF6062908AD9E0FF9092C0E06F54
:101F4800703A908ADAE0FF9092C1E0B5072E908A45
:101F5800DEE0FEA3E0FF909296E06E7003A3E06FD0
:101F68006036122BD512DCB512D969908ADEE0FFF3
:101F7800A3E0909296CFF0A3EFF0801C908ADEE069
:101F8800FEA3E0FF909296E0B5060DA3E0B5070822
:101F980074FF909296F0A3F09092C2E0606D908AE0
:101FA800DDE0FF12354AEF6062908AD9E0FF909237
:101FB800C3E06F703A908ADAE0FF9092C4E0B50708
:101FC8002E908ADEE0FEA3E0FF909298E06E700308
:101FD800A3E06F603612382D12DCB512D969908AE9
:101FE800DEE0FFA3E0909298CFF0A3EFF0801C9082
:101FF8008ADEE0FEA3E0FF909298E0B5060DA3E02C
:10200800B5070874FF909298F0A3F002262778E0AD
:102018007C8A7D017BFF7AE279117E007F02126B58
:102028008E12D1467B017A8A79E0908C7BE4F0A30A
:1020380004F07F217E487D007C00128D6D908AE13E
:10204800E090929EF07B017A8A79E0908C7BE4F0B4
:10205800A304F07F807E107D007C00128D6D908A35
:10206800E1E090929FF07B017A8A79E0908C7BE4A2
:10207800F0A304F07F817E107D007C00128D6D90AE
:102088008AE1E09092A0F07B017A8A79E0908C7BDB
:10209800E4F0A304F07F207E487D007C00128D6D63
:1020A800908AE1E09092A1F07B017A8A79E0908CA5
:1020B8007BE4F0A304F07F827E107D007C00128D0B
:1020C8006D908AE1E09092A2F07B017A8A79E090A3
:1020D8008C7BE4F0A304F07F837E107D007C0012EB
:1020E8008D6D908AE1E09092A3F07B017A8A79E085
:1020F800908C7BE4F0A304F07F267E487D007C0072
:10210800128D6D908AE1E09092A4F0908AE6126FA9
:10211800A1000048307F241237289092A5EFF07B69
:10212800017A8A79E0908C7BE4F0A304F07F257E25
:10213800487D007C00128D6D908AE1E09092BFF09E
:102148007B017A8A79E0908C7BE4F0A304F07F84A9
:102158007E107D007C00128D6D908AE1E09092C027
:10216800F07B017A8A79E0908C7BE4F0A304F07F1D
:10217800857E107D007C00128D6D908AE1E0909242
:10218800C1F07B017A8A79E0908C7BE4F0A304F0BB
:102198007F277E487D007C00128D6D908AE1E0905B
:1021A80092C2F07B017A8A79E0908C7BE4F0A304F8
:1021B800F07F867E107D007C00128D6D908AE1E0B4
:1021C8009092C3F07B017A8A79E0908C7BE4F0A34B
:1021D80004F07F877E107D007C00128D6D908AE16F
:1021E800E09092C4F07B017A8A79E0908C7BE4F0ED
:1021F800A304F07F367E487D007C00128D6D908AA6
:10220800E1E09092C5F07B017A8A79E0908C7BE4DA
:10221800F0A304F07F377E487D007C00128D6D901E
:102228008AE1E09092C6F0908AE6126FA100004819
:10223800327F381237289092C7EFF0229092ACE0A4
:10224800FEA3E0FF908AECEDF0908AEAEEF0A3EFAF
:10225800F0E4FCFD7B017A8A79ED908C7BF0A30495
:10226800F0128D6D908AEAE0FEA3E0FFC39420EEA1
:102278009410400BD3EF9425EE941050028022C3A3
:10228800EF9470EE9410400BD3EF9475EE941050C9
:10229800028026908AEAE0FEA3E0FFBE2015BF2553
:1022A80012908AEFE4F0A37410F0A3E4F0A3742072
:1022B800F08073BE201CBF26197D467F107E001259
:1022C800ADC5908AEFEEF0A3EFF07D467F207E004B
:1022D8008049123693908AF4EFF07003022461E08B
:1022E800FF908B757401F0A3748AF0A374F1F07BEE
:1022F800017A8A79EF1237AB908AF3E06028908AE6
:10230800EFE0FEA3E0FF7D4612ADC5908AEFEEF048
:10231800A3EFF0A3E0FEA3E0FF7D4612ADC5908ACF
:10232800F1EEF0A3EFF0908AEFE0FEA3E0FF908AD1
:10233800EDE0FCA3E0FDC39FEC9E5002800F908A65
:10234800F1E0FEA3E0FFD3ED9FEC9E4008908AEDFC
:10235800EEF0A3EFF0908AEAE0FEA3E0FFE4FCFDD4
:102368007B017A8A79ED908CF5F0A304F01299DF5D
:10237800908AEAE0FEA3E0FFC39420EE9410400E9A
:10238800D3EF9425EE94105005EF24E08035908A21
:10239800EAE0FEA3E0FFC39470EE94104031D3EF5F
:1023A8009475EE94105028908AEDE0FEA3E0FF7D2E
:1023B8004312ADC5908AEDEEF0A3EFF0908AEAA340
:1023C800E02490FF908AEDE0FCA3E0FD02398F90B5
:1023D8008AEAE0B4200FA3E0B4250A908AEDE0FE73
:1023E800A3E0FF8019908AEAE0B42015A3E0B426A0
:1023F80010908AEDE0FEA3E0FF7D4312ADC50232E6
:10240800F3123693908AF4EFF0604E908AF3E0600E
:102418001A908AEDE0FEA3E0FF7D4312ADC5AB073D
:10242800AA06908AF4E0FFE4FD8023908AF4E0FF96
:10243800908AED123920908AEDE0FEA3E0FF7D46F8
:1024480012ADC5AB07AA06908AF4E0FF7D011239E8
:1024580027908AF4E0FF123112227B017A8B795C93
:10246800908C7BE4F0A304F07F107E207D007C003C
:10247800128D6D202433908B5CE07002A3E07E0007
:1024880060047F0180027F00908B5EEEF0A3EFF086
:102498007B017A8B795E908CF5E4F0A304F07F30B1
:1024A8007E207D007C001299DF12D551EFD394066F
:1024B800748094804002E4FFEFFD64036005ED64DE
:1024C8000470067E007F0180047E007F00908B5898
:1024D800EEF0A3EFF07B017A8B7958908CF5E4F05D
:1024E800A304F07F437E307D007C001299DFE490E6
:1024F8008B5AF0A3F07B017A8B7958908C7BF0A3F0
:1025080004F07F217E487D007C00128D6D908B58F1
:10251800E07002A3E06008908B5AE4F0A304F09006
:102528008B5AE07002A3E0702A7B017A8B7958906D
:102538008C7BF0A304F07F207E487D007C00128D08
:102548006D908B58E07002A3E06008908B5AE4F01D
:10255800A304F0908B5AE07002A3E070147F257EEC
:1025680048FDFC12D3E1EF6008908B5AE4F0A30415
:10257800F0908B5AE07002A3E0700E12DB09EF6056
:1025880008908B5AE4F0A304F0908B5AE07002A3F1
:10259800E07E0060047F0180027F00908B58EEF09F
:1025A800A3EFF07B017A8B7958908CF5E4F0A304C3
:1025B800F07F047E207D007C001299DF7B017A8BFE
:1025C8007960908C7BE4F0A304F0FF7E207D007C92
:1025D80000128D6D90929AE0FE908B60E0FF6E6025
:1025E8000B122F23908B60E090929AF09092B9E0B2
:1025F8007002A3E07E0060047F0180027F00908B60
:1026080058EEF0A3EFF07B017A8B7958908CF5E4C3
:10261800F0A304F07F417E307D007C000299DF90BA
:1026280092B9E07002A3E070030227E27B017A8A84
:1026380079E0908C7BE4F0A304F07F1B7E207D0082
:102648007C00128D6D908AE0E07002A3E070079024
:1026580092B9F0A3F0227B017A8A79E2908C7BE42C
:10266800F0A304F07F707E367D007C00128D6D90A3
:102678008AE2E07002A3E070187B017A8A79E2901E
:102688008C7BF0A304F07F127E107D007C00128DFD
:102698006DD3908AE3E09400908AE2E0940040676A
:1026A800E4FFFEFDFC9092A7E0F8A3E0F9A3E0FAAE
:1026B800A3E0FBD3126F24404E1293409092A7E000
:1026C800F8A3E0F9A3E0FAA3E0FBC3EF9BFFEE9ABF
:1026D800FEED99FDEC98FCC004C005C006C007904B
:1026E8008AE2E0FEA3E0FF7C007D3C127051A80462
:1026F800A905AA06AB07D007D006D005D004D31287
:102708006F2450030227A97B017A8A79E4908C7B95
:10271800E4F0A37402F07F067E107D007C00128D29
:102728006D7B017A8A79E8908C7BE4F0A37402F0DF
:102738007F147E107D007C00128D6DE4FFFEFDFC91
:102748009092A7E0F8A3E0F9A3E0FAA3E0FBD31284
:102758006F24402A1293409092A7E0F8A3E0F9A3CF
:10276800E0FAA3E0FBC3EF9BFFEE9AFEED99FDECC8
:1027780098FCE47B3CFAF9F8D3126F24505C908AF9
:10278800E8E0FCA3E0FDA3E0FEA3E0FF908AE4E01C
:10279800F8A3E0F9A3E0FAA3E0FB1266DC603B4093
:1027A80039E4908AECF0A3F09092B9F0A3F09092FB
:1027B800A7126FA10000000012DCC47B017A8A799D
:1027C800EC908CF5E4F0A304F07F1B7E207D007C68
:1027D800001299DF12DCC112DD1E227B017A8A7990
:1027E800EA908C7BE4F0A304F07F027E207D007CDD
:1027F80000128D6D908AEAE0FEA3E0FFC39401EE1B
:1028080094004009D3EF9403EE94004008908AEABC
:10281800E4F0A304F0908AEAA31238A5908AEEEEB9
:10282800F0A3EFF0908AEAA3E0FF7D011238A990A7
:102838008AF0EEF0A3EFF0123CCB908AEEEEF0A314
:10284800EFF0A3E07002A3E07018908AEEE0FEA318
:10285800E0FF4E600D7D4612ADC5908AF0EEF0A304
:10286800EFF0908AEEE07002A3E07018908AF0E032
:10287800FEA3E0FF4E600D7D4312ADC5908AEEEEDB
:10288800F0A3EFF0123CCB908AEEEEF0A3EFF090BD
:102898008AEEE0FEA3E0FF7D4612ADC5908AF0EE19
:1028A800F0A3EFF0908AEAA3E0FF908AEE123920B5
:1028B800908AEAA3E0FF908AF0E0FAA3E0FB7D01AA
:1028C8001239277B017A8A79EE908CF5E4F0A3041B
:1028D800F07F257E207D007C001299DF7B017A8ABB
:1028E80079F0908CF5E4F0A304F07F267E207D003B
:1028F8007C001299DF7B017A8A79EC908C7BE4F07A
:10290800A304F07F037E207D007C00128D6D908AE9
:10291800ECE07002A3E070177F0812D45E7B017AA6
:102928008A79EE908CF5E4F0A304F07F0580157F9A
:102938002B12D45E7B017A8A79F0908CF5E4F0A3AF
:1029480004F07F067E207D007C001299DF22303360
:1029580003022AA8302503022AA8C39092F1E09422
:10296800209092F0E0944E5003022AA820270302F8
:102978002AA812D71AEF64424E600D12D71A909205
:10298800D7EFF07F4212D45E7B017A8A79DD908C92
:102998007BE4F0A304F07F047E207D007C00128D90
:1029A8006D7B017A8A79DB908C7BE4F0A304F0FFDD
:1029B8007E207D007C00128D6D7B017A8A79DF9004
:1029C8008C7BE4F0A304F07F077E467D007C001238
:1029D8008D6D908ADFE07002A3E06008908ADA7457
:1029E80004F08039908ADDE07002A3E07006908AD6
:1029F800DAF08029908ADBE0FEA3E0FFEE7018EFA2
:102A080024FE600B047010908ADA7401F0800E9036
:102A18008ADA7402F08006908ADA7403F0908ADA0F
:102A2800E0FF90929DE06F6077E4908AD9F0908AF9
:102A3800D9E0FFC3940574809480505CA3E06F6074
:102A48001F908AE174FFF0A3E4F0A3F0A3F0908A4A
:102A5800D9E075F002A42460FFE5F03430FE801D53
:102A6800908AD9E075F002A42460FFE5F03430FEC6
:102A7800908AE1F0A3EFF0A3E4F0A304F0E4FCFDF6
:102A88007B017A8A79E3908CF5F0A304F01299DF40
:102A9800908AD9E004F08096908ADAE090929DF0CE
:102AA8002212DCE2EF6062E4908AD9F0908AD9E0E1
:102AB800FFC3940674809480504CEF2410FFE434D4
:102AC80040FEE4FCFD7B017A8A79DA908C7BF0A3E6
:102AD80004F0128D6DD3908ADBE09401908ADAE0DD
:102AE80094004005E4F0A304F0908ADAA3E0FF9094
:102AF8008AD9E024C9F582E43492F583EFF0908A0C
:102B0800D9E004F080A6022BCEE4908AD9F0908A0E
:102B1800D9E0FFC39406748094804003022BCEEF63
:102B28002410FFE43440FEE4FCFD7B017A8A79DA64
:102B3800908C7BF0A304F0128D6DD3908ADBE09427
:102B480001908ADAE094004005E4F0A304F0909242
:102B5800BDE07017908ADAA3E0FF908AD9E024C913
:102B6800F582E43492F583EFF08052908ADAE0FE41
:102B7800A3E0FFFD908AD9E024C9F582E43492F5F8
:102B880083E0FCED6C6036908AD9E0FC24C9F582BC
:102B9800E43492F583EDF07BFF7AE179C6EC240109
:102BA800FCE433908B94F0A3CCF0A3EEF0A3EFF009
:102BB800128427908AD9E0FFE4FD12DCC7908AD9F5
:102BC800E004F0022B169092BD7401F022E4908A82
:102BD800E3F0A3F07B017A8A79E3908C7BF0A3047D
:102BE800F07F377E487D007C00128D6D7B017A8AEC
:102BF80079E5908C7BE4F0A304F07F387E487D0073
:102C08007C00128D6D7B017A8A79E7908C7BE4F0E9
:102C1800A304F07F817E307D007C00128D6DE490EE
:102C28008AE0F0908AE0E0FFC394067480948040C4
:102C380003022CFEE4908AE9F0A3F0EF2460FFE49D
:102C48003448FEE4FCFD7B017A8A79E9908C7BF0BC
:102C5800A304F0128D6D908AE9E07002A3E070037E
:102C6800022CF5908AE1E4F0A304F0908AE0E024D5
:102C780010FFE43440FEE4FCFD7B017A8A79E190A0
:102C88008CF5F0A304F01299DF908AE0E02400FFAD
:102C9800E43447FEE4FCFD7B017A8A79E3908CF505
:102CA800F0A304F01299DF908AE0E02420FFE434D6
:102CB80010FEE4FCFD7B017A8A79E5908CF5F0A39F
:102CC80004F01299DF908AE0E02410FFE43447FE14
:102CD800E4FCFD7B017A8A79E7908CF5F0A304F097
:102CE8001299DF908AE0E0FFE4FD12DCC7908AE0E9
:102CF800E004F0022C2B02D9697B017A8A79EC90E6
:102D08008C7BE4F0A304F07F107E307D007C001201
:102D18008D6D7B017A8A79EC908CF5E4F0A304F050
:102D28007F707E307D007C001299DF7B017A8A7982
:102D3800EE908C7BE4F0A304F07F117E307D007C64
:102D480000128D6D908AECE0FEA3E0FFA3E0FCA3E7
:102D5800E0FD12DBAE908AF0EEF0A3EFF07B017A93
:102D68008A79F0908CF5E4F0A304F07F727E307DD0
:102D7800007C001299DF7B017A8A79EA908C7BE4E7
:102D8800F0A304F07F127E307D007C00128D6D7BF5
:102D9800017A8A79EA908CF5E4F0A304F07F737ED7
:102DA800307D007C001299DF7B017A8A79EA908C69
:102DB8007BE4F0A304F07F137E307D007C00128D4D
:102DC8006D7B017A8A79EA908CF5E4F0A304F07FB0
:102DD800747E307D007C001299DF7B017A8A79EA63
:102DE800908C7BE4F0A304F07F147E307D007C009F
:102DF800128D6D7B017A8A79EA908CF5E4F0A30450
:102E0800F07F757E307D007C000299DFE4908B8531
:102E1800F0A3F0A3F0A374FFF0E4908B87F0908BFD
:102E280087E0FFC39406748094805037EF2410FF26
:102E3800E43440FEE4FCFD7B017A8B7985908C7B41
:102E4800F0A304F0128D6D908B85E07004A3E0640C
:102E5800017008908B87E0A3F08008908B87E004CE
:102E6800F080BBE4908B85F0A3F0908B88E0FFC3E3
:102E78009406748094805050E42FFFE43447FEE4B5
:102E8800FCFD7B017A8B7985908C7BF0A304F01292
:102E98008D6DD3908B86E09404908B85E0940040F0
:102EA80004E4F0A3F0908B88E075F020A42401FFDF
:102EB800E5F03411FEE4FCFD7B017A8B7985908C7A
:102EC800F5F0A304F01299DF7B017A8B7985908C59
:102ED800F5E4F0A304F0FF7E207D007C001299DF6A
:102EE8007B017A8B7985908CF5E4F0A304F07F1749
:102EF8007E407D007C001299DF909291E0FF908BDC
:102F080085E0FCA3E0FD6F7001EC600EAF05122FA9
:102F180023908B85A3E0909291F022EFD3940474D0
:102F280080948040027F04EF14601C14602B1460AE
:102F38003A24037047908B89E4F0A37432F0A3E439
:102F4800F0A37442F08045908B89E4F0A37446F0B6
:102F5800A3E4F0A37456F08033908B89E4F0A37453
:102F680014F0A3E4F0A37424F08021908B89E4F09A
:102F7800A304F0A3E4F0A37411F08010908B89E40B
:102F8800F0A37428F0A3E4F0A37431F07B017A8BEA
:102F9800798B908CF5E4F0A304F07F067E807D00A9
:102FA8007C001299DF7B017A8B7989908CF5E4F0AB
:102FB800A304F07F077E807D007C001299DF7B01EF
:102FC8007A8B798B908CF5E4F0A304F07F087E80EF
:102FD8007D007C001299DF908B8DE4F0A304F0FB58
:102FE8007A8B798D908CF5E4F0A304F07F607E40B5
:102FF8007D007C001299DFE4908B8DF0A3F07B01BB
:103008007A8B798D908CF5F0A304F07F607E407DFB
:10301800007C000299DF7B017A8A79F0908C7BE44E
:10302800F0A304F07F707E307D007C00128D6D7BF4
:10303800017A8A79F2908C7BE4F0A304F07F727EA7
:10304800307D007C00128D6D7B017A8A79F4908C3A
:103058007BE4F0A304F07F737E307D007C00128D4A
:103068006D7B017A8A79F6908C7BE4F0A304F07F7B
:10307800747E307D007C00128D6D7B017A8A79F830
:10308800908C7BE4F0A304F07F757E307D007C009B
:10309800128D6D908AF0E0FEA3E0FFC394D0EE9409
:1030A80007400CEF2430FFEE34F8908AFA800B903A
:1030B8008AF0E0FFA3E0908AFACFF0A3EFF0908ABD
:1030C800FBE0FE908AF3E0FDEDFF908AEAEEF0A3C4
:1030D800EFF0908AF5E0FE908AF7E0FDEDFF908A28
:1030E800ECEEF0A3EFF0908AF9E0908AEEF0A3E41A
:1030F800F07B017A8A79EA908CF5F0A37403F07F6B
:103108009D7E007D007C000299DF908B6DEFF07E44
:1031180000C39401748094805003023204D3EF9466
:10312800037480948040030232041238A5908B6E99
:10313800EEF0A3EFF0908B6DE0FF7D011238A990BF
:103148008B70EEF0A3EFF0908B70E07002A3E0704C
:1031580018908B6EE0FEA3E0FF4E600D7D4612AD29
:10316800C5908B70EEF0A3EFF0908B6DE0FFE4FD5F
:10317800123EA7908B72126F95908B72E0FCA3E0C1
:10318800FDA3E0FEA3E0FFEC4D4E4F60117B017AFA
:103198008B796E908CF5E4F0A304F01299DF908B94
:1031A8006DE0FF7D01123EA7908B72126F95908B98
:1031B80072E0FCA3E0FDA3E0FEA3E0FFEC4D4E4F60
:1031C800603AE47F407E48FDFC908B72E0F8A3E013
:1031D800F9A3E0FAA3E0FBC3126F24601F908B727F
:1031E800E0FCA3E0FDA3E0FEA3E0FF7B017A8B797E
:1031F80070908CF5E4F0A304F01299DF22202403E8
:103208000232F0908ADBE4F0A304F0FB7A8A79D9E1
:10321800908C7BE4F0A304F07F107E207D007C007E
:10322800128D6D908AD9E07004A3E0640170187B58
:10323800017A8A79DB908CF5F0A304F07F107E2068
:103248007D007C001299DFC39092D6E094D09092D2
:10325800D5E0940750030232F23023030232F2E43D
:10326800908ADFF0A3F0D2237B017A8A79DD908CF3
:103278007BF0A304F07F107E207D007C00128D6D12
:10328800908ADDE07002A3E07E0060047F00800287
:103298007F01908ADDEEF0A3EFF0908ADDE0FEA3D7
:1032A800E0FF123D5712DCB512DD1BC224E49092F8
:1032B800D5F0A3F09092EEE0FEA3E0FFC39430EEC9
:1032C8009420401CD3EF9432EE94205013E4FCFD7C
:1032D8007B017A8A79DF908CF5F0A304F01299DFEC
:1032E800E49092EEF0A3F022C22322908B67EEF0D6
:1032F800A3EFF07B017A8B796B908C7BE4F0A304CD
:10330800F07F027E207D007C00128D6D908B6BE03B
:10331800FEA3E0FFC39401EE94004017D3EF94039B
:10332800EE9400500E908B67123CD4908B67EEF0B1
:10333800A3EFF0908B67E0FEA3E0FF7D4612ADC5DA
:10334800908B69EEF0A3EFF07B017A8B7967908C14
:10335800F5E4F0A304F07F057E207D007C0012993F
:10336800DF7B017A8B7969908CF5E4F0A304F07F18
:10337800067E207D007C001299DF908B6BE0FEA317
:10338800E0FFC39401EE9400402BD3EF9403EE9436
:10339800005022908B67123920908B6BA3E0FF902E
:1033A8008B69E0FAA3E0FB7D01123927908B6BA3B0
:1033B800E0FF12311222EF64257003EE64486010BA
:1033C800EF64277003EE64486006BE4806BF4003FA
:1033D8007F0122EF64207003EE6448601AEF6421D5
:1033E8007003EE64486010EF64247003EE64486074
:1033F80006BE4806BF26037F0122C3EF9480EE94E1
:1034080010400CD3EF9487EE941050037F0122EF05
:1034180064377003EE64486010EF64367003EE643E
:10342800486006BE3006BF81037F0122EF64247026
:1034380003EE6448601AEF64307003EE644860106D
:10344800EF64387003EE64486006BE4806BF320376
:103458007F0122C3EE9445400CD3EF9406EE9445C9
:1034680050037F0122C3EF9410EE9445400CD3EF34
:103478009416EE944550037F01227F0022908AEB38
:10348800ECF0A3EDF0908AEAEFF0C3940174809415
:10349800805003023549D3EF94037480948040032D
:1034A800023549A3E0FEA3E0FFC3940AEE9400505E
:1034B80003023549908AEAE025E024D8F582E4340D
:1034C80092F583EEF0A3EFF07B017A8A79EF908C86
:1034D8007BE4F0A304F07F027E207D007C00128D47
:1034E8006D908AEAE0FF908AEFE07003A3E06F70C6
:1034F80047908AEBE0FEA3E0FF7D4612ADC5908AB7
:10350800EDEEF0A3EFF07B017A8A79EB908CF5E48D
:10351800F0A304F07F057E207D007C001299DF7BFC
:10352800017A8A79ED908CF5E4F0A304F07F067EA9
:10353800207D007C001299DF12DCB212DCB512DDAE
:103548000F22E4908AE2F0A3F0EF70047F06800572
:10355800C3EF9401FF908AE0EFF0E4908AE4F090E2
:103568008AE4E0FFC39407748094805049EF2410E4
:10357800FFE43445FEE4FCFD7B017A8A79E1908C16
:103588007BF0A304F0128D6D908AE1E06020908AB0
:10359800E4E0FF7E007401A807088005C333CE333A
:1035A800CED8F9FF908AE2E04EF0A3E04FF0908A7F
:1035B800E4E004F080A9908AE2E0FCA3E0FD4C700E
:1035C800037F0122908AE0E0FF7E007401A80708CB
:1035D8008005C333CE33CED8F9FFEC5EFEED5F4EE7
:1035E8007F0060027F0122E4908AE2F0A3F0EF708E
:1035F800047F068005C3EF9401FF908AE0EFF0E4B2
:10360800908AE4F0908AE4E0FFC394077480948081
:103618005048E42FFFE43445FEE4FCFD7B017A8A40
:1036280079E1908C7BF0A304F0128D6D908AE1E033
:103638006020908AE4E0FF7E007401A807088005F6
:10364800C333CE33CED8F9FF908AE2E04EF0A3E040
:103658004FF0908AE4E004F080AA908AE2E0FCA3AC
:10366800E0FD4C70037F0122908AE0E0FF7E007449
:1036780001A807088005C333CE33CED8F9FFEC5E26
:10368800FEED5F4E7F0060027F0122E4908AF3F036
:10369800908AEAE0FEA3E0FF7B017A8A79F3908AB8
:1036A800F5EEF0A3EFF0A3EBF0A3EAF0A3E9F0A3A3
:1036B8007401F0908AFAE0FFD394037480948050E8
:1036C8005CE4FD123C34908AF5E0B50619A3E0B538
:1036D8000714A3E0FBA3E0FAA3E0F9EA494B602F43
:1036E800E4126C2D8029908AFAE0FF7D01123C34A7
:1036F800908AF5E0B5061EA3E0B50719A3E0FBA381
:10370800E0FAA3E0F9EA494B60057401126C2D90C8
:103718008AFAE0FF22908AFAE004F080967F00227D
:103728007E487D007C00908AE2126F957B017A8A40
:1037380079EA908C7BE4F0A304F07F037E207D007F
:103748007C00128D6D908AEAE07002A3E0602C90F4
:103758008AE6E0FCA3E0FDA3E0FEA3E0FF7B017A9C
:103768008A79EE908C7BE4F0A304F0128D6D908A38
:10377800EEE0FEA3E0FF7D4302ADC5908AE2E0FCE7
:10378800A3E0FDA3E0FEA3E0FF7B017A8A79EC9039
:103798008C7BE4F0A304F0128D6D908AECE0FEA31C
:1037A800E0FF22908B72EBF0A3EAF0A3E9F0EF249C
:1037B800FE600714602724028046908B72E0FBA30A
:1037C800E0FAA3E0F9E475F01E126D97908B75E0AE
:1037D800FBA3E0FAA3E0F9E475F0328044908B7221
:1037E800E0FBA3E0FAA3E0F9E475F00F126D9790FF
:1037F8008B75E0FBA3E0FAA3E0F9E475F0288021DB
:10380800908B72E0FBA3E0FAA3E0F9E475F01E12D6
:103818006D97908B75E0FBA3E0FAA3E0F9E475F0EF
:103828003C126D9722E4908AE1F0A3F0908AE0F0D0
:10383800908AE0E0FFC3940674809480505CE49022
:103848008AE3F0A3F0EF2460FFE43448FEE4FCFDD3
:103858007B017A8A79E3908C7BF0A304F0128D6D5A
:10386800908AE3E07002A3E06028908AE0E02410E8
:10387800FFE43440FEE4FCFD7B017A8A79E1908C18
:10388800F5F0A304F01299DF908AE0E0FFE4FD125E
:10389800DCC7908AE0E004F0809602D969E0FFE492
:1038A800FD908B76EFF0A3EDF0E4A3F0A3F0123CCB
:1038B80034EC4D4E4F60117B017A8B7978908C7B7C
:1038C800E4F0A304F0128D6D908B77E0703B908B41
:1038D80076E0FFC3940174809480402DD3EF940365
:1038E800748094805023908B78E0FEA3E0FF9402CC
:1038F800EE94004014908B76E025E024D8F582E41D
:103908003492F583EEF0A3EFF0908B78E0FEA3E01D
:10391800FF22A3E0908AE0FFE0FAA3E0FBE4FD9039
:103928008B6EEDF0A3EAF0A3EBF0908B6DEFF0A3B4
:10393800E0FD123C34EC4D4E4F60117B017A8B79DF
:103948006F908CF5E4F0A304F01299DF908B6EE091
:103958007034908B6DE0FFC394017480948040268E
:10396800D3EF940374809480501C908B6FE0FEA377
:10397800E0FF908B6DE025E024D8F582E43492F5E1
:1039880083EEF0A3EFF022908B64ECF0A3EDF090BF
:103998008B63EFF0C3940674809480504FA3E0FECD
:1039A800A3E0FF7D4612ADC5908B66EEF0A3EFF065
:1039B800908B63E02420FFE43410FEE4FCFD7B01DF
:1039C8007A8B7964908CF5F0A304F01299DF908BD0
:1039D80063E02470FFE43410FEE4FCFD7B017A8B85
:1039E8007966908CF5F0A304F01299DF22E4908BAD
:1039F80085F0908B85E0FFC3940674809480504CCA
:103A0800EF2410FFE43440FEE4FCFD7B017A8B795F
:103A180086908C7BF0A304F0128D6DD3908B87E099
:103A28009401908B86E094004005E4F0A304F090A4
:103A38008B86A3E0FF908B85E024C9F582E434925D
:103A4800F583EFF0908B85E004F080A69092BD742A
:103A580001F02278D97C8A7D017BFF7AE2790D7E9C
:103A6800007F04126B8E7B017A9279F2908C7BE452
:103A7800F0A37402F07F007E0F7D007C00128D6D34
:103A88009092F2E0645A702DA3E0FEA3E0FDEDFFF2
:103A98009092ACEEF0A3EFF07B017A8A79D9908C02
:103AA800F5E4F0A37402F07F007E0F7D007C001225
:103AB80099DF7F01227F0022908B63EFF07E00C3A5
:103AC800940174809480404ED3EF94037480948062
:103AD80050441238A5908B64EEF0FCA3EFF0FD90F3
:103AE8008B63E0FF123CD9908B64EEF0A3EFF07D7E
:103AF8004612ADC5908B66EEF0A3EFF0908B63E0B5
:103B0800A312391F908B63E0FF908B66E0FAA3E065
:103B1800FB7D01123927227E487D007C00908B6353
:103B2800126F95908B6BE0FEA3E0FF7D4612ADC54A
:103B3800908B6DEEF0A3EFF0908B63E0FCA3E0FDBB
:103B4800A3E0FEA3E0FF7B017A8B796B908CF5E410
:103B5800F0A304F01299DF908B67E0FCA3E0FDA3CB
:103B6800E0FEA3E0FF7B017A8B796D908CF5E4F0A1
:103B7800A304F00299DF7E487D007C007B017A8BEC
:103B8800796B908C7BE4F0A37402F0128D6D908BAE
:103B98006BE0FCA3E0FDA3E0FEA3E0FF1267937DCA
:103BA8004612ADC5AC06AD07EC12675A908B6F1282
:103BB8006F95908B67E0FCA3E0FDA3E0FEA3E0FF18
:103BC8007B017A8B796F908CF5E4F0A37402F00294
:103BD80099DF7B017A8B7963908C7BE4F0A304F006
:103BE8007F027E207D007C00128D6D7B017A8B79AF
:103BF80065908C7BE4F0A304F07F037E207D007C3D
:103C080000128D6D908B63E0FEA3E0FFC39401EE7C
:103C180094004017D3EF9403EE9400500E908B63FA
:103C2800A3A3A3E0FD123DBB1232F322EFFBC39422
:103C38000174809480400AD3EB940374809480408C
:103C480006E4FFFEFDFC22ED6017EF640170047FBF
:103C5800428023EF640270047F468003E47F44803F
:103C680015EF640170047F52800CEF640270047FCA
:103C7800508003E47F547E48FDFC22E4908B58F08A
:103C8800A3F0201B0B12D71A123E0D503502DCF19F
:103C98007B017A8B7958908C7BE4F0A304F07F0346
:103CA8007E207D007C00128D6D908B58E07002A301
:103CB800E070047F0180027F1E12D45E12DCF112D4
:103CC8003BDA22908AEAA3E0FF908AEEE0FCA3E0C8
:103CD800FD908B757401F0A3748BF0A3746FF07B67
:103CE800017A8B796D1237AB908B6DE0FEA3E0FF04
:103CF800D39DEE9C5012C3908B70E09D908B6FE02B
:103D08009C500122AE04AF0522908AEAEFF0A3E0AE
:103D1800FCA3E0FDA3E0FEA3E0FF126793908AF105
:103D2800EEF0A3EFF07D4612ADC5908AEFEEF0A35A
:103D3800EFF0908AEAE0FF908AF1123920908AEA3F
:103D4800E0FF908AEFE0FAA3E0FB7D0102392790BB
:103D58008AE1EEF0A3EFF07B017A8A79E1908CF5A5
:103D6800E4F0A304F07F107E207D007C001299DF30
:103D7800908AE1E07002A3E07005D21B123C830236
:103D88002462202602802612DC9AEF60097F17122F
:103D9800D45EC226801790929BE004F0E0C3941E84
:103DA80074809480400C7F1512D45EC226E49092F1
:103DB8009BF022908B67EFF0A3EDF01238A9AD07C6
:103DC800AC06908B68E0600DED4C60097D4312AD48
:103DD800C5AC06AD07908B67E0FF023CD9302524BF
:103DE80090929CE0C3940F748094805004E004F097
:103DF80022C225E490929CF0D21A12DC80E49092C0
:103E0800F0F0A3F022C21CE4FEEEC3940874809480
:103E180080501574B02EF582E43492F583E0B5072E
:103E280004D21C80030E80E1A21C22E4908B56F081
:103E3800A3F07B017A8B7956908C7BF0A304F07FFA
:103E4800037E207D007C00128D6D021A5C908AEA48
:103E5800EEF0A3EFF07B017A8A79EA908CF5E4F032
:103E6800A304F0FF7E207D007C000299DF123A5BFC
:103E7800EF60189092ACE0FFA3E09092CFCFF0A350
:103E8800EFF0D228E49092F0F0A3F0229092A712DB
:103E98006FA10000000022908AEAEFF0022E1402BF
:053EA8003C3402DB6860
:10410000C0087441C0E0C082C08375080A750C0005
:1041100012CA1122C0087441C0E0C082C083750871
:104120001E750C0112CA1122C0087441C0E0C08281
:10413000C083750832750C0212CA1122C00874417E
:10414000C0E0C082C083750846750C0312CA1122F4
:10415000C0087441C0E0C082C08375085A750C0461
:1041600012CA1122C0087441C0E0C082C083750821
:104170006E750C0512CA1122C0087441C0E0C082DD
:10418000C083750882750C0612CA1122C0087441DA
:10419000C0E0C082C083750896750C0712CA112250
:1041A000903C3421149031122114903CD921149068
:1041B00032052114903E9421149039272114902A1D
:1041C000A921149039F52114903E75211490010015
:1041D0002114902E142114903C832114903EAA2186
:1041E000149032F32114903E332114901D5A21145F
:1041F0009024622114903D8A2114903DE521149071
:1042000029562114901CBE2150901CC12150901C95
:10421000B821509013E62150901CC42150901C7777
:1042200021509018F12150901CAF2150901C8A21F0
:1042300050901C9D2150901BC22150901C48215031
:10424000901D44216490059621649007CD216490CF
:1042500009A721649015F4216490141E216490161E
:10426000C9216490234C2164902259216490150B3C
:104270002164901E622164901F8C21649021292169
:1042800064901FCC21649021B12164902158216455
:104290009021DB2164902205216490222F216490DB
:1042A00020092164901BFF21649019C52164901A94
:1042B000372164901AA92164901B1B216490204629
:1042C0002164901B8D2164902083216490230C2114
:1042D0006490241621649018B62164901DAA21646C
:1042E00090182C2164902402216490131C21649066
:1042F00020F6216490241C2164901F482164901EA4
:104300000E216400E4908AEEF0A3F0908B02F0A3FB
:10431000F0A3F0A3F0A3F0A3F0A3F0A3F0A3F0A305
:10432000F0908B12F0A3F078147C8B7D017BFF7AE8
:10433000DE79FFFE7F08126B8EE4908B1CF0A3F0F9
:10434000909013E0640160030256FAF012DC65906D
:104350008437E064017012908F0BE02405FEE43393
:10436000908B06F0A3CEF08009908B06E4F0A37446
:1043700008F0908B06E0FEA3E0FF2408F582748F1E
:104380003EF583E0908AF0F074072FF582748F3E3B
:10439000F583E0908AF1F0908AF0E0FFA3E0908B43
:1043A00008CFF0A3EFF07B017A8F7909908B07E0BB
:1043B00024FEFD908B06E034FFFC12AE88908B0A41
:1043C000EEF0A3EFF0908B08E06E7003A3E06F7047
:1043D0003C908439E0FF908AEEE4F0A3EFF0E490A3
:1043E000824EF0908437E09080AF600FE0FEA3E053
:1043F000FF7B017A8F79097D01800DE0FEA3E0FF4C
:104400007B017A8F7909E4FD12A9BF803174FF9096
:104410008AEEF0A3F0FB7ADE79B59080AFE0FFA3DF
:10442000E0908B94CFF0A3EFF0128427908437E0D4
:10443000600C908439E064057004C212D20290844A
:1044400037E0640160030255BB908AEEE0FEA3E012
:10445000FFEE60030256FAEF24FC7003024850247A
:10446000FE7003024BA324FE700302531114700369
:104470000250DA24FD700302542924076003025617
:10448000FA301103024846908F0CE0908AF0F090C9
:104490008F0DE0908AF1F0908AF0E0FEA3E04E7E6E
:1044A0000060047F0180027F00908B1EEEF0A3EF7E
:1044B000F0D390820AE09400908209E09400401CBE
:1044C000908250E0FEA3E0FF908B1EE06E7003A38D
:1044D000E06F7072908209F0A3F0806A7B017A8BA2
:1044E0007922908C7BE4F0A304F07F217E407D0054
:1044F0007C00128D6DD3908B23E09401908B22E091
:1045000094004005E4F0A304F0908B1EE0FEA3E0CD
:10451000FF908B22E06E7003A3E06F60297B017A2D
:104520008B791E908CF5E4F0A304F07F217E407D12
:10453000007C001299DF908B1EE0FEA3E0FF12DCEE
:10454000FD7F0812DD007B017A807903908C7BE48B
:10455000F0A304F07F027E207D007C00128D6D9020
:104560008F0EE0908AF0F0908F0FE0908AF1F0903B
:104570008AF0E0FFA3E0908AFACFF0A3EFF09082F8
:1045800009E07002A3E07033908AFAE0FEA3E0FF36
:10459000908003E06E7003A3E06F601F7B017A8A56
:1045A00079FA908CF5E4F0A304F07F027E207D0080
:1045B0007C001299DF12D10D12427CE4FD7F0112C2
:1045C00041A07B017A807901908C7BE4F0A304F018
:1045D000128D6D908F10E0908AF0F0908F11E09026
:1045E0008AF1F0908AF0E0FEA3E0FF7C007D0A12E1
:1045F0006C73908AFCEEF0A3EFF0908AFCE0FCA3D1
:10460000E0FD4C70030246947F011241AA908AFC9F
:10461000EEF0FCA3EFF0FD7F0112BAF5EF607590AC
:104620008AFCE0FAA3E0FB908001E06A7003A3E05B
:104630006B6061E4FD7F011241B9908AFCE0FEA34A
:10464000E0FF7D4612ADC5AB07AA067D017F0112D2
:1046500041B97B017A8B7920908C7BE4F0A304F044
:104660007F027E207D007C00128D6D908B20E0709B
:1046700004A3E06401700B908AFCE0FEA3E0FF124B
:1046800041E112D10D908B20E07004A3E064017031
:1046900003124281E4FD7F021241A07B017A8079FE
:1046A00001908C7BE4F0A304F0128D6D908F12E0EA
:1046B000908AF0F0908F13E0908AF1F0908AF0E009
:1046C000FEA3E0FF7C007D0A126C73908AFCEEF082
:1046D000A3EFF0908AFCE0FCA3E0FD4C70030247DE
:1046E0006D7F021241AA908AFCEEF0FCA3EFF0FD70
:1046F0007F0212BAF5EF6075908AFCE0FAA3E0FB46
:10470000908001E06A7003A3E06B6061E4FD7F02CA
:104710001241B9908AFCE0FEA3E0FF7D4612ADC5D0
:10472000AB07AA067D017F021241B97B017A8B7922
:1047300020908C7BE4F0A304F07F027E207D007C3F
:1047400000128D6D908B20E07004A3E06402700B6A
:10475000908AFCE0FEA3E0FF1241E112D10D908BA4
:1047600020E07004A3E064027003124281E4FD7F44
:10477000031241A07B017A807901908C7BE4F0A345
:1047800004F0128D6D908F1EE0908AF0F0908F1FD4
:10479000E0908AF1F0908AF0E0FEA3E0FF7C007DDB
:1047A0000A126C73908AFCEEF0A3EFF0908AFCE0A2
:1047B000FCA3E0FD4C70030248467F031241AA901F
:1047C0008AFCEEF0FCA3EFF0FD7F0312BAF5EF6078
:1047D00075908AFCE0FAA3E0FB908001E06A700328
:1047E000A3E06B6061E4FD7F031241B9908AFCE0B5
:1047F000FEA3E0FF7D4612ADC5AB07AA067D017F93
:10480000031241B97B017A8B7920908C7BE4F0A371
:1048100004F07F027E207D007C00128D6D908B2045
:10482000E07004A3E06403700B908AFCE0FEA3E058
:10483000FF1241E112D10D908B20E07004A3E064DF
:1048400003700312428112DB68C212D2020250D7F7
:104850007B017A8A79F6908C7BE4F0A304F07F03E5
:104860007E207D007C00128D6D908AF6E07002A3A0
:10487000E07003024956E4908B02F0A3F0908B02A3
:10488000E0FCA3E0FD25E0FFEC33FE740C2FF58285
:10489000748F3EF583E0908AF0F0740D2FF58274EA
:1048A0008F3EF583E0908AF1F0749D2DF58274823D
:1048B0003CF583E06048E4908B00F0A3F0908AF030
:1048C000E0FEA3E0FF7C007D0A126C73908B00EE8B
:1048D000F0A3EFF0908B00E0FEA3E0FF7D4612AD69
:1048E000C5908AF0EEF0A3EFF0908B03E025E0FF97
:1048F000908B02E033FEE42FFFEE34348013908B74
:1049000003E025E0FF908B02E033FEE42FFFEE345E
:1049100044FEE4FCFD7B017A8A79F0908CF5F0A3EB
:104920007402F01299DF908B03E054036403700368
:1049300012DC65908B03E004F07006908B02E004BB
:10494000F0C3908B03E09419908B02E09400500325
:1049500002487D024A28E4908B02F0A3F0908B027B
:10496000E0FCA3E0FD25E0FFEC33FE740C2FF582A4
:10497000748F3EF583E0908AF0F0740D2FF5827409
:104980008F3EF583E0908AF1F0749D2DF58274825C
:104990003CF583E0603DE4908B00F0A3F0908AF05A
:1049A000E0FEA3E0FF7C007D0A126C73908B00EEAA
:1049B000F0A3EFF0908B03E025E0FF908B02E03353
:1049C000FEE42FFFEE3444FEE4FCFD7B017A8B799C
:1049D00000801D908B03E025E0FF908B02E033FE0A
:1049E000E42FFFEE3444FEE4FCFD7B017A8A79F08B
:1049F000908CF5F0A37402F01299DF908B03E054D1
:104A0000036403700312DC65908B03E004F070060E
:104A1000908B02E004F0C3908B03E09419908B021A
:104A2000E09400500302495D908B2D7401F0A37453
:104A300082F0A3749DF0E4A3F07D1912B2117DDA27
:104A400012CB4C7C007D0A126C73908AFCEEF0FA5B
:104A5000A3EFF0FB908B2D126FA100004810AD0367
:104A6000AC02E412675A908B31126F957F0012AC42
:104A70003AEF60091242D1EF60031242B37B017A30
:104A80008F79097DDC7C0012CB547C007D0A126C8E
:104A900073908AFCEEF0FAA3EFF0FB908B2D126F6F
:104AA000A100004812AD03AC02E412675A908B31AA
:104AB000126F957F0212AC3AEF60091242D1EF609B
:104AC000031242A47B017A8F79097DDD7C0012CB31
:104AD000547C007D0A126C73908AFCEEF0FAA3EF0E
:104AE000F0FB908B2D126FA100004814AD03AC02B7
:104AF000E412675A908B31126F957F0412AC3AEF33
:104B000060091242D1EF60031242A912CB4A908A87
:104B1000F8EEF0A3EFF0908AF8E0FEA3E0FF9082B9
:104B200040EEF0A3EFF012B1617B017A8F79097D3D
:104B3000D77C0012CB54908B1EEEF0A3EFF0D3E0A5
:104B40009406908B1EE094004006E4F0A37406F0F7
:104B50007B017A8B791E908CF5E4F0A304F07F162C
:104B60007E407D007C001299DF12CB4A908B94EE40
:104B7000F0A3EFF07BFF7ADE79D3908B1EE0FFA3EA
:104B8000E0908B96CFF0A3EFF01284277B017A8F11
:104B900079097DCD7C0012CB5412BF7EC202D207B0
:104BA0000250D77B017A8A79F6908C7BE4F0A304DB
:104BB000F07F037E207D007C00128D6D908AF6E0F0
:104BC0007002A3E07003024CABE4908B02F0A3F000
:104BD000908B02E0FCA3E0FD25E0FFEC33FE740CBB
:104BE0002FF582748F3EF583E0908AF0F0740D2FDC
:104BF000F582748F3EF583E0908AF1F0743A2DF5DA
:104C00008274843CF583E06049E4908B00F0A3F06B
:104C1000908AF0E0FEA3E0FF7C007D0A126C7390A6
:104C20008B00EEF0A3EFF0908B00E0FEA3E0FF7DA1
:104C30004612ADC5908AF0EEF0A3EFF0908B03E042
:104C400025E0FF908B02E033FEEF2432FFEE343498
:104C50008014908B03E025E0FF908B02E033FEEFA1
:104C60002432FFEE3444FEE4FCFD7B017A8A79F0C5
:104C7000908CF5F0A37402F01299DF908B03E0544E
:104C8000036403700312DC65908B03E004F070068C
:104C9000908B02E004F0C3908B03E0942D908B0284
:104CA000E094005003024BD0024D7FE4908B02F061
:104CB000A3F0908B02E0FCA3E0FD25E0FFEC33FEC7
:104CC000740C2FF582748F3EF583E0908AF0F074B7
:104CD0000D2FF582748F3EF583E0908AF1F0743ADF
:104CE0002DF58274843CF583E0603EE4908B00F007
:104CF000A3F0908AF0E0FEA3E0FF7C007D0A126C36
:104D000073908B00EEF0A3EFF0908B03E025E0FFB3
:104D1000908B02E033FEEF2432FFEE3444FEE4FCDD
:104D2000FD7B017A8B7900801E908B03E025E0FFEC
:104D3000908B02E033FEEF2432FFEE3444FEE4FCBD
:104D4000FD7B017A8A79F0908CF5F0A37402F01261
:104D500099DF908B03E054036403700312DC6590C9
:104D60008B03E004F07006908B02E004F0C3908B9C
:104D700003E0942D908B02E094005003024CB2E4C7
:104D8000908B12F0A3F0908B02F0A3F0908B02E0D6
:104D9000FCA3E0FDC39404EC94004003024E22ED1A
:104DA00025E0FFEC33FE745C2FF582748F3EF583B3
:104DB000E0908AF0F0745D2FF582748F3EF583E009
:104DC000908AF1F0908AF0E0FAA3E0FBED25E0FF95
:104DD000EC33FE74002FF582748F3EF583EAF0A366
:104DE000EBF0908AF0E0FCA3E0FD74142FF58274E0
:104DF0008B3EF583ECF0A3EDF0908AF0E07002A317
:104E0000E0600E908B13E004F07006908B12E004CB
:104E1000F0908B03E004F07006908B02E004F00247
:104E20004D8CD3908B13E09401908B12E094004052
:104E300067E4908B1CF0A3F0908B1CF0A3742FF010
:104E40007B017A807903908C7BE4F0A304F07F07E8
:104E50007E467D007C00128D6D908B1CE0FEA3E0F1
:104E6000FF908003E06E7003A3E06F7003024F9128
:104E70007B017A8B791C908CF5E4F0A304F07F071A
:104E80007E467D007C001299DF1242D1EF70030252
:104E90004F9112429F024F91E4908B02F0A3F0E4F5
:104EA000908B04F0A3F0908B04E0FCA3E0FDC3948E
:104EB00010EC94004003024F71908B02E0FAA3E0E3
:104EC000FB25E0FFEA33FE74142FF582748B3EF568
:104ED00083E0FEA3E0A805088005CEC313CE13D857
:104EE000F930E07CE4908B1CF0A3F0EBC4F8540F95
:104EF000C868FFEAC454F048FE908B05E02FFF908D
:104F00008B04E03ECF2401CF3400908B1CF0A3EF44
:104F1000F07B017A807903908C7BE4F0A304F07F2E
:104F2000077E467D007C00128D6D908B1CE0FEA3F9
:104F3000E0FF908003E06E7003A3E06F60227B01CE
:104F40007A8B791C908CF5E4F0A304F07F077E4601
:104F50007D007C001299DF1242D1EF600312429F64
:104F6000908B05E004F07006908B04E004F0024E94
:104F7000A6908B03E004F07006908B02E004F0C36F
:104F8000908B03E09404908B02E094005003024E57
:104F90009F908B2D7401F0A37484F0A3743AF0A356
:104FA0007419F07D2D12B2111242D1EF600312423A
:104FB0005E908F12E0908AF4F0908F13E0908AF563
:104FC000F0908AF4E0FCA3E0FDEC12675AE4FBFAEF
:104FD0007920784112663F908B0C126F957B017A95
:104FE0008B791E908C7BE4F0A37402F07F067E1018
:104FF0007D007C00128D6D908B0CE0FCA3E0FDA386
:10500000E0FEA3E0FF126793C006C007908B1EE08E
:10501000FCA3E0FDA3E0FEA3E0FF126793D005D060
:1050200004EF6D7002EE6C60617B017A8B790C90FD
:105030008CF5E4F0A37402F07F067E107D007C0006
:105040001299DF908B0CE0FCA3E0FDA3E0FEA3E04F
:10505000FF1267937D4612ADC5AC06AD07EC126733
:105060005A908B0C126F957B017A8B790C908CF592
:10507000E4F0A37402F07F087E107D007C0012999A
:10508000DF1242D1EF60031242B8908F1EE0908A87
:10509000F4F0908F1FE0908AF5F0908B2D126FA1A5
:1050A00000004816908AF4E0FEA3E0FF7C007D0A31
:1050B000126CC8AC06AD07EC12675A908B31126FB8
:1050C000957F0612AC3AEF60091242D1EF600312ED
:1050D00042AEC20712DC1202DC65908F0CE0908AAF
:1050E000F4F0908F0DE0908AF5F0908AF4E0FFA341
:1050F000E0908B20CFF0A3EFF07B017A8B792690A4
:105100008C7BE4F0A304F07F607E367D007C00128F
:105110008D6D908B20E0FEA3E0FF908B26E06E70FB
:1051200003A3E06F6044908AF8EEF0A3EFF07B01F8
:105130007A8A79F8908CF5E4F0A37402F07F107EFF
:10514000107D007C001299DF7B017A8A79F8908CBF
:10515000F5E4F0A304F07F607E367D007C001299B8
:10516000DF1242D1EF60031242BD908F0EE0908AB1
:10517000F4F0908F0FE0908AF5F0908AF4E0FFA3AE
:10518000E0908B22CFF0A3EFF07B017A8B79269011
:105190008C7BE4F0A304F07F707E367D007C0012EF
:1051A0008D6D908B22E0FEA3E0FF908B26E06E7069
:1051B00003A3E06F6044908AF8EEF0A3EFF07B0168
:1051C0007A8A79F8908CF5E4F0A37402F07F127E6D
:1051D000107D007C001299DF7B017A8A79F8908C2F
:1051E000F5E4F0A304F07F707E367D007C00129918
:1051F000DF1242D1EF60031242C7908F10E0908A15
:10520000F4F0908F11E0908AF5F0908AF4E0FFA31B
:10521000E0908B24CFF0A3EFF0908B24E0FEA3E08E
:10522000FF7C007D0A126C73908B1EEEF0A3EFF0F2
:105230007B017A8B7926908C7BE4F0A304F07F804D
:105240007E367D007C00128D6D908B1EE0FCA3E00D
:10525000FD908B26E06C7003A3E06D607BE4126729
:105260005A908B0C126F957B017A8B790C908CF590
:10527000E4F0A37402F07F147E107D007C0012998C
:10528000DF908B1EE0FEA3E0FF7D4612ADC5AC06AD
:10529000AD07EC12675A908B0C126F957B017A8BDD
:1052A000790C908CF5E4F0A37402F07F1A7E107DE7
:1052B000007C001299DF7B017A8B791E908CF5E4DB
:1052C000F0A304F07F807E367D007C001299DF120F
:1052D00042D1EF60031242C2908B2012D997908284
:1052E00098EFF0908B2212D997908299EFF0908BE3
:1052F00024E0FEA3E0FF7D0112D99E90829AEFF098
:105300001242D1EF600312425EC209E490824CF077
:10531000229080AFE0FEA3E0FFC394E8EE94034048
:1053200016EF2418FFEE34FCFE7C007D64126C73D3
:10533000908B20EFF08008908242E0908B20F090DC
:105340008B20E0C39406748094804002E4F07B01DB
:105350007A8F79097D0712DA76908B1EEEF0A3EF33
:10536000F0D39400EE940050030253FE908B1EE0A5
:10537000FCA3E0FDE412675AE4FBFA7920784112BD
:10538000663F908B0C126F95908B20E025E0FFE438
:1053900033FEEF2430FFEE3410FEE4FCFDC004C009
:1053A00005C006C007E025E0FFE433FEEF2440FF20
:1053B000EE3410FEE4908B2D126F95908B0CE0FC78
:1053C000A3E0FDA3E0FEA3E0FF908B31126F95D028
:1053D00007D006D005D00412AC40908B20E075F0C9
:1053E00020A42400FFE5F03411FEE4FCFD7B017AEB
:1053F0008B790C908CF5F0A37402F01299DF12D522
:1054000079908B20E0FD2401FBE433FAC3EB9F7419
:1054100080F86A985009ED0490824CF0D20822E49A
:1054200090824CF0C208D20A229080AFE0FEA3E046
:10543000FFC394F8EE942A4016EF2408FFEE34D50B
:10544000FE7C007D1E126C73908B28EFF08008901C
:10545000824CE0908B28F0908B28E0C394067480F7
:1054600094804002E4F012C236EF7010908B28E076
:105470002467F582E43484F5837401F07B017A8F2C
:105480007909E4FD12DA76908B1EEEF0A3EFF07E40
:105490000030E7047F0180027F00908B20EEF0A3B4
:1054A000EFF0908B28E02411F582E43480F583EF4F
:1054B000F012C236EF6003025583908B1EE0FEA30C
:1054C000E0FF12D3AE908B22EEF0FAA3EFF0FB9048
:1054D0008B28E0FF908B20E0FCA3E0FD12AFF7905B
:1054E0008B28E0FF908B22E0FCA3E0FD12D05D7BD7
:1054F000017A8F79097D0112DA76908B1EEEF0A386
:10550000EFF012CFE3908B24EEF0A3EFF0908B2816
:10551000E02410FFE43447FEE4FCFD7A8B7924900C
:105520008CF5F0A304F01299DF7B017A8F79097D65
:105530000212DA76908B1EEEF0FCA3EFF0FD908B5A
:1055400028E0FF12D8C1908B26EEF0A3EFF0908BED
:1055500026E0FEA3E0FFC39410EE94004025D3EFB5
:105560009420EE9400501CA3E02420FFE43410FEAD
:10557000E4FCFD7B017A8B7926908CF5F0A304F096
:105580001299DF12D579908B28E0FD2401FBE433DA
:10559000FAC3EB9F7480F86A985009ED0490824C2E
:1055A000F0D20A22E490824CF0C20AD209908240E2
:1055B000E0FEA3E0FF12B16102B5DFE490824EF09D
:1055C000908AEEE0F47003A3E0F46019E4908AEEB0
:1055D000F0A3F0908F0BE0FEA3E0FDEDFF908AEECC
:1055E000EEF0A3EFF0908AEEE0FEA3E08EF01270F2
:1055F000245631006456BF2AF856E22AFC56BF2BC7
:105600001656E22B1A56BF2B3456E22B3856BF2BB8
:105610005256E22B5656BF2B7056E22B7456BF2BB8
:105620008E56E22B9256763A9856F6769E000056A3
:10563000FAC211C216C20412DCA69087D3E0FD6044
:105640000E908250A3E0FF12D662E49087D3F03030
:10565000000312DB4A3002030256FA3007030256F7
:10566000FA3008030256FA3009030256FA300A03E8
:105670000256FAD20222C217C2057B017A80797FD4
:1056800012CAFE12CD96EF6033E4908B02F0A3F0C5
:10569000908B02E0FEA3E0FFC39406EE9400501C42
:1056A000746D2FF58274843EF583E4F0908B03E0F3
:1056B00004F070DC908B02E004F080D402DCACC219
:1056C0000690824DE0FF7B017A84797312C4BEC2DA
:1056D00018C21512DCAC201821908017E0701BD284
:1056E0001222C20FC214908436E0FF9084AFE0C350
:1056F0009F500712D098C201C20B22E4908AD9F0C1
:10570000A3F0908000E0C394027480948040030270
:105710006535E004F090820AE09401908209E094FB
:1057200000400CA3E024FFF0908209E034FFF01267
:10573000BE8912BB7E301616C390820AE094D090C8
:105740008209E0940750077407F0A374D0F0124365
:1057500004301123201620909011E07002A3E06025
:1057600016C3908ABCE094C8908ABBE094004007BE
:10577000E4909011F0A3F0909011E07002A3E0602B
:105780005F909013E07059C3908ABCE09420908A97
:10579000BBE09403500302652CE4909011F0A3F059
:1057A00030181590824DE0FF12CC77C218C206C2A5
:1057B00015E490824CF0800730170CC217C205D256
:1057C0001212DCAC02652C301607C211C21602653B
:1057D0002C908437E0700302652C12BE0902652C00
:1057E000C21930111C908209E07002A3E0700A9087
:1057F00082097407F0A374D0F090824E7407F08091
:105800006E300F0890824E740FF08063301808904D
:10581000824E740BF0805830170890824E740AF054
:10582000804D30010890824E740EF0804230120597
:1058300090824E803730020890824E7404F0802FA0
:1058400030070890824E7406F08024300808908259
:105850004E7408F0801930090890824E7409F08067
:105860000E90824E300A05740CF080037405F0909F
:105870008AD9E475F001126D14FE74DD25F0F5820D
:1058800074803EF5837401F090824EE024FCB40CE9
:105890000040030263BA9058A475F003A4C58325A1
:1058A000F0C583730258C80259440259C0025DF41E
:1058B000025ABC025A3E025C00025CC2025B5E02FB
:1058C00063BA0260ED02621F908AD9E475F001129A
:1058D0006D14FE74DD25F0F58274803EF58374034B
:1058E000F0908AD9E475F001126D14FE74DD25F094
:1058F000F58274803EF583E4F0908AD975F0011248
:105900006D14FE74DD25F0F58274803EF58374C855
:10591000F0908AD9E475F001126D14FE74DD25F063
:10592000F58274803EF583E4F0908AD975F0011217
:105930006D14FE74DD25F0F58274803EF5837419D4
:10594000F00263BA908AD9E475F001126D14FE7406
:10595000DD25F0F58274803EF5837403F0908AD9DA
:10596000E475F001126D14FE74DD25F0F58274808B
:105970003EF583E4F0908AD975F001126D14FE743F
:10598000DD25F0F58274803EF5837464F0908AD949
:10599000E475F001126D14FE74DD25F0F58274805B
:1059A0003EF583E4F0908AD975F001126D14FE740F
:1059B000DD25F0F58274803EF583740DF00263BA44
:1059C000908AD9E475F001126D14FE74DD25F0F5AE
:1059D0008274803EF5837403F0908AD9E475F001F7
:1059E000126D14FE74DD25F0F58274803EF583742B
:1059F00001F0908AD9E475F001126D14FE74DD2572
:105A0000F0F58274803EF583742CF0908AD9E475A9
:105A1000F001126D14FE74DD25F0F58274803EF500
:105A200083E4F0908AD975F001126D14FE74DD25BF
:105A3000F0F58274803EF583742DF00263BA908A8B
:105A4000D9E475F001126D14FE74DD25F0F5827451
:105A5000803EF5837403F0908AD9E475F001126DED
:105A600014FE74DD25F0F58274803EF5837476F0C3
:105A7000908AD9E475F001126D14FE74DD25F0F5FD
:105A80008274803EF583749EF0908AD9E475F001AB
:105A9000126D14FE74DD25F0F58274803EF583E40A
:105AA000F0908AD975F001126D14FE74DD25F0F5C1
:105AB0008274803EF5837403F00263BA90824CE0F6
:105AC000FF7E007C007D64126C61EF24E8FFEE3401
:105AD00003908ADFF0A3EFF0908AD9E475F0011209
:105AE0006D14FE74DD25F0F58274803EF583740339
:105AF000F0908ADFE0FCA3E0FDECFF908AD9E4752A
:105B0000F001126D14FA74DD25F0F58274803AF517
:105B100083EFF0908AD9E475F001126D14FC74DD06
:105B200025F0F58274803CF583EDF0908AD9E47518
:105B3000F001126D14FE74DD25F0F58274803EF5DF
:105B400083E4F0908AD975F001126D14FE74DD259E
:105B5000F0F58274803EF5837408F00263BA908297
:105B60004CE0FF7E007C007D1E126C61EF24F8FF8C
:105B7000EE342A908ADFF0A3EFF0908AD9E475F032
:105B800001126D14FE74DD25F0F58274803EF583FC
:105B90007403F0908ADFE0FCA3E0FDECFF908AD96B
:105BA000E475F001126D14FA74DD25F0F58274804D
:105BB0003AF583EFF0908AD9E475F001126D14FC88
:105BC00074DD25F0F58274803CF583EDF0908AD980
:105BD000E475F001126D14FE74DD25F0F582748019
:105BE0003EF583E4F0908AD975F001126D14FE74CD
:105BF000DD25F0F58274803EF583741EF00263BAF1
:105C000012DC07908AD9E475F001126D14FE74DD80
:105C100025F0F58274803EF5837410F0908AD9E403
:105C200075F001126D14FE74DD25F0F58274803E6E
:105C3000F583743AF0908AD9E475F001126D14FE80
:105C400074DD25F0F58274803EF5837498F0908AB7
:105C5000D9E475F001126D14FE74DD25F0F582743F
:105C6000803EF583E4F0908AD975F001126D14FE40
:105C700074DD25F0F58274803EF5837418F0908A07
:105C8000D9E475F001126D14FE74DD25F0F582740F
:105C9000803EF5837430F0E4908ADFF0908ADFE094
:105CA000FFC394187480948040030263BAEF25E028
:105CB000247FF582E4348012CBE2908ADFE004F0A6
:105CC00080DA90824DE0FBFF7E007C007D1E126C2E
:105CD00061EF24F8FFEE342A908AE0F0A3EFF0AFF2
:105CE00003128F7A908AD9E475F001126D14FE7454
:105CF000DD25F0F58274803EF5837410F0908AE023
:105D0000E0FCA3E0FDECFF908AD9E475F001126D90
:105D100014FA74DD25F0F58274803AF583EFF09083
:105D20008AD9E475F001126D14FC74DD25F0F5825A
:105D300074803CF583EDF0908AD9E475F001126D22
:105D400014FE74DD25F0F58274803EF583E4F09056
:105D50008AD975F001126D14FE74DD25F0F5827498
:105D6000803EF583741EF0908AD9E475F001126DBF
:105D700014FE74DD25F0F58274803EF583743CF0EA
:105D8000E4908ADFF0908ADFE0FFC3940874809487
:105D9000805015EF25E02473F582E4348412CBE2C1
:105DA000908ADFE004F080DDE4908ADFF0908ADF03
:105DB000E0C394167480948040030263BA908AD939
:105DC000E475F001126D14FE74DD25F0F582748027
:105DD0003EF583E4F0908AD975F001126D14FE74DB
:105DE000DD25F0F58274803EF583E4F0908ADFE0F3
