:0300000002CB3DF3
:0800F800FFFF4457494E543547
:10CB3D00759401759502758E0075930075C87075A5
:10CB4D00C96075F800787FE4F6D8FD75812602CBB3
:01CB5D00993E
:10D356005B4D4F444255535D206572723D256275A3
:10D366002065636E743D25752073743D25627520B6
:10D37600616464723D257520753D2562750D0A0050
:10D386005B574946495D2072783D256C75206F6B69
:10D396003D25752074783D25752063363D256275DB
:10D3A6002063383D2562752072363D2562752063FF
:10D3B60036683D2575206336663D257520633673D0
:10D3C6003D25752076726A3D2562752064726F7000
:06D3D6003D25750D0A0063
:0A476800C132419598034195990074
:10F74B00909599E07020909598E0601A14F0E07015
:10F75B0015D21912EE2AE4909436F0A3F0909599F5
:06F76B0004F0FF12FDA2F4
:01F771002275
:10D94600A230303201B35019A230923230300A126E
:10D95600F80C7F3C12EEF68008D218D210D22ED2E6
:10D966002A30302812FB7190954DE0FEA3E0FFC3EC
:10D976009470EE94175009EF2401FFE43EFE8004F4
:10D986007E177F7090954DEEF0A3EFF0C390954E05
:10D99600E0947090954DE094174002C230302F0706
:10D9A600C22FE4FF12FCC830310CE4FBFA7D037F82
:07D9B6000B12E04CC231220C
:1097B60012DF7A12FE3212FD2412FD3412FBE5127C
:1097C600FEAA12FCEE12FE9512C2EA12EDE643C99B
:1097D6000243C90112FAD5203003122D5912FAD5C7
:1097E600C3908A8CE0940A908A8BE094004010E43F
:1097F600F0A3F012010012E99612D94612CA99C3D3
:10980600908A94E09410908A93E0942750030298EB
:10981600F8E4F0A3F012A2AD12E7097BFF7AD37940
:1098260056908FCDA3E0908B41F0908A7DE0FFA308
:10983600E0908B42CFF0A3EFF0908404E0908B444D
:10984600F09080A7E0FFA3E0908B45CFF0A3EFF068
:10985600908218E0908B47F0125A147BFF7AD379E6
:1098660086908FC9E0FCA3E0FDA3E0FEA3E0FF9095
:109876008B411245D2909524E0FFA3E0908B45CF13
:10988600F0A3EFF090952BE0FFA3E0908B47CFF08D
:10989600A3EFF0909527E0908B49F0909528E09003
:1098A6008B4AF0909522E0908B4BF0909529E0FF43
:1098B600A3E0908B4CCFF0A3EFF090951EE0FFA3B2
:1098C600E0908B4ECFF0A3EFF090951CE0FFA3E065
:1098D600908B50CFF0A3EFF0909520E0908B52F054
:1098E600908FD0E0FFA3E0908B53CFF0A3EFF01260
:1098F6005A14C3908A92E094E8908A91E0940350B7
:10990600030297D7E4F0A3F012F72312F74B12677E
:0D9916009412F33812F6AB12A01A0297D784
:10E7B1005B444755535D20454E20544F2025780D2D
:10E7C1000A001F1C1F1E1F1E1F1F1E1F1E1F5A0077
:10E7D10000003F000100A50000003F0001004006CD
:10E7E100666600000000000000000000000000005C
:10E7F1000000000000000000000000000000000018
:02E80100000015
:1047720062C88798000000000000000000000000EE
:104782000000000000000000000000000000000027
:104792000000000000000000000000000001000214
:1047A2000003000400050006000700080009000AD3
:1047B200000B000C000C000D000E000F001000108A
:1047C200001100120012001300140014001500164C
:1047D20000160017001800180019001A001A001B12
:1047E200001B001C001D001D001E001E001F0020DB
:1047F20000200021002100220022002300230024A7
:10480200002500250026002700270028002800296F
:104812000029002A002B002C002C002D002D002E38
:10482200002E002F002F0030003000310031003206
:1048320000330033003400340035003500360036D2
:1048420000370038003800390039003A003A003B9E
:10485200003C003C003D003D003E003E003F004069
:104862000040004100410042004300430044004533
:104872000045004600460047004800480049004AFB
:10488200004B004B004C004D004D004E004F0050BD
:10489200005000510052005300540054005500567D
:1048A200005700580059005A005A005B005B005C38
:1048B200005D005E005F00600061006200640065F0
:1048C2000066006700680069000000000000000048
:1048D20000000000000000000000000000000000D6
:1048E20000000000000000000000000000000000C6
:1048F20000000000000000000000000000000000B6
:1049020000000000000000000000000000000000A5
:104912000000000000000000000000000000000095
:104922000000000000000000000000000000000085
:104932000000000000000000000000000000000075
:104942000000000000000000000000000000000065
:104952000000000000000000000000000000000055
:104962000000000000000000000000000000000045
:104972000000000000000000000000000000000035
:104982000000000000000000000000000000000025
:104992000000000000000000000000000000000015
:1049A2000000000000000000000000000000000005
:1049B20000000000000000000000000000000000F5
:1049C20000000000000000000000000000000000E5
:1049D20000000000000000000000000000000000D5
:1049E20000000000000000000000000000000000C5
:1049F20000000000000000000000000000000000B5
:104A020000000000000000000000000000000000A4
:104A12000000000000000000000000000000000094
:104A22000000000000000000000000000000000084
:104A3200000000000000000000000000488A600042
:104A420000000000000000020D0000428A8F0000FA
:104A5200428A890000448A7F5A01003C428A8B00C4
:104A620000428A910000428A930000428A97000025
:104A7200428A950000428A7D0000428A83000054E7
:104A82008A68000000000000000000000000000032
:104A9200000000000000448A8500000000428A8D68
:064AA2000000418A7C00C7
:10ED170090958DEEF0A3EFF0A3ECF0A3EDF030FEAD
:10ED27003290958F74FFF5F012435145F0701F7BB9
:10ED3700FF7AE779B190958DE0FFA3E0908B41CF03
:10ED4700F0A3EFF0125A14E4F5F8D2AFC32243C987
:05ED57000180CBD32276
:06C3AD009094881245D2B5
:10C3B300E4FFEFC39410748094805013EF25E024BE
:10C3C30092F582E43494F583E4F0A3F00F80E3E480
:10C3D300FFEFC3941074809480500F74B22FF582D2
:10C3E300E43494F583E4F00F80E77B017A9479B227
:10C3F300909491E02401FF909490E03400C313FEE5
:10C40300EF13FF908B65EEF0A3EFF090948CE0FCBC
:10C41300A3E0FDA3E0FEA3E0FF128153E4FFEFFDE1
:10C42300D3909491E09D909490E09400401B74B25B
:10C433002FF582E43494F583E0FE74922FF582E4C1
:10C443003494F583EEF00F80D5909488E0FCA3E05C
:10C45300FDA3E0FEA3E0FF7B017A947992908CB573
:09C46300E4F0A37410F0028E173E
:06CBDE009094C21245D242
:10CBE400E4FFEFC3941074809480500F74EC2FF51D
:10CBF40082E43494F583E4F00F80E79094C2E0FC7F
:10CC0400A3E0FDA3E0FEA3E0FF7B017A9479CC903E
:10CC14008B65E4F0A37410F0128153E4FFEFFDD3AD
:10CC24009094CBE09D9094CAE09400401B74CC2F68
:10CC3400F582E43494F583E0FE74EC2FF582E43459
:10CC440094F583EEF00F80D57B017A9479EC90947F
:10CC5400CBE02401FF9094CAE03400C313FEEF1329
:10CC6400FF908CB5EEF0A3EFF09094C6E0FCA3E047
:0ACC7400FDA3E0FEA3E0FF028E170F
:10DF7A00C2AFC2D3C2D475F901E4F5A8F5B8F59ACF
:10DF8A0075A92075B93053C9FDF580F590F5A0F54E
:10DF9A00B075B710F5BCF5BDF5BE75D8807598504B
:10DFAA0075BA0375AAE4759680759780F5D975E7F1
:10DFBA00E075A78075AB80F5AE75AFE0758911F590
:10DFCA008CF58AC28CF58DF58BC28E75C870F5CD2D
:09DFDA00F5CC75CBBC75CACD2253
:0AFE320043B70243BC1F43BD022288
:0EA16D00908A9BEEF0A3EFF0A3ECF0A3EDF0D0
:10A17B00E4908AA3F0A3F078A57C8A7D017BFF7A1B
:10A18B00E779E3FE7F201241CB908A9DE0C4F8541F
:10A19B00F0C8A3E0C4540F48908AA1F0E4908A9FC2
:10A1AB00F0908AA1E0FF908A9FE0FEC39F5067EE7C
:10A1BB0075F010A4FF908A9CE02FFF908A9BE035EE
:10A1CB00F0FEE4FCFD7B017A8A79A5908B65F0A308
:10A1DB007410F0128153E4908AA0F0908AA0E0FFF3
:10A1EB00C39410748094805025EF25E024A5F5824C
:10A1FB00E4348AF583E0FEA3E0FF908AA4E02FF01D
:10A20B00908AA3E03EF0908AA0E004F080CD908A83
:10A21B009FE004F0808B908A9EE0540F908AA2F00E
:10A22B00908AA1E075F010A4FF908A9CE02FFF901C
:10A23B008A9BE035F0FEE4FCFDC0077B017A8A794E
:10A24B00A5908AA2E0FF908B65E4F0A3EFF0D00716
:10A25B00128153E4908AA0F0908AA2E0FF908AA02A
:10A26B00E0FEC39F5025EE25E024A5F582E4348A59
:10A27B00F583E0FEA3E0FF908AA4E02FF0908AA381
:10A28B00E03EF0908AA0E004F080CD908AA4E00438
:10A29B00F07006908AA3E004F0908AA3E0FEA3E09E
:01A2AB00FFB3
:01A2AC00228F
:10EDE600E4908A99F0A3F012FC677F027E0012FD80
:10EDF600887B017A8A7999908B65E4F0A304F07F89
:10EE0600007E3F12814F7DFF7C007F017E3F12A175
:10EE16006D908A99E06E7003A3E06F600302FEB8FE
:03EE260012FEB722
:01EE290022C6
:10FC67007AE779CF128E0412FD8412813C908A6064
:04FC7700E070F42223
:10FC7B007AE779D7128E0412FD8412813C908A6048
:04FC8B00E070F4220F
:10E99600E4908A99F0A3F0908A7CE064017020D319
:10E9A600908A84E09410908A83E09427401112FEA6
:10E9B600B612FC7BE4908A7CF0908A83F0A3F090F8
:10E9C6008A83E0FEA3E0FFE4FCFD7B607AEAF9F8C7
:0DE9D600C312454B5007E4908A83F0A3F074
:01E9E3002211
:10F19400E4908B34F0A3F07B017A8B7934908B6507
:10F1A400F0A304F07E3512814D908B34E07004A3FB
:10F1B400E064017008908A7C04F0E48005E4908A9D
:08F1C4007CF0908A83F0A3F0B7
:01F1CC002220
:03FEA70002F194D1
:10F94500908AAAEFF0E4A3F07B017A8A79AA908CD9
:10F95500B5F0A304F07F827E007D007C00028E1747
:01FEB6002229
:01FEB7002228
:01FEB8002227
:10FD2400438901758CBC758ACDD2A9D2AFD28C22FD
:10FD3400438901758DBC758BCDD2ABD2AFD28E22E7
:10FBE50075C870E4F5CDF5CC75CBBC75CACD43A809
:06FBF50020D2C8D2AF22AD
:10813C007B017A8A7960908B65E4F0A37404F07EFD
:07814C00007F087D007C00AC
:10815300908B5E1245D2908B62EBF0A3EAF0A3E919
:01816300F02B
:10816400E4908B67F0A3F0A3F0A3F0A3F0A3F0A333
:10817400F0A3F0908B65E07002A3E0700302832803
:10818400908B5EE0F8A3E0F9A3E0FAA3E0FBC3E47C
:108194009BFFE49AFE740199FDE498FC908B6F12A6
:1081A40045D2908B65E0FEA3E0FFE4FCFD908B6F6D
:1081B400E0F8A3E0F9A3E0FAA3E0FBC312456150A1
:1081C40011908B6FA3A3E0FFA3E0908B65CFF0A386
:1081D400EFF0908B5EE0FCA3E0FDA3E0FEA3E0FFE4
:1081E4007801124572908B67EEF0A3EFF0908B5EEE
:1081F400A3A3A3E05401FEE4908B69F0A3CEF0E4C2
:10820400F5F1908B67E0FCA3E0FDECF5F28DF375DE
:10821400F40175F8AF30FCFD908B69E07002A3E0C7
:10822400603DD2FE20FEFD908B62E0FBA3E475F07E
:1082340001124351A9F0FAE5FC12426A908B62E004
:10824400FBA3E475F001124351A9F0FAE5FD1242D3
:108254006A908B66E024FFF0908B65E034FFF09029
:108264008B65E0FCA3E0FDECC313FFED13908B6B77
:10827400CFF0A3EFF0ED5401FFA3E4F0A3EFF090EF
:108284008B6B74FFF5F012435145F0605BD2FE2016
:10829400FEFD908B62E0FBA3E475F001124351A94B
:1082A400F0FAE5FA12426A908B62E0FBA3E475F0FF
:1082B40001124351A9F0FAE5FB12426A908B62E085
:1082C400FBA3E475F001124351A9F0FAE5FC124254
:1082D4006A908B62E0FBA3E475F001124351A9F0AC
:1082E400FAE5FD12426A8097908B6DE07002A3E07C
:1082F400602FD2FE20FEFD908B62E0FBA3E475F0BC
:1083040001124351A9F0FAE5FA12426A908B62E035
:10831400FBA3E475F001124351A9F0FAE5FB124204
:048324006AE4F5F81A
:018328002232
:108E04007BFF908CB5E4F0A37404F07F087E007DB2
:038E1400007C00DF
:108E1700908CAE1245D2908CB2EBF0A3EAF0A3E9A6
:018E2700F05A
:108E2800E4FBFA908CB7F0A3F0A3F0A3F0A3F0A3AF
:108E3800F0908CB5E07002A3E07003028FB7908CBD
:108E4800AEA3A3E0FEA3E0FFC3E49FFFE49EFED32E
:108E5800908CB6E09F908CB5E09E4005EEF0A3EFB5
:108E6800F0908CAEE0FCA3E0FDA3E0FEA3E0FF7869
:108E780001124572AA06AB07908CAEA3A3A3E054D7
:108E880001FEE4908CB7F0A3CEF0E4F5F1EAF5F238
:108E9800AF038FF375F40175F88330FCFD908CB740
:108EA800E07002A3E0603D908CB2E0FBA3E475F0B3
:108EB80001124351A9F0FA1241F1F5FC908CB2E08D
:108EC800FBA3E475F001124351A9F0FA1241F1F540
:108ED800FDD2FE20FEFD908CB6E024FFF0908CB50C
:108EE800E034FFF0908CB5E0FCA3E0FDECC313FF89
:108EF800ED13908CB9CFF0A3EFF0ED5401FFA3E48C
:108F0800F0A3EFF075F88F908CB974FFF5F0124369
:108F18005145F0605B908CB2E0FBA3E475F0011260
:108F28004351A9F0FA1241F1F5FA908CB2E0FBA393
:108F3800E475F001124351A9F0FA1241F1F5FB90E2
:108F48008CB2E0FBA3E475F001124351A9F0FA12C8
:108F580041F1F5FC908CB2E0FBA3E475F0011243FB
:108F680051A9F0FA1241F1F5FDD2FE30FE9980FBCD
:108F7800908CBBE07002A3E0603275F88C908CB2E4
:108F8800E0FBA3E475F001124351A9F0FA1241F194
:108F9800F5FA908CB2E0FBA3E475F001124351A9F5
:0F8FA800F0FA1241F1F5FBD2FE20FEFDE4F5F8E0
:018FB7002297
:03000B0002A9BC8B
:10A9BC00C0E0C0F0C083C082C0D075D000C000C061
:10A9CC0001C002C003C004C005C006C007C2AF75F9
:10A9DC008CBC758ACD908A84E004F07006908A83D2
:10A9EC00E004F0908A90E004F07006908A8FE00406
:10A9FC00F0908A98E004F07006908A97E004F0904A
:10AA0C008A8CE004F07006908A8BE004F0908A92B5
:10AA1C00E004F07006908A91E004F0908A94E004CF
:10AA2C00F07006908A93E004F0908A96E004F0703F
:10AA3C0006908A95E004F0302925909423E0FEA33B
:10AA4C00E0FFE4FCFD7BFF7AFFF9F8D312454B40A5
:10AA5C000E909424E004F07006909423E004F0909F
:10AA6C008FCDE07002A3E06025908A7DE0FEA3E02C
:10AA7C00FFE4FCFD7BFF7AFFF9F8D312454B400E47
:10AA8C00908A7EE004F07006908A7DE004F0C3901A
:10AA9C009437E09420909436E0944E500CA3E0044C
:10AAAC00F07006909436E004F0D2AFD007D006D008
:10AABC0005D004D003D002D001D000D0D0D082D0A9
:06AACC0083D0F0D0E0325F
:03001B0002E6609A
:10E66000C0E0C0F0C083C082C0D075D000C000C080
:10E6700004C005C006C007C2AF758DBC758BCD90B8
:10E680009513E0FCA3E0FDA3E0FEA3E02401FFE47A
:10E690003EFEE43DFDE43CFC9095131245D2D2AF22
:10E6A000D007D006D005D004D000D0D0D082D083FF
:05E6B000D0F0D0E032C3
:04FD84007F057E0079
:0BFD88008E0D8F0EE50E450D70FA2267
:03002B0002FC8F45
:10FC8F00C0E0C2AFC2C6E50E150E7002150DD2AFA1
:03FC9F00D0E03280
:10F96500E4FDFCC3ED9FEC9E5015E4FBFA0BBB00D8
:0FF97500010AEB640F4A70F50DBD00010C80E430
:01F984002260
:10F98500E4FDFCC3ED9FEC9E5015E4FBFA0BBB00B8
:0FF99500010ABA1CF8BBE8F50DBD00010C80E4B7
:01F9A4002240
:10EEF600908A7F745AF0A37401F0E4A3F0A3EFF0B4
:10EF06007B017A8A797F908CB5E4F0A37402F07F56
:10EF160084128E1112FD847B017A8A797F908B652B
:10EF2600E4F0A304F07F8412814F908A7FE070E4BE
:01EF360022B8
:10F68300908AAA745AF0E4A3F0A3F0A3EFF07B01ED
:10F693007A8A79AA908CB5E4F0A37402F07FDE7EB7
:08F6A300007D007C00028E17BF
:10ED5C007B017A8A79AA908B65E4F0A37402F07F28
:10ED6C00807E0012814F908AADE03019054404F08A
:10ED7C00800354FBF0908AAA745AF07B017A8A794A
:10ED8C00AA908CB5E4F0A37402F07F807E007D0025
:05ED9C007C00028E174F
:06FE7D000000000000007F
:104AA80042941000004493FE000000004294280045
:104AB8000042943400004294230000489407011EE9
:104AC8000506070A0B0CC12D42941F0017429426B5
:104AD8000000C12BC12AC12C429436000041942504
:104AE8000044943800000000429403000042942ED1
:104AF80000004194020042942100024293E5FFFF26
:104B08004193E7FF4293E8FFFF4293EAFFFF429396
:104B1800ECFFFF4293EEFFFF4193F0FF4193F1FF5B
:084B28004193F2004193F300F8
:10E31800908B2FEFF0C3940174809480400AD3EF60
:10E328009403748094804006E4FFFEFDFC22ED9087
:10E338008B2F601BE024FFFFE434FFFE3395E0FDE4
:10E34800FCE47B02FAF9F8124420EF24188019E063
:10E3580024FFFFE434FFFE3395E0FDFCE47B02FA82
:10E36800F9F8124420EF2408FFEE3448FEE43DFD9E
:04E37800E43CFC2263
:10AE04007B017A8A79AA908B65E4F0A304F07F022F
:10AE14007E207D007C00128153908AAAA3E0FFE487
:10AE2400FD12F36F908AAEEEF0A3EFF0908AAAA31E
:10AE3400E0FF7D0112F36F908AB0EEF0A3EFF09083
:10AE44008AB0E07002A3E07018908AAEE0FEA3E03E
:10AE5400FF4E600D7D4612C169908AB0EEF0A3EFFB
:10AE6400F0908AAEE07002A3E07018908AB0E0FE21
:10AE7400A3E0FF4E600D7D4312C169908AAEEEF0EF
:10AE8400A3EFF07B017A8A79AE908CB5E4F0A30449
:10AE9400F07F257E207D007C00128E177B017A8A4C
:10AEA40079B0908CB5E4F0A304F07F267E207D0079
:10AEB4007C00128E177B017A8A79AC908B65E4F062
:10AEC400A304F07F037E207D007C00128153908ACE
:10AED400ACE07002A3E070177F0812EEF67B017AF3
:10AEE4008A79AE908CB5E4F0A304F07F0580157FD9
:10AEF4002B12EEF67B017A8A79B0908CB5E4F0A33C
:0DAF040004F07F067E207D007C00128E1779
:01AF1100221D
:108A9000909410E07002A3E07003028C4A7B017A8C
:108AA0008A79A0908B65E4F0A304F07F1B7E207D83
:108AB000007C00128153908AA0E07002A3E070074E
:108AC000909410F0A3F0227B017A8A79A2908B65B2
:108AD000E4F0A304F07F707E367D007C00128153A9
:108AE000908AA2E07002A3E070187B017A8A79A2D2
:108AF000908B65F0A304F07F127E107D007C001245
:108B00008153D3908AA3E09400908AA2E09400401D
:108B100067E4FFFEFDFC9093FEE0F8A3E0F9A3E01C
:108B2000FAA3E0FBD3124561404E128FB89093FE3A
:108B3000E0F8A3E0F9A3E0FAA3E0FBC3EF9BFFEEAC
:108B40009AFEED99FDEC98FCC004C005C006C00774
:108B5000908AA2E0FEA3E0FF7C007D3C12468EA836
:108B600004A905AA06AB07D007D006D005D004D3C8
:108B70001245615003028C127B017A8A79A4908B92
:108B800065E4F0A37402F07F067E107D007C001285
:108B900081537B017A8A79A8908B65E4F0A37402F3
:108BA000F07F147E107D007C00128153E4FFFEFDF7
:108BB000FC9093FEE0F8A3E0F9A3E0FAA3E0FBD376
:108BC000124561402A128FB89093FEE0F8A3E0F9B5
:108BD000A3E0FAA3E0FBC3EF9BFFEE9AFEED99FD45
:108BE000EC98FCE47B3CFAF9F8D3124561505B90B9
:108BF0008AA8E0FCA3E0FDA3E0FEA3E0FF908AA426
:108C0000E0F8A3E0F9A3E0FAA3E0FB123D19603A13
:028C10004038EA
:108C1200E4908AACF0A3F0909410F0A3F09093FE4D
:108C22001245DE0000000012FE3C7B017A8A79AC1C
:108C3200908CB5E4F0A304F07F1B7E207D007C00C5
:088C4200128E17D21012F5B4D6
:018C4A002207
:06F36900908AA0A3E0FD64
:10F36F00E4908B27F0A3F012E318EC4D4E4F601191
:10F37F007B017A8B7927908B65E4F0A304F01281DF
:09F38F0053908B27E0FEA3E0FF80
:01F398002252
:0DF39900A3E0908AA0FFE0FAA3E0FBE4FDF2
:08F3A600908B2DEAF0A3EBF0BF
:10F3AE0012E318EC4D4E4F60117B017A8B792D9044
:0AF3BE008CB5E4F0A304F0128E17E2
:01F3C8002222
:05EDA100908AAAEFF0CA
:10EDA600A3E0FCA3E0FDA3E0FEA3E0FF123DD090AC
:10EDB6008AB1EEF0A3EFF07D4612C169908AAFEEFC
:10EDC600F0A3EFF0908AAAE0908AB112F39E908A9F
:10EDD600AAE0FF908AAFE0FAA3E0FB7D0102F3A66A
:06E4FD007E487D007C005A
:10E503007B017A8B792B908B65E4F0A37402F01274
:10E513008153908B2BE0FCA3E0FDA3E0FEA3E0FF7F
:10E52300123DD07D4612C169AC06AD07EC123D9792
:10E53300908B2F1245D2908B27E0FCA3E0FDA3E044
:10E54300FEA3E0FF7B017A8B792F908CB5E4F0A3D7
:06E553007402F0028E17B5
:0DE11C00908B24ECF0A3EDF0908B23EFF03E
:10E12900C3940674809480504FA3E0FEA3E0FF7D62
:10E139004612C169908B26EEF0A3EFF0908B23E095
:10E149002420FFE43410FEE4FCFD7B017A8B792462
:10E15900908CB5F0A304F0128E17908B23E02470F5
:10E16900FFE43410FEE4FCFD7B017A8B7926908C68
:08E17900B5F0A304F0128E17AB
:01E18100227B
:06E43F007E487D007C0018
:06E44500908B231245D26A
:10E44B00908B2BE0FEA3E0FF7D4612C169908B2DD4
:10E45B00EEF0A3EFF0908B23E0FCA3E0FDA3E0FE36
:10E46B00A3E0FF7B017A8B792B908CB5E4F0A304AE
:10E47B00F0128E17908B27E0FCA3E0FDA3E0FEA328
:10E48B00E0FF7B017A8B792D908CB5E4F0A304F03F
:03E49B00028E17D7
:06D3DC007E487D007C008C
:06D3E200908AA21245D260
:10D3E8007B017A8A79AA908B65E4F0A304F07F0325
:10D3F8007E207D007C00128153908AAAE07002A3EF
:10D40800E0602C908AA6E0FCA3E0FDA3E0FEA3E088
:10D41800FF7B017A8A79AE908B65E4F0A304F01261
:10D428008153908AAEE0FEA3E0FF7D4302C169907C
:10D438008AA2E0FCA3E0FDA3E0FEA3E0FF7B017A63
:10D448008A79AC908B65E4F0A304F0128153908A3A
:06D45800ACE0FEA3E0FFC2
:01D45E0022AB
:0BB52E00908AAAEFF0A3ECF0A3EDF070
:10B539007B017A8A79AD908B65E4F0A304F07F03EF
:10B549007E207D007C00128153908AAAE0FF908AB8
:10B55900ADA3E0FD12E318908AB11245D2908AB1E9
:10B56900E0FCA3E0FDA3E0FEA3E0FFEC4D4E4F702D
:10B579000302B6237B017A8A79AF908B65E4F0A345
:10B5890004F0128153908AAFE0FEA3E0FF908AACE9
:10B59900E02FFF908AABE03E908AAFF0A3EFF0A3D3
:10B5A900E0FCA3E0FDA3E0FEA3E0FF7B017A8A793A
:10B5B900AF908CB5E4F0A304F0128E17908AB1A372
:10B5C900A3E0FEA3E0FF908AADE07002A3E060046F
:10B5D9007D4680027D43126A58908AB1E0FCA3E05F
:10B5E900FDA3E0FEA3E0FF7B017A8A79AF908B652A
:10B5F900E4F0A304F0128153908AADE07002A3E055
:10B60900908AAF600512C1628005E0FEA3E0FF12D7
:0AB61900CD1DD21012FEA712EFF0B3
:01B623002204
:10B43300EFD394047480948040027F04EF14601C63
:10B4430014602B14603A24037047908B37E4F0A305
:10B453007432F0A3E4F0A37442F08045908B37E498
:10B46300F0A37446F0A3E4F0A37456F08033908BFA
:10B4730037E4F0A37414F0A3E4F0A37424F0802160
:10B48300908B37E4F0A304F0A3E4F0A37411F080ED
:10B4930010908B37E4F0A37428F0A3E4F0A3743185
:10B4A300F07B017A8B7939908CB5E4F0A304F07FBB
:10B4B300067E807D007C00128E177B017A8B7937A4
:10B4C300908CB5E4F0A304F07F077E807D007C00C0
:10B4D300128E177B017A8B7939908CB5E4F0A30433
:10B4E300F07F087E807D007C00128E17908B3BE4FA
:10B4F300F0A304F0FB7A8B793B908CB5E4F0A304C2
:10B50300F07F607E407D007C00128E17E4908B3BC1
:10B51300F0A3F07B017A8B793B908CB5F0A304F018
:0BB523007F607E407D007C00028E17E0
:05B22D00908AAAEFF079
:10B23200908AAC74FFF0C3EF94067480948040034C
:10B2420002B330E4908AABF0908AABE0FFC394067D
:10B25200748094805037EF2410FFE43440FEE4FC05
:10B26200FD7B017A8A79AD908B65F0A304F012819F
:10B2720053908AADE07004A3E064017008908AAB39
:10B28200E0A3F08008908AABE004F080BB908AAC27
:10B29200E0FFF4700302B330908AAAE0FE6F60030D
:10B2A20002B330EE2400FFE43447FEE4FCFD7B01F0
:10B2B2007A8A79AF908B65F0A304F0128153D39010
:10B2C2008AB0E09404908AAFE094004004E4F0A3D2
:10B2D200F0908AAAE075F020A42401FFE5F0341171
:10B2E200FEE4FCFD7B017A8A79AF908CB5F0A30471
:10B2F200F0128E177B017A8A79AF908CB5E4F0A3B5
:10B3020004F0FF7E207D007C00128E177B017A8A7A
:10B3120079AF908CB5E4F0A304F07F167E407D00F7
:0EB322007C00128E17908AAFA3E0FF12B433A6
:01B3300022FA
:10E24E0078AA7C8A7D017BFF7AFE797D7E007F0431
:10E25E001241CB7B017A947938908B65E4F0A374EC
:10E26E0002F07F007E0F7D007C0012815390943867
:10E27E00E0645A702DA3E0FEA3E0FDEDFF90940341
:10E28E00EEF0A3EFF07B017A8A79AA908CB5E4F0D8
:10E29E00A37402F07F007E0F7D007C00128E177F2C
:04E2AE0001227F00CA
:01E2B2002249
:10F87B007B017A8B7918908B65E4F0A304F07F14ED
:10F88B007E007D007C00128153908B18E0FEA3E07C
:01F89B00FF6D
:01F89C002249
:100100007B017A8A7999908B65E4F0A304F07F10E3
:100110007E207D007C0012815312E24EEF3395E089
:10012000FE90942EF0A3EFF04E7003021A9CE49020
:100130009436F0A3F0909403E0FEA3E08EF0124614
:100140006102FC100103331002036C10031700104E
:1001500014088810161162101811EE1019170010EB
:100160001A176810201768102117681022176810D6
:100170002317681024176810251790107017901017
:1001800071179010721790107317901074179010C9
:100190007518B8108018B8108118B3108218B310F1
:1001A00083116711001194110111C11102114F1136
:1001B0000318F8120002F9200003E5200103E820EB
:1001C000020519200305E020110AA320120A3E208F
:1001D000130EB920150EBF201610812017108C2089
:1001E0001810BB201B147C201D10CD201E037E2068
:1001F0002010522021176820251768202614A920D6
:100200003016A2203516B0203617F7203718BD203B
:100210003809AE3050088D306018F3307018F33064
:100220007218F3307318F3307418F3307509A23074
:100230008309A830841665309003983224110B3559
:10024000081154350917003660170036701700364C
:1002500080153E4006171A4010171A4011171A4011
:1002600012171A4013171A4014171A401505304078
:100270002118B8450018B8450118B8450218B84506
:100280000318B8450418B8450518B8450617364789
:100290000017364701173647021736470317364708
:1002A0000417364705174C4710174C4711174C4792
:1002B00012174C4713174C4714174C471518B348DF
:1002C0002018B8482118B84824184C482518B848B0
:1002D0002618A7482718044830185948320D99485D
:1002E000500DC548510DF648520E2748530E56483A
:1002F000540E85485500001906020388908A99E03B
:100300007002A3E060030219067B017A8A799B9050
:100310008B65F0A304F07F037E207D007C001281BA
:1003200053908A9BE07002A3E070030216607F2363
:10033000021903908A99E07002A3E0600302190693
:100340007B017A8A799B908B65F0A304F07F037E12
:10035000207D007C00128153908A9BE07002A3E014
:1003600070057F050219037F2A021903908A99E01C
:100370007002A3E060030219067F0402190390943F
:1003800025E0FF12F7C05008D21912EE2A02190612
:10039000909425E0FF0219037B017A8A799B908B68
:1003A00065E4F0A304F07F247E327D007C0012819E
:1003B00053908A9BE0FEA3E0FF64014E6009EF6466
:1003C000024E600302190612F26FE4908A9BF0A3BA
:1003D000F07B017A8A799B908CB5F0A304F07F249E
:0803E0007E320216F6021076CF
:1003E800D2107B017A8A799B908B65E4F0A304F0A4
:1003F8007F027E207D007C00128153908A9BE0FE64
:10040800A3E0FFD39403EE94004003021906EF4ED5
:10041800908AA4700EF0A3F07B017A8A79A4908C5C
:10042800B5800EE4F0A304F0FB7A8A79A4908CB529
:10043800E4F0A304F07F217E407D007C00128E173B
:100448007B017A8A79A0908B65E4F0A304F07F039E
:100458007E207D007C00128153908A9BE07004A36B
:10046800E06401702B7F0112F369908AA2EEF0A379
:10047800EFF04E700EFD7F0112F36F908AA2EEF03E
:10048800A3EFF0908AA2E0FEA3E0FF4E60778072AF
:10049800908A9BE07004A3E06402702B7F0212F341
:1004A80069908AA2EEF0A3EFF04E700EFD7F021263
:1004B800F36F908AA2EEF0A3EFF0908AA2E0FEA379
:1004C800E0FF4E6040803B908A9BE07004A3E064AC
:1004D800037032908AA0A3E0FD7F0312F36F908A25
:1004E800A2EEF0A3EFF04E700EFD7F0312F36F90B3
:1004F8008AA2EEF0A3EFF0908AA2E0FEA3E0FF4EFE
:0E050800600312CD1D12FEA712F3F912F53694
:1005160002104C12F89DD21912EE2A12FEA712F5FD
:0A0526006012EFF012DD5202190618
:100530007B017A8A799B908B65E4F0A304F07F219C
:100540007E407D007C00128153908A9BE0FEA3E0F8
:10055000FFD39401EE940040030219069093E5E066
:10056000FCA3E0FDEF6D7002EE6C700302190690C3
:1005700093E5EEF0A3EFF07B017A8A79A0908B658A
:10058000E4F0A304F07F027E207D007C0012815302
:10059000908A9BE07002A3E07011908AA0F0A3F013
:1005A0007B017A8A79A0908CB5801A908AA0E0703D
:1005B00002A3E0701F908AA0F0A304F0FB7A8A796E
:1005C000A0908CB5E4F0A304F07F027E207D007C37
:0D05D00000128E1712BBA812FEA712F536FE
:1005DD0002169C7F0712EEF67B017A8A799B908B2F
:1005ED0065E4F0A304F07F117E207D007C00128174
:1005FD0053908A9BE07004A3E0640170657B017ADF
:10060D008A799B908B65F0A304F07F007E477D0077
:10061D007C001281537B017A8A799B908CB5E4F032
:10062D00A304F07F007E307D007C00128E17E490D5
:10063D008A9BF0A3F07B017A8A799B908B65F0A35E
:10064D0004F07F107E477D007C001281537B017A80
:10065D008A799B908CB5E4F0A304F07F057E30027F
:10066D0016F6908A9BE07004A3E06402705E7B0135
:10067D007A8A799B908B65F0A304F0FF7E477D000D
:10068D007C001281537B017A8A799B908CB5E4F0C2
:10069D00A304F07F007E307D007C00128E177B015D
:1006AD007A8A799B908B65E4F0A304F07F117E47E5
:1006BD007D007C001281537B017A8A799B908CB5E9
:1006CD00E4F0A304F07F057E300216F6908A9BE0DD
:1006DD007004A3E06403705F7B017A8A799B908B31
:1006ED0065F0A304F07F027E477D007C00128153EC
:1006FD007B017A8A799B908CB5E4F0A304F07F009E
:10070D007E307D007C00128E177B017A8A799B905A
:10071D008B65E4F0A304F07F127E477D007C001210
:10072D0081537B017A8A799B908CB5E4F0A304F018
:10073D007F057E300216F6908A9BE07004A3E0647C
:10074D0004705F7B017A8A799B908B65F0A304F02E
:10075D007F037E477D007C001281537B017A8A796D
:10076D009B908CB5E4F0A304F07F007E307D007C7F
:10077D0000128E177B017A8A799B908B65E4F0A32A
:10078D0004F07F137E477D007C001281537B017A3C
:10079D008A799B908CB5E4F0A304F07F057E30023E
:1007AD0016F6908A9BE07004A3E06405705F7B01F0
:1007BD007A8A799B908B65F0A304F07F047E477D48
:1007CD00007C001281537B017A8A799B908CB5E471
:1007DD00F0A304F07F007E307D007C00128E177B2D
:1007ED00017A8A799B908B65E4F0A304F07F147EE7
:1007FD00477D007C001281537B017A8A799B908C16
:10080D00B5E4F0A304F07F057E300216F6908A9BC6
:10081D00E07004A3E0640660030219067B017A8A86
:10082D00799B908B65F0A304F07F057E477D007C5E
:10083D00001281537B017A8A799B908CB5E4F0A3E9
:10084D0004F07F007E307D007C00128E177B017AD4
:10085D008A799B908B65E4F0A304F07F157E477D2C
:10086D00007C001281537B017A8A799B908CB5E4D0
:10087D00F0A304F07F057E300216F67F0D021903FA
:10088D00E4908AA0F07B017A8A799B908B65F0A326
:10089D0004F07F167E107D007C001281537B017A5F
:1008AD008A79A1908B65E4F0A304F07F037E207D0F
:1008BD00007C00128153908A9BE07004A3E06401D8
:1008CD007069908AA0F0908AA0E0FFC394067480AE
:1008DD0094805041EF2440FFE43431FEE4FCFD7B75
:1008ED00017A8A799B908B65F0A304F01281539065
:1008FD008AA0E02400FFE43445FEE4FCFD7B017A90
:10090D008A799B908CB5F0A304F0128E17908AA073
:10091D00E004F080B1908AA1E07004A3E06401705E
:10092D00057F290219037F0C021903E4908AA0F0B8
:10093D00908AA0E0FFC39406748094805041EF2408
:10094D0040FFE43431FEE4FCFD7B017A8A799B9013
:10095D008B65F0A304F0128153908AA0E02410FF60
:10096D00E43445FEE4FCFD7B017A8A799B908CB5DD
:10097D00F0A304F0128E17908AA0E004F080B190DD
:10098D008AA1E07004A3E0640170057F27021903BA
:02099D007F11C8
:10099F00021903128329021906128C4B0219067BC6
:1009AF00017A8A799B908B65E4F0A304F07F167E21
:1009BF00107D007C00128153908A9BE07004A3E0AD
:1009CF006401702E7B017A8A799B908B65F0A3046A
:1009DF00F07F037E207D007C00128153908A9BE084
:1009EF007004A3E0640170057F290219037F0C02D4
:1009FF001903908A9BE07004A3E06402600302195C
:100A0F00067B017A8A799B908B65F0A304F07F03B4
:100A1F007E207D007C00128153908A9BE07004A39E
:100A2F00E0640170057F290219037F110219037F0A
:100A3F000612EEF67B017A8A799B908B65E4F0A320
:100A4F0004F07F007E477D007C001281537B017A8A
:100A5F008A799B908CB5E4F0A304F07F207E307DE3
:100A6F00007C00128E177B017A8A799B908B65E44C
:100A7F00F0A304F07F107E477D007C001281537B32
:100A8F00017A8A799B908CB5E4F0A304F07F257EE0
:040A9F00300216F615
:100AA3007B017A8A799B908B65E4F0A304F07F1134
:100AB3007E207D007C00128153908A9BE0FEA3E0A0
:100AC300908AA0F064014E70637F0212EEF67B0100
:100AD3007A8A799B908B65E4F0A304F07F007E30E3
:100AE3007D007C001281537B017A8A799B908CB5BF
:100AF300E4F0A304F07F007E477D007C00128E1794
:100B03007B017A8A799B908B65E4F0A304F07F05DF
:100B13007E307D007C001281537B017A8A799B9021
:100B23008CB5E4F0A304F07F10020D55908A9BE08E
:100B33007004A3E0640270627F0212EEF67B017A16
:100B43008A799B908B65E4F0A304F07F007E307D6F
:100B5300007C001281537B017A8A799B908CB5E4E7
:100B6300F0A304F0FF7E477D007C00128E177B010B
:100B73007A8A799B908B65E4F0A304F07F057E303D
:100B83007D007C001281537B017A8A799B908CB51E
:100B9300E4F0A304F07F11020D55908A9BE07004EA
:100BA300A3E0640370637F0212EEF67B017A8A7915
:100BB3009B908B65E4F0A304F07F007E307D007C86
:100BC300001281537B017A8A799B908CB5E4F0A360
:100BD30004F07F027E477D007C00128E177B017A32
:100BE3008A799B908B65E4F0A304F07F057E307DCA
:100BF300007C001281537B017A8A799B908CB5E447
:100C0300F0A304F07F12020D55908A9BE07004A3B9
:100C1300E0640470637F0312EEF67B017A8A799BAA
:100C2300908B65E4F0A304F07F007E307D007C00B0
:100C33001281537B017A8A799B908CB5E4F0A304EB
:100C4300F07F037E477D007C00128E177B017A8A3A
:100C5300799B908B65E4F0A304F07F057E307D00E3
:100C63007C001281537B017A8A799B908CB5E4F0E6
:100C7300A304F07F13020D55908A9BE07004A3E058
:100C8300640570627F0312EEF67B017A8A799B908A
:100C93008B65E4F0A304F07F007E307D007C0012BE
:100CA30081537B017A8A799B908CB5E4F0A304F09D
:100CB3007F047E477D007C00128E177B017A8A7940
:100CC3009B908B65E4F0A304F07F057E307D007C70
:100CD300001281537B017A8A799B908CB5E4F0A34F
:100CE30004F07F14806C908A9BE07004A3E0640698
:100CF30070697F0312EEF67B017A8A799B908B658C
:100D0300E4F0A304F07F007E307D007C0012815369
:100D13007B017A8A799B908CB5E4F0A304F07F057C
:100D23007E477D007C00128E177B017A8A799B9027
:100D33008B65E4F0A304F07F057E307D007C001218
:100D430081537B017A8A799B908CB5E4F0A304F0FC
:100D53007F157E477D007C00128E17127B0C908AD4
:100D6300A0E0FF7E00C394017480948050030219B5
:100D730006D3EF9406748094804003021906E0C3FF
:100D83009401FFE4FD12E855908AA0E0C39401FFAB
:030D930012B22D6C
:100D96000219067B017A8A799B908B65E4F0A3049D
:100DA600F07F027E207D007C00128153908A9BE0BA
:100DB6007004A3E0640160030219067D01802B7BA9
:100DC600017A8A799B908B65E4F0A304F07F027E1A
:100DD600207D007C00128153908A9BE07004A3E082
:100DE6006401600302190674FFFDFC7F01020EB365
:100DF6007B017A8A799B908B65E4F0A304F07F02ED
:100E06007E207D007C00128153908A9BE07004A3B3
:100E1600E06402600302190674FFFDFC7F02020E05
:100E2600B37B017A8A799B908B65E4F0A304F07F0B
:100E3600027E207D007C00128153908A9BE0700424
:100E4600A3E0640260030219067D01FC7F02805D57
:100E56007B017A8A799B908B65E4F0A304F07F028C
:100E66007E207D007C00128153908A9BE07004A353
:100E7600E0640360030219067D01FC7F03802E7B7C
:100E8600017A8A799B908B65E4F0A304F07F027E59
:100E9600207D007C00128153908A9BE07004A3E0C1
:100EA6006403600302190674FFFDFC7F0312B52E6E
:090EB60002190612AE040219062D
:100EBF007B017A8A79A4908B65E4F0A304F07F0319
:100ECF007E207D007C00128153908AA4E07002A3E3
:100EDF00E07B016003020F9A7A8A79A0908B65F00C
:100EEF00A304F07F257E207D007C001281537B01BF
:100EFF007A8A79A0908CB5E4F0A304F07F057E2068
:100F0F007D007C00128E17908AA0E0FEA3E0FF7D8B
:100F1F004612C169908AA2EEF0A3EFF07B017A8AA4
:100F2F0079A2908CB5E4F0A304F07F067E207D00BB
:100F3F007C00128E177B017A8A79A6908B65E4F07C
:100F4F00A304F07F027E207D007C00128153908AE3
:100F5F00A612F399908AA6A3E0FF908AA2E0FAA3C3
:100F6F00E0FB7D0112F3A6908AA6A3E0FFC00790D5
:100F7F008AA0E0FCA3E0FDE4123D97908AAB1245F6
:0B0F8F00D2D00712EDA17F0102104438
:100F9A007A8A79A4908B65E4F0A304F07F267E20F8
:100FAA007D007C001281537B017A8A79A4908CB5EA
:100FBA00E4F0A304F07F067E207D007C00128E17E9
:100FCA00908AA412C162908AA0EEF0A3EFF07B018E
:100FDA007A8A79A0908CB5E4F0A304F07F057E208C
:100FEA007D007C00128E177B017A8A79A8908B6526
:100FFA00E4F0A304F07F027E207D007C001281537E
:10100A00908AA812F399908AA8A3E0FF908AA4E094
:10101A00FAA3E0FB7D0112F3A6908AA8A3E0FFC021
:10102A0007908AA0E0FCA3E0FDE4123D97908AAB0A
:0D103A001245D2D00712EDA17F1E12EEF676
:08104700D21012FEA712EFF017
:10104F000219067B017A8A799B908B65E4F0A304E1
:10105F00F07F217E207D007C00128153908A9BE0DF
:10106F00FEA3E0FF12F9A5D21012FEA712F4570249
:10107F0019067F0F12EEF612AAD20219067B017A19
:10108F008A799B908B65E4F0A304F07F187E207D16
:10109F00007C00128153908A9BE0FEA3E0FF9094A6
:1010AF001FEEF0A3EFF012F6830218EE128FB89036
:1010BF0093FE1245D212EC8912F5B40219067B0188
:1010CF007A8A799B908B65E4F0A304F07F1E7E20D3
:1010DF007D007C001281537B017A8A799B908CB5BD
:1010EF00E4F0A304F07F1E7E207D007C00128E179B
:0C10FF00908A9BA3E0FF12F9450218EE56
:10110B00E4908AA0F0A3F07B017A8A79A0908B659A
:10111B00F0A304F07F087E357D007C001281537BA9
:10112B00017A8A79A0908CB5E4F0A304F07F087E55
:10113B00357D007C00128E1712D1B812FEA712F566
:01114B00DEC5
:10114C000219067F3D02190312D1B812FEA712F53F
:10115C00DE7F340219037F0E0219037B017A8A7930
:10116C009B908B65E4F0A304F07F037E207D007CD4
:10117C0000128153908A9BE07002A3E070057F0BF4
:10118C000219037F280219037B017A8A799B908BC1
:10119C0065E4F0A304F07F037E207D007C001281C7
:1011AC0053908A9BE07002A3E070057F0B02190339
:1011BC007F280219037B017A8A799B908B65E4F076
:1011CC00A304F07F037E207D007C00128153908A63
:1011DC009BE07002A3E070057F100219037F2602CA
:1011EC0019037B017A8A799B908B65E4F0A304F058
:1011FC007F187E107D007C00128153908A9BE070DA
:10120C0004A3E0640160030212A57B017A8A799B36
:10121C00908B65F0A304F07F197E107D007C00128A
:10122C008153908A9BE07004A3E0640170667B019B
:10123C007A8A799B908B65F0A304F07F507E307D89
:10124C00007C001281537B017A8A799B908CB5E4E7
:10125C00F0A304F07F807E107D007C00128E177B43
:10126C00017A8A799B908B65E4F0A304F07F517E20
:10127C00307D007C001281537B017A8A799B908CA3
:10128C00B5E4F0A304F07F817E107D007C00128E0B
:10129C0017128C4B7F0C021903908A9BE07004A3ED
:1012AC00E0640260030213437B017A8A799B908B82
:1012BC0065F0A304F07F197E107D007C0012815331
:1012CC00908A9BE07004A3E0640170667B017A8ACB
:1012DC00799B908B65F0A304F07F507E307D007C71
:1012EC00001281537B017A8A799B908CB5E4F0A330
:1012FC0004F07F827E107D007C00128E177B017AB9
:10130C008A799B908B65E4F0A304F07F517E307D4D
:10131C00007C001281537B017A8A799B908CB5E416
:10132C00F0A304F07F837E107D007C00128E1712D8
:10133C00B8057F0B021903908A9BE07004A3E0644C
:10134C000360030213DE7B017A8A799B908B65F034
:10135C00A304F07F197E107D007C00128153908ACB
:10136C009BE07004A3E0640170637B017A8A799B33
:10137C00908B65F0A304F07F507E307D007C0012D2
:10138C0081537B017A8A799B908CB5E4F0A304F0AD
:10139C007F847E107D007C00128E177B017A8A7907
:1013AC009B908B65E4F0A304F07F517E307D007C34
:1013BC00001281537B017A8A799B908CB5E4F0A35F
:1013CC0004F07F857E107D007C00128E177F120248
:1013DC001903908A9BE07004A3E064046003021973
:1013EC00067B017A8A799B908B65F0A304F07F19B8
:1013FC007E107D007C00128153908A9BE07004A3C8
:10140C00E0640170667B017A8A799B908B65F0A30E
:10141C0004F07F507E307D007C001281537B017A7A
:10142C008A799B908CB5E4F0A304F07F867E107DC6
:10143C00007C00128E177B017A8A799B908B65E475
:10144C00F0A304F07F517E307D007C001281537B31
:10145C00017A8A799B908CB5E4F0A304F07F877EA7
:10146C00107D007C00128E1712B7187F1002190322
:10147C007B017A8A799B908B65E4F0A304F07F035F
:10148C007E207D007C00128153908A9BE07002A329
:10149C00E060057F200219037F320219037B017A79
:1014AC008A799B908B65E4F0A304F07F307E207DDD
:1014BC00007C00128153908A9BE07002A3E0606D67
:1014CC00C3909424E094D0909423E0940740527BF2
:1014DC00017A8A799B908B65E4F0A304F07F107EEF
:1014EC00207D007C00128153908A9BE07002A3E067
:1014FC007E0060047F0080027F01908A9BEEF0A347
:10150C00EFF07B017A8A799B908CB5E4F0A304F020
:10151C007F107E207D007C00128E1712FEA712F524
:10152C008AC229E4909423F0A3F0021906D229026E
:02153C0019068E
:10153E007B017A8A79A0908B65E4F0A304F07F207A
:10154E007E307D007C00128153E4908A9FF0908A59
:10155E009FE0FFC39406748094805048E42FFFE40C
:10156E003447FEE4FCFD7B017A8A79A0908CB5F0BD
:10157E00A304F0128E17908A9BE4F0A304F0908AD5
:10158E009FE02410FFE43440FEE4FCFD7B017A8AE8
:10159E00799B908CB5F0A304F0128E17908A9FE081
:1015AE0004F080AA7B017A8A79A2908B65E4F0A37D
:1015BE0004F07F257E307D007C00128153E4908AFA
:1015CE009FF0908A9FE0FFC394067480948050230E
:1015DE00EF2410FFE43447FEE4FCFD7B017A8A79A8
:1015EE00A2908CB5F0A304F0128E17908A9FE0049F
:1015FE00F080CF7B017A8A799B908B65E4F0A3040F
:10160E00F07F907E107D007C00128153E4908A9FC3
:10161E00F0908A9FE0FFC39406748094805023EF6D
:10162E002420FFE43410FEE4FCFD7B017A8A799BD2
:10163E00908CB5F0A304F0128E17908A9FE004F000
:10164E0080CF127B0C7D01E4FF12E85512FA9B123B
:04165E00FEA77F0262
:101662000219037B017A8A799B908B65E4F0A304CB
:10167200F07F907E307D007C001281537B017A8A5C
:10168200799B908CB5E4F0A304F07F027E207D006C
:101692007C00128E17D21012FEA712F3F90219065D
:1016A20012FE897F2D12EEF612B3310219067B016A
:1016B2007A8A799B908B65E4F0A304F07F367E20D2
:1016C2007D007C00128153908A9BE07004A3E06449
:1016D20001600302190612EEB212B331E4908A9B42
:1016E200F0A3F07B017A8A799B908CB5F0A304F089
:1016F2007F367E207D007C00128E170219069094A0
:1017020003E0FEA3E0FF12FC1112FEA712F06A1220
:10171200F0A712DCE0021906909403E0FEA3E0FFBA
:10172200C39410EE94404064EF24F0FFE4FD12E80D
:10173200550217EE909403E0FEA3E0FFC3EE944738
:101742004005E4FD12E8550217EE909403E0FEA373
:10175200E0FFC39410EE94474009EF24F0FFE4FD4C
:1017620012E8550217EE909403E0FEA3E0FF7D43DA
:10177200126A58909403E0FEA3E0FFC39420EE9413
:0E178200104009EF24E0FFE4FD12E855805E00
:10179000126A4E909403E0FCA3E0FD2490908AA08E
:1017A000F0AF05AE04E4FCFD7B017A8A79A1908B51
:1017B00065F0A304F0128153908AA112C162908A4D
:1017C000A3EEF0A3EFF0908AA0E02420FFE4341011
:1017D000FEE4FCFD7B017A8A79A3908CB5F0A3042A
:1017E000F0128E17908AA0E0FFE4FD12E85512FE79
:0417F000A7127B0CB5
:1017F40002190612FDBF7F1612EEF6D22B0219064D
:10180400909403E0FEA3E0FFE4FCFD7B017A8A7977
:10181400A0908B65F0A304F0128153908AA012C1AA
:1018240062908AA2EEF0A3EFF07B017A8A79A2900B
:101834008CB5E4F0A304F07F247E487D007C001284
:051844008E17128C4B11
:101849000218EEE4FD7F01127F411283290218EE8E
:10185900909403E0FEA3E0FFE4FCFD7B017A8A7922
:10186900A0908B65F0A304F0128153908AA012C155
:1018790062908AA2EEF0A3EFF07B017A8A79A290B6
:101889008CB5E4F0A304F07F387E487D007C00121B
:0C1899008E17E4FD7F01127F41128329AD
:1018A50080477D01E4FF127F4112B718803B12B8D3
:1018B500058036128C4B80317B017A8A799B908B1F
:1018C50065E4F0A304F07F387E207D007C00128162
:1018D50053908A9BE07002A3E06004D22C8002C280
:1018E5002CA22CB3921912ED5C12FEA7801312B62E
:1018F50024800E12D1B812FEA712F5DE7F3412EE47
:10190500F6909403E0FEA3E0FFC3EE944850030273
:0E1915001A9CD3EF945FEE94484003021A9C94
:10192300EF7003EE64487003021A9CEF64027003C5
:10193300EE64487003021A9CEF64047003EE64487B
:101943007003021A9CEF64067003EE64487003028E
:101953001A9CEF64107003EE64487003021A9CEF44
:1019630064127003EE64487003021A9CEF641470EF
:1019730003EE64487003021A9CEF64167003EE646E
:10198300487003021A9CEF64087003EE6448601009
:10199300EF640A7003EE64486006BE480EBF0C0B8A
:1019A3007D43126A5812FEA702EFF0909403E0FE03
:1019B300A3E0FF64187003EE64486010EF641A70CC
:1019C30003EE64486006BE4809BF1C06126A4E0255
:1019D3001A99909403E0FEA3E0FFE4FCFD7B017AF7
:1019E3008A799D908B65F0A304F012815390940340
:1019F300A3E0908AA0F0E0FF25E02481F582E4349F
:101A030082F583E0FCA3E0FDEF25E02441F582E4C9
:101A13003483F583E0FEA3E0FFD39DEC6480F8EE0E
:101A23006480984056908A9DE0FCA3E0FDD39FEE2E
:101A33006480F8EC6480984019908AA0E025E02443
:101A430041F582E43483F583E0FFA3E0908A9DCFE0
:101A53008025908AA0E025E02481F582E43482F594
:101A630083E0FEA3E0FFC3ED9FEE6480F8EC6480A7
:101A7300985008908A9DEEF0A3EFF0909403E0FE57
:101A8300A3E0FFE4FCFD7B017A8A799D908CB5F09D
:091A9300A304F0128E1712FEA745
:011A9C002227
:10F7C000C21AE4FEEEC39408748094805015740746
:10F7D0002EF582E43494F583E0B50704D21A800351
:05F7E0000E80E1A21AF9
:01F7E5002201
:10B12700E4908B33F0A3F0A3F0A374FFF0E4908BCB
:10B1370035F0908B35E0FFC39406748094805037C8
:10B14700EF2410FFE43440FEE4FCFD7B017A8B79A9
:10B1570033908B65F0A304F0128153908B33E0702A
:10B1670004A3E064017008908B35E0A3F080089099
:10B177008B35E004F080BBE4908B33F0A3F0908B29
:10B1870036E0FFC39406748094805060EF75F0201A
:10B19700A42401FFE5F03411FEE4FCFD7B017A8B6A
:10B1A7007933908B65F0A304F0128153D3908B34DD
:10B1B700E09404908B33E094004031908B36E02488
:10B1C70000FFE43447FEE4FCFD7B017A8B79339082
:10B1D7008B65F0A304F0128153D3908B34E0940471
:10B1E700908B33E094004004E4F0A3F07B017A8B6A
:10B1F7007933908CB5E4F0A304F0FF7E207D007CCA
:10B2070000128E179093E7E0FF908B33E0FCA3E0EA
:10B21700FD6F7001EC600EAF0512B433908B33A352
:05B22700E09093E7F048
:01B22C0022FF
:10EE2A00E4908B16F0A3F020190A12F87B12F7C0AF
:10EE3A005031802C7B017A8B7916908B65E4F0A394
:10EE4A0004F07F037E207D007C00128153908B1694
:10EE5A00E07002A3E070047F0180027F1E12EEF6CA
:03EE6A0012B127BB
:01EE6D002282
:0A6A4E00909403E0FEA3E0FF7D46F4
:0D6A5800908AB7EDF0908AB5EEF0A3EFF054
:106A6500E4FCFD7B017A8A79B8908B65F0A304F08C
:106A7500128153908AB5E0FEA3E0FFC39420EE9403
:106A850010400BD3EF9425EE941050028022C3EFF3
:106A95009470EE9410400BD3EF9475EE9410500261
:106AA5008027908AB5E0FEA3E0FFBE2016BF251320
:106AB500908ABAE4F0A37410F0A3E4F0A37420F074
:106AC500026BAABE201BBF26187D467F107E0012D2
:106AD500C169908ABAEEF0A3EFF07D467F20026B84
:106AE5009D908AB5E0FEA3E0FFBE4816BF0813904F
:106AF5008ABAE4F0A3741EF0A3E4F0A3743CF00298
:106B05006BAABE4816BF0A13908ABAE4F0A3741E96
:106B1500F0A3E4F0A37432F0026BAABE4815BF0CD3
:106B250012908ABAE4F0A3740FF0A3E4F0A37428DA
:106B3500F08072BE481ABF18177D467F1E7E001270
:106B4500C169908ABAEEF0A3EFF07D467F3C80489C
:106B5500908AB5E0B4481CA3E0B41A177D467F1EA1
:106B65007E0012C169908ABAEEF0A3EFF07D467FF0
:106B7500328025908AB5E064487004A3E0641C6007
:106B850003026D027D467F0FFE12C169908ABAEE3F
:106B9500F0A3EFF07D467F287E0012C169908ABC84
:106BA500EEF0A3EFF0908ABAE0FEA3E0FF908AB87A
:106BB500E0FCA3E0FDC39FEC9E5002800F908ABCD1
:106BC500E0FEA3E0FFD3ED9FEC9E4008908AB8EE6F
:106BD500F0A3EFF0908AB5E0FEA3E0FFE4FCFD7BB7
:106BE500017A8A79B8908CB5F0A304F0128E1790CB
:106BF5008AB5E0FEA3E0FFC39420EE9410400ED3C7
:106C0500EF9425EE94105005EF24E0802B908AB583
:106C1500E0FEA3E0FFC39470EE94104027D3EF94F9
:106C250075EE9410501E12C15F908AB8EEF0A3EF76
:106C3500F0908AB5A3E02490FF908AB8E0FCA3E029
:106C4500FD02E11C908AB5E0B4200FA3E0B4250A4B
:106C5500908AB8E0FEA3E0FF800F908AB5E0B420EB
:106C65000BA3E0B4260612C15F02CD1D908AB5E0E4
:106C7500FEA3E0FF64087003EE64486014EF640A45
:106C85007003EE6448600AEF640C7003EE644870AC
:106C950028908AB8E0FEA3E0FF7D4612C169AB07E4
:106CA500AA06908AB6E024F8FF908AB5E034B7C307
:106CB50013EF1304FF7D018041908AB5E0FEA3E048
:106CC500FF64187003EE64486014EF641A7003EEF5
:106CD5006448600AEF641C7003EE6448701F12C1BB
:106CE5005FAB07AA06908AB6E024E8FF908AB5E074
:0D6CF50034B7C313EF1304FFE4FD12F3A640
:016D0200226E
:10F9A500908AAAEEF0A3EFF07B017A8A79AA908C6F
:10F9B500B5E4F0A304F0FF7E207D007C00028E17E5
:10AAD2007B017A8A79AC908B65E4F0A304F07F1055
:10AAE2007E307D007C001281537B017A8A79AC90A2
:10AAF2008CB5E4F0A304F07F707E307D007C001200
:10AB02008E177B017A8A79AE908B65E4F0A304F00C
:10AB12007F117E307D007C00128153908AACE0FE72
:10AB2200A3E0FFA3E0FCA3E0FD12FDDA908AB0EE01
:10AB3200F0A3EFF07B017A8A79B0908CB5E4F0A3B0
:10AB420004F07F727E307D007C00128E177B017ACA
:10AB52008A79AA908B65E4F0A304F07F127E307D9F
:10AB6200007C001281537B017A8A79AA908CB5E429
:10AB7200F0A304F07F737E307D007C00128E177B81
:10AB8200017A8A79AA908B65E4F0A304F07F137EA0
:10AB9200307D007C001281537B017A8A79AA908CE5
:10ABA200B5E4F0A304F07F747E307D007C00128E49
:10ABB200177B017A8A79AA908B65E4F0A304F07F6F
:10ABC200147E307D007C001281537B017A8A79AA3F
:10ABD200908CB5E4F0A304F07F757E307D007C009C
:03ABE200028E17C9
:10B624007B017A8A79B0908B65E4F0A304F07F7093
:10B634007E307D007C001281537B017A8A79B2903E
:10B644008B65E4F0A304F07F727E307D007C0012F1
:10B6540081537B017A8A79B4908B65E4F0A304F07A
:10B664007F737E307D007C001281537B017A8A795E
:10B67400B6908B65E4F0A304F07F747E307D007C8B
:10B68400001281537B017A8A79B8908B65E4F0A328
:10B6940004F07F757E307D007C00128153908AB067
:10B6A400E0FEA3E0FFC394D0EE9407400CEF2430F7
:10B6B400FFEE34F8908ABA800B908AB0E0FFA3E0E2
:10B6C400908ABACFF0A3EFF0908ABBE0FE908AB3E1
:10B6D400E0FDEDFF908AAAEEF0A3EFF0908AB5E0CA
:10B6E400FE908AB7E0FDEDFF908AACEEF0A3EFF098
:10B6F400908AB9E0908AAEF0A3E4F07B017A8A796B
:10B70400AA908CB5F0A37403F07F9D7E007D007C2D
:04B7140000028E178A
:08CD1D00908B27EEF0A3EFF06C
:10CD2500908B27E0FEA3E0FF7D4612C169908B2919
:10CD3500EEF0A3EFF07B017A8B7927908CB5E4F0C8
:10CD4500A304F07F057E207D007C00128E177B01F9
:10CD55007A8B7929908CB5E4F0A304F07F067E20C8
:10CD65007D007C00128E177B017A8B792B908B6569
:10CD7500E4F0A304F07F027E207D007C0012815345
:10CD8500908B2BE0FEA3E0FFC39401EE94004022BC
:10CD9500D3EF9403EE94005019908B2712F39F90D4
:10CDA5008B2BA3E0FF908B29E0FAA3E0FB7D01121A
:02CDB500F3A6E3
:01CDB7002259
:10DE34007B017A8B7923908B65E4F0A304F07F0255
:10DE44007E207D007C001281537B017A8B792590A2
:10DE54008B65E4F0A304F07F037E207D007C001238
:10DE64008153908B23E0FEA3E0FFC39401EE940062
:10DE7400402AD3EF9403EE94005021A3A3E0FD12B3
:10DE8400F36F908B25E07002A3E06009EF4E60050C
:0CDE94007D4312C169EF4E600312CD1DEA
:01DEA000225F
:1061BA007B017A8B7918908B65E4F0A304F07F0356
:1061CA007E207D007C001281537B017A8B791A90A4
:1061DA008B65E4F0A304F07F057E207D007C00122D
:1061EA0081537B017A8B791C908B65E4F0A304F0D0
:1061FA007F067E207D007C00128153908B18E07010
:10620A0002A3E0601A908B1AE0FEA3E0FF4E600240
:10621A00802D908B1CE0FEA3E0FF4E602F800B9038
:10622A008B1CE0FEA3E0FF4E600A7D4312C1699019
:10623A008B1A8013908B1AE0FEA3E0FF4E600D7D4F
:10624A004612C169908B1CEEF0A3EFF0908B1AE016
:10625A00FEA3E0FF4E60028020908B1CE0FEA3E0CC
:10626A00FF4E60187D4312C169908B1AEEF0A3EFBE
:10627A00F0908B1AE0FEA3E0FF12CD1D7B017A8B12
:10628A00791A908CB5E4F0A304F07F257E207D0076
:10629A007C00128E177B017A8B791C908CB5E4F006
:1062AA00A304F07F267E207D007C00128E1712DE6A
:1062BA0034908B271245DE000048107F0012E4FD5F
:1062CA00908B271245DE000048127F0212E4FD90EF
:1062DA008B271245DE000048147F0412E4FD908BE0
:1062EA00271245DE000048167F0612E4FD908B1E39
:1062FA007401F0908B1EE0FFD39403748094805055
:10630A0040E4FD12F36F908B1AEEF0A3EFF0908B3E
:10631A001AE0FEA3E0FF4E601D7D4612C169908B14
:10632A001CEEF0A3EFF0A3E0FF908B1CE0FAA3E0D1
:10633A00FB7D0112F3A643C901908B1EE004F08095
:10634A00B2908B271245DE000010087F067E1012DD
:10635A00E4FF908B271245DE0000101A7F147E108E
:10636A0012E4FFE4908B1EF0908B1EE0FFC39406AC
:09637A0074809480400302643831
:10638300EF2420FFE43410FEE4FCFD7B017A8B79DB
:106393001A908B65F0A304F0128153908B1EE0FFDB
:1063A300908B1AE0FCA3E0FD12E11C908B1EE0250C
:1063B300E0FFE433FEEF2430FFEE3410FEE4FCFD97
:1063C3007B017A8B791F908B65F0A37402F01281A5
:1063D30053E4FFFEFDFC908B1FE0F8A3E0F9A3E07C
:1063E300FAA3E0FB123D196040403E908B1EE0256E
:1063F300E0FFE433FEEF2430FFEE3410FEE4FCFD57
:10640300C004C005C006C007E025E0FFE433FEEF8B
:106413002440FFEE3410FEE4908B271245D2D007C0
:0C642300D006D005D00412E50343C901E7
:10642F00908B1EE004F00263727B017A8B791A90D5
:10643F008B65E4F0A304F07F247E487D007C00127E
:10644F008153908B1AE0FAA3E0FB4A6017908B27D9
:10645F001245DE00004830908B2BEAF0A3EBF07F63
:10646F002412E43F7B017A8B791A908B65E4F0A3B9
:10647F0004F07F387E487D007C00128153908B1A88
:10648F00E0FAA3E0FB4A6017908B271245DE00006D
:10649F004832908B2BEAF0A3EBF07F3812E43F02E7
:0264AF0099232F
:0AC15F00908AB8E0FEA3E0FF7D43E4
:05C16900908B34EDF0A5
:10C16E006443703AC3EF94EAEE6480947F50067E87
:10C17E00FF7FEA800FD3EF940AEE6480948140042F
:10C18E007E017F0AEF24E0FFEE34FFFE7C007D325D
:10C19E0012429E7D09124305908B35EE803E908BA8
:10C1AE0034E06446703AC3EF94E2EE6480947F50BC
:10C1BE00067EFF7FE2800FD3EF9482EE6480948040
:10C1CE0040047E007F827C007D5A12429E7D0512C5
:10C1DE004305EF2440FFEE3401908B35F0A3EFF0D2
:10C1EE00908B35E0FEA3E0FFD39400EE6480948044
:10C1FE004008EF2405FFE43E800D908B36E024FBD3
:10C20E00FF908B35E034FFFE7C007D0A12430590D3
:07C21E008B35EEF0A3EFF0F9
:01C2250022F6
:10F89D00E4908B16F0A3F07B017A8B7916908B6533
:10F8AD00F0A304F07F037E207D007C0012815302C3
:02F8BD0061BA2E
:1078E10078A07C8A7D017BFF7AFE79817E007F0210
:1078F1001241CB7B017A8A79A0908B65E4F0A304D5
:10790100F07F217E487D007C00128153908AA1E0A6
:107911009093F5F07B017A8A79A0908B65E4F0A3CE
:1079210004F07F807E107D007C00128153908AA13B
:10793100E09093F6F07B017A8A79A0908B65E4F070
:10794100A304F07F817E107D007C00128153908A18
:10795100A1E09093F7F07B017A8A79A0908B65E49E
:10796100F0A304F07F207E487D007C0012815390BB
:107971008AA1E09093F8F07B017A8A79A0908B65D7
:10798100E4F0A304F07F827E107D007C001281531D
:10799100908AA1E09093F9F07B017A8A79A0908B8B
:1079A10065E4F0A304F07F837E107D007C001281EA
:1079B10053908AA1E09093FAF07B017A8A79A090A2
:1079C1008B65E4F0A304F07F267E487D007C0012E5
:1079D1008153908AA1E09093FBF0908AA61245DE34
:1079E100000048307F2412D3DC9093FCEFF07B0140
:1079F1007A8A79A0908B65E4F0A304F07F257E4814
:107A01007D007C00128153908AA1E0909415F07B57
:107A1100017A8A79A0908B65E4F0A304F07F847EDB
:107A2100107D007C00128153908AA1E0909416F0A1
:107A31007B017A8A79A0908B65E4F0A304F07F85BD
:107A41007E107D007C00128153908AA1E0909417F2
:107A5100F07B017A8A79A0908B65E4F0A304F07F32
:107A6100277E487D007C00128153908AA1E090948A
:107A710018F07B017A8A79A0908B65E4F0A304F079
:107A81007F867E107D007C00128153908AA1E09058
:107A91009419F07B017A8A79A0908B65E4F0A304B4
:107AA100F07F877E107D007C00128153908AA1E0D7
:107AB10090941AF07B017A8A79A0908B65E4F0A307
:107AC10004F07F367E487D007C00128153908AA1AC
:107AD100E090941BF07B017A8A79A0908B65E4F0A9
:107AE100A304F07F377E487D007C00128153908A89
:107AF100A1E090941CF0908AA61245DE0000483265
:0A7B01007F3812D3DC90941DEFF0E2
:017B0B002257
:10C8A600E4908AA2F0A3F0EF70047F068005C3EF40
:10C8B6009401FF908AA0EFF0E4908AA4F0908AA4F5
:10C8C600E0FFC39407748094805049EF2410FFE47E
:10C8D6003445FEE4FCFD7B017A8A79A1908B65F0F4
:10C8E600A304F0128153908AA1E06020908AA4E00C
:10C8F600FF7E007401A807088005C333CE33CED867
:10C90600F9FF908AA2E04EF0A3E04FF0908AA4E0EF
:10C9160004F080A9908AA2E0FCA3E0FD4C70037F9E
:10C926000122908AA0E0FF7E007401A80708800516
:10C93600C333CE33CED8F9FFEC5EFEED5F4E600416
:06C946007F0180027F006A
:01C94C0022C8
:10C94D00E4908AA2F0A3F0EF70047F068005C3EF98
:10C95D009401FF908AA0EFF0E4908AA4F0908AA44D
:10C96D00E0FFC39407748094805048E42FFFE434B3
:10C97D0045FEE4FCFD7B017A8A79A1908B65F0A3DD
:10C98D0004F0128153908AA1E06020908AA4E0FF08
:10C99D007E007401A807088005C333CE33CED8F9C5
:10C9AD00FF908AA2E04EF0A3E04FF0908AA4E0043D
:10C9BD00F080AA908AA2E0FCA3E0FD4C70037F01F9
:10C9CD0022908AA0E0FF7E007401A807088005C3AD
:10C9DD0033CE33CED8F9FFEC5EFEED5F4E60047FB3
:05C9ED000180027F0043
:01C9F2002222
:10A65A007B017A8A79A3908B65E4F0A304F07F37B3
:10A66A007E487D007C001281537B017A8A79A5900D
:10A67A008B65E4F0A304F07F387E487D007C0012ED
:10A68A0081537B017A8A79A7908B65E4F0A304F061
:10A69A007F817E307D007C00128153E4908AA0F095
:10A6AA00908AA0E0FFC3940674809480400302A7B6
:01A6BA007D22
:10A6BB00E4908AA9F0A3F0EF2460FFE43448FEE4B1
:10A6CB00FCFD7B017A8A79A9908B65F0A304F012CB
:10A6DB008153908AA9E07002A3E0700302A77490E3
:10A6EB008AA1E4F0A304F0908AA0E02410FFE434E4
:10A6FB0040FEE4FCFD7B017A8A79A1908CB5F0A336
:10A70B0004F0128E17908AA0E02400FFE43447FE79
:10A71B00E4FCFD7B017A8A79A3908CB5F0A304F05D
:10A72B00128E17908AA0E02420FFE43410FEE4FC84
:10A73B00FD7B017A8A79A5908CB5F0A304F0128E7B
:10A74B0017908AA0E02410FFE43447FEE4FCFD7B65
:10A75B00017A8A79A7908CB5F0A304F0128E17902A
:09A76B008AA0E0FFE4FD12E855AC
:0CA77400908AA0E004F002A6AA027B0C70
:10D85600E4908AA1F0A3F0908AA0F0908AA0E0FF5D
:09D86600C3940674809480505CA8
:10D86F00E4908AA3F0A3F0EF2460FFE43448FEE4D1
:10D87F00FCFD7B017A8A79A3908B65F0A304F012EB
:10D88F008153908AA3E07002A3E06028908AA0E001
:10D89F002410FFE43440FEE4FCFD7B017A8A79A179
:10D8AF00908CB5F0A304F0128E17908AA0E0FFE4DD
:04D8BF00FD12E85519
:0BD8C300908AA0E004F08096027B0C2D
:106794007B017A8A7999908B65E4F0A304F07F12E7
:1067A4007E007D007C001281531278E112FE8390FA
:1067B4008A9DEFF0908A99E0FEA3E0FDEDFF908AB8
:1067C4009EEEF0A3EFF09093F5E070030268CE9094
:1067D4008A9DE0FF12C94DEF70030268CE908A993A
:1067E400E0FF9093F6E06F60030268B2908A9AE04B
:1067F400FF9093F7E06F60030268B2908A9EE0FE18
:10680400A3E0FF9093E8E06E7003A3E06F700302CF
:1068140068CE908A9BE4F0A304F0FB7A8A799B907B
:106824008CB5E4F0A304F07F217E407D007C00124F
:106834008E177B017A9379FB908CB5E4F0A304F076
:106844007F027E207D007C00128E179093FBE06413
:1068540001700BA3E0FB7A00E4FD7F018024909398
:10686400FBE06402700BA3E0FB7A00E4FD7F02808E
:10687400119093FBE06403700CA3E0FB7A00E4FD49
:106884007F0312F3A69093FCE0FF7E0012CD1DD28D
:106894001012FEA712F53612F3F912EFF0908A9E49
:1068A400E0FFA3E09093E8CFF0A3EFF0801C908A80
:1068B4009EE0FEA3E0FF9093E8E0B5060DA3E0B5EB
:1068C400070874FF9093E8F0A3F09093F8E0700346
:1068D400026965908A9DE0FF12C94DEF7003026959
:1068E40065908A99E0FF9093F9E06F7058908A9AC6
:1068F400E0FF9093FAE06F704C908A9EE0FEA3E074
:10690400FF9093EAE06E7003A3E06F6054E4908A12
:106914009BF0A3F07B017A8A799B908CB5F0A30459
:10692400F07F217E407D007C00128E17D21012FE73
:10693400A712F536908A9EE0FFA3E09093EACFF089
:10694400A3EFF0801C908A9EE0FEA3E0FF9093EA00
:10695400E0B5060DA3E0B5070874FF9093EAF0A331
:10696400F0909415E0606D908A9DE0FF12C8A6EF48
:106974006062908A99E0FF909416E06F703A908A72
:106984009AE0FF909417E0B5072E908A9EE0FEA34C
:10699400E0FF9093ECE06E7003A3E06F603612A604
:1069A4005A12FEA7127B0C908A9EE0FFA3E09093FC
:1069B400ECCFF0A3EFF0801C908A9EE0FEA3E0FFF2
:1069C4009093ECE0B5060DA3E0B5070874FF90932F
:1069D400ECF0A3F0909418E0606D908A9DE0FF12B3
:1069E400C8A6EF6062908A99E0FF909419E06F70F6
:1069F4003A908A9AE0FF90941AE0B5072E908A9E06
:106A0400E0FEA3E0FF9093EEE06E7003A3E06F60FE
:106A14003612D85612FEA7127B0C908A9EE0FFA372
:106A2400E09093EECFF0A3EFF0801C908A9EE0FEFE
:106A3400A3E0FF9093EEE0B5060DA3E0B50708745C
:0A6A4400FF9093EEF0A3F0028A9099
:10A2AD0012F723EFFD7C00D394067480948050093F
:10A2BD009093F1E06F6002EFF0D3ED9406EC6480C3
:10A2CD0094804002E4FFEF24FD700A908A99E4F037
:10A2DD00A304F08007E4908A99F0A3F07B017A8AB9
:10A2ED007999908CB5E4F0A304F07F437E307D0026
:10A2FD007C00128E17E4908A99F0A3F07B017A8A84
:10A30D007999908B65F0A304F07F217E487D007CC8
:10A31D0000128153908A99E07002A3E070187B01BE
:10A32D007A8A7999908B65F0A304F07F207E487D21
:10A33D00007C00128153908A99E07002A3E070189E
:10A34D007B017A8A7999908B65F0A304F07F257E45
:10A35D00487D007C00128153908A99E07002A3E041
:10A36D0070187B017A8A7999908B65F0A304F07F40
:10A37D00277E487D007C001281537B017A8A799972
:10A38D00908CB5E4F0A304F07F047E207D007C006A
:10A39D00128E177B017A8A799B908B65E4F0A3046A
:10A3AD00F0FF7E207D007C001281539093F0E0FE43
:10A3BD00908A9BE0FF6E600B12B433908A9BE09005
:10A3CD0093F0F07B017A947910908CB5E4F0A304AE
:0CA3DD00F07F417E307D007C00028E1776
:10F33800202B02802612FE9BEF60097F1712EEF643
:10F34800C22B80179093F2E004F0E0C3941E7480FF
:10F358009480400C7F1512EEF6C22BE49093F2F0E5
:01F368002282
:10F6AB00302A249093F3E0C3940F74809480500419
:10F6BB00E004F022C22AE49093F3F0D21912EE2A5E
:07F6CB00E4909436F0A3F077
:01F6D2002215
:10A01A0030300302A16C302A0302A16CC39094373A
:10A02A00E09420909436E0944E500302A16C202CC8
:10A03A000302A16C12F87BEF64424E600D12F87BAA
:10A04A00909425EFF07F4212EEF67B017A8A799D91
:10A05A00908B65E4F0A304F07F047E207D007C00F1
:10A06A001281537B017A8A799B908B65E4F0A30471
:10A07A00F0FF7E207D007C001281537B017A8A7971
:10A08A009F908B65E4F0A304F07F077E467D007CF9
:10A09A0000128153908A9FE07002A3E06008908AC0
:10A0AA009A7404F08039908A9DE07002A3E07006E9
:10A0BA00908A9AF08029908A9BE0FEA3E0FFEE70D6
:10A0CA0018EF24FE600B047010908A9A7401F080D5
:10A0DA000E908A9A7402F08006908A9A7403F0901D
:10A0EA008A9AE0FF9093F4E06F6077E4908A99F09F
:10A0FA00908A99E0FFC3940574809480505CA3E031
:10A10A006F601F908AA174FFF0A3E4F0A3F0A3F09C
:10A11A00908A99E075F002A42460FFE5F03430FEDD
:10A12A00801D908A99E075F002A42460FFE5F0345E
:10A13A0030FE908AA1F0A3EFF0A3E4F0A304F0E4C8
:10A14A00FCFD7B017A8A79A3908CB5F0A304F01206
:10A15A008E17908A99E004F08096908A9AE09093FC
:02A16A00F4F00F
:01A16C0022D0
:104B3000418FC800428FD40000428FDB0000438FBA
:104B4000D6000000428FD20000438FDD00000042FB
:104B50008FD90000418FC700418FCF00418FC50121
:104B6000428FCD0000418FE200428FD00000448F81
:0A4B7000C900000000428FE00000C1
:10FA610043C94053B7CF43B71075985075D88053E9
:0DFA7100877F75BA0275AAB0D2ACD2AF2261
:10FA7E00908FC87401F0C2998F9920990843C901DB
:0DFA8E0012F15A80F5C299E4908FC8F02261
:0300230002C5E42F
:10C5E400C0E0C0F0C083C082C0D075D000C000C01D
:0DC5F40001C002C003C004C005C006C0079E
:10C60100C2AF309828C298AB99908FC9E0FCA3E0E3
:10C61100FDA3E0FEA3E02401FFE43EFEE43DFDE4D2
:10C621003CFC908FC91245D2AF0312BE2630994C03
:10C63100908FC8E07046C299D3908FD3E094009058
:10C641008FD2E094004030908FD6E0FBA3E0FAA3B4
:10C65100E0F91241F1F599908FD7E475F001124399
:10C661003B908FD3E024FFF0908FD2E034FFF09025
:0EC671008FC67401F08005908FC6E4F0D2AF42
:10C67F00D007D006D005D004D003D002D001D0000F
:0BC68F00D0D0D082D083D0F0D0E032B9
:10FC3D0075A78075AB8075AE0A75AF80D2BCD2BD8D
:05FC4D00C281D2AF22CC
:10D8CE00908AAEEBF0A3EAF0A3E9F0908AAEE0FB0B
:10D8DE00A3E0FAA3E04A4B605EC3ED9408EC94001B
:10D8EE004055E4908FDBF0A3F0908AAEA3A3E0F94D
:10D8FE00908FDDEBF0A3EAF0A3E9F0AF05908FD99E
:10D90E00ECF0A3EFF0D281908FDDE0FBA3E0FAA361
:10D91E00E0F91241F1F5AC908FDEE475F00112439F
:10D92E003B908FDAE024FFF0908FD9E034FFF09037
:08D93E008FC77401F0C2BD2285
:0300630002CEE6E4
:10CEE600C0E0C0F0C083C082C0D075D000C000C012
:10CEF60001C002C003C2AF53A7FED3908FDAE094FD
:10CF060000908FD9E09400402A908FDDE0FBA3E0EB
:10CF1600FAA3E0F91241F1F5AC908FDEE475F00169
:10CF260012433B908FDAE024FFF0908FD9E034FF74
:03CF3600F080295F
:10CF3900908FC7E4F0C281908CBEF0A3F0908CBFB3
:10CF4900E004F07006908CBEE004F0908CBEE070B6
:09CF590004A3E0647870E6D2BD87
:10CF6200D2AFD003D002D001D000D0D0D082D083B3
:05CF7200D0F0D0E03218
:03006B0002AF12CF
:10AF1200C0E0C0F0C083C082C0D075D000C000C005
:0BAF220001C002C004C005C006C0074B
:10AF2D00E4FFFEC2AFE5AB54016401600302B00261
:10AF3D00ADAD53ABFEC3908FDBE094014004E4F064
:10AF4D00A3F0908FDBE07002A3E07008ED64016068
:10AF5D000302B002908FDBE475F001124351FA74D5
:10AF6D00C525F0F582748E3AF583EDF0C3908FDC34
:10AF7D00E09403908FDBE09400407A908EC5E064FE
:10AF8D00016009908FDBE4F0A3F08027908EC6E07E
:10AF9D00F9FD7C006403700AA3E02405FFE433FE91
:10AFAD008011ED64064C6007E96410700280007E2C
:10AFBD00007F08C3EF9408EE940050047E007F08D4
:10AFCD00D3EF9400EE94014006908FDBE48023C311
:10AFDD00908FDCE09F908FDBE09E4019908FCF74B7
:10AFED0001F0908FCDE4F0A3F0908FDBF0A3F09003
:07AFFD008A95F0A3F0D2AF2A
:10B00400D007D006D005D004D002D001D000D0D0D3
:09B01400D082D083D0F0D0E032EC
:10FCEE0075968075978075D90A75E78043B701C2FE
:02FCFE00802262
:10F9C500D2808F9EE59630E0FB5396FEE4FDFC0D5C
:0FF9D500BD00010CED64644C70F5C28043C901A4
:01F9E4002200
:10C46C005B4D4F444255535D20757365725F777217
:10C47C00207077723D25750D0A005B4D4F44425577
:10C48C00535D20545820726420616464723D25759C
:10C49C000D0A005B4D4F444255535D205458207794
:10C4AC007220616464723D25752076303D257520BF
:10C4BC0076313D25750D0A005B4D4F444255535D59
:10C4CC0020525820726420616464723D2575207678
:10C4DC00303D25752076313D25750D0A005B4D4F9D
:10C4EC00444255535D205258207772206164647227
:10C4FC003D2575206F6B0D0A005B4D4F4442555323
:10C50C005D205258206372632065727220616464EE
:0FC51C00723D25750D0A000000000000000000B0
:104B7A00612C80AB00000000000000000000000073
:104B8A00000000000000000000000000000000001B
:104B9A00000000000000000000000000000000000B
:104BAA0000000000000000000000000000000000FB
:104BBA0000000000000000000000000000000000EB
:104BCA0000000000000000000000000000000000DB
:104BDA0000000000000000000000000000000000CB
:104BEA0000000000000000000000000000000000BB
:104BFA0000000000000000000000000000000000AB
:104C0A00000000000000000000000000000000009A
:104C1A00000000000000000000000000000000008A
:104C2A00000000000000000000000000000000007A
:104C3A00000000000000000000000000000000006A
:104C4A00000000000000000000000000000000005A
:104C5A00000000000000000000000000000000004A
:104C6A00000000000000000000000000000000003A
:104C7A00000000000000000000000000000000002A
:104C8A00000000000000000000000000000000001A
:104C9A00000000000000000000000000000000000A
:104CAA00C198C100C10E41821A0041821800418494
:104CBA0003004182160042801300004181D900415D
:104CCA0084010041847400C113C1154281D70000D8
:104CDA0042821B00004280A90000C10AC182598297
:104CEA006800000000000000000000000000000052
:104CFA0000000001010101010101602D840500008D
:104D0A00000101010101010101000100000101018D
:104D1A000101000000000000000000000100000086
:104D2A00000000000000000000000041821900415C
:104D3A00840400418217004280A7000041840200D7
:104D4A0041820E0042801100014180150041820F0C
:104D5A00014281DA000B4281DC00164C80050041D9
:104D6A00002300230005003C0028C105418076008D
:064D7A00C10441800000AD
:09FE5A0043C90112F15A02FAD564
:10C52B00908AE9EBF0A3EAF0A3E9F0A3ECF0A3ED1A
:01C53B00F00F
:10C53C0074FF908AF0F0A3F0E4908AEEF0A3F090F0
:10C54C008AECE0FEA3E0FFC3908AEFE09F908AEEB6
:10C55C00E09E507B908AE9E0FBA3E0FAA3E0F9901F
:10C56C008AEEE0FEA3E0F5828E8312420AFF908AE7
:10C57C00F0E0F0A3E06FF0E4FDEDC3940874809458
:10C58C00805038908AF1E05401FB908AF0E0C3139C
:10C59C00FEA3E013FF908AF0EEF0A3EFF0EE547FD1
:10C5AC00908AF0F0A3EFF0AF03EF600C908AF0E00C
:10C5BC0064A0F0A3E06401F00D80BE908AEFE0046B
:10C5CC00F0600302C54B908AEEE004F002C54B907C
:07C5DC008AF0E0FEA3E0FF7E
:01C5E3002235
:03FEAA0002FC3D1A
:0DEB1800F583E0FCA3E0FD7B017A8A79998A
:10EB2500908AB3ECF0A3EDF0908AB3E0FFE475F0C2
:10EB350001124367FC74AB25F0F58274803CF583C4
:10EB4500EFF0908AB3A3E0FFE475F001124367FC90
:0EEB550074AB25F0F58274803CF583EFF0225E
:06D45F007B017A8A799935
:0BD46500908AAEEBF0A3EAF0A3E9F020
:10D47000E4A3F0A3F0EDFF7E00C3940174809480D8
:10D48000403FD3EF9403748094805035EF24FFFF26
:10D49000EE34FFFE3395E0FDFCE47B02FAF9F8126E
:10D4A0004420EF2408FFEE3448FEE43DFDE43CFC5C
:10D4B0007B017A8A79B1908B65E4F0A304F0128144
:10D4C00053908AB1E0FEA3E0FF7C007D0A12429EE9
:10D4D000AC06AD07908AAEE0FBA3E0FAA3E0F90248
:02D4E000EB253A
:10EF3700EF4E7003FEFF22EC7029ED14601314608E
:10EF47001614601914601C240470187A007B028060
:10EF5700167A007B0680107A007B01800A7A007B94
:0DEF67000380047A007B07AE02EB4480FFBC
:01EF7400227A
:10F48500EE700FEF14600D14600F1460111460130B
:10F49500240480147E007F02227E007F04227E00E9
:0DF4A5007F06227E007F07227E007F082266
:10F4B200EF540714601424FE601524FD60071460E5
:10F4C20013240580147E007F01227E007F02227EAB
:0DF4D200007F03227E007F0422E4FEFF2263
:10EFB300EF64084E7003FEFF22EF4E7003FEFF2244
:10EFC300D3EF9402EE940050057E007F0122D3EF2D
:10EFD3009404EE940050057E007F0222D3EF940642
:0DEFE300EE94007E0050037F03227F042285
:10FB0F00AB05AA04EF700AFC7D0AAF03AE020242F6
:09FB1F009EEB25E0FFEA33FE2213
:10FB2800AB05AA04EF700AFC7D0AAF03AE020242DD
:09FB3800B0EAC313FEEB13FF2237
:0BBD5400908AE9EFF0A3ECF0A3EDF003
:10BD5F00908AED74FFF0D3908AEBE09404908AEA16
:10BD6F00E094004004E4F0A3F0908AE9E075F0203D
:10BD7F00A42401FFE5F03411FEE4FCFD7B017A8A77
:10BD8F0079EA908CB5F0A304F0128E17E4908AEC48
:10BD9F00F0908AECE0FFC39406748094805037EFE4
:10BDAF002410FFE43440FEE4FCFD7B017A8A79EE37
:10BDBF00908B65F0A304F0128153908AEEE070042B
:10BDCF00A3E064017008908AECE0A3F08008908AE9
:10BDDF00ECE004F080BB908AEDE0FFF46038908ACD
:10BDEF00E9E0B507317B017A8A79EA908CB5E4F006
:10BDFF00A304F0FF7E207D007C00128E177B017A5A
:10BE0F008A79EA908CB5E4F0A304F07F167E407D2A
:06BE1F00007C00128E17EA
:01BE250022FA
:067D33007B017A8479381F
:0E7D3900908B35EFF0A3EBF0A3EAF0A3E9F096
:107D4700908B35E02410FFE43440FEE4FCFD7B011A
:107D57007A8B7939908B65F0A304F0128153908B5D
:107D670035E02400FFE43447FEE4FCFD7B017A8B19
:107D7700793B908B65F0A304F0128153908B35E02B
:107D87002420FFE43410FEE4FCFD7B017A8B793D6F
:107D9700908B65F0A304F0128153908B35E024108B
:107DA700FFE43447FEE4FCFD7B017A8B793F908B3F
:107DB70065F0A304F0128153908B39E0FEA3E0FF36
:107DC700A3E0FCA3E0FD12EF37908B36E0FBA3E0C6
:107DD700FAA3E0F9EE8FF01243D4908B3FE0FEA3B5
:107DE700E0FF12F485908B36E0FBA3E0FAA3E0F9FD
:107DF700900002EE8FF01243F3908B35E0FF908BEB
:107E07003DE0FCA3E0FD12FB0F908B36E0FBA3E007
:107E1700FAA3E0F9900004EE8FF01243F3908B354C
:107E2700E0FF7E007C007D1012468EEF2440FFEEBF
:107E37003448FEE43DFDE43CFC908B411245D29072
:107E47008B36E0FBA3E0FAA3E0F9900006E4F5F037
:107E57001243F3908B41E0FCA3E0FDA3E0FEA3E017
:107E6700FFE92408F9E43AFA908B65E4F0A304F0FB
:107E7700128153908B41E0FCA3E0FDA3E0FEA3E059
:107E87002401FFE43EFEE43DFDE43CFC908B36E03C
:107E9700FBA3E0FAA3E0240AF9E43AFA908B65E43D
:107EA700F0A304F0128153908B41E0FCA3E0FDA303
:107EB700E0FEA3E02402FFE43EFEE43DFDE43CFCDB
:107EC700908B36E0FBA3E0FAA3E0240CF9E43AFA3E
:107ED700908B65E4F0A304F0128153908B41E0FC92
:107EE700A3E0FDA3E0FEA3E02403FFE43EFEE43DA0
:107EF700FDE43CFC908B36E0FBA3E0FAA3E0240E04
:107F0700F9E43AFA908B65E4F0A304F01281537F09
:107F170008EFC3941E74809480501E908B36E0FB4C
:107F2700A3E0FAA3E0F975F002EFA4F58285F083E8
:097F3700E4F5F01243F30F80D8C9
:017F4000221E
:0ED5E800908B35EFF0A3EBF0A3EAF0A3E9F08F
:10D5F600908B35E02432F582E43484F583E07003C1
:10D606007F0122E4908B39F0908B39E0C394087443
:10D61600809480504A908B36E0FBA3E0FAA3E0F9B1
:10D62600A3E0FF75F002A4F58285F08312439CFD0A
:10D63600ACF0908B35E0C454F02416F582E43480C7
:10D64600F58375F002EF12460FE0FEA3E06D70025F
:10D65600EE6C60037F0122908B39E004F080A97F95
:01D6660000C3
:01D6670022A0
:0EE2B300908AE9EFF0A3EBF0A3EAF0A3E9F004
:10E2C100E4FFEFC3940874809480503A908AEAE0A6
:10E2D100FBA3E0FAA3E0F975F002EFA4F58285F063
:10E2E1008312439CFDACF0908AE9E0C454F02416FB
:10E2F100F582E43480F58375F002EF12460FECF0FD
:10E30100A3EDF00F80BC908AE9E02432F582E43479
:06E3110084F5837401F0A5
:01E3170022E3
:06ABE5007B017A80797704
:0BABEB00908AAEEBF0A3EAF0A3E9F0C3
:10ABF600E4FFEFC3940774809480501F908AAEE000
:10AC0600FBA3E0FAA3E0F975F002EFA4F58285F064
:10AC160083E475F0FF1243F30F80D77B017A8A79BC
:10AC2600B1908B65E4F0A304F07F207E307D007C3C
:10AC360000128153908AB1E0FCA3E0FD7F017E0003
:10AC460012EF37908AAEE0FBA3E0FAA3E0F990009A
:10AC56000EEE8FF01243F37B017A8A79B1908B6501
:10AC6600E4F0A304F07F907E107D007C00128153F7
:10AC7600908AB1E0FEA3E0FF908AAEE0FBA3E0FA83
:10AC8600A3E0F9900010EE8FF01243F37B017A8A6D
:10AC960079B1908B65E4F0A304F07F257E307D00CA
:10ACA6007C00128153908AB1E0FEA3E0FF12F48586
:10ACB600908AAEE0FBA3E0FAA3E0F9900012EE8FD3
:10ACC600F01243F37F0AEFC3941874809480501EE9
:10ACD600908AAEE0FBA3E0FAA3E0F975F002EFA4D8
:0EACE600F58285F083E4F5F01243F30F80D879
:01ACF400223D
:0BE18200908AAAEBF0A3EAF0A3E9F0FA
:10E18D00908076E070037F0122E4908AADF0908A52
:10E19D00ADE0FFC3941874809480503C908AAAE03F
:10E1AD00FBA3E0FAA3E0F975F002EFA4F58285F088
:10E1BD008312439CFDEF25E024DEF582E43481F5E6
:10E1CD0083E0FEA3E06D7003EE65F060037F012236
:0AE1DD00908AADE004F080B67F00E8
:01E1E7002215
:0BEA8000908AE9EBF0A3EAF0A3E9F0B4
:10EA8B00E4FFEFC3941874809480502E908AE9E0D1
:10EA9B00FBA3E0FAA3E0F975F002EFA4F58285F091
:10EAAB008312439CFDEF25E024DEF582E43481F5EF
